{"contracts/CarmelTreasury.sol":{"CarmelTreasury":{"abi":[{"inputs":[],"stateMutability":"nonpayable","type":"constructor"},{"inputs":[],"name":"CarmelErrorAccountAlreadyExists","type":"error"},{"inputs":[],"name":"CarmelErrorAccountDoesNotExist","type":"error"},{"inputs":[],"name":"CarmelErrorAccountInvalidKeyId","type":"error"},{"inputs":[],"name":"CarmelErrorCannotWithdrawInsufficientFunds","type":"error"},{"inputs":[],"name":"CarmelErrorCannotWithdrawZeroAmount","type":"error"},{"inputs":[],"name":"CarmelErrorPermissionsAdminLevelRequired","type":"error"},{"inputs":[],"name":"CarmelErrorPermissionsSentinelLevelRequired","type":"error"},{"inputs":[],"name":"CarmelErrorUnauthorizedAccount","type":"error"},{"inputs":[],"name":"InvalidInitialization","type":"error"},{"inputs":[],"name":"NotInitializing","type":"error"},{"anonymous":false,"inputs":[{"indexed":false,"internalType":"bytes32","name":"username","type":"bytes32"},{"indexed":false,"internalType":"uint256","name":"amount","type":"uint256"}],"name":"CarmelDeposit","type":"event"},{"anonymous":false,"inputs":[{"indexed":false,"internalType":"uint64","name":"version","type":"uint64"}],"name":"Initialized","type":"event"},{"inputs":[{"internalType":"bytes32","name":"username","type":"bytes32"}],"name":"deposit","outputs":[],"stateMutability":"payable","type":"function"},{"inputs":[{"internalType":"bytes32","name":"username","type":"bytes32"}],"name":"getBalance","outputs":[{"internalType":"uint256","name":"","type":"uint256"}],"stateMutability":"view","type":"function"},{"inputs":[{"internalType":"address","name":"sender","type":"address"},{"internalType":"address","name":"reg","type":"address"}],"name":"initialize","outputs":[],"stateMutability":"nonpayable","type":"function"},{"inputs":[{"internalType":"address payable","name":"to","type":"address"},{"internalType":"uint256","name":"amount","type":"uint256"},{"components":[{"internalType":"uint256","name":"keyId","type":"uint256"},{"internalType":"bytes32","name":"username","type":"bytes32"},{"internalType":"bytes32","name":"message","type":"bytes32"},{"internalType":"bytes","name":"signature","type":"bytes"}],"internalType":"struct CarmelBase.CarmelFingerprint","name":"fingerprint","type":"tuple"}],"name":"withdraw","outputs":[],"stateMutability":"payable","type":"function"}],"evm":{"bytecode":{"linkReferences":{},"object":"608060405234801561001057600080fd5b5061002b676f6bdefa6e76637260c01b61007260201b60201c565b6100456776e26a9281d2800760c01b61007260201b60201c565b61005f675d673ca539a53fbc60c01b61007260201b60201c565b61006d61007560201b60201c565b6101df565b50565b600061008561017960201b60201c565b90508060000160089054906101000a900460ff16156100d0576040517ff92ee8a900000000000000000000000000000000000000000000000000000000815260040160405180910390fd5b67ffffffffffffffff80168160000160009054906101000a900467ffffffffffffffff1667ffffffffffffffff16146101765767ffffffffffffffff8160000160006101000a81548167ffffffffffffffff021916908367ffffffffffffffff1602179055507fc7f505b2f371ae2175ee4913f4499e1f2633a7b5936321eed1cdaeb6115181d267ffffffffffffffff60405161016d91906101c4565b60405180910390a15b50565b60007ff0c57e16840df040f15088dc2f81fe391c3923bec73e23a9662efc9c229c6a00905090565b600067ffffffffffffffff82169050919050565b6101be816101a1565b82525050565b60006020820190506101d960008301846101b5565b92915050565b610cfa806101ee6000396000f3fe60806040526004361061003f5760003560e01c8063485cc955146100445780634ce2e2b71461006d5780638e73946114610089578063b214faa5146100c6575b600080fd5b34801561005057600080fd5b5061006b600480360381019061006691906107b9565b6100e2565b005b61008760048036038101906100829190610891565b61034f565b005b34801561009557600080fd5b506100b060048036038101906100ab9190610936565b610619565b6040516100bd9190610972565b60405180910390f35b6100e060048036038101906100db9190610936565b610671565b005b6100f667a13b2dfd52470e3a60c01b610726565b6000610100610729565b905060008160000160089054906101000a900460ff1615905060008260000160009054906101000a900467ffffffffffffffff1690506000808267ffffffffffffffff1614801561014e5750825b9050600060018367ffffffffffffffff16148015610183575060003073ffffffffffffffffffffffffffffffffffffffff163b145b905081158015610191575080155b156101c8576040517ff92ee8a900000000000000000000000000000000000000000000000000000000815260040160405180910390fd5b60018560000160006101000a81548167ffffffffffffffff021916908367ffffffffffffffff16021790555083156102185760018560000160086101000a81548160ff0219169083151502179055505b61022c678e5afaa2602721db60c01b610726565b6102406740d0fc5dbfd675a860c01b610726565b61025467db44852f4ddc461c60c01b610726565b86600260006101000a81548173ffffffffffffffffffffffffffffffffffffffff021916908373ffffffffffffffffffffffffffffffffffffffff1602179055506102a967eb70008039428f6c60c01b610726565b85600160006101000a81548173ffffffffffffffffffffffffffffffffffffffff021916908373ffffffffffffffffffffffffffffffffffffffff16021790555083156103465760008560000160086101000a81548160ff0219169083151502179055507fc7f505b2f371ae2175ee4913f4499e1f2633a7b5936321eed1cdaeb6115181d2600160405161033d91906109e6565b60405180910390a15b50505050505050565b610363678ed9c8e111ca48df60c01b610726565b6103776724f2c81d0039621760c01b610726565b61038b67ecb7a69480765e4f60c01b610726565b600082116103d9576103a767284099520f49aabb60c01b610726565b6040517fa6e8bca500000000000000000000000000000000000000000000000000000000815260040160405180910390fd5b6103ed671aee8292c97b412e60c01b610726565b61040167a0bb106136b1752a60c01b610726565b6104156720768f971f82b48760c01b610726565b600160009054906101000a900473ffffffffffffffffffffffffffffffffffffffff1673ffffffffffffffffffffffffffffffffffffffff16634a5af4e0826040518263ffffffff1660e01b81526004016104709190610ba2565b602060405180830381865afa15801561048d573d6000803e3d6000fd5b505050506040513d601f19601f820116820180604052508101906104b19190610bfc565b6104fb576104c967d5da153b0ba05c9560c01b610726565b6040517f9fd8ceca00000000000000000000000000000000000000000000000000000000815260040160405180910390fd5b61050f67c66c6caa6a81f37860c01b610726565b61052367fb3dc6b95b47cddf60c01b610726565b6105376756ef4da8126ce74760c01b610726565b816105458260200135610619565b10156105915761055f67f41e86a45622696660c01b610726565b6040517f790edb6900000000000000000000000000000000000000000000000000000000815260040160405180910390fd5b6105a567c024fd44daedbc4560c01b610726565b6105b96781a7d1fcfac7251f60c01b610726565b6105cd67504ca26992450d1260c01b610726565b8273ffffffffffffffffffffffffffffffffffffffff166108fc839081150290604051600060405180830381858888f19350505050158015610613573d6000803e3d6000fd5b50505050565b600061062f6713765fd4097fe3b060c01b610726565b6106436771fca5197be0eae760c01b610726565b61065767f54ceb62d984558b60c01b610726565b600080838152602001908152602001600020549050919050565b61068567efe7a27888c4f81a60c01b610726565b61069967bc9bbd5f59a6d22e60c01b610726565b3460008083815260200190815260200160002060008282546106bb9190610c58565b925050819055506106d667f7966b111ad32d3d60c01b610726565b6106ea67e7422501800d174f60c01b610726565b7f678e834f675c240497a0defda44cd2ec81d923da49672eb1a2cbb21ca189ed76813460405161071b929190610c9b565b60405180910390a150565b50565b60007ff0c57e16840df040f15088dc2f81fe391c3923bec73e23a9662efc9c229c6a00905090565b600080fd5b600080fd5b600073ffffffffffffffffffffffffffffffffffffffff82169050919050565b60006107868261075b565b9050919050565b6107968161077b565b81146107a157600080fd5b50565b6000813590506107b38161078d565b92915050565b600080604083850312156107d0576107cf610751565b5b60006107de858286016107a4565b92505060206107ef858286016107a4565b9150509250929050565b60006108048261075b565b9050919050565b610814816107f9565b811461081f57600080fd5b50565b6000813590506108318161080b565b92915050565b6000819050919050565b61084a81610837565b811461085557600080fd5b50565b60008135905061086781610841565b92915050565b600080fd5b6000608082840312156108885761088761086d565b5b81905092915050565b6000806000606084860312156108aa576108a9610751565b5b60006108b886828701610822565b93505060206108c986828701610858565b925050604084013567ffffffffffffffff8111156108ea576108e9610756565b5b6108f686828701610872565b9150509250925092565b6000819050919050565b61091381610900565b811461091e57600080fd5b50565b6000813590506109308161090a565b92915050565b60006020828403121561094c5761094b610751565b5b600061095a84828501610921565b91505092915050565b61096c81610837565b82525050565b60006020820190506109876000830184610963565b92915050565b6000819050919050565b600067ffffffffffffffff82169050919050565b6000819050919050565b60006109d06109cb6109c68461098d565b6109ab565b610997565b9050919050565b6109e0816109b5565b82525050565b60006020820190506109fb60008301846109d7565b92915050565b6000610a106020840184610858565b905092915050565b610a2181610837565b82525050565b6000610a366020840184610921565b905092915050565b610a4781610900565b82525050565b600080fd5b600080fd5b600080fd5b60008083356001602003843603038112610a7957610a78610a57565b5b83810192508235915060208301925067ffffffffffffffff821115610aa157610aa0610a4d565b5b600182023603831315610ab757610ab6610a52565b5b509250929050565b600082825260208201905092915050565b82818337600083830152505050565b6000601f19601f8301169050919050565b6000610afc8385610abf565b9350610b09838584610ad0565b610b1283610adf565b840190509392505050565b600060808301610b306000840184610a01565b610b3d6000860182610a18565b50610b4b6020840184610a27565b610b586020860182610a3e565b50610b666040840184610a27565b610b736040860182610a3e565b50610b816060840184610a5c565b8583036060870152610b94838284610af0565b925050508091505092915050565b60006020820190508181036000830152610bbc8184610b1d565b905092915050565b60008115159050919050565b610bd981610bc4565b8114610be457600080fd5b50565b600081519050610bf681610bd0565b92915050565b600060208284031215610c1257610c11610751565b5b6000610c2084828501610be7565b91505092915050565b7f4e487b7100000000000000000000000000000000000000000000000000000000600052601160045260246000fd5b6000610c6382610837565b9150610c6e83610837565b9250828201905080821115610c8657610c85610c29565b5b92915050565b610c9581610900565b82525050565b6000604082019050610cb06000830185610c8c565b610cbd6020830184610963565b939250505056fea26469706673582212203b83f62537ce38062ad47bd5c4ec010425e44f9dd9176994cd7c310efa37d0b764736f6c634300081c0033","opcodes":"PUSH1 0x80 PUSH1 0x40 MSTORE CALLVALUE DUP1 ISZERO PUSH2 0x10 JUMPI PUSH1 0x0 DUP1 REVERT JUMPDEST POP PUSH2 0x2B PUSH8 0x6F6BDEFA6E766372 PUSH1 0xC0 SHL PUSH2 0x72 PUSH1 0x20 SHL PUSH1 0x20 SHR JUMP JUMPDEST PUSH2 0x45 PUSH8 0x76E26A9281D28007 PUSH1 0xC0 SHL PUSH2 0x72 PUSH1 0x20 SHL PUSH1 0x20 SHR JUMP JUMPDEST PUSH2 0x5F PUSH8 0x5D673CA539A53FBC PUSH1 0xC0 SHL PUSH2 0x72 PUSH1 0x20 SHL PUSH1 0x20 SHR JUMP JUMPDEST PUSH2 0x6D PUSH2 0x75 PUSH1 0x20 SHL PUSH1 0x20 SHR JUMP JUMPDEST PUSH2 0x1DF JUMP JUMPDEST POP JUMP JUMPDEST PUSH1 0x0 PUSH2 0x85 PUSH2 0x179 PUSH1 0x20 SHL PUSH1 0x20 SHR JUMP JUMPDEST SWAP1 POP DUP1 PUSH1 0x0 ADD PUSH1 0x8 SWAP1 SLOAD SWAP1 PUSH2 0x100 EXP SWAP1 DIV PUSH1 0xFF AND ISZERO PUSH2 0xD0 JUMPI PUSH1 0x40 MLOAD PUSH32 0xF92EE8A900000000000000000000000000000000000000000000000000000000 DUP2 MSTORE PUSH1 0x4 ADD PUSH1 0x40 MLOAD DUP1 SWAP2 SUB SWAP1 REVERT JUMPDEST PUSH8 0xFFFFFFFFFFFFFFFF DUP1 AND DUP2 PUSH1 0x0 ADD PUSH1 0x0 SWAP1 SLOAD SWAP1 PUSH2 0x100 EXP SWAP1 DIV PUSH8 0xFFFFFFFFFFFFFFFF AND PUSH8 0xFFFFFFFFFFFFFFFF AND EQ PUSH2 0x176 JUMPI PUSH8 0xFFFFFFFFFFFFFFFF DUP2 PUSH1 0x0 ADD PUSH1 0x0 PUSH2 0x100 EXP DUP2 SLOAD DUP2 PUSH8 0xFFFFFFFFFFFFFFFF MUL NOT AND SWAP1 DUP4 PUSH8 0xFFFFFFFFFFFFFFFF AND MUL OR SWAP1 SSTORE POP PUSH32 0xC7F505B2F371AE2175EE4913F4499E1F2633A7B5936321EED1CDAEB6115181D2 PUSH8 0xFFFFFFFFFFFFFFFF PUSH1 0x40 MLOAD PUSH2 0x16D SWAP2 SWAP1 PUSH2 0x1C4 JUMP JUMPDEST PUSH1 0x40 MLOAD DUP1 SWAP2 SUB SWAP1 LOG1 JUMPDEST POP JUMP JUMPDEST PUSH1 0x0 PUSH32 0xF0C57E16840DF040F15088DC2F81FE391C3923BEC73E23A9662EFC9C229C6A00 SWAP1 POP SWAP1 JUMP JUMPDEST PUSH1 0x0 PUSH8 0xFFFFFFFFFFFFFFFF DUP3 AND SWAP1 POP SWAP2 SWAP1 POP JUMP JUMPDEST PUSH2 0x1BE DUP2 PUSH2 0x1A1 JUMP JUMPDEST DUP3 MSTORE POP POP JUMP JUMPDEST PUSH1 0x0 PUSH1 0x20 DUP3 ADD SWAP1 POP PUSH2 0x1D9 PUSH1 0x0 DUP4 ADD DUP5 PUSH2 0x1B5 JUMP JUMPDEST SWAP3 SWAP2 POP POP JUMP JUMPDEST PUSH2 0xCFA DUP1 PUSH2 0x1EE PUSH1 0x0 CODECOPY PUSH1 0x0 RETURN INVALID PUSH1 0x80 PUSH1 0x40 MSTORE PUSH1 0x4 CALLDATASIZE LT PUSH2 0x3F JUMPI PUSH1 0x0 CALLDATALOAD PUSH1 0xE0 SHR DUP1 PUSH4 0x485CC955 EQ PUSH2 0x44 JUMPI DUP1 PUSH4 0x4CE2E2B7 EQ PUSH2 0x6D JUMPI DUP1 PUSH4 0x8E739461 EQ PUSH2 0x89 JUMPI DUP1 PUSH4 0xB214FAA5 EQ PUSH2 0xC6 JUMPI JUMPDEST PUSH1 0x0 DUP1 REVERT JUMPDEST CALLVALUE DUP1 ISZERO PUSH2 0x50 JUMPI PUSH1 0x0 DUP1 REVERT JUMPDEST POP PUSH2 0x6B PUSH1 0x4 DUP1 CALLDATASIZE SUB DUP2 ADD SWAP1 PUSH2 0x66 SWAP2 SWAP1 PUSH2 0x7B9 JUMP JUMPDEST PUSH2 0xE2 JUMP JUMPDEST STOP JUMPDEST PUSH2 0x87 PUSH1 0x4 DUP1 CALLDATASIZE SUB DUP2 ADD SWAP1 PUSH2 0x82 SWAP2 SWAP1 PUSH2 0x891 JUMP JUMPDEST PUSH2 0x34F JUMP JUMPDEST STOP JUMPDEST CALLVALUE DUP1 ISZERO PUSH2 0x95 JUMPI PUSH1 0x0 DUP1 REVERT JUMPDEST POP PUSH2 0xB0 PUSH1 0x4 DUP1 CALLDATASIZE SUB DUP2 ADD SWAP1 PUSH2 0xAB SWAP2 SWAP1 PUSH2 0x936 JUMP JUMPDEST PUSH2 0x619 JUMP JUMPDEST PUSH1 0x40 MLOAD PUSH2 0xBD SWAP2 SWAP1 PUSH2 0x972 JUMP JUMPDEST PUSH1 0x40 MLOAD DUP1 SWAP2 SUB SWAP1 RETURN JUMPDEST PUSH2 0xE0 PUSH1 0x4 DUP1 CALLDATASIZE SUB DUP2 ADD SWAP1 PUSH2 0xDB SWAP2 SWAP1 PUSH2 0x936 JUMP JUMPDEST PUSH2 0x671 JUMP JUMPDEST STOP JUMPDEST PUSH2 0xF6 PUSH8 0xA13B2DFD52470E3A PUSH1 0xC0 SHL PUSH2 0x726 JUMP JUMPDEST PUSH1 0x0 PUSH2 0x100 PUSH2 0x729 JUMP JUMPDEST SWAP1 POP PUSH1 0x0 DUP2 PUSH1 0x0 ADD PUSH1 0x8 SWAP1 SLOAD SWAP1 PUSH2 0x100 EXP SWAP1 DIV PUSH1 0xFF AND ISZERO SWAP1 POP PUSH1 0x0 DUP3 PUSH1 0x0 ADD PUSH1 0x0 SWAP1 SLOAD SWAP1 PUSH2 0x100 EXP SWAP1 DIV PUSH8 0xFFFFFFFFFFFFFFFF AND SWAP1 POP PUSH1 0x0 DUP1 DUP3 PUSH8 0xFFFFFFFFFFFFFFFF AND EQ DUP1 ISZERO PUSH2 0x14E JUMPI POP DUP3 JUMPDEST SWAP1 POP PUSH1 0x0 PUSH1 0x1 DUP4 PUSH8 0xFFFFFFFFFFFFFFFF AND EQ DUP1 ISZERO PUSH2 0x183 JUMPI POP PUSH1 0x0 ADDRESS PUSH20 0xFFFFFFFFFFFFFFFFFFFFFFFFFFFFFFFFFFFFFFFF AND EXTCODESIZE EQ JUMPDEST SWAP1 POP DUP2 ISZERO DUP1 ISZERO PUSH2 0x191 JUMPI POP DUP1 ISZERO JUMPDEST ISZERO PUSH2 0x1C8 JUMPI PUSH1 0x40 MLOAD PUSH32 0xF92EE8A900000000000000000000000000000000000000000000000000000000 DUP2 MSTORE PUSH1 0x4 ADD PUSH1 0x40 MLOAD DUP1 SWAP2 SUB SWAP1 REVERT JUMPDEST PUSH1 0x1 DUP6 PUSH1 0x0 ADD PUSH1 0x0 PUSH2 0x100 EXP DUP2 SLOAD DUP2 PUSH8 0xFFFFFFFFFFFFFFFF MUL NOT AND SWAP1 DUP4 PUSH8 0xFFFFFFFFFFFFFFFF AND MUL OR SWAP1 SSTORE POP DUP4 ISZERO PUSH2 0x218 JUMPI PUSH1 0x1 DUP6 PUSH1 0x0 ADD PUSH1 0x8 PUSH2 0x100 EXP DUP2 SLOAD DUP2 PUSH1 0xFF MUL NOT AND SWAP1 DUP4 ISZERO ISZERO MUL OR SWAP1 SSTORE POP JUMPDEST PUSH2 0x22C PUSH8 0x8E5AFAA2602721DB PUSH1 0xC0 SHL PUSH2 0x726 JUMP JUMPDEST PUSH2 0x240 PUSH8 0x40D0FC5DBFD675A8 PUSH1 0xC0 SHL PUSH2 0x726 JUMP JUMPDEST PUSH2 0x254 PUSH8 0xDB44852F4DDC461C PUSH1 0xC0 SHL PUSH2 0x726 JUMP JUMPDEST DUP7 PUSH1 0x2 PUSH1 0x0 PUSH2 0x100 EXP DUP2 SLOAD DUP2 PUSH20 0xFFFFFFFFFFFFFFFFFFFFFFFFFFFFFFFFFFFFFFFF MUL NOT AND SWAP1 DUP4 PUSH20 0xFFFFFFFFFFFFFFFFFFFFFFFFFFFFFFFFFFFFFFFF AND MUL OR SWAP1 SSTORE POP PUSH2 0x2A9 PUSH8 0xEB70008039428F6C PUSH1 0xC0 SHL PUSH2 0x726 JUMP JUMPDEST DUP6 PUSH1 0x1 PUSH1 0x0 PUSH2 0x100 EXP DUP2 SLOAD DUP2 PUSH20 0xFFFFFFFFFFFFFFFFFFFFFFFFFFFFFFFFFFFFFFFF MUL NOT AND SWAP1 DUP4 PUSH20 0xFFFFFFFFFFFFFFFFFFFFFFFFFFFFFFFFFFFFFFFF AND MUL OR SWAP1 SSTORE POP DUP4 ISZERO PUSH2 0x346 JUMPI PUSH1 0x0 DUP6 PUSH1 0x0 ADD PUSH1 0x8 PUSH2 0x100 EXP DUP2 SLOAD DUP2 PUSH1 0xFF MUL NOT AND SWAP1 DUP4 ISZERO ISZERO MUL OR SWAP1 SSTORE POP PUSH32 0xC7F505B2F371AE2175EE4913F4499E1F2633A7B5936321EED1CDAEB6115181D2 PUSH1 0x1 PUSH1 0x40 MLOAD PUSH2 0x33D SWAP2 SWAP1 PUSH2 0x9E6 JUMP JUMPDEST PUSH1 0x40 MLOAD DUP1 SWAP2 SUB SWAP1 LOG1 JUMPDEST POP POP POP POP POP POP POP JUMP JUMPDEST PUSH2 0x363 PUSH8 0x8ED9C8E111CA48DF PUSH1 0xC0 SHL PUSH2 0x726 JUMP JUMPDEST PUSH2 0x377 PUSH8 0x24F2C81D00396217 PUSH1 0xC0 SHL PUSH2 0x726 JUMP JUMPDEST PUSH2 0x38B PUSH8 0xECB7A69480765E4F PUSH1 0xC0 SHL PUSH2 0x726 JUMP JUMPDEST PUSH1 0x0 DUP3 GT PUSH2 0x3D9 JUMPI PUSH2 0x3A7 PUSH8 0x284099520F49AABB PUSH1 0xC0 SHL PUSH2 0x726 JUMP JUMPDEST PUSH1 0x40 MLOAD PUSH32 0xA6E8BCA500000000000000000000000000000000000000000000000000000000 DUP2 MSTORE PUSH1 0x4 ADD PUSH1 0x40 MLOAD DUP1 SWAP2 SUB SWAP1 REVERT JUMPDEST PUSH2 0x3ED PUSH8 0x1AEE8292C97B412E PUSH1 0xC0 SHL PUSH2 0x726 JUMP JUMPDEST PUSH2 0x401 PUSH8 0xA0BB106136B1752A PUSH1 0xC0 SHL PUSH2 0x726 JUMP JUMPDEST PUSH2 0x415 PUSH8 0x20768F971F82B487 PUSH1 0xC0 SHL PUSH2 0x726 JUMP JUMPDEST PUSH1 0x1 PUSH1 0x0 SWAP1 SLOAD SWAP1 PUSH2 0x100 EXP SWAP1 DIV PUSH20 0xFFFFFFFFFFFFFFFFFFFFFFFFFFFFFFFFFFFFFFFF AND PUSH20 0xFFFFFFFFFFFFFFFFFFFFFFFFFFFFFFFFFFFFFFFF AND PUSH4 0x4A5AF4E0 DUP3 PUSH1 0x40 MLOAD DUP3 PUSH4 0xFFFFFFFF AND PUSH1 0xE0 SHL DUP2 MSTORE PUSH1 0x4 ADD PUSH2 0x470 SWAP2 SWAP1 PUSH2 0xBA2 JUMP JUMPDEST PUSH1 0x20 PUSH1 0x40 MLOAD DUP1 DUP4 SUB DUP2 DUP7 GAS STATICCALL ISZERO DUP1 ISZERO PUSH2 0x48D JUMPI RETURNDATASIZE PUSH1 0x0 DUP1 RETURNDATACOPY RETURNDATASIZE PUSH1 0x0 REVERT JUMPDEST POP POP POP POP PUSH1 0x40 MLOAD RETURNDATASIZE PUSH1 0x1F NOT PUSH1 0x1F DUP3 ADD AND DUP3 ADD DUP1 PUSH1 0x40 MSTORE POP DUP2 ADD SWAP1 PUSH2 0x4B1 SWAP2 SWAP1 PUSH2 0xBFC JUMP JUMPDEST PUSH2 0x4FB JUMPI PUSH2 0x4C9 PUSH8 0xD5DA153B0BA05C95 PUSH1 0xC0 SHL PUSH2 0x726 JUMP JUMPDEST PUSH1 0x40 MLOAD PUSH32 0x9FD8CECA00000000000000000000000000000000000000000000000000000000 DUP2 MSTORE PUSH1 0x4 ADD PUSH1 0x40 MLOAD DUP1 SWAP2 SUB SWAP1 REVERT JUMPDEST PUSH2 0x50F PUSH8 0xC66C6CAA6A81F378 PUSH1 0xC0 SHL PUSH2 0x726 JUMP JUMPDEST PUSH2 0x523 PUSH8 0xFB3DC6B95B47CDDF PUSH1 0xC0 SHL PUSH2 0x726 JUMP JUMPDEST PUSH2 0x537 PUSH8 0x56EF4DA8126CE747 PUSH1 0xC0 SHL PUSH2 0x726 JUMP JUMPDEST DUP2 PUSH2 0x545 DUP3 PUSH1 0x20 ADD CALLDATALOAD PUSH2 0x619 JUMP JUMPDEST LT ISZERO PUSH2 0x591 JUMPI PUSH2 0x55F PUSH8 0xF41E86A456226966 PUSH1 0xC0 SHL PUSH2 0x726 JUMP JUMPDEST PUSH1 0x40 MLOAD PUSH32 0x790EDB6900000000000000000000000000000000000000000000000000000000 DUP2 MSTORE PUSH1 0x4 ADD PUSH1 0x40 MLOAD DUP1 SWAP2 SUB SWAP1 REVERT JUMPDEST PUSH2 0x5A5 PUSH8 0xC024FD44DAEDBC45 PUSH1 0xC0 SHL PUSH2 0x726 JUMP JUMPDEST PUSH2 0x5B9 PUSH8 0x81A7D1FCFAC7251F PUSH1 0xC0 SHL PUSH2 0x726 JUMP JUMPDEST PUSH2 0x5CD PUSH8 0x504CA26992450D12 PUSH1 0xC0 SHL PUSH2 0x726 JUMP JUMPDEST DUP3 PUSH20 0xFFFFFFFFFFFFFFFFFFFFFFFFFFFFFFFFFFFFFFFF AND PUSH2 0x8FC DUP4 SWAP1 DUP2 ISZERO MUL SWAP1 PUSH1 0x40 MLOAD PUSH1 0x0 PUSH1 0x40 MLOAD DUP1 DUP4 SUB DUP2 DUP6 DUP9 DUP9 CALL SWAP4 POP POP POP POP ISZERO DUP1 ISZERO PUSH2 0x613 JUMPI RETURNDATASIZE PUSH1 0x0 DUP1 RETURNDATACOPY RETURNDATASIZE PUSH1 0x0 REVERT JUMPDEST POP POP POP POP JUMP JUMPDEST PUSH1 0x0 PUSH2 0x62F PUSH8 0x13765FD4097FE3B0 PUSH1 0xC0 SHL PUSH2 0x726 JUMP JUMPDEST PUSH2 0x643 PUSH8 0x71FCA5197BE0EAE7 PUSH1 0xC0 SHL PUSH2 0x726 JUMP JUMPDEST PUSH2 0x657 PUSH8 0xF54CEB62D984558B PUSH1 0xC0 SHL PUSH2 0x726 JUMP JUMPDEST PUSH1 0x0 DUP1 DUP4 DUP2 MSTORE PUSH1 0x20 ADD SWAP1 DUP2 MSTORE PUSH1 0x20 ADD PUSH1 0x0 KECCAK256 SLOAD SWAP1 POP SWAP2 SWAP1 POP JUMP JUMPDEST PUSH2 0x685 PUSH8 0xEFE7A27888C4F81A PUSH1 0xC0 SHL PUSH2 0x726 JUMP JUMPDEST PUSH2 0x699 PUSH8 0xBC9BBD5F59A6D22E PUSH1 0xC0 SHL PUSH2 0x726 JUMP JUMPDEST CALLVALUE PUSH1 0x0 DUP1 DUP4 DUP2 MSTORE PUSH1 0x20 ADD SWAP1 DUP2 MSTORE PUSH1 0x20 ADD PUSH1 0x0 KECCAK256 PUSH1 0x0 DUP3 DUP3 SLOAD PUSH2 0x6BB SWAP2 SWAP1 PUSH2 0xC58 JUMP JUMPDEST SWAP3 POP POP DUP2 SWAP1 SSTORE POP PUSH2 0x6D6 PUSH8 0xF7966B111AD32D3D PUSH1 0xC0 SHL PUSH2 0x726 JUMP JUMPDEST PUSH2 0x6EA PUSH8 0xE7422501800D174F PUSH1 0xC0 SHL PUSH2 0x726 JUMP JUMPDEST PUSH32 0x678E834F675C240497A0DEFDA44CD2EC81D923DA49672EB1A2CBB21CA189ED76 DUP2 CALLVALUE PUSH1 0x40 MLOAD PUSH2 0x71B SWAP3 SWAP2 SWAP1 PUSH2 0xC9B JUMP JUMPDEST PUSH1 0x40 MLOAD DUP1 SWAP2 SUB SWAP1 LOG1 POP JUMP JUMPDEST POP JUMP JUMPDEST PUSH1 0x0 PUSH32 0xF0C57E16840DF040F15088DC2F81FE391C3923BEC73E23A9662EFC9C229C6A00 SWAP1 POP SWAP1 JUMP JUMPDEST PUSH1 0x0 DUP1 REVERT JUMPDEST PUSH1 0x0 DUP1 REVERT JUMPDEST PUSH1 0x0 PUSH20 0xFFFFFFFFFFFFFFFFFFFFFFFFFFFFFFFFFFFFFFFF DUP3 AND SWAP1 POP SWAP2 SWAP1 POP JUMP JUMPDEST PUSH1 0x0 PUSH2 0x786 DUP3 PUSH2 0x75B JUMP JUMPDEST SWAP1 POP SWAP2 SWAP1 POP JUMP JUMPDEST PUSH2 0x796 DUP2 PUSH2 0x77B JUMP JUMPDEST DUP2 EQ PUSH2 0x7A1 JUMPI PUSH1 0x0 DUP1 REVERT JUMPDEST POP JUMP JUMPDEST PUSH1 0x0 DUP2 CALLDATALOAD SWAP1 POP PUSH2 0x7B3 DUP2 PUSH2 0x78D JUMP JUMPDEST SWAP3 SWAP2 POP POP JUMP JUMPDEST PUSH1 0x0 DUP1 PUSH1 0x40 DUP4 DUP6 SUB SLT ISZERO PUSH2 0x7D0 JUMPI PUSH2 0x7CF PUSH2 0x751 JUMP JUMPDEST JUMPDEST PUSH1 0x0 PUSH2 0x7DE DUP6 DUP3 DUP7 ADD PUSH2 0x7A4 JUMP JUMPDEST SWAP3 POP POP PUSH1 0x20 PUSH2 0x7EF DUP6 DUP3 DUP7 ADD PUSH2 0x7A4 JUMP JUMPDEST SWAP2 POP POP SWAP3 POP SWAP3 SWAP1 POP JUMP JUMPDEST PUSH1 0x0 PUSH2 0x804 DUP3 PUSH2 0x75B JUMP JUMPDEST SWAP1 POP SWAP2 SWAP1 POP JUMP JUMPDEST PUSH2 0x814 DUP2 PUSH2 0x7F9 JUMP JUMPDEST DUP2 EQ PUSH2 0x81F JUMPI PUSH1 0x0 DUP1 REVERT JUMPDEST POP JUMP JUMPDEST PUSH1 0x0 DUP2 CALLDATALOAD SWAP1 POP PUSH2 0x831 DUP2 PUSH2 0x80B JUMP JUMPDEST SWAP3 SWAP2 POP POP JUMP JUMPDEST PUSH1 0x0 DUP2 SWAP1 POP SWAP2 SWAP1 POP JUMP JUMPDEST PUSH2 0x84A DUP2 PUSH2 0x837 JUMP JUMPDEST DUP2 EQ PUSH2 0x855 JUMPI PUSH1 0x0 DUP1 REVERT JUMPDEST POP JUMP JUMPDEST PUSH1 0x0 DUP2 CALLDATALOAD SWAP1 POP PUSH2 0x867 DUP2 PUSH2 0x841 JUMP JUMPDEST SWAP3 SWAP2 POP POP JUMP JUMPDEST PUSH1 0x0 DUP1 REVERT JUMPDEST PUSH1 0x0 PUSH1 0x80 DUP3 DUP5 SUB SLT ISZERO PUSH2 0x888 JUMPI PUSH2 0x887 PUSH2 0x86D JUMP JUMPDEST JUMPDEST DUP2 SWAP1 POP SWAP3 SWAP2 POP POP JUMP JUMPDEST PUSH1 0x0 DUP1 PUSH1 0x0 PUSH1 0x60 DUP5 DUP7 SUB SLT ISZERO PUSH2 0x8AA JUMPI PUSH2 0x8A9 PUSH2 0x751 JUMP JUMPDEST JUMPDEST PUSH1 0x0 PUSH2 0x8B8 DUP7 DUP3 DUP8 ADD PUSH2 0x822 JUMP JUMPDEST SWAP4 POP POP PUSH1 0x20 PUSH2 0x8C9 DUP7 DUP3 DUP8 ADD PUSH2 0x858 JUMP JUMPDEST SWAP3 POP POP PUSH1 0x40 DUP5 ADD CALLDATALOAD PUSH8 0xFFFFFFFFFFFFFFFF DUP2 GT ISZERO PUSH2 0x8EA JUMPI PUSH2 0x8E9 PUSH2 0x756 JUMP JUMPDEST JUMPDEST PUSH2 0x8F6 DUP7 DUP3 DUP8 ADD PUSH2 0x872 JUMP JUMPDEST SWAP2 POP POP SWAP3 POP SWAP3 POP SWAP3 JUMP JUMPDEST PUSH1 0x0 DUP2 SWAP1 POP SWAP2 SWAP1 POP JUMP JUMPDEST PUSH2 0x913 DUP2 PUSH2 0x900 JUMP JUMPDEST DUP2 EQ PUSH2 0x91E JUMPI PUSH1 0x0 DUP1 REVERT JUMPDEST POP JUMP JUMPDEST PUSH1 0x0 DUP2 CALLDATALOAD SWAP1 POP PUSH2 0x930 DUP2 PUSH2 0x90A JUMP JUMPDEST SWAP3 SWAP2 POP POP JUMP JUMPDEST PUSH1 0x0 PUSH1 0x20 DUP3 DUP5 SUB SLT ISZERO PUSH2 0x94C JUMPI PUSH2 0x94B PUSH2 0x751 JUMP JUMPDEST JUMPDEST PUSH1 0x0 PUSH2 0x95A DUP5 DUP3 DUP6 ADD PUSH2 0x921 JUMP JUMPDEST SWAP2 POP POP SWAP3 SWAP2 POP POP JUMP JUMPDEST PUSH2 0x96C DUP2 PUSH2 0x837 JUMP JUMPDEST DUP3 MSTORE POP POP JUMP JUMPDEST PUSH1 0x0 PUSH1 0x20 DUP3 ADD SWAP1 POP PUSH2 0x987 PUSH1 0x0 DUP4 ADD DUP5 PUSH2 0x963 JUMP JUMPDEST SWAP3 SWAP2 POP POP JUMP JUMPDEST PUSH1 0x0 DUP2 SWAP1 POP SWAP2 SWAP1 POP JUMP JUMPDEST PUSH1 0x0 PUSH8 0xFFFFFFFFFFFFFFFF DUP3 AND SWAP1 POP SWAP2 SWAP1 POP JUMP JUMPDEST PUSH1 0x0 DUP2 SWAP1 POP SWAP2 SWAP1 POP JUMP JUMPDEST PUSH1 0x0 PUSH2 0x9D0 PUSH2 0x9CB PUSH2 0x9C6 DUP5 PUSH2 0x98D JUMP JUMPDEST PUSH2 0x9AB JUMP JUMPDEST PUSH2 0x997 JUMP JUMPDEST SWAP1 POP SWAP2 SWAP1 POP JUMP JUMPDEST PUSH2 0x9E0 DUP2 PUSH2 0x9B5 JUMP JUMPDEST DUP3 MSTORE POP POP JUMP JUMPDEST PUSH1 0x0 PUSH1 0x20 DUP3 ADD SWAP1 POP PUSH2 0x9FB PUSH1 0x0 DUP4 ADD DUP5 PUSH2 0x9D7 JUMP JUMPDEST SWAP3 SWAP2 POP POP JUMP JUMPDEST PUSH1 0x0 PUSH2 0xA10 PUSH1 0x20 DUP5 ADD DUP5 PUSH2 0x858 JUMP JUMPDEST SWAP1 POP SWAP3 SWAP2 POP POP JUMP JUMPDEST PUSH2 0xA21 DUP2 PUSH2 0x837 JUMP JUMPDEST DUP3 MSTORE POP POP JUMP JUMPDEST PUSH1 0x0 PUSH2 0xA36 PUSH1 0x20 DUP5 ADD DUP5 PUSH2 0x921 JUMP JUMPDEST SWAP1 POP SWAP3 SWAP2 POP POP JUMP JUMPDEST PUSH2 0xA47 DUP2 PUSH2 0x900 JUMP JUMPDEST DUP3 MSTORE POP POP JUMP JUMPDEST PUSH1 0x0 DUP1 REVERT JUMPDEST PUSH1 0x0 DUP1 REVERT JUMPDEST PUSH1 0x0 DUP1 REVERT JUMPDEST PUSH1 0x0 DUP1 DUP4 CALLDATALOAD PUSH1 0x1 PUSH1 0x20 SUB DUP5 CALLDATASIZE SUB SUB DUP2 SLT PUSH2 0xA79 JUMPI PUSH2 0xA78 PUSH2 0xA57 JUMP JUMPDEST JUMPDEST DUP4 DUP2 ADD SWAP3 POP DUP3 CALLDATALOAD SWAP2 POP PUSH1 0x20 DUP4 ADD SWAP3 POP PUSH8 0xFFFFFFFFFFFFFFFF DUP3 GT ISZERO PUSH2 0xAA1 JUMPI PUSH2 0xAA0 PUSH2 0xA4D JUMP JUMPDEST JUMPDEST PUSH1 0x1 DUP3 MUL CALLDATASIZE SUB DUP4 SGT ISZERO PUSH2 0xAB7 JUMPI PUSH2 0xAB6 PUSH2 0xA52 JUMP JUMPDEST JUMPDEST POP SWAP3 POP SWAP3 SWAP1 POP JUMP JUMPDEST PUSH1 0x0 DUP3 DUP3 MSTORE PUSH1 0x20 DUP3 ADD SWAP1 POP SWAP3 SWAP2 POP POP JUMP JUMPDEST DUP3 DUP2 DUP4 CALLDATACOPY PUSH1 0x0 DUP4 DUP4 ADD MSTORE POP POP POP JUMP JUMPDEST PUSH1 0x0 PUSH1 0x1F NOT PUSH1 0x1F DUP4 ADD AND SWAP1 POP SWAP2 SWAP1 POP JUMP JUMPDEST PUSH1 0x0 PUSH2 0xAFC DUP4 DUP6 PUSH2 0xABF JUMP JUMPDEST SWAP4 POP PUSH2 0xB09 DUP4 DUP6 DUP5 PUSH2 0xAD0 JUMP JUMPDEST PUSH2 0xB12 DUP4 PUSH2 0xADF JUMP JUMPDEST DUP5 ADD SWAP1 POP SWAP4 SWAP3 POP POP POP JUMP JUMPDEST PUSH1 0x0 PUSH1 0x80 DUP4 ADD PUSH2 0xB30 PUSH1 0x0 DUP5 ADD DUP5 PUSH2 0xA01 JUMP JUMPDEST PUSH2 0xB3D PUSH1 0x0 DUP7 ADD DUP3 PUSH2 0xA18 JUMP JUMPDEST POP PUSH2 0xB4B PUSH1 0x20 DUP5 ADD DUP5 PUSH2 0xA27 JUMP JUMPDEST PUSH2 0xB58 PUSH1 0x20 DUP7 ADD DUP3 PUSH2 0xA3E JUMP JUMPDEST POP PUSH2 0xB66 PUSH1 0x40 DUP5 ADD DUP5 PUSH2 0xA27 JUMP JUMPDEST PUSH2 0xB73 PUSH1 0x40 DUP7 ADD DUP3 PUSH2 0xA3E JUMP JUMPDEST POP PUSH2 0xB81 PUSH1 0x60 DUP5 ADD DUP5 PUSH2 0xA5C JUMP JUMPDEST DUP6 DUP4 SUB PUSH1 0x60 DUP8 ADD MSTORE PUSH2 0xB94 DUP4 DUP3 DUP5 PUSH2 0xAF0 JUMP JUMPDEST SWAP3 POP POP POP DUP1 SWAP2 POP POP SWAP3 SWAP2 POP POP JUMP JUMPDEST PUSH1 0x0 PUSH1 0x20 DUP3 ADD SWAP1 POP DUP2 DUP2 SUB PUSH1 0x0 DUP4 ADD MSTORE PUSH2 0xBBC DUP2 DUP5 PUSH2 0xB1D JUMP JUMPDEST SWAP1 POP SWAP3 SWAP2 POP POP JUMP JUMPDEST PUSH1 0x0 DUP2 ISZERO ISZERO SWAP1 POP SWAP2 SWAP1 POP JUMP JUMPDEST PUSH2 0xBD9 DUP2 PUSH2 0xBC4 JUMP JUMPDEST DUP2 EQ PUSH2 0xBE4 JUMPI PUSH1 0x0 DUP1 REVERT JUMPDEST POP JUMP JUMPDEST PUSH1 0x0 DUP2 MLOAD SWAP1 POP PUSH2 0xBF6 DUP2 PUSH2 0xBD0 JUMP JUMPDEST SWAP3 SWAP2 POP POP JUMP JUMPDEST PUSH1 0x0 PUSH1 0x20 DUP3 DUP5 SUB SLT ISZERO PUSH2 0xC12 JUMPI PUSH2 0xC11 PUSH2 0x751 JUMP JUMPDEST JUMPDEST PUSH1 0x0 PUSH2 0xC20 DUP5 DUP3 DUP6 ADD PUSH2 0xBE7 JUMP JUMPDEST SWAP2 POP POP SWAP3 SWAP2 POP POP JUMP JUMPDEST PUSH32 0x4E487B7100000000000000000000000000000000000000000000000000000000 PUSH1 0x0 MSTORE PUSH1 0x11 PUSH1 0x4 MSTORE PUSH1 0x24 PUSH1 0x0 REVERT JUMPDEST PUSH1 0x0 PUSH2 0xC63 DUP3 PUSH2 0x837 JUMP JUMPDEST SWAP2 POP PUSH2 0xC6E DUP4 PUSH2 0x837 JUMP JUMPDEST SWAP3 POP DUP3 DUP3 ADD SWAP1 POP DUP1 DUP3 GT ISZERO PUSH2 0xC86 JUMPI PUSH2 0xC85 PUSH2 0xC29 JUMP JUMPDEST JUMPDEST SWAP3 SWAP2 POP POP JUMP JUMPDEST PUSH2 0xC95 DUP2 PUSH2 0x900 JUMP JUMPDEST DUP3 MSTORE POP POP JUMP JUMPDEST PUSH1 0x0 PUSH1 0x40 DUP3 ADD SWAP1 POP PUSH2 0xCB0 PUSH1 0x0 DUP4 ADD DUP6 PUSH2 0xC8C JUMP JUMPDEST PUSH2 0xCBD PUSH1 0x20 DUP4 ADD DUP5 PUSH2 0x963 JUMP JUMPDEST SWAP4 SWAP3 POP POP POP JUMP INVALID LOG2 PUSH5 0x6970667358 0x22 SLT KECCAK256 EXTCODESIZE DUP4 0xF6 0x25 CALLDATACOPY 0xCE CODESIZE MOD 0x2A 0xD4 PUSH28 0xD5C4EC010425E44F9DD9176994CD7C310EFA37D0B764736F6C634300 ADDMOD SHR STOP CALLER "},"methodIdentifiers":{"deposit(bytes32)":"b214faa5","getBalance(bytes32)":"8e739461","initialize(address,address)":"485cc955","withdraw(address,uint256,(uint256,bytes32,bytes32,bytes))":"4ce2e2b7"}},"storageLayout":{"storage":[{"astId":3355,"contract":"contracts/CarmelTreasury.sol:CarmelTreasury","label":"_balances","offset":0,"slot":"0","type":"t_mapping(t_bytes32,t_uint256)"},{"astId":3359,"contract":"contracts/CarmelTreasury.sol:CarmelTreasury","label":"_registry","offset":0,"slot":"1","type":"t_contract(CarmelRegistry)3165"},{"astId":3362,"contract":"contracts/CarmelTreasury.sol:CarmelTreasury","label":"_owner","offset":0,"slot":"2","type":"t_address"}],"types":{"t_address":{"encoding":"inplace","label":"address","numberOfBytes":"20"},"t_bytes32":{"encoding":"inplace","label":"bytes32","numberOfBytes":"32"},"t_contract(CarmelRegistry)3165":{"encoding":"inplace","label":"contract CarmelRegistry","numberOfBytes":"20"},"t_mapping(t_bytes32,t_uint256)":{"encoding":"mapping","key":"t_bytes32","label":"mapping(bytes32 => uint256)","numberOfBytes":"32","value":"t_uint256"},"t_uint256":{"encoding":"inplace","label":"uint256","numberOfBytes":"32"}}}}}}