{"contracts/CarmelRegistry.sol":{"CarmelRegistry":{"abi":[{"inputs":[],"stateMutability":"nonpayable","type":"constructor"},{"inputs":[],"name":"CarmelErrorAccountAlreadyExists","type":"error"},{"inputs":[],"name":"CarmelErrorAccountDoesNotExist","type":"error"},{"inputs":[],"name":"CarmelErrorAccountInvalidKeyId","type":"error"},{"inputs":[],"name":"CarmelErrorCannotWithdrawInsufficientFunds","type":"error"},{"inputs":[],"name":"CarmelErrorCannotWithdrawZeroAmount","type":"error"},{"inputs":[],"name":"CarmelErrorPermissionsAdminLevelRequired","type":"error"},{"inputs":[],"name":"CarmelErrorPermissionsSentinelLevelRequired","type":"error"},{"inputs":[],"name":"CarmelErrorUnauthorizedAccount","type":"error"},{"inputs":[],"name":"InvalidInitialization","type":"error"},{"inputs":[],"name":"NotInitializing","type":"error"},{"anonymous":false,"inputs":[{"indexed":false,"internalType":"uint64","name":"version","type":"uint64"}],"name":"Initialized","type":"event"},{"inputs":[{"internalType":"address","name":"addr","type":"address"},{"components":[{"internalType":"uint256","name":"keyId","type":"uint256"},{"internalType":"bytes32","name":"username","type":"bytes32"},{"internalType":"bytes32","name":"message","type":"bytes32"},{"internalType":"bytes","name":"signature","type":"bytes"}],"internalType":"struct CarmelBase.CarmelFingerprint","name":"fingerprint","type":"tuple"}],"name":"accountAddAddress","outputs":[],"stateMutability":"nonpayable","type":"function"},{"inputs":[{"internalType":"bytes32","name":"x","type":"bytes32"},{"internalType":"bytes32","name":"y","type":"bytes32"},{"components":[{"internalType":"uint256","name":"keyId","type":"uint256"},{"internalType":"bytes32","name":"username","type":"bytes32"},{"internalType":"bytes32","name":"message","type":"bytes32"},{"internalType":"bytes","name":"signature","type":"bytes"}],"internalType":"struct CarmelBase.CarmelFingerprint","name":"fingerprint","type":"tuple"}],"name":"accountAddKey","outputs":[],"stateMutability":"nonpayable","type":"function"},{"inputs":[{"components":[{"internalType":"uint256","name":"keyId","type":"uint256"},{"internalType":"bytes32","name":"username","type":"bytes32"},{"internalType":"bytes32","name":"message","type":"bytes32"},{"internalType":"bytes","name":"signature","type":"bytes"}],"internalType":"struct CarmelBase.CarmelFingerprint","name":"fingerprint","type":"tuple"}],"name":"accountGetKeys","outputs":[{"internalType":"bytes32[]","name":"","type":"bytes32[]"},{"internalType":"bytes32[]","name":"","type":"bytes32[]"}],"stateMutability":"view","type":"function"},{"inputs":[{"internalType":"bytes32","name":"m0","type":"bytes32"},{"internalType":"bytes32","name":"m1","type":"bytes32"},{"components":[{"internalType":"uint256","name":"keyId","type":"uint256"},{"internalType":"bytes32","name":"username","type":"bytes32"},{"internalType":"bytes32","name":"message","type":"bytes32"},{"internalType":"bytes","name":"signature","type":"bytes"}],"internalType":"struct CarmelBase.CarmelFingerprint","name":"fingerprint","type":"tuple"}],"name":"accountUpdateHash","outputs":[],"stateMutability":"nonpayable","type":"function"},{"inputs":[{"internalType":"bytes32","name":"username","type":"bytes32"}],"name":"getAccount","outputs":[{"components":[{"internalType":"uint256","name":"id","type":"uint256"},{"internalType":"bytes32","name":"username","type":"bytes32"},{"internalType":"bytes32","name":"group","type":"bytes32"},{"internalType":"uint32","name":"total_keys","type":"uint32"},{"internalType":"uint32","name":"total_addresses","type":"uint32"}],"internalType":"struct CarmelBase.CarmelAccount","name":"","type":"tuple"}],"stateMutability":"view","type":"function"},{"inputs":[{"internalType":"bytes32","name":"username","type":"bytes32"}],"name":"getAccountHashes","outputs":[{"internalType":"bytes32[]","name":"","type":"bytes32[]"}],"stateMutability":"view","type":"function"},{"inputs":[{"internalType":"bytes32","name":"grp","type":"bytes32"}],"name":"getAccounts","outputs":[{"components":[{"internalType":"uint256","name":"id","type":"uint256"},{"internalType":"bytes32","name":"username","type":"bytes32"},{"internalType":"bytes32","name":"group","type":"bytes32"},{"internalType":"uint32","name":"total_keys","type":"uint32"},{"internalType":"uint32","name":"total_addresses","type":"uint32"}],"internalType":"struct CarmelBase.CarmelAccount[]","name":"","type":"tuple[]"}],"stateMutability":"view","type":"function"},{"inputs":[{"internalType":"bytes32","name":"username","type":"bytes32"}],"name":"getAddresses","outputs":[{"internalType":"address[]","name":"","type":"address[]"}],"stateMutability":"view","type":"function"},{"inputs":[{"internalType":"address","name":"addr","type":"address"}],"name":"getPerms","outputs":[{"internalType":"uint256","name":"","type":"uint256"}],"stateMutability":"view","type":"function"},{"inputs":[],"name":"getTotalAccounts","outputs":[{"internalType":"uint256","name":"","type":"uint256"}],"stateMutability":"view","type":"function"},{"inputs":[{"internalType":"address","name":"sender","type":"address"},{"internalType":"address","name":"ver","type":"address"}],"name":"initialize","outputs":[],"stateMutability":"nonpayable","type":"function"},{"inputs":[{"internalType":"bytes32","name":"username","type":"bytes32"},{"internalType":"bytes32","name":"grp","type":"bytes32"},{"internalType":"address","name":"addr","type":"address"},{"internalType":"bytes32","name":"x","type":"bytes32"},{"internalType":"bytes32","name":"y","type":"bytes32"}],"name":"register","outputs":[{"internalType":"uint256","name":"","type":"uint256"}],"stateMutability":"nonpayable","type":"function"},{"inputs":[{"internalType":"address","name":"addr","type":"address"},{"internalType":"uint8","name":"level","type":"uint8"}],"name":"updatePerms","outputs":[],"stateMutability":"nonpayable","type":"function"},{"inputs":[{"internalType":"bytes32","name":"username","type":"bytes32"},{"internalType":"bytes32","name":"m0","type":"bytes32"},{"internalType":"bytes32","name":"m1","type":"bytes32"}],"name":"updateSystemHash","outputs":[],"stateMutability":"nonpayable","type":"function"},{"inputs":[{"components":[{"internalType":"uint256","name":"keyId","type":"uint256"},{"internalType":"bytes32","name":"username","type":"bytes32"},{"internalType":"bytes32","name":"message","type":"bytes32"},{"internalType":"bytes","name":"signature","type":"bytes"}],"internalType":"struct CarmelBase.CarmelFingerprint","name":"fingerprint","type":"tuple"}],"name":"verify","outputs":[{"internalType":"bool","name":"","type":"bool"}],"stateMutability":"view","type":"function"},{"inputs":[{"components":[{"internalType":"uint256","name":"id","type":"uint256"},{"internalType":"bytes32","name":"username","type":"bytes32"},{"internalType":"bytes32","name":"group","type":"bytes32"},{"internalType":"uint32","name":"total_keys","type":"uint32"},{"internalType":"uint32","name":"total_addresses","type":"uint32"}],"internalType":"struct CarmelBase.CarmelAccount","name":"account","type":"tuple"},{"components":[{"internalType":"uint256","name":"keyId","type":"uint256"},{"internalType":"bytes32","name":"username","type":"bytes32"},{"internalType":"bytes32","name":"message","type":"bytes32"},{"internalType":"bytes","name":"signature","type":"bytes"}],"internalType":"struct CarmelBase.CarmelFingerprint","name":"fingerprint","type":"tuple"}],"name":"verifyFingerprint","outputs":[{"internalType":"bool","name":"","type":"bool"}],"stateMutability":"view","type":"function"},{"inputs":[],"name":"version","outputs":[{"internalType":"uint256","name":"","type":"uint256"}],"stateMutability":"pure","type":"function"}],"evm":{"bytecode":{"linkReferences":{},"object":"608060405234801561001057600080fd5b5061002b6746e72ea4ceb2137760c01b61007260201b60201c565b6100456753fc8d1ec45aae1760c01b61007260201b60201c565b61005f6734a0ef9d309f534560c01b61007260201b60201c565b61006d61007560201b60201c565b6101df565b50565b600061008561017960201b60201c565b90508060000160089054906101000a900460ff16156100d0576040517ff92ee8a900000000000000000000000000000000000000000000000000000000815260040160405180910390fd5b67ffffffffffffffff80168160000160009054906101000a900467ffffffffffffffff1667ffffffffffffffff16146101765767ffffffffffffffff8160000160006101000a81548167ffffffffffffffff021916908367ffffffffffffffff1602179055507fc7f505b2f371ae2175ee4913f4499e1f2633a7b5936321eed1cdaeb6115181d267ffffffffffffffff60405161016d91906101c4565b60405180910390a15b50565b60007ff0c57e16840df040f15088dc2f81fe391c3923bec73e23a9662efc9c229c6a00905090565b600067ffffffffffffffff82169050919050565b6101be816101a1565b82525050565b60006020820190506101d960008301846101b5565b92915050565b61387c806101ee6000396000f3fe608060405234801561001057600080fd5b506004361061010b5760003560e01c8063734f231f116100a2578063ac7eba6c11610071578063ac7eba6c146102db578063d1de50111461030b578063d7c89f5b1461033b578063da6841aa1461036b578063f378c9df146103895761010b565b8063734f231f146102425780638ed0b01b1461025e5780639a1d554e1461028f5780639d5c7e9f146102bf5761010b565b80634470da90116100de5780634470da90146101a8578063485cc955146101d85780634a5af4e0146101f457806354fd4d50146102245761010b565b806316aac50e1461011057806316c1c26d1461012c5780633e244a851461015c5780633fdada7a14610178575b600080fd5b61012a60048036038101906101259190612c61565b6103a5565b005b61014660048036038101906101419190612e8a565b610554565b6040516101539190612f01565b60405180910390f35b61017660048036038101906101719190612f1c565b610851565b005b610192600480360381019061018d9190612f78565b610bdb565b60405161019f9190613063565b60405180910390f35b6101c260048036038101906101bd9190613085565b610dfd565b6040516101cf919061310f565b60405180910390f35b6101f260048036038101906101ed919061312a565b6115ab565b005b61020e6004803603810190610209919061316a565b611884565b60405161021b9190612f01565b60405180910390f35b61022c61198c565b604051610239919061310f565b60405180910390f35b61025c600480360381019061025791906131b3565b6119d1565b005b6102786004803603810190610273919061316a565b611d88565b6040516102869291906132e0565b60405180910390f35b6102a960048036038101906102a49190612f78565b611fea565b6040516102b69190613317565b60405180910390f35b6102d960048036038101906102d49190613339565b612091565b005b6102f560048036038101906102f0919061338c565b6123ad565b604051610302919061310f565b60405180910390f35b61032560048036038101906103209190612f78565b612441565b604051610332919061343f565b60405180910390f35b61035560048036038101906103509190612f78565b612542565b6040516103629190613571565b60405180910390f35b6103736127dc565b604051610380919061310f565b60405180910390f35b6103a3600480360381019061039e91906131b3565b612822565b005b6103b967d9b9af603550bce160c01b612b4a565b6103cd6756d321c83347553c60c01b612b4a565b6103e1672349a2b67ab9c48660c01b612b4a565b6103f567163d3e5c76b11f1060c01b612b4a565b606360ff166000803373ffffffffffffffffffffffffffffffffffffffff1673ffffffffffffffffffffffffffffffffffffffff16815260200190815260200160002060009054906101000a900460ff1660ff1610156104955761046367f0545c46fef308b560c01b612b4a565b6040517f0ed39a2f00000000000000000000000000000000000000000000000000000000815260040160405180910390fd5b6104a967ae1ddc5640b1291d60c01b612b4a565b6104bd67b6cc8b73de1fe83060c01b612b4a565b6104d16757fb8c77ba67af1960c01b612b4a565b6104e5674176dc890e8c57d560c01b612b4a565b6104f9678fd215a4b5113da960c01b612b4a565b806000808473ffffffffffffffffffffffffffffffffffffffff1673ffffffffffffffffffffffffffffffffffffffff16815260200190815260200160002060006101000a81548160ff021916908360ff1602179055505050565b600061056a67181d4eed2074fb2860c01b612b4a565b61057e67558bf1e0b3a32e2460c01b612b4a565b61059267ed7027ad56f1d18360c01b612b4a565b6000801b8360200151036105e6576105b46796b51989f97cf80160c01b612b4a565b6040517f4a6bc07d00000000000000000000000000000000000000000000000000000000815260040160405180910390fd5b6105fa671518585cbacf0e0d60c01b612b4a565b61060e67abfbe760d09f681f60c01b612b4a565b61062267243b53eef4b8523860c01b612b4a565b81600001356004600084602001358152602001908152602001600020805490501161068d5761065b67b3262d8631e9d1de60c01b612b4a565b6040517fa37a76ff00000000000000000000000000000000000000000000000000000000815260040160405180910390fd5b6106a16786e5424bc2e1308260c01b612b4a565b6106b567ce826d34747ec7f460c01b612b4a565b6106c9673fb4a85a0f5ca43f60c01b612b4a565b600060046000846020013581526020019081526020016000208360000135815481106106f8576106f7613593565b5b90600052602060002001549050610719672940b5abb2ab050760c01b612b4a565b61072d67549ea35ae8ef08dc60c01b612b4a565b6000600560008560200135815260200190815260200160002084600001358154811061075c5761075b613593565b5b9060005260206000200154905061077d671f0fce20a0b49c0f60c01b612b4a565b610791674032e5549211e7da60c01b612b4a565b600160009054906101000a900473ffffffffffffffffffffffffffffffffffffffff1673ffffffffffffffffffffffffffffffffffffffff1663a64f680b85604001358680606001906107e491906135d1565b86866040518663ffffffff1660e01b8152600401610806959493929190613690565b602060405180830381865afa158015610823573d6000803e3d6000fd5b505050506040513d601f19601f82011682018060405250810190610847919061370a565b9250505092915050565b61086567278f7e86b262a8c160c01b612b4a565b610879673c8bd695f9d2ac3d60c01b612b4a565b61088d67329a7792e7d41b5d60c01b612b4a565b6108a167da024291c93ccd1560c01b612b4a565b603260ff166000803373ffffffffffffffffffffffffffffffffffffffff1673ffffffffffffffffffffffffffffffffffffffff16815260200190815260200160002060009054906101000a900460ff1660ff1610156109415761090f67db403c649acd3a8b60c01b612b4a565b6040517f13e433c900000000000000000000000000000000000000000000000000000000815260040160405180910390fd5b610955676202fdd82776abb360c01b612b4a565b6109696782ec471c4120db7460c01b612b4a565b61097d67ad9f4d944a68237660c01b612b4a565b61099167e16fb18f7115c85a60c01b612b4a565b6109a567a93467b96a79632a60c01b612b4a565b6109b967b85758503cb82dcb60c01b612b4a565b600060076000836020013581526020019081526020016000206040518060a00160405290816000820154815260200160018201548152602001600282015481526020016003820160009054906101000a900463ffffffff1663ffffffff1663ffffffff1681526020016003820160049054906101000a900463ffffffff1663ffffffff1663ffffffff16815250509050610a5d67dc8db9a335433a5760c01b612b4a565b610a71670c1b2231be5d08e360c01b612b4a565b610a7b8183610554565b610ac557610a936794e1baf5a88957fe60c01b612b4a565b6040517f9fd8ceca00000000000000000000000000000000000000000000000000000000815260040160405180910390fd5b610ad9676f731301cb418c1560c01b612b4a565b610aed67b2ae1a583d0df97c60c01b612b4a565b610b0167e989fee52c7fb68160c01b612b4a565b6009600083602001358152602001908152602001600020839080600181540180825580915050600190039060005260206000200160009091909190916101000a81548173ffffffffffffffffffffffffffffffffffffffff021916908373ffffffffffffffffffffffffffffffffffffffff160217905550610b8d67f09ce26808e76bc960c01b612b4a565b60018160800151610b9e9190613766565b600760008460200135815260200190815260200160002060030160046101000a81548163ffffffff021916908363ffffffff160217905550505050565b6060610bf16705ae284538c1e96260c01b612b4a565b610c05677f9ed1a7067803d160c01b612b4a565b610c1967598b89e52e1c16d460c01b612b4a565b6000600760008481526020019081526020016000206040518060a00160405290816000820154815260200160018201548152602001600282015481526020016003820160009054906101000a900463ffffffff1663ffffffff1663ffffffff1681526020016003820160049054906101000a900463ffffffff1663ffffffff1663ffffffff16815250509050610cb967fc63b8ebd8ba350360c01b612b4a565b610ccd673522c5455f291bf360c01b612b4a565b6000801b816020015103610d2157610cef673f95483084d7ce0760c01b612b4a565b6040517f4a6bc07d00000000000000000000000000000000000000000000000000000000815260040160405180910390fd5b610d35673d3c6bf83b78de8a60c01b612b4a565b610d4967539fbbbcbc3abc6360c01b612b4a565b610d5d67d43b801c2ad3eb1860c01b612b4a565b60096000848152602001908152602001600020805480602002602001604051908101604052809291908181526020018280548015610df057602002820191906000526020600020905b8160009054906101000a900473ffffffffffffffffffffffffffffffffffffffff1673ffffffffffffffffffffffffffffffffffffffff1681526020019060010190808311610da6575b5050505050915050919050565b6000610e1367b0e5d26e5820376560c01b612b4a565b610e27673c8bd695f9d2ac3d60c01b612b4a565b610e3b67329a7792e7d41b5d60c01b612b4a565b610e4f67da024291c93ccd1560c01b612b4a565b603260ff166000803373ffffffffffffffffffffffffffffffffffffffff1673ffffffffffffffffffffffffffffffffffffffff16815260200190815260200160002060009054906101000a900460ff1660ff161015610eef57610ebd67db403c649acd3a8b60c01b612b4a565b6040517f13e433c900000000000000000000000000000000000000000000000000000000815260040160405180910390fd5b610f03676202fdd82776abb360c01b612b4a565b610f176782ec471c4120db7460c01b612b4a565b610f2b6761b2cc289e50cb8360c01b612b4a565b610f3f6787301f91544719ff60c01b612b4a565b610f53670e0b308027af16ba60c01b612b4a565b610f676775725fd08b39735a60c01b612b4a565b6000600760008881526020019081526020016000206040518060a00160405290816000820154815260200160018201548152602001600282015481526020016003820160009054906101000a900463ffffffff1663ffffffff1663ffffffff1681526020016003820160049054906101000a900463ffffffff1663ffffffff1663ffffffff168152505090506110076758b8e9a1aaef9bd960c01b612b4a565b61101b679057a2f5c5454b9e60c01b612b4a565b6000801b816020015111156110705761103e67f9ab94bd0a4fa61c60c01b612b4a565b6040517f0f148d0700000000000000000000000000000000000000000000000000000000815260040160405180910390fd5b61108467c5c5bfdf51d5865d60c01b612b4a565b611098674c0394c3c0a4a2fe60c01b612b4a565b6110ac6715d52756ac019bfc60c01b612b4a565b600060025490506110c767ebf3f49f68daed0760c01b612b4a565b60016002546110d6919061379e565b6002819055506110f067e6fdc30cc660a37e60c01b612b4a565b61110467449f2368f27ea96560c01b612b4a565b600460008981526020019081526020016000208590806001815401808255809150506001900390600052602060002001600090919091909150556111526795e9ae7d6c840f8c60c01b612b4a565b61116667e324cfaa53818d9860c01b612b4a565b600560008981526020019081526020016000208490806001815401808255809150506001900390600052602060002001600090919091909150556111b467bcf36eed73406dbe60c01b612b4a565b6001600760008a815260200190815260200160002060030160006101000a81548163ffffffff021916908363ffffffff1602179055506111fe676307a2f7807172af60c01b612b4a565b6112126772b85f8ec6fd108260c01b612b4a565b600660008981526020019081526020016000206000801b90806001815401808255809150506001900390600052602060002001600090919091909150556112636787e50026c26afb2460c01b612b4a565b6112776719f5dd1232be90ec60c01b612b4a565b600660008981526020019081526020016000206000801b90806001815401808255809150506001900390600052602060002001600090919091909150556112c8679e5fc1402c0d1b0f60c01b612b4a565b6112dc6788cf476076e7cd3c60c01b612b4a565b600660008981526020019081526020016000206000801b908060018154018082558091505060019003906000526020600020016000909190919091505561132d67e6e7c32ee87acc0260c01b612b4a565b61134167bc37111ac0a211d060c01b612b4a565b600660008981526020019081526020016000206000801b908060018154018082558091505060019003906000526020600020016000909190919091505561139267f54d863ddee1111560c01b612b4a565b6113a6678e5c00eba9188b0960c01b612b4a565b60006040518060a001604052808381526020018a8152602001898152602001600063ffffffff168152602001600163ffffffff1681525090506113f367eb3fd02b4c743be160c01b612b4a565b80600760008b815260200190815260200160002060008201518160000155602082015181600101556040820151816002015560608201518160030160006101000a81548163ffffffff021916908363ffffffff16021790555060808201518160030160046101000a81548163ffffffff021916908363ffffffff16021790555090505061148a677d28dd4d73ec36f960c01b612b4a565b61149e677e304bf7e12f1e1060c01b612b4a565b600960008a8152602001908152602001600020879080600181540180825580915050600190039060005260206000200160009091909190916101000a81548173ffffffffffffffffffffffffffffffffffffffff021916908373ffffffffffffffffffffffffffffffffffffffff16021790555061152667f4ea0e69f5bd9ac860c01b612b4a565b61153a67a0e2bc3ed568624360c01b612b4a565b60086000898152602001908152602001600020899080600181540180825580915050600190039060005260206000200160009091909190915055611588679a25136c3b965ab060c01b612b4a565b61159c673855ea26cbbbd70660c01b612b4a565b81935050505095945050505050565b6115bf6707c4a7dc2111fb4760c01b612b4a565b60006115c9612b4d565b905060008160000160089054906101000a900460ff1615905060008260000160009054906101000a900467ffffffffffffffff1690506000808267ffffffffffffffff161480156116175750825b9050600060018367ffffffffffffffff1614801561164c575060003073ffffffffffffffffffffffffffffffffffffffff163b145b90508115801561165a575080155b15611691576040517ff92ee8a900000000000000000000000000000000000000000000000000000000815260040160405180910390fd5b60018560000160006101000a81548167ffffffffffffffff021916908367ffffffffffffffff16021790555083156116e15760018560000160086101000a81548160ff0219169083151502179055505b6116f5674d0787169ff89b3d60c01b612b4a565b611709674068acc1f35dbf8960c01b612b4a565b61171d67e4958efd0050aa5360c01b612b4a565b60636000808973ffffffffffffffffffffffffffffffffffffffff1673ffffffffffffffffffffffffffffffffffffffff16815260200190815260200160002060006101000a81548160ff021916908360ff1602179055506117896709000662eebb28f960c01b612b4a565b86600360006101000a81548173ffffffffffffffffffffffffffffffffffffffff021916908373ffffffffffffffffffffffffffffffffffffffff1602179055506117de672d888c4fad36547c60c01b612b4a565b85600160006101000a81548173ffffffffffffffffffffffffffffffffffffffff021916908373ffffffffffffffffffffffffffffffffffffffff160217905550831561187b5760008560000160086101000a81548160ff0219169083151502179055507fc7f505b2f371ae2175ee4913f4499e1f2633a7b5936321eed1cdaeb6115181d26001604051611872919061382b565b60405180910390a15b50505050505050565b600061189a67c19008698818fdd360c01b612b4a565b6118ae670539d5d2345cb7da60c01b612b4a565b6118c267ef3de65aaf7b084060c01b612b4a565b600060076000846020013581526020019081526020016000206040518060a00160405290816000820154815260200160018201548152602001600282015481526020016003820160009054906101000a900463ffffffff1663ffffffff1663ffffffff1681526020016003820160049054906101000a900463ffffffff1663ffffffff1663ffffffff168152505090506119666728a9141836e0126d60c01b612b4a565b61197a67150882d425e37e0860c01b612b4a565b6119848184610554565b915050919050565b60006119a26749581d5c09d5bcbd60c01b612b4a565b6119b6672730af7e9475c90a60c01b612b4a565b6119ca67bcf3b29649bd7d5f60c01b612b4a565b6001905090565b6119e56782a40211d53e107b60c01b612b4a565b6119f9673c8bd695f9d2ac3d60c01b612b4a565b611a0d67329a7792e7d41b5d60c01b612b4a565b611a2167da024291c93ccd1560c01b612b4a565b603260ff166000803373ffffffffffffffffffffffffffffffffffffffff1673ffffffffffffffffffffffffffffffffffffffff16815260200190815260200160002060009054906101000a900460ff1660ff161015611ac157611a8f67db403c649acd3a8b60c01b612b4a565b6040517f13e433c900000000000000000000000000000000000000000000000000000000815260040160405180910390fd5b611ad5676202fdd82776abb360c01b612b4a565b611ae96782ec471c4120db7460c01b612b4a565b611afd678196dedea42cf29360c01b612b4a565b611b1167fca2dda11f38377f60c01b612b4a565b611b2567d7e785e132a174a860c01b612b4a565b611b3967272e44f1ad711da260c01b612b4a565b600060076000836020013581526020019081526020016000206040518060a00160405290816000820154815260200160018201548152602001600282015481526020016003820160009054906101000a900463ffffffff1663ffffffff1663ffffffff1681526020016003820160049054906101000a900463ffffffff1663ffffffff1663ffffffff16815250509050611bdd671d201332c63114ce60c01b612b4a565b611bf1671506c252527e822760c01b612b4a565b611bfb8183610554565b611c4557611c13676d277f6c400db77060c01b612b4a565b6040517f9fd8ceca00000000000000000000000000000000000000000000000000000000815260040160405180910390fd5b611c5967e51f07c2ad26514f60c01b612b4a565b611c6d6704a2ba7437d578d260c01b612b4a565b611c816770da46fbd770600960c01b612b4a565b6004600083602001358152602001908152602001600020849080600181540180825580915050600190039060005260206000200160009091909190915055611cd3672864da4a171909fc60c01b612b4a565b611ce7677b68e810ce16678660c01b612b4a565b6005600083602001358152602001908152602001600020839080600181540180825580915050600190039060005260206000200160009091909190915055611d39676de6b9bbc03d535060c01b612b4a565b60018160600151611d4a9190613766565b600760008460200135815260200190815260200160002060030160006101000a81548163ffffffff021916908363ffffffff16021790555050505050565b606080611d9f67daac584932dc1e8c60c01b612b4a565b611db367ce9f425293749d0f60c01b612b4a565b611dc767ef5b6a3b0a4a0a5660c01b612b4a565b600060076000856020013581526020019081526020016000206040518060a00160405290816000820154815260200160018201548152602001600282015481526020016003820160009054906101000a900463ffffffff1663ffffffff1663ffffffff1681526020016003820160049054906101000a900463ffffffff1663ffffffff1663ffffffff16815250509050611e6b67893684fbbbc0b1af60c01b612b4a565b611e7f673f00d0de088a7d5960c01b612b4a565b611e898185610554565b611ed357611ea167a6ad6ab77b6792f460c01b612b4a565b6040517f9fd8ceca00000000000000000000000000000000000000000000000000000000815260040160405180910390fd5b611ee76753a8b42b4b7f05a860c01b612b4a565b611efa66d8451c8a8f57a960c01b612b4a565b611f0e67524be634c89cf57060c01b612b4a565b6004600085602001358152602001908152602001600020600560008660200135815260200190815260200160002081805480602002602001604051908101604052809291908181526020018280548015611f8757602002820191906000526020600020905b815481526020019060010190808311611f73575b5050505050915080805480602002602001604051908101604052809291908181526020018280548015611fd957602002820191906000526020600020905b815481526020019060010190808311611fc5575b505050505090509250925050915091565b60606120006750822ada859481f060c01b612b4a565b61201467b6d386d44a7b260c60c01b612b4a565b6120286710b089dadb6607e360c01b612b4a565b6006600083815260200190815260200160002080548060200260200160405190810160405280929190818152602001828054801561208557602002820191906000526020600020905b815481526020019060010190808311612071575b50505050509050919050565b6120a567a2a955417f1483d060c01b612b4a565b6120b9673c8bd695f9d2ac3d60c01b612b4a565b6120cd67329a7792e7d41b5d60c01b612b4a565b6120e167da024291c93ccd1560c01b612b4a565b603260ff166000803373ffffffffffffffffffffffffffffffffffffffff1673ffffffffffffffffffffffffffffffffffffffff16815260200190815260200160002060009054906101000a900460ff1660ff1610156121815761214f67db403c649acd3a8b60c01b612b4a565b6040517f13e433c900000000000000000000000000000000000000000000000000000000815260040160405180910390fd5b612195676202fdd82776abb360c01b612b4a565b6121a96782ec471c4120db7460c01b612b4a565b6121bd67ac565e16edddc18960c01b612b4a565b6121d167d8df39237368bb6960c01b612b4a565b6121e5678fc20173b6ba896460c01b612b4a565b6121f967067c42c73e96eb0260c01b612b4a565b6000600760008581526020019081526020016000206040518060a00160405290816000820154815260200160018201548152602001600282015481526020016003820160009054906101000a900463ffffffff1663ffffffff1663ffffffff1681526020016003820160049054906101000a900463ffffffff1663ffffffff1663ffffffff16815250509050612299673a5c85e8a79b908160c01b612b4a565b6122ad6770f382eb4309e06560c01b612b4a565b6000801b816020015103612301576122cf6761160c406e6cc29160c01b612b4a565b6040517f4a6bc07d00000000000000000000000000000000000000000000000000000000815260040160405180910390fd5b612315675062353866a84f6e60c01b612b4a565b612329676d5c66c705888ae460c01b612b4a565b82600660008681526020019081526020016000206000815481106123505761234f613593565b5b90600052602060002001819055506123726708ad078e33aeb97260c01b612b4a565b816006600086815260200190815260200160002060018154811061239957612398613593565b5b906000526020600020018190555050505050565b60006123c3670de4bffb25718b1260c01b612b4a565b6123d7674e5f1624946efa7360c01b612b4a565b6123eb67b6681e8d23ea828460c01b612b4a565b6000808373ffffffffffffffffffffffffffffffffffffffff1673ffffffffffffffffffffffffffffffffffffffff16815260200190815260200160002060009054906101000a900460ff1660ff169050919050565b612449612b75565b61245d67ccee35da334368f460c01b612b4a565b6124716751778ece69be2fe960c01b612b4a565b612485679f0d5a99dcfc451a60c01b612b4a565b6000600760008481526020019081526020016000206040518060a00160405290816000820154815260200160018201548152602001600282015481526020016003820160009054906101000a900463ffffffff1663ffffffff1663ffffffff1681526020016003820160049054906101000a900463ffffffff1663ffffffff1663ffffffff16815250509050612525673dea2b3edb2888fc60c01b612b4a565b61253967819e8e48d2735baa60c01b612b4a565b80915050919050565b606061255867d9a62b45a0c7406060c01b612b4a565b61256c679525ca4f04acd47f60c01b612b4a565b6125806752f08eda307a581760c01b612b4a565b6000600860008481526020019081526020016000208054806020026020016040519081016040528092919081815260200182805480156125df57602002820191906000526020600020905b8154815260200190600101908083116125cb575b505050505090506125fa67183cd487c49515b660c01b612b4a565b61260e670d7c9a106fcd8dd860c01b612b4a565b60008151905061262867ae2f8ffaa13d99b560c01b612b4a565b61263c6762da2cf9322e397a60c01b612b4a565b60008167ffffffffffffffff81111561265857612657612cb7565b5b60405190808252806020026020018201604052801561269157816020015b61267e612b75565b8152602001906001900390816126765790505b5090506126a867dbf9c18c8f8c05ec60c01b612b4a565b6126bc677fade8238216fa5260c01b612b4a565b60005b828110156127a8576126db675eac2e648728b69360c01b612b4a565b600760008583815181106126f2576126f1613593565b5b602002602001015181526020019081526020016000206040518060a00160405290816000820154815260200160018201548152602001600282015481526020016003820160009054906101000a900463ffffffff1663ffffffff1663ffffffff1681526020016003820160049054906101000a900463ffffffff1663ffffffff1663ffffffff16815250508282815181106127905761278f613593565b5b602002602001018190525080806001019150506126bf565b506127bd67498edde6b8d1c11d60c01b612b4a565b6127d1677980d39775bfad9660c01b612b4a565b809350505050919050565b60006127f26755713dd11051eaf860c01b612b4a565b6128066791568af4f745991160c01b612b4a565b61281a678b342d011acf0c6a60c01b612b4a565b600254905090565b6128366786f329b15bf65e0260c01b612b4a565b61284a673c8bd695f9d2ac3d60c01b612b4a565b61285e67329a7792e7d41b5d60c01b612b4a565b61287267da024291c93ccd1560c01b612b4a565b603260ff166000803373ffffffffffffffffffffffffffffffffffffffff1673ffffffffffffffffffffffffffffffffffffffff16815260200190815260200160002060009054906101000a900460ff1660ff161015612912576128e067db403c649acd3a8b60c01b612b4a565b6040517f13e433c900000000000000000000000000000000000000000000000000000000815260040160405180910390fd5b612926676202fdd82776abb360c01b612b4a565b61293a6782ec471c4120db7460c01b612b4a565b61294e67ba9073213795f35a60c01b612b4a565b61296267f2894527a00c905660c01b612b4a565b612976675b6c66bb02c2ac9e60c01b612b4a565b61298a67809b5309af815fe660c01b612b4a565b600060076000836020013581526020019081526020016000206040518060a00160405290816000820154815260200160018201548152602001600282015481526020016003820160009054906101000a900463ffffffff1663ffffffff1663ffffffff1681526020016003820160049054906101000a900463ffffffff1663ffffffff1663ffffffff16815250509050612a2e67786cee6f541acbd860c01b612b4a565b612a426736013ce0ab9203a960c01b612b4a565b612a4c8183610554565b612a9657612a64675aa0b2ade7a1b6df60c01b612b4a565b6040517f9fd8ceca00000000000000000000000000000000000000000000000000000000815260040160405180910390fd5b612aaa67ec1e3fbdbcc6d65560c01b612b4a565b612abe6725621ee2a666055e60c01b612b4a565b836006600084602001358152602001908152602001600020600281548110612ae957612ae8613593565b5b9060005260206000200181905550612b0b67b2615bd3de1b7dc460c01b612b4a565b826006600084602001358152602001908152602001600020600381548110612b3657612b35613593565b5b906000526020600020018190555050505050565b50565b60007ff0c57e16840df040f15088dc2f81fe391c3923bec73e23a9662efc9c229c6a00905090565b6040518060a00160405280600081526020016000801916815260200160008019168152602001600063ffffffff168152602001600063ffffffff1681525090565b6000604051905090565b600080fd5b600080fd5b600073ffffffffffffffffffffffffffffffffffffffff82169050919050565b6000612bf582612bca565b9050919050565b612c0581612bea565b8114612c1057600080fd5b50565b600081359050612c2281612bfc565b92915050565b600060ff82169050919050565b612c3e81612c28565b8114612c4957600080fd5b50565b600081359050612c5b81612c35565b92915050565b60008060408385031215612c7857612c77612bc0565b5b6000612c8685828601612c13565b9250506020612c9785828601612c4c565b9150509250929050565b600080fd5b6000601f19601f8301169050919050565b7f4e487b7100000000000000000000000000000000000000000000000000000000600052604160045260246000fd5b612cef82612ca6565b810181811067ffffffffffffffff82111715612d0e57612d0d612cb7565b5b80604052505050565b6000612d21612bb6565b9050612d2d8282612ce6565b919050565b6000819050919050565b612d4581612d32565b8114612d5057600080fd5b50565b600081359050612d6281612d3c565b92915050565b6000819050919050565b612d7b81612d68565b8114612d8657600080fd5b50565b600081359050612d9881612d72565b92915050565b600063ffffffff82169050919050565b612db781612d9e565b8114612dc257600080fd5b50565b600081359050612dd481612dae565b92915050565b600060a08284031215612df057612def612ca1565b5b612dfa60a0612d17565b90506000612e0a84828501612d53565b6000830152506020612e1e84828501612d89565b6020830152506040612e3284828501612d89565b6040830152506060612e4684828501612dc5565b6060830152506080612e5a84828501612dc5565b60808301525092915050565b600080fd5b600060808284031215612e8157612e80612e66565b5b81905092915050565b60008060c08385031215612ea157612ea0612bc0565b5b6000612eaf85828601612dda565b92505060a083013567ffffffffffffffff811115612ed057612ecf612bc5565b5b612edc85828601612e6b565b9150509250929050565b60008115159050919050565b612efb81612ee6565b82525050565b6000602082019050612f166000830184612ef2565b92915050565b60008060408385031215612f3357612f32612bc0565b5b6000612f4185828601612c13565b925050602083013567ffffffffffffffff811115612f6257612f61612bc5565b5b612f6e85828601612e6b565b9150509250929050565b600060208284031215612f8e57612f8d612bc0565b5b6000612f9c84828501612d89565b91505092915050565b600081519050919050565b600082825260208201905092915050565b6000819050602082019050919050565b612fda81612bea565b82525050565b6000612fec8383612fd1565b60208301905092915050565b6000602082019050919050565b600061301082612fa5565b61301a8185612fb0565b935061302583612fc1565b8060005b8381101561305657815161303d8882612fe0565b975061304883612ff8565b925050600181019050613029565b5085935050505092915050565b6000602082019050818103600083015261307d8184613005565b905092915050565b600080600080600060a086880312156130a1576130a0612bc0565b5b60006130af88828901612d89565b95505060206130c088828901612d89565b94505060406130d188828901612c13565b93505060606130e288828901612d89565b92505060806130f388828901612d89565b9150509295509295909350565b61310981612d32565b82525050565b60006020820190506131246000830184613100565b92915050565b6000806040838503121561314157613140612bc0565b5b600061314f85828601612c13565b925050602061316085828601612c13565b9150509250929050565b6000602082840312156131805761317f612bc0565b5b600082013567ffffffffffffffff81111561319e5761319d612bc5565b5b6131aa84828501612e6b565b91505092915050565b6000806000606084860312156131cc576131cb612bc0565b5b60006131da86828701612d89565b93505060206131eb86828701612d89565b925050604084013567ffffffffffffffff81111561320c5761320b612bc5565b5b61321886828701612e6b565b9150509250925092565b600081519050919050565b600082825260208201905092915050565b6000819050602082019050919050565b61325781612d68565b82525050565b6000613269838361324e565b60208301905092915050565b6000602082019050919050565b600061328d82613222565b613297818561322d565b93506132a28361323e565b8060005b838110156132d35781516132ba888261325d565b97506132c583613275565b9250506001810190506132a6565b5085935050505092915050565b600060408201905081810360008301526132fa8185613282565b9050818103602083015261330e8184613282565b90509392505050565b600060208201905081810360008301526133318184613282565b905092915050565b60008060006060848603121561335257613351612bc0565b5b600061336086828701612d89565b935050602061337186828701612d89565b925050604061338286828701612d89565b9150509250925092565b6000602082840312156133a2576133a1612bc0565b5b60006133b084828501612c13565b91505092915050565b6133c281612d32565b82525050565b6133d181612d9e565b82525050565b60a0820160008201516133ed60008501826133b9565b506020820151613400602085018261324e565b506040820151613413604085018261324e565b50606082015161342660608501826133c8565b50608082015161343960808501826133c8565b50505050565b600060a08201905061345460008301846133d7565b92915050565b600081519050919050565b600082825260208201905092915050565b6000819050602082019050919050565b60a08201600082015161349c60008501826133b9565b5060208201516134af602085018261324e565b5060408201516134c2604085018261324e565b5060608201516134d560608501826133c8565b5060808201516134e860808501826133c8565b50505050565b60006134fa8383613486565b60a08301905092915050565b6000602082019050919050565b600061351e8261345a565b6135288185613465565b935061353383613476565b8060005b8381101561356457815161354b88826134ee565b975061355683613506565b925050600181019050613537565b5085935050505092915050565b6000602082019050818103600083015261358b8184613513565b905092915050565b7f4e487b7100000000000000000000000000000000000000000000000000000000600052603260045260246000fd5b600080fd5b600080fd5b600080fd5b600080833560016020038436030381126135ee576135ed6135c2565b5b80840192508235915067ffffffffffffffff8211156136105761360f6135c7565b5b60208301925060018202360383131561362c5761362b6135cc565b5b509250929050565b61363d81612d68565b82525050565b600082825260208201905092915050565b82818337600083830152505050565b600061366f8385613643565b935061367c838584613654565b61368583612ca6565b840190509392505050565b60006080820190506136a56000830188613634565b81810360208301526136b8818688613663565b90506136c76040830185613634565b6136d46060830184613634565b9695505050505050565b6136e781612ee6565b81146136f257600080fd5b50565b600081519050613704816136de565b92915050565b6000602082840312156137205761371f612bc0565b5b600061372e848285016136f5565b91505092915050565b7f4e487b7100000000000000000000000000000000000000000000000000000000600052601160045260246000fd5b600061377182612d9e565b915061377c83612d9e565b9250828201905063ffffffff81111561379857613797613737565b5b92915050565b60006137a982612d32565b91506137b483612d32565b92508282019050808211156137cc576137cb613737565b5b92915050565b6000819050919050565b600067ffffffffffffffff82169050919050565b6000819050919050565b600061381561381061380b846137d2565b6137f0565b6137dc565b9050919050565b613825816137fa565b82525050565b6000602082019050613840600083018461381c565b9291505056fea2646970667358221220e5e0ab883f797a3b00ca2fefcc80c31aea1ef77bed4aec11e1573eb6f18c173264736f6c634300081c0033","opcodes":"PUSH1 0x80 PUSH1 0x40 MSTORE CALLVALUE DUP1 ISZERO PUSH2 0x10 JUMPI PUSH1 0x0 DUP1 REVERT JUMPDEST POP PUSH2 0x2B PUSH8 0x46E72EA4CEB21377 PUSH1 0xC0 SHL PUSH2 0x72 PUSH1 0x20 SHL PUSH1 0x20 SHR JUMP JUMPDEST PUSH2 0x45 PUSH8 0x53FC8D1EC45AAE17 PUSH1 0xC0 SHL PUSH2 0x72 PUSH1 0x20 SHL PUSH1 0x20 SHR JUMP JUMPDEST PUSH2 0x5F PUSH8 0x34A0EF9D309F5345 PUSH1 0xC0 SHL PUSH2 0x72 PUSH1 0x20 SHL PUSH1 0x20 SHR JUMP JUMPDEST PUSH2 0x6D PUSH2 0x75 PUSH1 0x20 SHL PUSH1 0x20 SHR JUMP JUMPDEST PUSH2 0x1DF JUMP JUMPDEST POP JUMP JUMPDEST PUSH1 0x0 PUSH2 0x85 PUSH2 0x179 PUSH1 0x20 SHL PUSH1 0x20 SHR JUMP JUMPDEST SWAP1 POP DUP1 PUSH1 0x0 ADD PUSH1 0x8 SWAP1 SLOAD SWAP1 PUSH2 0x100 EXP SWAP1 DIV PUSH1 0xFF AND ISZERO PUSH2 0xD0 JUMPI PUSH1 0x40 MLOAD PUSH32 0xF92EE8A900000000000000000000000000000000000000000000000000000000 DUP2 MSTORE PUSH1 0x4 ADD PUSH1 0x40 MLOAD DUP1 SWAP2 SUB SWAP1 REVERT JUMPDEST PUSH8 0xFFFFFFFFFFFFFFFF DUP1 AND DUP2 PUSH1 0x0 ADD PUSH1 0x0 SWAP1 SLOAD SWAP1 PUSH2 0x100 EXP SWAP1 DIV PUSH8 0xFFFFFFFFFFFFFFFF AND PUSH8 0xFFFFFFFFFFFFFFFF AND EQ PUSH2 0x176 JUMPI PUSH8 0xFFFFFFFFFFFFFFFF DUP2 PUSH1 0x0 ADD PUSH1 0x0 PUSH2 0x100 EXP DUP2 SLOAD DUP2 PUSH8 0xFFFFFFFFFFFFFFFF MUL NOT AND SWAP1 DUP4 PUSH8 0xFFFFFFFFFFFFFFFF AND MUL OR SWAP1 SSTORE POP PUSH32 0xC7F505B2F371AE2175EE4913F4499E1F2633A7B5936321EED1CDAEB6115181D2 PUSH8 0xFFFFFFFFFFFFFFFF PUSH1 0x40 MLOAD PUSH2 0x16D SWAP2 SWAP1 PUSH2 0x1C4 JUMP JUMPDEST PUSH1 0x40 MLOAD DUP1 SWAP2 SUB SWAP1 LOG1 JUMPDEST POP JUMP JUMPDEST PUSH1 0x0 PUSH32 0xF0C57E16840DF040F15088DC2F81FE391C3923BEC73E23A9662EFC9C229C6A00 SWAP1 POP SWAP1 JUMP JUMPDEST PUSH1 0x0 PUSH8 0xFFFFFFFFFFFFFFFF DUP3 AND SWAP1 POP SWAP2 SWAP1 POP JUMP JUMPDEST PUSH2 0x1BE DUP2 PUSH2 0x1A1 JUMP JUMPDEST DUP3 MSTORE POP POP JUMP JUMPDEST PUSH1 0x0 PUSH1 0x20 DUP3 ADD SWAP1 POP PUSH2 0x1D9 PUSH1 0x0 DUP4 ADD DUP5 PUSH2 0x1B5 JUMP JUMPDEST SWAP3 SWAP2 POP POP JUMP JUMPDEST PUSH2 0x387C DUP1 PUSH2 0x1EE PUSH1 0x0 CODECOPY PUSH1 0x0 RETURN INVALID PUSH1 0x80 PUSH1 0x40 MSTORE CALLVALUE DUP1 ISZERO PUSH2 0x10 JUMPI PUSH1 0x0 DUP1 REVERT JUMPDEST POP PUSH1 0x4 CALLDATASIZE LT PUSH2 0x10B JUMPI PUSH1 0x0 CALLDATALOAD PUSH1 0xE0 SHR DUP1 PUSH4 0x734F231F GT PUSH2 0xA2 JUMPI DUP1 PUSH4 0xAC7EBA6C GT PUSH2 0x71 JUMPI DUP1 PUSH4 0xAC7EBA6C EQ PUSH2 0x2DB JUMPI DUP1 PUSH4 0xD1DE5011 EQ PUSH2 0x30B JUMPI DUP1 PUSH4 0xD7C89F5B EQ PUSH2 0x33B JUMPI DUP1 PUSH4 0xDA6841AA EQ PUSH2 0x36B JUMPI DUP1 PUSH4 0xF378C9DF EQ PUSH2 0x389 JUMPI PUSH2 0x10B JUMP JUMPDEST DUP1 PUSH4 0x734F231F EQ PUSH2 0x242 JUMPI DUP1 PUSH4 0x8ED0B01B EQ PUSH2 0x25E JUMPI DUP1 PUSH4 0x9A1D554E EQ PUSH2 0x28F JUMPI DUP1 PUSH4 0x9D5C7E9F EQ PUSH2 0x2BF JUMPI PUSH2 0x10B JUMP JUMPDEST DUP1 PUSH4 0x4470DA90 GT PUSH2 0xDE JUMPI DUP1 PUSH4 0x4470DA90 EQ PUSH2 0x1A8 JUMPI DUP1 PUSH4 0x485CC955 EQ PUSH2 0x1D8 JUMPI DUP1 PUSH4 0x4A5AF4E0 EQ PUSH2 0x1F4 JUMPI DUP1 PUSH4 0x54FD4D50 EQ PUSH2 0x224 JUMPI PUSH2 0x10B JUMP JUMPDEST DUP1 PUSH4 0x16AAC50E EQ PUSH2 0x110 JUMPI DUP1 PUSH4 0x16C1C26D EQ PUSH2 0x12C JUMPI DUP1 PUSH4 0x3E244A85 EQ PUSH2 0x15C JUMPI DUP1 PUSH4 0x3FDADA7A EQ PUSH2 0x178 JUMPI JUMPDEST PUSH1 0x0 DUP1 REVERT JUMPDEST PUSH2 0x12A PUSH1 0x4 DUP1 CALLDATASIZE SUB DUP2 ADD SWAP1 PUSH2 0x125 SWAP2 SWAP1 PUSH2 0x2C61 JUMP JUMPDEST PUSH2 0x3A5 JUMP JUMPDEST STOP JUMPDEST PUSH2 0x146 PUSH1 0x4 DUP1 CALLDATASIZE SUB DUP2 ADD SWAP1 PUSH2 0x141 SWAP2 SWAP1 PUSH2 0x2E8A JUMP JUMPDEST PUSH2 0x554 JUMP JUMPDEST PUSH1 0x40 MLOAD PUSH2 0x153 SWAP2 SWAP1 PUSH2 0x2F01 JUMP JUMPDEST PUSH1 0x40 MLOAD DUP1 SWAP2 SUB SWAP1 RETURN JUMPDEST PUSH2 0x176 PUSH1 0x4 DUP1 CALLDATASIZE SUB DUP2 ADD SWAP1 PUSH2 0x171 SWAP2 SWAP1 PUSH2 0x2F1C JUMP JUMPDEST PUSH2 0x851 JUMP JUMPDEST STOP JUMPDEST PUSH2 0x192 PUSH1 0x4 DUP1 CALLDATASIZE SUB DUP2 ADD SWAP1 PUSH2 0x18D SWAP2 SWAP1 PUSH2 0x2F78 JUMP JUMPDEST PUSH2 0xBDB JUMP JUMPDEST PUSH1 0x40 MLOAD PUSH2 0x19F SWAP2 SWAP1 PUSH2 0x3063 JUMP JUMPDEST PUSH1 0x40 MLOAD DUP1 SWAP2 SUB SWAP1 RETURN JUMPDEST PUSH2 0x1C2 PUSH1 0x4 DUP1 CALLDATASIZE SUB DUP2 ADD SWAP1 PUSH2 0x1BD SWAP2 SWAP1 PUSH2 0x3085 JUMP JUMPDEST PUSH2 0xDFD JUMP JUMPDEST PUSH1 0x40 MLOAD PUSH2 0x1CF SWAP2 SWAP1 PUSH2 0x310F JUMP JUMPDEST PUSH1 0x40 MLOAD DUP1 SWAP2 SUB SWAP1 RETURN JUMPDEST PUSH2 0x1F2 PUSH1 0x4 DUP1 CALLDATASIZE SUB DUP2 ADD SWAP1 PUSH2 0x1ED SWAP2 SWAP1 PUSH2 0x312A JUMP JUMPDEST PUSH2 0x15AB JUMP JUMPDEST STOP JUMPDEST PUSH2 0x20E PUSH1 0x4 DUP1 CALLDATASIZE SUB DUP2 ADD SWAP1 PUSH2 0x209 SWAP2 SWAP1 PUSH2 0x316A JUMP JUMPDEST PUSH2 0x1884 JUMP JUMPDEST PUSH1 0x40 MLOAD PUSH2 0x21B SWAP2 SWAP1 PUSH2 0x2F01 JUMP JUMPDEST PUSH1 0x40 MLOAD DUP1 SWAP2 SUB SWAP1 RETURN JUMPDEST PUSH2 0x22C PUSH2 0x198C JUMP JUMPDEST PUSH1 0x40 MLOAD PUSH2 0x239 SWAP2 SWAP1 PUSH2 0x310F JUMP JUMPDEST PUSH1 0x40 MLOAD DUP1 SWAP2 SUB SWAP1 RETURN JUMPDEST PUSH2 0x25C PUSH1 0x4 DUP1 CALLDATASIZE SUB DUP2 ADD SWAP1 PUSH2 0x257 SWAP2 SWAP1 PUSH2 0x31B3 JUMP JUMPDEST PUSH2 0x19D1 JUMP JUMPDEST STOP JUMPDEST PUSH2 0x278 PUSH1 0x4 DUP1 CALLDATASIZE SUB DUP2 ADD SWAP1 PUSH2 0x273 SWAP2 SWAP1 PUSH2 0x316A JUMP JUMPDEST PUSH2 0x1D88 JUMP JUMPDEST PUSH1 0x40 MLOAD PUSH2 0x286 SWAP3 SWAP2 SWAP1 PUSH2 0x32E0 JUMP JUMPDEST PUSH1 0x40 MLOAD DUP1 SWAP2 SUB SWAP1 RETURN JUMPDEST PUSH2 0x2A9 PUSH1 0x4 DUP1 CALLDATASIZE SUB DUP2 ADD SWAP1 PUSH2 0x2A4 SWAP2 SWAP1 PUSH2 0x2F78 JUMP JUMPDEST PUSH2 0x1FEA JUMP JUMPDEST PUSH1 0x40 MLOAD PUSH2 0x2B6 SWAP2 SWAP1 PUSH2 0x3317 JUMP JUMPDEST PUSH1 0x40 MLOAD DUP1 SWAP2 SUB SWAP1 RETURN JUMPDEST PUSH2 0x2D9 PUSH1 0x4 DUP1 CALLDATASIZE SUB DUP2 ADD SWAP1 PUSH2 0x2D4 SWAP2 SWAP1 PUSH2 0x3339 JUMP JUMPDEST PUSH2 0x2091 JUMP JUMPDEST STOP JUMPDEST PUSH2 0x2F5 PUSH1 0x4 DUP1 CALLDATASIZE SUB DUP2 ADD SWAP1 PUSH2 0x2F0 SWAP2 SWAP1 PUSH2 0x338C JUMP JUMPDEST PUSH2 0x23AD JUMP JUMPDEST PUSH1 0x40 MLOAD PUSH2 0x302 SWAP2 SWAP1 PUSH2 0x310F JUMP JUMPDEST PUSH1 0x40 MLOAD DUP1 SWAP2 SUB SWAP1 RETURN JUMPDEST PUSH2 0x325 PUSH1 0x4 DUP1 CALLDATASIZE SUB DUP2 ADD SWAP1 PUSH2 0x320 SWAP2 SWAP1 PUSH2 0x2F78 JUMP JUMPDEST PUSH2 0x2441 JUMP JUMPDEST PUSH1 0x40 MLOAD PUSH2 0x332 SWAP2 SWAP1 PUSH2 0x343F JUMP JUMPDEST PUSH1 0x40 MLOAD DUP1 SWAP2 SUB SWAP1 RETURN JUMPDEST PUSH2 0x355 PUSH1 0x4 DUP1 CALLDATASIZE SUB DUP2 ADD SWAP1 PUSH2 0x350 SWAP2 SWAP1 PUSH2 0x2F78 JUMP JUMPDEST PUSH2 0x2542 JUMP JUMPDEST PUSH1 0x40 MLOAD PUSH2 0x362 SWAP2 SWAP1 PUSH2 0x3571 JUMP JUMPDEST PUSH1 0x40 MLOAD DUP1 SWAP2 SUB SWAP1 RETURN JUMPDEST PUSH2 0x373 PUSH2 0x27DC JUMP JUMPDEST PUSH1 0x40 MLOAD PUSH2 0x380 SWAP2 SWAP1 PUSH2 0x310F JUMP JUMPDEST PUSH1 0x40 MLOAD DUP1 SWAP2 SUB SWAP1 RETURN JUMPDEST PUSH2 0x3A3 PUSH1 0x4 DUP1 CALLDATASIZE SUB DUP2 ADD SWAP1 PUSH2 0x39E SWAP2 SWAP1 PUSH2 0x31B3 JUMP JUMPDEST PUSH2 0x2822 JUMP JUMPDEST STOP JUMPDEST PUSH2 0x3B9 PUSH8 0xD9B9AF603550BCE1 PUSH1 0xC0 SHL PUSH2 0x2B4A JUMP JUMPDEST PUSH2 0x3CD PUSH8 0x56D321C83347553C PUSH1 0xC0 SHL PUSH2 0x2B4A JUMP JUMPDEST PUSH2 0x3E1 PUSH8 0x2349A2B67AB9C486 PUSH1 0xC0 SHL PUSH2 0x2B4A JUMP JUMPDEST PUSH2 0x3F5 PUSH8 0x163D3E5C76B11F10 PUSH1 0xC0 SHL PUSH2 0x2B4A JUMP JUMPDEST PUSH1 0x63 PUSH1 0xFF AND PUSH1 0x0 DUP1 CALLER PUSH20 0xFFFFFFFFFFFFFFFFFFFFFFFFFFFFFFFFFFFFFFFF AND PUSH20 0xFFFFFFFFFFFFFFFFFFFFFFFFFFFFFFFFFFFFFFFF AND DUP2 MSTORE PUSH1 0x20 ADD SWAP1 DUP2 MSTORE PUSH1 0x20 ADD PUSH1 0x0 KECCAK256 PUSH1 0x0 SWAP1 SLOAD SWAP1 PUSH2 0x100 EXP SWAP1 DIV PUSH1 0xFF AND PUSH1 0xFF AND LT ISZERO PUSH2 0x495 JUMPI PUSH2 0x463 PUSH8 0xF0545C46FEF308B5 PUSH1 0xC0 SHL PUSH2 0x2B4A JUMP JUMPDEST PUSH1 0x40 MLOAD PUSH32 0xED39A2F00000000000000000000000000000000000000000000000000000000 DUP2 MSTORE PUSH1 0x4 ADD PUSH1 0x40 MLOAD DUP1 SWAP2 SUB SWAP1 REVERT JUMPDEST PUSH2 0x4A9 PUSH8 0xAE1DDC5640B1291D PUSH1 0xC0 SHL PUSH2 0x2B4A JUMP JUMPDEST PUSH2 0x4BD PUSH8 0xB6CC8B73DE1FE830 PUSH1 0xC0 SHL PUSH2 0x2B4A JUMP JUMPDEST PUSH2 0x4D1 PUSH8 0x57FB8C77BA67AF19 PUSH1 0xC0 SHL PUSH2 0x2B4A JUMP JUMPDEST PUSH2 0x4E5 PUSH8 0x4176DC890E8C57D5 PUSH1 0xC0 SHL PUSH2 0x2B4A JUMP JUMPDEST PUSH2 0x4F9 PUSH8 0x8FD215A4B5113DA9 PUSH1 0xC0 SHL PUSH2 0x2B4A JUMP JUMPDEST DUP1 PUSH1 0x0 DUP1 DUP5 PUSH20 0xFFFFFFFFFFFFFFFFFFFFFFFFFFFFFFFFFFFFFFFF AND PUSH20 0xFFFFFFFFFFFFFFFFFFFFFFFFFFFFFFFFFFFFFFFF AND DUP2 MSTORE PUSH1 0x20 ADD SWAP1 DUP2 MSTORE PUSH1 0x20 ADD PUSH1 0x0 KECCAK256 PUSH1 0x0 PUSH2 0x100 EXP DUP2 SLOAD DUP2 PUSH1 0xFF MUL NOT AND SWAP1 DUP4 PUSH1 0xFF AND MUL OR SWAP1 SSTORE POP POP POP JUMP JUMPDEST PUSH1 0x0 PUSH2 0x56A PUSH8 0x181D4EED2074FB28 PUSH1 0xC0 SHL PUSH2 0x2B4A JUMP JUMPDEST PUSH2 0x57E PUSH8 0x558BF1E0B3A32E24 PUSH1 0xC0 SHL PUSH2 0x2B4A JUMP JUMPDEST PUSH2 0x592 PUSH8 0xED7027AD56F1D183 PUSH1 0xC0 SHL PUSH2 0x2B4A JUMP JUMPDEST PUSH1 0x0 DUP1 SHL DUP4 PUSH1 0x20 ADD MLOAD SUB PUSH2 0x5E6 JUMPI PUSH2 0x5B4 PUSH8 0x96B51989F97CF801 PUSH1 0xC0 SHL PUSH2 0x2B4A JUMP JUMPDEST PUSH1 0x40 MLOAD PUSH32 0x4A6BC07D00000000000000000000000000000000000000000000000000000000 DUP2 MSTORE PUSH1 0x4 ADD PUSH1 0x40 MLOAD DUP1 SWAP2 SUB SWAP1 REVERT JUMPDEST PUSH2 0x5FA PUSH8 0x1518585CBACF0E0D PUSH1 0xC0 SHL PUSH2 0x2B4A JUMP JUMPDEST PUSH2 0x60E PUSH8 0xABFBE760D09F681F PUSH1 0xC0 SHL PUSH2 0x2B4A JUMP JUMPDEST PUSH2 0x622 PUSH8 0x243B53EEF4B85238 PUSH1 0xC0 SHL PUSH2 0x2B4A JUMP JUMPDEST DUP2 PUSH1 0x0 ADD CALLDATALOAD PUSH1 0x4 PUSH1 0x0 DUP5 PUSH1 0x20 ADD CALLDATALOAD DUP2 MSTORE PUSH1 0x20 ADD SWAP1 DUP2 MSTORE PUSH1 0x20 ADD PUSH1 0x0 KECCAK256 DUP1 SLOAD SWAP1 POP GT PUSH2 0x68D JUMPI PUSH2 0x65B PUSH8 0xB3262D8631E9D1DE PUSH1 0xC0 SHL PUSH2 0x2B4A JUMP JUMPDEST PUSH1 0x40 MLOAD PUSH32 0xA37A76FF00000000000000000000000000000000000000000000000000000000 DUP2 MSTORE PUSH1 0x4 ADD PUSH1 0x40 MLOAD DUP1 SWAP2 SUB SWAP1 REVERT JUMPDEST PUSH2 0x6A1 PUSH8 0x86E5424BC2E13082 PUSH1 0xC0 SHL PUSH2 0x2B4A JUMP JUMPDEST PUSH2 0x6B5 PUSH8 0xCE826D34747EC7F4 PUSH1 0xC0 SHL PUSH2 0x2B4A JUMP JUMPDEST PUSH2 0x6C9 PUSH8 0x3FB4A85A0F5CA43F PUSH1 0xC0 SHL PUSH2 0x2B4A JUMP JUMPDEST PUSH1 0x0 PUSH1 0x4 PUSH1 0x0 DUP5 PUSH1 0x20 ADD CALLDATALOAD DUP2 MSTORE PUSH1 0x20 ADD SWAP1 DUP2 MSTORE PUSH1 0x20 ADD PUSH1 0x0 KECCAK256 DUP4 PUSH1 0x0 ADD CALLDATALOAD DUP2 SLOAD DUP2 LT PUSH2 0x6F8 JUMPI PUSH2 0x6F7 PUSH2 0x3593 JUMP JUMPDEST JUMPDEST SWAP1 PUSH1 0x0 MSTORE PUSH1 0x20 PUSH1 0x0 KECCAK256 ADD SLOAD SWAP1 POP PUSH2 0x719 PUSH8 0x2940B5ABB2AB0507 PUSH1 0xC0 SHL PUSH2 0x2B4A JUMP JUMPDEST PUSH2 0x72D PUSH8 0x549EA35AE8EF08DC PUSH1 0xC0 SHL PUSH2 0x2B4A JUMP JUMPDEST PUSH1 0x0 PUSH1 0x5 PUSH1 0x0 DUP6 PUSH1 0x20 ADD CALLDATALOAD DUP2 MSTORE PUSH1 0x20 ADD SWAP1 DUP2 MSTORE PUSH1 0x20 ADD PUSH1 0x0 KECCAK256 DUP5 PUSH1 0x0 ADD CALLDATALOAD DUP2 SLOAD DUP2 LT PUSH2 0x75C JUMPI PUSH2 0x75B PUSH2 0x3593 JUMP JUMPDEST JUMPDEST SWAP1 PUSH1 0x0 MSTORE PUSH1 0x20 PUSH1 0x0 KECCAK256 ADD SLOAD SWAP1 POP PUSH2 0x77D PUSH8 0x1F0FCE20A0B49C0F PUSH1 0xC0 SHL PUSH2 0x2B4A JUMP JUMPDEST PUSH2 0x791 PUSH8 0x4032E5549211E7DA PUSH1 0xC0 SHL PUSH2 0x2B4A JUMP JUMPDEST PUSH1 0x1 PUSH1 0x0 SWAP1 SLOAD SWAP1 PUSH2 0x100 EXP SWAP1 DIV PUSH20 0xFFFFFFFFFFFFFFFFFFFFFFFFFFFFFFFFFFFFFFFF AND PUSH20 0xFFFFFFFFFFFFFFFFFFFFFFFFFFFFFFFFFFFFFFFF AND PUSH4 0xA64F680B DUP6 PUSH1 0x40 ADD CALLDATALOAD DUP7 DUP1 PUSH1 0x60 ADD SWAP1 PUSH2 0x7E4 SWAP2 SWAP1 PUSH2 0x35D1 JUMP JUMPDEST DUP7 DUP7 PUSH1 0x40 MLOAD DUP7 PUSH4 0xFFFFFFFF AND PUSH1 0xE0 SHL DUP2 MSTORE PUSH1 0x4 ADD PUSH2 0x806 SWAP6 SWAP5 SWAP4 SWAP3 SWAP2 SWAP1 PUSH2 0x3690 JUMP JUMPDEST PUSH1 0x20 PUSH1 0x40 MLOAD DUP1 DUP4 SUB DUP2 DUP7 GAS STATICCALL ISZERO DUP1 ISZERO PUSH2 0x823 JUMPI RETURNDATASIZE PUSH1 0x0 DUP1 RETURNDATACOPY RETURNDATASIZE PUSH1 0x0 REVERT JUMPDEST POP POP POP POP PUSH1 0x40 MLOAD RETURNDATASIZE PUSH1 0x1F NOT PUSH1 0x1F DUP3 ADD AND DUP3 ADD DUP1 PUSH1 0x40 MSTORE POP DUP2 ADD SWAP1 PUSH2 0x847 SWAP2 SWAP1 PUSH2 0x370A JUMP JUMPDEST SWAP3 POP POP POP SWAP3 SWAP2 POP POP JUMP JUMPDEST PUSH2 0x865 PUSH8 0x278F7E86B262A8C1 PUSH1 0xC0 SHL PUSH2 0x2B4A JUMP JUMPDEST PUSH2 0x879 PUSH8 0x3C8BD695F9D2AC3D PUSH1 0xC0 SHL PUSH2 0x2B4A JUMP JUMPDEST PUSH2 0x88D PUSH8 0x329A7792E7D41B5D PUSH1 0xC0 SHL PUSH2 0x2B4A JUMP JUMPDEST PUSH2 0x8A1 PUSH8 0xDA024291C93CCD15 PUSH1 0xC0 SHL PUSH2 0x2B4A JUMP JUMPDEST PUSH1 0x32 PUSH1 0xFF AND PUSH1 0x0 DUP1 CALLER PUSH20 0xFFFFFFFFFFFFFFFFFFFFFFFFFFFFFFFFFFFFFFFF AND PUSH20 0xFFFFFFFFFFFFFFFFFFFFFFFFFFFFFFFFFFFFFFFF AND DUP2 MSTORE PUSH1 0x20 ADD SWAP1 DUP2 MSTORE PUSH1 0x20 ADD PUSH1 0x0 KECCAK256 PUSH1 0x0 SWAP1 SLOAD SWAP1 PUSH2 0x100 EXP SWAP1 DIV PUSH1 0xFF AND PUSH1 0xFF AND LT ISZERO PUSH2 0x941 JUMPI PUSH2 0x90F PUSH8 0xDB403C649ACD3A8B PUSH1 0xC0 SHL PUSH2 0x2B4A JUMP JUMPDEST PUSH1 0x40 MLOAD PUSH32 0x13E433C900000000000000000000000000000000000000000000000000000000 DUP2 MSTORE PUSH1 0x4 ADD PUSH1 0x40 MLOAD DUP1 SWAP2 SUB SWAP1 REVERT JUMPDEST PUSH2 0x955 PUSH8 0x6202FDD82776ABB3 PUSH1 0xC0 SHL PUSH2 0x2B4A JUMP JUMPDEST PUSH2 0x969 PUSH8 0x82EC471C4120DB74 PUSH1 0xC0 SHL PUSH2 0x2B4A JUMP JUMPDEST PUSH2 0x97D PUSH8 0xAD9F4D944A682376 PUSH1 0xC0 SHL PUSH2 0x2B4A JUMP JUMPDEST PUSH2 0x991 PUSH8 0xE16FB18F7115C85A PUSH1 0xC0 SHL PUSH2 0x2B4A JUMP JUMPDEST PUSH2 0x9A5 PUSH8 0xA93467B96A79632A PUSH1 0xC0 SHL PUSH2 0x2B4A JUMP JUMPDEST PUSH2 0x9B9 PUSH8 0xB85758503CB82DCB PUSH1 0xC0 SHL PUSH2 0x2B4A JUMP JUMPDEST PUSH1 0x0 PUSH1 0x7 PUSH1 0x0 DUP4 PUSH1 0x20 ADD CALLDATALOAD DUP2 MSTORE PUSH1 0x20 ADD SWAP1 DUP2 MSTORE PUSH1 0x20 ADD PUSH1 0x0 KECCAK256 PUSH1 0x40 MLOAD DUP1 PUSH1 0xA0 ADD PUSH1 0x40 MSTORE SWAP1 DUP2 PUSH1 0x0 DUP3 ADD SLOAD DUP2 MSTORE PUSH1 0x20 ADD PUSH1 0x1 DUP3 ADD SLOAD DUP2 MSTORE PUSH1 0x20 ADD PUSH1 0x2 DUP3 ADD SLOAD DUP2 MSTORE PUSH1 0x20 ADD PUSH1 0x3 DUP3 ADD PUSH1 0x0 SWAP1 SLOAD SWAP1 PUSH2 0x100 EXP SWAP1 DIV PUSH4 0xFFFFFFFF AND PUSH4 0xFFFFFFFF AND PUSH4 0xFFFFFFFF AND DUP2 MSTORE PUSH1 0x20 ADD PUSH1 0x3 DUP3 ADD PUSH1 0x4 SWAP1 SLOAD SWAP1 PUSH2 0x100 EXP SWAP1 DIV PUSH4 0xFFFFFFFF AND PUSH4 0xFFFFFFFF AND PUSH4 0xFFFFFFFF AND DUP2 MSTORE POP POP SWAP1 POP PUSH2 0xA5D PUSH8 0xDC8DB9A335433A57 PUSH1 0xC0 SHL PUSH2 0x2B4A JUMP JUMPDEST PUSH2 0xA71 PUSH8 0xC1B2231BE5D08E3 PUSH1 0xC0 SHL PUSH2 0x2B4A JUMP JUMPDEST PUSH2 0xA7B DUP2 DUP4 PUSH2 0x554 JUMP JUMPDEST PUSH2 0xAC5 JUMPI PUSH2 0xA93 PUSH8 0x94E1BAF5A88957FE PUSH1 0xC0 SHL PUSH2 0x2B4A JUMP JUMPDEST PUSH1 0x40 MLOAD PUSH32 0x9FD8CECA00000000000000000000000000000000000000000000000000000000 DUP2 MSTORE PUSH1 0x4 ADD PUSH1 0x40 MLOAD DUP1 SWAP2 SUB SWAP1 REVERT JUMPDEST PUSH2 0xAD9 PUSH8 0x6F731301CB418C15 PUSH1 0xC0 SHL PUSH2 0x2B4A JUMP JUMPDEST PUSH2 0xAED PUSH8 0xB2AE1A583D0DF97C PUSH1 0xC0 SHL PUSH2 0x2B4A JUMP JUMPDEST PUSH2 0xB01 PUSH8 0xE989FEE52C7FB681 PUSH1 0xC0 SHL PUSH2 0x2B4A JUMP JUMPDEST PUSH1 0x9 PUSH1 0x0 DUP4 PUSH1 0x20 ADD CALLDATALOAD DUP2 MSTORE PUSH1 0x20 ADD SWAP1 DUP2 MSTORE PUSH1 0x20 ADD PUSH1 0x0 KECCAK256 DUP4 SWAP1 DUP1 PUSH1 0x1 DUP2 SLOAD ADD DUP1 DUP3 SSTORE DUP1 SWAP2 POP POP PUSH1 0x1 SWAP1 SUB SWAP1 PUSH1 0x0 MSTORE PUSH1 0x20 PUSH1 0x0 KECCAK256 ADD PUSH1 0x0 SWAP1 SWAP2 SWAP1 SWAP2 SWAP1 SWAP2 PUSH2 0x100 EXP DUP2 SLOAD DUP2 PUSH20 0xFFFFFFFFFFFFFFFFFFFFFFFFFFFFFFFFFFFFFFFF MUL NOT AND SWAP1 DUP4 PUSH20 0xFFFFFFFFFFFFFFFFFFFFFFFFFFFFFFFFFFFFFFFF AND MUL OR SWAP1 SSTORE POP PUSH2 0xB8D PUSH8 0xF09CE26808E76BC9 PUSH1 0xC0 SHL PUSH2 0x2B4A JUMP JUMPDEST PUSH1 0x1 DUP2 PUSH1 0x80 ADD MLOAD PUSH2 0xB9E SWAP2 SWAP1 PUSH2 0x3766 JUMP JUMPDEST PUSH1 0x7 PUSH1 0x0 DUP5 PUSH1 0x20 ADD CALLDATALOAD DUP2 MSTORE PUSH1 0x20 ADD SWAP1 DUP2 MSTORE PUSH1 0x20 ADD PUSH1 0x0 KECCAK256 PUSH1 0x3 ADD PUSH1 0x4 PUSH2 0x100 EXP DUP2 SLOAD DUP2 PUSH4 0xFFFFFFFF MUL NOT AND SWAP1 DUP4 PUSH4 0xFFFFFFFF AND MUL OR SWAP1 SSTORE POP POP POP POP JUMP JUMPDEST PUSH1 0x60 PUSH2 0xBF1 PUSH8 0x5AE284538C1E962 PUSH1 0xC0 SHL PUSH2 0x2B4A JUMP JUMPDEST PUSH2 0xC05 PUSH8 0x7F9ED1A7067803D1 PUSH1 0xC0 SHL PUSH2 0x2B4A JUMP JUMPDEST PUSH2 0xC19 PUSH8 0x598B89E52E1C16D4 PUSH1 0xC0 SHL PUSH2 0x2B4A JUMP JUMPDEST PUSH1 0x0 PUSH1 0x7 PUSH1 0x0 DUP5 DUP2 MSTORE PUSH1 0x20 ADD SWAP1 DUP2 MSTORE PUSH1 0x20 ADD PUSH1 0x0 KECCAK256 PUSH1 0x40 MLOAD DUP1 PUSH1 0xA0 ADD PUSH1 0x40 MSTORE SWAP1 DUP2 PUSH1 0x0 DUP3 ADD SLOAD DUP2 MSTORE PUSH1 0x20 ADD PUSH1 0x1 DUP3 ADD SLOAD DUP2 MSTORE PUSH1 0x20 ADD PUSH1 0x2 DUP3 ADD SLOAD DUP2 MSTORE PUSH1 0x20 ADD PUSH1 0x3 DUP3 ADD PUSH1 0x0 SWAP1 SLOAD SWAP1 PUSH2 0x100 EXP SWAP1 DIV PUSH4 0xFFFFFFFF AND PUSH4 0xFFFFFFFF AND PUSH4 0xFFFFFFFF AND DUP2 MSTORE PUSH1 0x20 ADD PUSH1 0x3 DUP3 ADD PUSH1 0x4 SWAP1 SLOAD SWAP1 PUSH2 0x100 EXP SWAP1 DIV PUSH4 0xFFFFFFFF AND PUSH4 0xFFFFFFFF AND PUSH4 0xFFFFFFFF AND DUP2 MSTORE POP POP SWAP1 POP PUSH2 0xCB9 PUSH8 0xFC63B8EBD8BA3503 PUSH1 0xC0 SHL PUSH2 0x2B4A JUMP JUMPDEST PUSH2 0xCCD PUSH8 0x3522C5455F291BF3 PUSH1 0xC0 SHL PUSH2 0x2B4A JUMP JUMPDEST PUSH1 0x0 DUP1 SHL DUP2 PUSH1 0x20 ADD MLOAD SUB PUSH2 0xD21 JUMPI PUSH2 0xCEF PUSH8 0x3F95483084D7CE07 PUSH1 0xC0 SHL PUSH2 0x2B4A JUMP JUMPDEST PUSH1 0x40 MLOAD PUSH32 0x4A6BC07D00000000000000000000000000000000000000000000000000000000 DUP2 MSTORE PUSH1 0x4 ADD PUSH1 0x40 MLOAD DUP1 SWAP2 SUB SWAP1 REVERT JUMPDEST PUSH2 0xD35 PUSH8 0x3D3C6BF83B78DE8A PUSH1 0xC0 SHL PUSH2 0x2B4A JUMP JUMPDEST PUSH2 0xD49 PUSH8 0x539FBBBCBC3ABC63 PUSH1 0xC0 SHL PUSH2 0x2B4A JUMP JUMPDEST PUSH2 0xD5D PUSH8 0xD43B801C2AD3EB18 PUSH1 0xC0 SHL PUSH2 0x2B4A JUMP JUMPDEST PUSH1 0x9 PUSH1 0x0 DUP5 DUP2 MSTORE PUSH1 0x20 ADD SWAP1 DUP2 MSTORE PUSH1 0x20 ADD PUSH1 0x0 KECCAK256 DUP1 SLOAD DUP1 PUSH1 0x20 MUL PUSH1 0x20 ADD PUSH1 0x40 MLOAD SWAP1 DUP2 ADD PUSH1 0x40 MSTORE DUP1 SWAP3 SWAP2 SWAP1 DUP2 DUP2 MSTORE PUSH1 0x20 ADD DUP3 DUP1 SLOAD DUP1 ISZERO PUSH2 0xDF0 JUMPI PUSH1 0x20 MUL DUP3 ADD SWAP2 SWAP1 PUSH1 0x0 MSTORE PUSH1 0x20 PUSH1 0x0 KECCAK256 SWAP1 JUMPDEST DUP2 PUSH1 0x0 SWAP1 SLOAD SWAP1 PUSH2 0x100 EXP SWAP1 DIV PUSH20 0xFFFFFFFFFFFFFFFFFFFFFFFFFFFFFFFFFFFFFFFF AND PUSH20 0xFFFFFFFFFFFFFFFFFFFFFFFFFFFFFFFFFFFFFFFF AND DUP2 MSTORE PUSH1 0x20 ADD SWAP1 PUSH1 0x1 ADD SWAP1 DUP1 DUP4 GT PUSH2 0xDA6 JUMPI JUMPDEST POP POP POP POP POP SWAP2 POP POP SWAP2 SWAP1 POP JUMP JUMPDEST PUSH1 0x0 PUSH2 0xE13 PUSH8 0xB0E5D26E58203765 PUSH1 0xC0 SHL PUSH2 0x2B4A JUMP JUMPDEST PUSH2 0xE27 PUSH8 0x3C8BD695F9D2AC3D PUSH1 0xC0 SHL PUSH2 0x2B4A JUMP JUMPDEST PUSH2 0xE3B PUSH8 0x329A7792E7D41B5D PUSH1 0xC0 SHL PUSH2 0x2B4A JUMP JUMPDEST PUSH2 0xE4F PUSH8 0xDA024291C93CCD15 PUSH1 0xC0 SHL PUSH2 0x2B4A JUMP JUMPDEST PUSH1 0x32 PUSH1 0xFF AND PUSH1 0x0 DUP1 CALLER PUSH20 0xFFFFFFFFFFFFFFFFFFFFFFFFFFFFFFFFFFFFFFFF AND PUSH20 0xFFFFFFFFFFFFFFFFFFFFFFFFFFFFFFFFFFFFFFFF AND DUP2 MSTORE PUSH1 0x20 ADD SWAP1 DUP2 MSTORE PUSH1 0x20 ADD PUSH1 0x0 KECCAK256 PUSH1 0x0 SWAP1 SLOAD SWAP1 PUSH2 0x100 EXP SWAP1 DIV PUSH1 0xFF AND PUSH1 0xFF AND LT ISZERO PUSH2 0xEEF JUMPI PUSH2 0xEBD PUSH8 0xDB403C649ACD3A8B PUSH1 0xC0 SHL PUSH2 0x2B4A JUMP JUMPDEST PUSH1 0x40 MLOAD PUSH32 0x13E433C900000000000000000000000000000000000000000000000000000000 DUP2 MSTORE PUSH1 0x4 ADD PUSH1 0x40 MLOAD DUP1 SWAP2 SUB SWAP1 REVERT JUMPDEST PUSH2 0xF03 PUSH8 0x6202FDD82776ABB3 PUSH1 0xC0 SHL PUSH2 0x2B4A JUMP JUMPDEST PUSH2 0xF17 PUSH8 0x82EC471C4120DB74 PUSH1 0xC0 SHL PUSH2 0x2B4A JUMP JUMPDEST PUSH2 0xF2B PUSH8 0x61B2CC289E50CB83 PUSH1 0xC0 SHL PUSH2 0x2B4A JUMP JUMPDEST PUSH2 0xF3F PUSH8 0x87301F91544719FF PUSH1 0xC0 SHL PUSH2 0x2B4A JUMP JUMPDEST PUSH2 0xF53 PUSH8 0xE0B308027AF16BA PUSH1 0xC0 SHL PUSH2 0x2B4A JUMP JUMPDEST PUSH2 0xF67 PUSH8 0x75725FD08B39735A PUSH1 0xC0 SHL PUSH2 0x2B4A JUMP JUMPDEST PUSH1 0x0 PUSH1 0x7 PUSH1 0x0 DUP9 DUP2 MSTORE PUSH1 0x20 ADD SWAP1 DUP2 MSTORE PUSH1 0x20 ADD PUSH1 0x0 KECCAK256 PUSH1 0x40 MLOAD DUP1 PUSH1 0xA0 ADD PUSH1 0x40 MSTORE SWAP1 DUP2 PUSH1 0x0 DUP3 ADD SLOAD DUP2 MSTORE PUSH1 0x20 ADD PUSH1 0x1 DUP3 ADD SLOAD DUP2 MSTORE PUSH1 0x20 ADD PUSH1 0x2 DUP3 ADD SLOAD DUP2 MSTORE PUSH1 0x20 ADD PUSH1 0x3 DUP3 ADD PUSH1 0x0 SWAP1 SLOAD SWAP1 PUSH2 0x100 EXP SWAP1 DIV PUSH4 0xFFFFFFFF AND PUSH4 0xFFFFFFFF AND PUSH4 0xFFFFFFFF AND DUP2 MSTORE PUSH1 0x20 ADD PUSH1 0x3 DUP3 ADD PUSH1 0x4 SWAP1 SLOAD SWAP1 PUSH2 0x100 EXP SWAP1 DIV PUSH4 0xFFFFFFFF AND PUSH4 0xFFFFFFFF AND PUSH4 0xFFFFFFFF AND DUP2 MSTORE POP POP SWAP1 POP PUSH2 0x1007 PUSH8 0x58B8E9A1AAEF9BD9 PUSH1 0xC0 SHL PUSH2 0x2B4A JUMP JUMPDEST PUSH2 0x101B PUSH8 0x9057A2F5C5454B9E PUSH1 0xC0 SHL PUSH2 0x2B4A JUMP JUMPDEST PUSH1 0x0 DUP1 SHL DUP2 PUSH1 0x20 ADD MLOAD GT ISZERO PUSH2 0x1070 JUMPI PUSH2 0x103E PUSH8 0xF9AB94BD0A4FA61C PUSH1 0xC0 SHL PUSH2 0x2B4A JUMP JUMPDEST PUSH1 0x40 MLOAD PUSH32 0xF148D0700000000000000000000000000000000000000000000000000000000 DUP2 MSTORE PUSH1 0x4 ADD PUSH1 0x40 MLOAD DUP1 SWAP2 SUB SWAP1 REVERT JUMPDEST PUSH2 0x1084 PUSH8 0xC5C5BFDF51D5865D PUSH1 0xC0 SHL PUSH2 0x2B4A JUMP JUMPDEST PUSH2 0x1098 PUSH8 0x4C0394C3C0A4A2FE PUSH1 0xC0 SHL PUSH2 0x2B4A JUMP JUMPDEST PUSH2 0x10AC PUSH8 0x15D52756AC019BFC PUSH1 0xC0 SHL PUSH2 0x2B4A JUMP JUMPDEST PUSH1 0x0 PUSH1 0x2 SLOAD SWAP1 POP PUSH2 0x10C7 PUSH8 0xEBF3F49F68DAED07 PUSH1 0xC0 SHL PUSH2 0x2B4A JUMP JUMPDEST PUSH1 0x1 PUSH1 0x2 SLOAD PUSH2 0x10D6 SWAP2 SWAP1 PUSH2 0x379E JUMP JUMPDEST PUSH1 0x2 DUP2 SWAP1 SSTORE POP PUSH2 0x10F0 PUSH8 0xE6FDC30CC660A37E PUSH1 0xC0 SHL PUSH2 0x2B4A JUMP JUMPDEST PUSH2 0x1104 PUSH8 0x449F2368F27EA965 PUSH1 0xC0 SHL PUSH2 0x2B4A JUMP JUMPDEST PUSH1 0x4 PUSH1 0x0 DUP10 DUP2 MSTORE PUSH1 0x20 ADD SWAP1 DUP2 MSTORE PUSH1 0x20 ADD PUSH1 0x0 KECCAK256 DUP6 SWAP1 DUP1 PUSH1 0x1 DUP2 SLOAD ADD DUP1 DUP3 SSTORE DUP1 SWAP2 POP POP PUSH1 0x1 SWAP1 SUB SWAP1 PUSH1 0x0 MSTORE PUSH1 0x20 PUSH1 0x0 KECCAK256 ADD PUSH1 0x0 SWAP1 SWAP2 SWAP1 SWAP2 SWAP1 SWAP2 POP SSTORE PUSH2 0x1152 PUSH8 0x95E9AE7D6C840F8C PUSH1 0xC0 SHL PUSH2 0x2B4A JUMP JUMPDEST PUSH2 0x1166 PUSH8 0xE324CFAA53818D98 PUSH1 0xC0 SHL PUSH2 0x2B4A JUMP JUMPDEST PUSH1 0x5 PUSH1 0x0 DUP10 DUP2 MSTORE PUSH1 0x20 ADD SWAP1 DUP2 MSTORE PUSH1 0x20 ADD PUSH1 0x0 KECCAK256 DUP5 SWAP1 DUP1 PUSH1 0x1 DUP2 SLOAD ADD DUP1 DUP3 SSTORE DUP1 SWAP2 POP POP PUSH1 0x1 SWAP1 SUB SWAP1 PUSH1 0x0 MSTORE PUSH1 0x20 PUSH1 0x0 KECCAK256 ADD PUSH1 0x0 SWAP1 SWAP2 SWAP1 SWAP2 SWAP1 SWAP2 POP SSTORE PUSH2 0x11B4 PUSH8 0xBCF36EED73406DBE PUSH1 0xC0 SHL PUSH2 0x2B4A JUMP JUMPDEST PUSH1 0x1 PUSH1 0x7 PUSH1 0x0 DUP11 DUP2 MSTORE PUSH1 0x20 ADD SWAP1 DUP2 MSTORE PUSH1 0x20 ADD PUSH1 0x0 KECCAK256 PUSH1 0x3 ADD PUSH1 0x0 PUSH2 0x100 EXP DUP2 SLOAD DUP2 PUSH4 0xFFFFFFFF MUL NOT AND SWAP1 DUP4 PUSH4 0xFFFFFFFF AND MUL OR SWAP1 SSTORE POP PUSH2 0x11FE PUSH8 0x6307A2F7807172AF PUSH1 0xC0 SHL PUSH2 0x2B4A JUMP JUMPDEST PUSH2 0x1212 PUSH8 0x72B85F8EC6FD1082 PUSH1 0xC0 SHL PUSH2 0x2B4A JUMP JUMPDEST PUSH1 0x6 PUSH1 0x0 DUP10 DUP2 MSTORE PUSH1 0x20 ADD SWAP1 DUP2 MSTORE PUSH1 0x20 ADD PUSH1 0x0 KECCAK256 PUSH1 0x0 DUP1 SHL SWAP1 DUP1 PUSH1 0x1 DUP2 SLOAD ADD DUP1 DUP3 SSTORE DUP1 SWAP2 POP POP PUSH1 0x1 SWAP1 SUB SWAP1 PUSH1 0x0 MSTORE PUSH1 0x20 PUSH1 0x0 KECCAK256 ADD PUSH1 0x0 SWAP1 SWAP2 SWAP1 SWAP2 SWAP1 SWAP2 POP SSTORE PUSH2 0x1263 PUSH8 0x87E50026C26AFB24 PUSH1 0xC0 SHL PUSH2 0x2B4A JUMP JUMPDEST PUSH2 0x1277 PUSH8 0x19F5DD1232BE90EC PUSH1 0xC0 SHL PUSH2 0x2B4A JUMP JUMPDEST PUSH1 0x6 PUSH1 0x0 DUP10 DUP2 MSTORE PUSH1 0x20 ADD SWAP1 DUP2 MSTORE PUSH1 0x20 ADD PUSH1 0x0 KECCAK256 PUSH1 0x0 DUP1 SHL SWAP1 DUP1 PUSH1 0x1 DUP2 SLOAD ADD DUP1 DUP3 SSTORE DUP1 SWAP2 POP POP PUSH1 0x1 SWAP1 SUB SWAP1 PUSH1 0x0 MSTORE PUSH1 0x20 PUSH1 0x0 KECCAK256 ADD PUSH1 0x0 SWAP1 SWAP2 SWAP1 SWAP2 SWAP1 SWAP2 POP SSTORE PUSH2 0x12C8 PUSH8 0x9E5FC1402C0D1B0F PUSH1 0xC0 SHL PUSH2 0x2B4A JUMP JUMPDEST PUSH2 0x12DC PUSH8 0x88CF476076E7CD3C PUSH1 0xC0 SHL PUSH2 0x2B4A JUMP JUMPDEST PUSH1 0x6 PUSH1 0x0 DUP10 DUP2 MSTORE PUSH1 0x20 ADD SWAP1 DUP2 MSTORE PUSH1 0x20 ADD PUSH1 0x0 KECCAK256 PUSH1 0x0 DUP1 SHL SWAP1 DUP1 PUSH1 0x1 DUP2 SLOAD ADD DUP1 DUP3 SSTORE DUP1 SWAP2 POP POP PUSH1 0x1 SWAP1 SUB SWAP1 PUSH1 0x0 MSTORE PUSH1 0x20 PUSH1 0x0 KECCAK256 ADD PUSH1 0x0 SWAP1 SWAP2 SWAP1 SWAP2 SWAP1 SWAP2 POP SSTORE PUSH2 0x132D PUSH8 0xE6E7C32EE87ACC02 PUSH1 0xC0 SHL PUSH2 0x2B4A JUMP JUMPDEST PUSH2 0x1341 PUSH8 0xBC37111AC0A211D0 PUSH1 0xC0 SHL PUSH2 0x2B4A JUMP JUMPDEST PUSH1 0x6 PUSH1 0x0 DUP10 DUP2 MSTORE PUSH1 0x20 ADD SWAP1 DUP2 MSTORE PUSH1 0x20 ADD PUSH1 0x0 KECCAK256 PUSH1 0x0 DUP1 SHL SWAP1 DUP1 PUSH1 0x1 DUP2 SLOAD ADD DUP1 DUP3 SSTORE DUP1 SWAP2 POP POP PUSH1 0x1 SWAP1 SUB SWAP1 PUSH1 0x0 MSTORE PUSH1 0x20 PUSH1 0x0 KECCAK256 ADD PUSH1 0x0 SWAP1 SWAP2 SWAP1 SWAP2 SWAP1 SWAP2 POP SSTORE PUSH2 0x1392 PUSH8 0xF54D863DDEE11115 PUSH1 0xC0 SHL PUSH2 0x2B4A JUMP JUMPDEST PUSH2 0x13A6 PUSH8 0x8E5C00EBA9188B09 PUSH1 0xC0 SHL PUSH2 0x2B4A JUMP JUMPDEST PUSH1 0x0 PUSH1 0x40 MLOAD DUP1 PUSH1 0xA0 ADD PUSH1 0x40 MSTORE DUP1 DUP4 DUP2 MSTORE PUSH1 0x20 ADD DUP11 DUP2 MSTORE PUSH1 0x20 ADD DUP10 DUP2 MSTORE PUSH1 0x20 ADD PUSH1 0x0 PUSH4 0xFFFFFFFF AND DUP2 MSTORE PUSH1 0x20 ADD PUSH1 0x1 PUSH4 0xFFFFFFFF AND DUP2 MSTORE POP SWAP1 POP PUSH2 0x13F3 PUSH8 0xEB3FD02B4C743BE1 PUSH1 0xC0 SHL PUSH2 0x2B4A JUMP JUMPDEST DUP1 PUSH1 0x7 PUSH1 0x0 DUP12 DUP2 MSTORE PUSH1 0x20 ADD SWAP1 DUP2 MSTORE PUSH1 0x20 ADD PUSH1 0x0 KECCAK256 PUSH1 0x0 DUP3 ADD MLOAD DUP2 PUSH1 0x0 ADD SSTORE PUSH1 0x20 DUP3 ADD MLOAD DUP2 PUSH1 0x1 ADD SSTORE PUSH1 0x40 DUP3 ADD MLOAD DUP2 PUSH1 0x2 ADD SSTORE PUSH1 0x60 DUP3 ADD MLOAD DUP2 PUSH1 0x3 ADD PUSH1 0x0 PUSH2 0x100 EXP DUP2 SLOAD DUP2 PUSH4 0xFFFFFFFF MUL NOT AND SWAP1 DUP4 PUSH4 0xFFFFFFFF AND MUL OR SWAP1 SSTORE POP PUSH1 0x80 DUP3 ADD MLOAD DUP2 PUSH1 0x3 ADD PUSH1 0x4 PUSH2 0x100 EXP DUP2 SLOAD DUP2 PUSH4 0xFFFFFFFF MUL NOT AND SWAP1 DUP4 PUSH4 0xFFFFFFFF AND MUL OR SWAP1 SSTORE POP SWAP1 POP POP PUSH2 0x148A PUSH8 0x7D28DD4D73EC36F9 PUSH1 0xC0 SHL PUSH2 0x2B4A JUMP JUMPDEST PUSH2 0x149E PUSH8 0x7E304BF7E12F1E10 PUSH1 0xC0 SHL PUSH2 0x2B4A JUMP JUMPDEST PUSH1 0x9 PUSH1 0x0 DUP11 DUP2 MSTORE PUSH1 0x20 ADD SWAP1 DUP2 MSTORE PUSH1 0x20 ADD PUSH1 0x0 KECCAK256 DUP8 SWAP1 DUP1 PUSH1 0x1 DUP2 SLOAD ADD DUP1 DUP3 SSTORE DUP1 SWAP2 POP POP PUSH1 0x1 SWAP1 SUB SWAP1 PUSH1 0x0 MSTORE PUSH1 0x20 PUSH1 0x0 KECCAK256 ADD PUSH1 0x0 SWAP1 SWAP2 SWAP1 SWAP2 SWAP1 SWAP2 PUSH2 0x100 EXP DUP2 SLOAD DUP2 PUSH20 0xFFFFFFFFFFFFFFFFFFFFFFFFFFFFFFFFFFFFFFFF MUL NOT AND SWAP1 DUP4 PUSH20 0xFFFFFFFFFFFFFFFFFFFFFFFFFFFFFFFFFFFFFFFF AND MUL OR SWAP1 SSTORE POP PUSH2 0x1526 PUSH8 0xF4EA0E69F5BD9AC8 PUSH1 0xC0 SHL PUSH2 0x2B4A JUMP JUMPDEST PUSH2 0x153A PUSH8 0xA0E2BC3ED5686243 PUSH1 0xC0 SHL PUSH2 0x2B4A JUMP JUMPDEST PUSH1 0x8 PUSH1 0x0 DUP10 DUP2 MSTORE PUSH1 0x20 ADD SWAP1 DUP2 MSTORE PUSH1 0x20 ADD PUSH1 0x0 KECCAK256 DUP10 SWAP1 DUP1 PUSH1 0x1 DUP2 SLOAD ADD DUP1 DUP3 SSTORE DUP1 SWAP2 POP POP PUSH1 0x1 SWAP1 SUB SWAP1 PUSH1 0x0 MSTORE PUSH1 0x20 PUSH1 0x0 KECCAK256 ADD PUSH1 0x0 SWAP1 SWAP2 SWAP1 SWAP2 SWAP1 SWAP2 POP SSTORE PUSH2 0x1588 PUSH8 0x9A25136C3B965AB0 PUSH1 0xC0 SHL PUSH2 0x2B4A JUMP JUMPDEST PUSH2 0x159C PUSH8 0x3855EA26CBBBD706 PUSH1 0xC0 SHL PUSH2 0x2B4A JUMP JUMPDEST DUP2 SWAP4 POP POP POP POP SWAP6 SWAP5 POP POP POP POP POP JUMP JUMPDEST PUSH2 0x15BF PUSH8 0x7C4A7DC2111FB47 PUSH1 0xC0 SHL PUSH2 0x2B4A JUMP JUMPDEST PUSH1 0x0 PUSH2 0x15C9 PUSH2 0x2B4D JUMP JUMPDEST SWAP1 POP PUSH1 0x0 DUP2 PUSH1 0x0 ADD PUSH1 0x8 SWAP1 SLOAD SWAP1 PUSH2 0x100 EXP SWAP1 DIV PUSH1 0xFF AND ISZERO SWAP1 POP PUSH1 0x0 DUP3 PUSH1 0x0 ADD PUSH1 0x0 SWAP1 SLOAD SWAP1 PUSH2 0x100 EXP SWAP1 DIV PUSH8 0xFFFFFFFFFFFFFFFF AND SWAP1 POP PUSH1 0x0 DUP1 DUP3 PUSH8 0xFFFFFFFFFFFFFFFF AND EQ DUP1 ISZERO PUSH2 0x1617 JUMPI POP DUP3 JUMPDEST SWAP1 POP PUSH1 0x0 PUSH1 0x1 DUP4 PUSH8 0xFFFFFFFFFFFFFFFF AND EQ DUP1 ISZERO PUSH2 0x164C JUMPI POP PUSH1 0x0 ADDRESS PUSH20 0xFFFFFFFFFFFFFFFFFFFFFFFFFFFFFFFFFFFFFFFF AND EXTCODESIZE EQ JUMPDEST SWAP1 POP DUP2 ISZERO DUP1 ISZERO PUSH2 0x165A JUMPI POP DUP1 ISZERO JUMPDEST ISZERO PUSH2 0x1691 JUMPI PUSH1 0x40 MLOAD PUSH32 0xF92EE8A900000000000000000000000000000000000000000000000000000000 DUP2 MSTORE PUSH1 0x4 ADD PUSH1 0x40 MLOAD DUP1 SWAP2 SUB SWAP1 REVERT JUMPDEST PUSH1 0x1 DUP6 PUSH1 0x0 ADD PUSH1 0x0 PUSH2 0x100 EXP DUP2 SLOAD DUP2 PUSH8 0xFFFFFFFFFFFFFFFF MUL NOT AND SWAP1 DUP4 PUSH8 0xFFFFFFFFFFFFFFFF AND MUL OR SWAP1 SSTORE POP DUP4 ISZERO PUSH2 0x16E1 JUMPI PUSH1 0x1 DUP6 PUSH1 0x0 ADD PUSH1 0x8 PUSH2 0x100 EXP DUP2 SLOAD DUP2 PUSH1 0xFF MUL NOT AND SWAP1 DUP4 ISZERO ISZERO MUL OR SWAP1 SSTORE POP JUMPDEST PUSH2 0x16F5 PUSH8 0x4D0787169FF89B3D PUSH1 0xC0 SHL PUSH2 0x2B4A JUMP JUMPDEST PUSH2 0x1709 PUSH8 0x4068ACC1F35DBF89 PUSH1 0xC0 SHL PUSH2 0x2B4A JUMP JUMPDEST PUSH2 0x171D PUSH8 0xE4958EFD0050AA53 PUSH1 0xC0 SHL PUSH2 0x2B4A JUMP JUMPDEST PUSH1 0x63 PUSH1 0x0 DUP1 DUP10 PUSH20 0xFFFFFFFFFFFFFFFFFFFFFFFFFFFFFFFFFFFFFFFF AND PUSH20 0xFFFFFFFFFFFFFFFFFFFFFFFFFFFFFFFFFFFFFFFF AND DUP2 MSTORE PUSH1 0x20 ADD SWAP1 DUP2 MSTORE PUSH1 0x20 ADD PUSH1 0x0 KECCAK256 PUSH1 0x0 PUSH2 0x100 EXP DUP2 SLOAD DUP2 PUSH1 0xFF MUL NOT AND SWAP1 DUP4 PUSH1 0xFF AND MUL OR SWAP1 SSTORE POP PUSH2 0x1789 PUSH8 0x9000662EEBB28F9 PUSH1 0xC0 SHL PUSH2 0x2B4A JUMP JUMPDEST DUP7 PUSH1 0x3 PUSH1 0x0 PUSH2 0x100 EXP DUP2 SLOAD DUP2 PUSH20 0xFFFFFFFFFFFFFFFFFFFFFFFFFFFFFFFFFFFFFFFF MUL NOT AND SWAP1 DUP4 PUSH20 0xFFFFFFFFFFFFFFFFFFFFFFFFFFFFFFFFFFFFFFFF AND MUL OR SWAP1 SSTORE POP PUSH2 0x17DE PUSH8 0x2D888C4FAD36547C PUSH1 0xC0 SHL PUSH2 0x2B4A JUMP JUMPDEST DUP6 PUSH1 0x1 PUSH1 0x0 PUSH2 0x100 EXP DUP2 SLOAD DUP2 PUSH20 0xFFFFFFFFFFFFFFFFFFFFFFFFFFFFFFFFFFFFFFFF MUL NOT AND SWAP1 DUP4 PUSH20 0xFFFFFFFFFFFFFFFFFFFFFFFFFFFFFFFFFFFFFFFF AND MUL OR SWAP1 SSTORE POP DUP4 ISZERO PUSH2 0x187B JUMPI PUSH1 0x0 DUP6 PUSH1 0x0 ADD PUSH1 0x8 PUSH2 0x100 EXP DUP2 SLOAD DUP2 PUSH1 0xFF MUL NOT AND SWAP1 DUP4 ISZERO ISZERO MUL OR SWAP1 SSTORE POP PUSH32 0xC7F505B2F371AE2175EE4913F4499E1F2633A7B5936321EED1CDAEB6115181D2 PUSH1 0x1 PUSH1 0x40 MLOAD PUSH2 0x1872 SWAP2 SWAP1 PUSH2 0x382B JUMP JUMPDEST PUSH1 0x40 MLOAD DUP1 SWAP2 SUB SWAP1 LOG1 JUMPDEST POP POP POP POP POP POP POP JUMP JUMPDEST PUSH1 0x0 PUSH2 0x189A PUSH8 0xC19008698818FDD3 PUSH1 0xC0 SHL PUSH2 0x2B4A JUMP JUMPDEST PUSH2 0x18AE PUSH8 0x539D5D2345CB7DA PUSH1 0xC0 SHL PUSH2 0x2B4A JUMP JUMPDEST PUSH2 0x18C2 PUSH8 0xEF3DE65AAF7B0840 PUSH1 0xC0 SHL PUSH2 0x2B4A JUMP JUMPDEST PUSH1 0x0 PUSH1 0x7 PUSH1 0x0 DUP5 PUSH1 0x20 ADD CALLDATALOAD DUP2 MSTORE PUSH1 0x20 ADD SWAP1 DUP2 MSTORE PUSH1 0x20 ADD PUSH1 0x0 KECCAK256 PUSH1 0x40 MLOAD DUP1 PUSH1 0xA0 ADD PUSH1 0x40 MSTORE SWAP1 DUP2 PUSH1 0x0 DUP3 ADD SLOAD DUP2 MSTORE PUSH1 0x20 ADD PUSH1 0x1 DUP3 ADD SLOAD DUP2 MSTORE PUSH1 0x20 ADD PUSH1 0x2 DUP3 ADD SLOAD DUP2 MSTORE PUSH1 0x20 ADD PUSH1 0x3 DUP3 ADD PUSH1 0x0 SWAP1 SLOAD SWAP1 PUSH2 0x100 EXP SWAP1 DIV PUSH4 0xFFFFFFFF AND PUSH4 0xFFFFFFFF AND PUSH4 0xFFFFFFFF AND DUP2 MSTORE PUSH1 0x20 ADD PUSH1 0x3 DUP3 ADD PUSH1 0x4 SWAP1 SLOAD SWAP1 PUSH2 0x100 EXP SWAP1 DIV PUSH4 0xFFFFFFFF AND PUSH4 0xFFFFFFFF AND PUSH4 0xFFFFFFFF AND DUP2 MSTORE POP POP SWAP1 POP PUSH2 0x1966 PUSH8 0x28A9141836E0126D PUSH1 0xC0 SHL PUSH2 0x2B4A JUMP JUMPDEST PUSH2 0x197A PUSH8 0x150882D425E37E08 PUSH1 0xC0 SHL PUSH2 0x2B4A JUMP JUMPDEST PUSH2 0x1984 DUP2 DUP5 PUSH2 0x554 JUMP JUMPDEST SWAP2 POP POP SWAP2 SWAP1 POP JUMP JUMPDEST PUSH1 0x0 PUSH2 0x19A2 PUSH8 0x49581D5C09D5BCBD PUSH1 0xC0 SHL PUSH2 0x2B4A JUMP JUMPDEST PUSH2 0x19B6 PUSH8 0x2730AF7E9475C90A PUSH1 0xC0 SHL PUSH2 0x2B4A JUMP JUMPDEST PUSH2 0x19CA PUSH8 0xBCF3B29649BD7D5F PUSH1 0xC0 SHL PUSH2 0x2B4A JUMP JUMPDEST PUSH1 0x1 SWAP1 POP SWAP1 JUMP JUMPDEST PUSH2 0x19E5 PUSH8 0x82A40211D53E107B PUSH1 0xC0 SHL PUSH2 0x2B4A JUMP JUMPDEST PUSH2 0x19F9 PUSH8 0x3C8BD695F9D2AC3D PUSH1 0xC0 SHL PUSH2 0x2B4A JUMP JUMPDEST PUSH2 0x1A0D PUSH8 0x329A7792E7D41B5D PUSH1 0xC0 SHL PUSH2 0x2B4A JUMP JUMPDEST PUSH2 0x1A21 PUSH8 0xDA024291C93CCD15 PUSH1 0xC0 SHL PUSH2 0x2B4A JUMP JUMPDEST PUSH1 0x32 PUSH1 0xFF AND PUSH1 0x0 DUP1 CALLER PUSH20 0xFFFFFFFFFFFFFFFFFFFFFFFFFFFFFFFFFFFFFFFF AND PUSH20 0xFFFFFFFFFFFFFFFFFFFFFFFFFFFFFFFFFFFFFFFF AND DUP2 MSTORE PUSH1 0x20 ADD SWAP1 DUP2 MSTORE PUSH1 0x20 ADD PUSH1 0x0 KECCAK256 PUSH1 0x0 SWAP1 SLOAD SWAP1 PUSH2 0x100 EXP SWAP1 DIV PUSH1 0xFF AND PUSH1 0xFF AND LT ISZERO PUSH2 0x1AC1 JUMPI PUSH2 0x1A8F PUSH8 0xDB403C649ACD3A8B PUSH1 0xC0 SHL PUSH2 0x2B4A JUMP JUMPDEST PUSH1 0x40 MLOAD PUSH32 0x13E433C900000000000000000000000000000000000000000000000000000000 DUP2 MSTORE PUSH1 0x4 ADD PUSH1 0x40 MLOAD DUP1 SWAP2 SUB SWAP1 REVERT JUMPDEST PUSH2 0x1AD5 PUSH8 0x6202FDD82776ABB3 PUSH1 0xC0 SHL PUSH2 0x2B4A JUMP JUMPDEST PUSH2 0x1AE9 PUSH8 0x82EC471C4120DB74 PUSH1 0xC0 SHL PUSH2 0x2B4A JUMP JUMPDEST PUSH2 0x1AFD PUSH8 0x8196DEDEA42CF293 PUSH1 0xC0 SHL PUSH2 0x2B4A JUMP JUMPDEST PUSH2 0x1B11 PUSH8 0xFCA2DDA11F38377F PUSH1 0xC0 SHL PUSH2 0x2B4A JUMP JUMPDEST PUSH2 0x1B25 PUSH8 0xD7E785E132A174A8 PUSH1 0xC0 SHL PUSH2 0x2B4A JUMP JUMPDEST PUSH2 0x1B39 PUSH8 0x272E44F1AD711DA2 PUSH1 0xC0 SHL PUSH2 0x2B4A JUMP JUMPDEST PUSH1 0x0 PUSH1 0x7 PUSH1 0x0 DUP4 PUSH1 0x20 ADD CALLDATALOAD DUP2 MSTORE PUSH1 0x20 ADD SWAP1 DUP2 MSTORE PUSH1 0x20 ADD PUSH1 0x0 KECCAK256 PUSH1 0x40 MLOAD DUP1 PUSH1 0xA0 ADD PUSH1 0x40 MSTORE SWAP1 DUP2 PUSH1 0x0 DUP3 ADD SLOAD DUP2 MSTORE PUSH1 0x20 ADD PUSH1 0x1 DUP3 ADD SLOAD DUP2 MSTORE PUSH1 0x20 ADD PUSH1 0x2 DUP3 ADD SLOAD DUP2 MSTORE PUSH1 0x20 ADD PUSH1 0x3 DUP3 ADD PUSH1 0x0 SWAP1 SLOAD SWAP1 PUSH2 0x100 EXP SWAP1 DIV PUSH4 0xFFFFFFFF AND PUSH4 0xFFFFFFFF AND PUSH4 0xFFFFFFFF AND DUP2 MSTORE PUSH1 0x20 ADD PUSH1 0x3 DUP3 ADD PUSH1 0x4 SWAP1 SLOAD SWAP1 PUSH2 0x100 EXP SWAP1 DIV PUSH4 0xFFFFFFFF AND PUSH4 0xFFFFFFFF AND PUSH4 0xFFFFFFFF AND DUP2 MSTORE POP POP SWAP1 POP PUSH2 0x1BDD PUSH8 0x1D201332C63114CE PUSH1 0xC0 SHL PUSH2 0x2B4A JUMP JUMPDEST PUSH2 0x1BF1 PUSH8 0x1506C252527E8227 PUSH1 0xC0 SHL PUSH2 0x2B4A JUMP JUMPDEST PUSH2 0x1BFB DUP2 DUP4 PUSH2 0x554 JUMP JUMPDEST PUSH2 0x1C45 JUMPI PUSH2 0x1C13 PUSH8 0x6D277F6C400DB770 PUSH1 0xC0 SHL PUSH2 0x2B4A JUMP JUMPDEST PUSH1 0x40 MLOAD PUSH32 0x9FD8CECA00000000000000000000000000000000000000000000000000000000 DUP2 MSTORE PUSH1 0x4 ADD PUSH1 0x40 MLOAD DUP1 SWAP2 SUB SWAP1 REVERT JUMPDEST PUSH2 0x1C59 PUSH8 0xE51F07C2AD26514F PUSH1 0xC0 SHL PUSH2 0x2B4A JUMP JUMPDEST PUSH2 0x1C6D PUSH8 0x4A2BA7437D578D2 PUSH1 0xC0 SHL PUSH2 0x2B4A JUMP JUMPDEST PUSH2 0x1C81 PUSH8 0x70DA46FBD7706009 PUSH1 0xC0 SHL PUSH2 0x2B4A JUMP JUMPDEST PUSH1 0x4 PUSH1 0x0 DUP4 PUSH1 0x20 ADD CALLDATALOAD DUP2 MSTORE PUSH1 0x20 ADD SWAP1 DUP2 MSTORE PUSH1 0x20 ADD PUSH1 0x0 KECCAK256 DUP5 SWAP1 DUP1 PUSH1 0x1 DUP2 SLOAD ADD DUP1 DUP3 SSTORE DUP1 SWAP2 POP POP PUSH1 0x1 SWAP1 SUB SWAP1 PUSH1 0x0 MSTORE PUSH1 0x20 PUSH1 0x0 KECCAK256 ADD PUSH1 0x0 SWAP1 SWAP2 SWAP1 SWAP2 SWAP1 SWAP2 POP SSTORE PUSH2 0x1CD3 PUSH8 0x2864DA4A171909FC PUSH1 0xC0 SHL PUSH2 0x2B4A JUMP JUMPDEST PUSH2 0x1CE7 PUSH8 0x7B68E810CE166786 PUSH1 0xC0 SHL PUSH2 0x2B4A JUMP JUMPDEST PUSH1 0x5 PUSH1 0x0 DUP4 PUSH1 0x20 ADD CALLDATALOAD DUP2 MSTORE PUSH1 0x20 ADD SWAP1 DUP2 MSTORE PUSH1 0x20 ADD PUSH1 0x0 KECCAK256 DUP4 SWAP1 DUP1 PUSH1 0x1 DUP2 SLOAD ADD DUP1 DUP3 SSTORE DUP1 SWAP2 POP POP PUSH1 0x1 SWAP1 SUB SWAP1 PUSH1 0x0 MSTORE PUSH1 0x20 PUSH1 0x0 KECCAK256 ADD PUSH1 0x0 SWAP1 SWAP2 SWAP1 SWAP2 SWAP1 SWAP2 POP SSTORE PUSH2 0x1D39 PUSH8 0x6DE6B9BBC03D5350 PUSH1 0xC0 SHL PUSH2 0x2B4A JUMP JUMPDEST PUSH1 0x1 DUP2 PUSH1 0x60 ADD MLOAD PUSH2 0x1D4A SWAP2 SWAP1 PUSH2 0x3766 JUMP JUMPDEST PUSH1 0x7 PUSH1 0x0 DUP5 PUSH1 0x20 ADD CALLDATALOAD DUP2 MSTORE PUSH1 0x20 ADD SWAP1 DUP2 MSTORE PUSH1 0x20 ADD PUSH1 0x0 KECCAK256 PUSH1 0x3 ADD PUSH1 0x0 PUSH2 0x100 EXP DUP2 SLOAD DUP2 PUSH4 0xFFFFFFFF MUL NOT AND SWAP1 DUP4 PUSH4 0xFFFFFFFF AND MUL OR SWAP1 SSTORE POP POP POP POP POP JUMP JUMPDEST PUSH1 0x60 DUP1 PUSH2 0x1D9F PUSH8 0xDAAC584932DC1E8C PUSH1 0xC0 SHL PUSH2 0x2B4A JUMP JUMPDEST PUSH2 0x1DB3 PUSH8 0xCE9F425293749D0F PUSH1 0xC0 SHL PUSH2 0x2B4A JUMP JUMPDEST PUSH2 0x1DC7 PUSH8 0xEF5B6A3B0A4A0A56 PUSH1 0xC0 SHL PUSH2 0x2B4A JUMP JUMPDEST PUSH1 0x0 PUSH1 0x7 PUSH1 0x0 DUP6 PUSH1 0x20 ADD CALLDATALOAD DUP2 MSTORE PUSH1 0x20 ADD SWAP1 DUP2 MSTORE PUSH1 0x20 ADD PUSH1 0x0 KECCAK256 PUSH1 0x40 MLOAD DUP1 PUSH1 0xA0 ADD PUSH1 0x40 MSTORE SWAP1 DUP2 PUSH1 0x0 DUP3 ADD SLOAD DUP2 MSTORE PUSH1 0x20 ADD PUSH1 0x1 DUP3 ADD SLOAD DUP2 MSTORE PUSH1 0x20 ADD PUSH1 0x2 DUP3 ADD SLOAD DUP2 MSTORE PUSH1 0x20 ADD PUSH1 0x3 DUP3 ADD PUSH1 0x0 SWAP1 SLOAD SWAP1 PUSH2 0x100 EXP SWAP1 DIV PUSH4 0xFFFFFFFF AND PUSH4 0xFFFFFFFF AND PUSH4 0xFFFFFFFF AND DUP2 MSTORE PUSH1 0x20 ADD PUSH1 0x3 DUP3 ADD PUSH1 0x4 SWAP1 SLOAD SWAP1 PUSH2 0x100 EXP SWAP1 DIV PUSH4 0xFFFFFFFF AND PUSH4 0xFFFFFFFF AND PUSH4 0xFFFFFFFF AND DUP2 MSTORE POP POP SWAP1 POP PUSH2 0x1E6B PUSH8 0x893684FBBBC0B1AF PUSH1 0xC0 SHL PUSH2 0x2B4A JUMP JUMPDEST PUSH2 0x1E7F PUSH8 0x3F00D0DE088A7D59 PUSH1 0xC0 SHL PUSH2 0x2B4A JUMP JUMPDEST PUSH2 0x1E89 DUP2 DUP6 PUSH2 0x554 JUMP JUMPDEST PUSH2 0x1ED3 JUMPI PUSH2 0x1EA1 PUSH8 0xA6AD6AB77B6792F4 PUSH1 0xC0 SHL PUSH2 0x2B4A JUMP JUMPDEST PUSH1 0x40 MLOAD PUSH32 0x9FD8CECA00000000000000000000000000000000000000000000000000000000 DUP2 MSTORE PUSH1 0x4 ADD PUSH1 0x40 MLOAD DUP1 SWAP2 SUB SWAP1 REVERT JUMPDEST PUSH2 0x1EE7 PUSH8 0x53A8B42B4B7F05A8 PUSH1 0xC0 SHL PUSH2 0x2B4A JUMP JUMPDEST PUSH2 0x1EFA PUSH7 0xD8451C8A8F57A9 PUSH1 0xC0 SHL PUSH2 0x2B4A JUMP JUMPDEST PUSH2 0x1F0E PUSH8 0x524BE634C89CF570 PUSH1 0xC0 SHL PUSH2 0x2B4A JUMP JUMPDEST PUSH1 0x4 PUSH1 0x0 DUP6 PUSH1 0x20 ADD CALLDATALOAD DUP2 MSTORE PUSH1 0x20 ADD SWAP1 DUP2 MSTORE PUSH1 0x20 ADD PUSH1 0x0 KECCAK256 PUSH1 0x5 PUSH1 0x0 DUP7 PUSH1 0x20 ADD CALLDATALOAD DUP2 MSTORE PUSH1 0x20 ADD SWAP1 DUP2 MSTORE PUSH1 0x20 ADD PUSH1 0x0 KECCAK256 DUP2 DUP1 SLOAD DUP1 PUSH1 0x20 MUL PUSH1 0x20 ADD PUSH1 0x40 MLOAD SWAP1 DUP2 ADD PUSH1 0x40 MSTORE DUP1 SWAP3 SWAP2 SWAP1 DUP2 DUP2 MSTORE PUSH1 0x20 ADD DUP3 DUP1 SLOAD DUP1 ISZERO PUSH2 0x1F87 JUMPI PUSH1 0x20 MUL DUP3 ADD SWAP2 SWAP1 PUSH1 0x0 MSTORE PUSH1 0x20 PUSH1 0x0 KECCAK256 SWAP1 JUMPDEST DUP2 SLOAD DUP2 MSTORE PUSH1 0x20 ADD SWAP1 PUSH1 0x1 ADD SWAP1 DUP1 DUP4 GT PUSH2 0x1F73 JUMPI JUMPDEST POP POP POP POP POP SWAP2 POP DUP1 DUP1 SLOAD DUP1 PUSH1 0x20 MUL PUSH1 0x20 ADD PUSH1 0x40 MLOAD SWAP1 DUP2 ADD PUSH1 0x40 MSTORE DUP1 SWAP3 SWAP2 SWAP1 DUP2 DUP2 MSTORE PUSH1 0x20 ADD DUP3 DUP1 SLOAD DUP1 ISZERO PUSH2 0x1FD9 JUMPI PUSH1 0x20 MUL DUP3 ADD SWAP2 SWAP1 PUSH1 0x0 MSTORE PUSH1 0x20 PUSH1 0x0 KECCAK256 SWAP1 JUMPDEST DUP2 SLOAD DUP2 MSTORE PUSH1 0x20 ADD SWAP1 PUSH1 0x1 ADD SWAP1 DUP1 DUP4 GT PUSH2 0x1FC5 JUMPI JUMPDEST POP POP POP POP POP SWAP1 POP SWAP3 POP SWAP3 POP POP SWAP2 POP SWAP2 JUMP JUMPDEST PUSH1 0x60 PUSH2 0x2000 PUSH8 0x50822ADA859481F0 PUSH1 0xC0 SHL PUSH2 0x2B4A JUMP JUMPDEST PUSH2 0x2014 PUSH8 0xB6D386D44A7B260C PUSH1 0xC0 SHL PUSH2 0x2B4A JUMP JUMPDEST PUSH2 0x2028 PUSH8 0x10B089DADB6607E3 PUSH1 0xC0 SHL PUSH2 0x2B4A JUMP JUMPDEST PUSH1 0x6 PUSH1 0x0 DUP4 DUP2 MSTORE PUSH1 0x20 ADD SWAP1 DUP2 MSTORE PUSH1 0x20 ADD PUSH1 0x0 KECCAK256 DUP1 SLOAD DUP1 PUSH1 0x20 MUL PUSH1 0x20 ADD PUSH1 0x40 MLOAD SWAP1 DUP2 ADD PUSH1 0x40 MSTORE DUP1 SWAP3 SWAP2 SWAP1 DUP2 DUP2 MSTORE PUSH1 0x20 ADD DUP3 DUP1 SLOAD DUP1 ISZERO PUSH2 0x2085 JUMPI PUSH1 0x20 MUL DUP3 ADD SWAP2 SWAP1 PUSH1 0x0 MSTORE PUSH1 0x20 PUSH1 0x0 KECCAK256 SWAP1 JUMPDEST DUP2 SLOAD DUP2 MSTORE PUSH1 0x20 ADD SWAP1 PUSH1 0x1 ADD SWAP1 DUP1 DUP4 GT PUSH2 0x2071 JUMPI JUMPDEST POP POP POP POP POP SWAP1 POP SWAP2 SWAP1 POP JUMP JUMPDEST PUSH2 0x20A5 PUSH8 0xA2A955417F1483D0 PUSH1 0xC0 SHL PUSH2 0x2B4A JUMP JUMPDEST PUSH2 0x20B9 PUSH8 0x3C8BD695F9D2AC3D PUSH1 0xC0 SHL PUSH2 0x2B4A JUMP JUMPDEST PUSH2 0x20CD PUSH8 0x329A7792E7D41B5D PUSH1 0xC0 SHL PUSH2 0x2B4A JUMP JUMPDEST PUSH2 0x20E1 PUSH8 0xDA024291C93CCD15 PUSH1 0xC0 SHL PUSH2 0x2B4A JUMP JUMPDEST PUSH1 0x32 PUSH1 0xFF AND PUSH1 0x0 DUP1 CALLER PUSH20 0xFFFFFFFFFFFFFFFFFFFFFFFFFFFFFFFFFFFFFFFF AND PUSH20 0xFFFFFFFFFFFFFFFFFFFFFFFFFFFFFFFFFFFFFFFF AND DUP2 MSTORE PUSH1 0x20 ADD SWAP1 DUP2 MSTORE PUSH1 0x20 ADD PUSH1 0x0 KECCAK256 PUSH1 0x0 SWAP1 SLOAD SWAP1 PUSH2 0x100 EXP SWAP1 DIV PUSH1 0xFF AND PUSH1 0xFF AND LT ISZERO PUSH2 0x2181 JUMPI PUSH2 0x214F PUSH8 0xDB403C649ACD3A8B PUSH1 0xC0 SHL PUSH2 0x2B4A JUMP JUMPDEST PUSH1 0x40 MLOAD PUSH32 0x13E433C900000000000000000000000000000000000000000000000000000000 DUP2 MSTORE PUSH1 0x4 ADD PUSH1 0x40 MLOAD DUP1 SWAP2 SUB SWAP1 REVERT JUMPDEST PUSH2 0x2195 PUSH8 0x6202FDD82776ABB3 PUSH1 0xC0 SHL PUSH2 0x2B4A JUMP JUMPDEST PUSH2 0x21A9 PUSH8 0x82EC471C4120DB74 PUSH1 0xC0 SHL PUSH2 0x2B4A JUMP JUMPDEST PUSH2 0x21BD PUSH8 0xAC565E16EDDDC189 PUSH1 0xC0 SHL PUSH2 0x2B4A JUMP JUMPDEST PUSH2 0x21D1 PUSH8 0xD8DF39237368BB69 PUSH1 0xC0 SHL PUSH2 0x2B4A JUMP JUMPDEST PUSH2 0x21E5 PUSH8 0x8FC20173B6BA8964 PUSH1 0xC0 SHL PUSH2 0x2B4A JUMP JUMPDEST PUSH2 0x21F9 PUSH8 0x67C42C73E96EB02 PUSH1 0xC0 SHL PUSH2 0x2B4A JUMP JUMPDEST PUSH1 0x0 PUSH1 0x7 PUSH1 0x0 DUP6 DUP2 MSTORE PUSH1 0x20 ADD SWAP1 DUP2 MSTORE PUSH1 0x20 ADD PUSH1 0x0 KECCAK256 PUSH1 0x40 MLOAD DUP1 PUSH1 0xA0 ADD PUSH1 0x40 MSTORE SWAP1 DUP2 PUSH1 0x0 DUP3 ADD SLOAD DUP2 MSTORE PUSH1 0x20 ADD PUSH1 0x1 DUP3 ADD SLOAD DUP2 MSTORE PUSH1 0x20 ADD PUSH1 0x2 DUP3 ADD SLOAD DUP2 MSTORE PUSH1 0x20 ADD PUSH1 0x3 DUP3 ADD PUSH1 0x0 SWAP1 SLOAD SWAP1 PUSH2 0x100 EXP SWAP1 DIV PUSH4 0xFFFFFFFF AND PUSH4 0xFFFFFFFF AND PUSH4 0xFFFFFFFF AND DUP2 MSTORE PUSH1 0x20 ADD PUSH1 0x3 DUP3 ADD PUSH1 0x4 SWAP1 SLOAD SWAP1 PUSH2 0x100 EXP SWAP1 DIV PUSH4 0xFFFFFFFF AND PUSH4 0xFFFFFFFF AND PUSH4 0xFFFFFFFF AND DUP2 MSTORE POP POP SWAP1 POP PUSH2 0x2299 PUSH8 0x3A5C85E8A79B9081 PUSH1 0xC0 SHL PUSH2 0x2B4A JUMP JUMPDEST PUSH2 0x22AD PUSH8 0x70F382EB4309E065 PUSH1 0xC0 SHL PUSH2 0x2B4A JUMP JUMPDEST PUSH1 0x0 DUP1 SHL DUP2 PUSH1 0x20 ADD MLOAD SUB PUSH2 0x2301 JUMPI PUSH2 0x22CF PUSH8 0x61160C406E6CC291 PUSH1 0xC0 SHL PUSH2 0x2B4A JUMP JUMPDEST PUSH1 0x40 MLOAD PUSH32 0x4A6BC07D00000000000000000000000000000000000000000000000000000000 DUP2 MSTORE PUSH1 0x4 ADD PUSH1 0x40 MLOAD DUP1 SWAP2 SUB SWAP1 REVERT JUMPDEST PUSH2 0x2315 PUSH8 0x5062353866A84F6E PUSH1 0xC0 SHL PUSH2 0x2B4A JUMP JUMPDEST PUSH2 0x2329 PUSH8 0x6D5C66C705888AE4 PUSH1 0xC0 SHL PUSH2 0x2B4A JUMP JUMPDEST DUP3 PUSH1 0x6 PUSH1 0x0 DUP7 DUP2 MSTORE PUSH1 0x20 ADD SWAP1 DUP2 MSTORE PUSH1 0x20 ADD PUSH1 0x0 KECCAK256 PUSH1 0x0 DUP2 SLOAD DUP2 LT PUSH2 0x2350 JUMPI PUSH2 0x234F PUSH2 0x3593 JUMP JUMPDEST JUMPDEST SWAP1 PUSH1 0x0 MSTORE PUSH1 0x20 PUSH1 0x0 KECCAK256 ADD DUP2 SWAP1 SSTORE POP PUSH2 0x2372 PUSH8 0x8AD078E33AEB972 PUSH1 0xC0 SHL PUSH2 0x2B4A JUMP JUMPDEST DUP2 PUSH1 0x6 PUSH1 0x0 DUP7 DUP2 MSTORE PUSH1 0x20 ADD SWAP1 DUP2 MSTORE PUSH1 0x20 ADD PUSH1 0x0 KECCAK256 PUSH1 0x1 DUP2 SLOAD DUP2 LT PUSH2 0x2399 JUMPI PUSH2 0x2398 PUSH2 0x3593 JUMP JUMPDEST JUMPDEST SWAP1 PUSH1 0x0 MSTORE PUSH1 0x20 PUSH1 0x0 KECCAK256 ADD DUP2 SWAP1 SSTORE POP POP POP POP POP JUMP JUMPDEST PUSH1 0x0 PUSH2 0x23C3 PUSH8 0xDE4BFFB25718B12 PUSH1 0xC0 SHL PUSH2 0x2B4A JUMP JUMPDEST PUSH2 0x23D7 PUSH8 0x4E5F1624946EFA73 PUSH1 0xC0 SHL PUSH2 0x2B4A JUMP JUMPDEST PUSH2 0x23EB PUSH8 0xB6681E8D23EA8284 PUSH1 0xC0 SHL PUSH2 0x2B4A JUMP JUMPDEST PUSH1 0x0 DUP1 DUP4 PUSH20 0xFFFFFFFFFFFFFFFFFFFFFFFFFFFFFFFFFFFFFFFF AND PUSH20 0xFFFFFFFFFFFFFFFFFFFFFFFFFFFFFFFFFFFFFFFF AND DUP2 MSTORE PUSH1 0x20 ADD SWAP1 DUP2 MSTORE PUSH1 0x20 ADD PUSH1 0x0 KECCAK256 PUSH1 0x0 SWAP1 SLOAD SWAP1 PUSH2 0x100 EXP SWAP1 DIV PUSH1 0xFF AND PUSH1 0xFF AND SWAP1 POP SWAP2 SWAP1 POP JUMP JUMPDEST PUSH2 0x2449 PUSH2 0x2B75 JUMP JUMPDEST PUSH2 0x245D PUSH8 0xCCEE35DA334368F4 PUSH1 0xC0 SHL PUSH2 0x2B4A JUMP JUMPDEST PUSH2 0x2471 PUSH8 0x51778ECE69BE2FE9 PUSH1 0xC0 SHL PUSH2 0x2B4A JUMP JUMPDEST PUSH2 0x2485 PUSH8 0x9F0D5A99DCFC451A PUSH1 0xC0 SHL PUSH2 0x2B4A JUMP JUMPDEST PUSH1 0x0 PUSH1 0x7 PUSH1 0x0 DUP5 DUP2 MSTORE PUSH1 0x20 ADD SWAP1 DUP2 MSTORE PUSH1 0x20 ADD PUSH1 0x0 KECCAK256 PUSH1 0x40 MLOAD DUP1 PUSH1 0xA0 ADD PUSH1 0x40 MSTORE SWAP1 DUP2 PUSH1 0x0 DUP3 ADD SLOAD DUP2 MSTORE PUSH1 0x20 ADD PUSH1 0x1 DUP3 ADD SLOAD DUP2 MSTORE PUSH1 0x20 ADD PUSH1 0x2 DUP3 ADD SLOAD DUP2 MSTORE PUSH1 0x20 ADD PUSH1 0x3 DUP3 ADD PUSH1 0x0 SWAP1 SLOAD SWAP1 PUSH2 0x100 EXP SWAP1 DIV PUSH4 0xFFFFFFFF AND PUSH4 0xFFFFFFFF AND PUSH4 0xFFFFFFFF AND DUP2 MSTORE PUSH1 0x20 ADD PUSH1 0x3 DUP3 ADD PUSH1 0x4 SWAP1 SLOAD SWAP1 PUSH2 0x100 EXP SWAP1 DIV PUSH4 0xFFFFFFFF AND PUSH4 0xFFFFFFFF AND PUSH4 0xFFFFFFFF AND DUP2 MSTORE POP POP SWAP1 POP PUSH2 0x2525 PUSH8 0x3DEA2B3EDB2888FC PUSH1 0xC0 SHL PUSH2 0x2B4A JUMP JUMPDEST PUSH2 0x2539 PUSH8 0x819E8E48D2735BAA PUSH1 0xC0 SHL PUSH2 0x2B4A JUMP JUMPDEST DUP1 SWAP2 POP POP SWAP2 SWAP1 POP JUMP JUMPDEST PUSH1 0x60 PUSH2 0x2558 PUSH8 0xD9A62B45A0C74060 PUSH1 0xC0 SHL PUSH2 0x2B4A JUMP JUMPDEST PUSH2 0x256C PUSH8 0x9525CA4F04ACD47F PUSH1 0xC0 SHL PUSH2 0x2B4A JUMP JUMPDEST PUSH2 0x2580 PUSH8 0x52F08EDA307A5817 PUSH1 0xC0 SHL PUSH2 0x2B4A JUMP JUMPDEST PUSH1 0x0 PUSH1 0x8 PUSH1 0x0 DUP5 DUP2 MSTORE PUSH1 0x20 ADD SWAP1 DUP2 MSTORE PUSH1 0x20 ADD PUSH1 0x0 KECCAK256 DUP1 SLOAD DUP1 PUSH1 0x20 MUL PUSH1 0x20 ADD PUSH1 0x40 MLOAD SWAP1 DUP2 ADD PUSH1 0x40 MSTORE DUP1 SWAP3 SWAP2 SWAP1 DUP2 DUP2 MSTORE PUSH1 0x20 ADD DUP3 DUP1 SLOAD DUP1 ISZERO PUSH2 0x25DF JUMPI PUSH1 0x20 MUL DUP3 ADD SWAP2 SWAP1 PUSH1 0x0 MSTORE PUSH1 0x20 PUSH1 0x0 KECCAK256 SWAP1 JUMPDEST DUP2 SLOAD DUP2 MSTORE PUSH1 0x20 ADD SWAP1 PUSH1 0x1 ADD SWAP1 DUP1 DUP4 GT PUSH2 0x25CB JUMPI JUMPDEST POP POP POP POP POP SWAP1 POP PUSH2 0x25FA PUSH8 0x183CD487C49515B6 PUSH1 0xC0 SHL PUSH2 0x2B4A JUMP JUMPDEST PUSH2 0x260E PUSH8 0xD7C9A106FCD8DD8 PUSH1 0xC0 SHL PUSH2 0x2B4A JUMP JUMPDEST PUSH1 0x0 DUP2 MLOAD SWAP1 POP PUSH2 0x2628 PUSH8 0xAE2F8FFAA13D99B5 PUSH1 0xC0 SHL PUSH2 0x2B4A JUMP JUMPDEST PUSH2 0x263C PUSH8 0x62DA2CF9322E397A PUSH1 0xC0 SHL PUSH2 0x2B4A JUMP JUMPDEST PUSH1 0x0 DUP2 PUSH8 0xFFFFFFFFFFFFFFFF DUP2 GT ISZERO PUSH2 0x2658 JUMPI PUSH2 0x2657 PUSH2 0x2CB7 JUMP JUMPDEST JUMPDEST PUSH1 0x40 MLOAD SWAP1 DUP1 DUP3 MSTORE DUP1 PUSH1 0x20 MUL PUSH1 0x20 ADD DUP3 ADD PUSH1 0x40 MSTORE DUP1 ISZERO PUSH2 0x2691 JUMPI DUP2 PUSH1 0x20 ADD JUMPDEST PUSH2 0x267E PUSH2 0x2B75 JUMP JUMPDEST DUP2 MSTORE PUSH1 0x20 ADD SWAP1 PUSH1 0x1 SWAP1 SUB SWAP1 DUP2 PUSH2 0x2676 JUMPI SWAP1 POP JUMPDEST POP SWAP1 POP PUSH2 0x26A8 PUSH8 0xDBF9C18C8F8C05EC PUSH1 0xC0 SHL PUSH2 0x2B4A JUMP JUMPDEST PUSH2 0x26BC PUSH8 0x7FADE8238216FA52 PUSH1 0xC0 SHL PUSH2 0x2B4A JUMP JUMPDEST PUSH1 0x0 JUMPDEST DUP3 DUP2 LT ISZERO PUSH2 0x27A8 JUMPI PUSH2 0x26DB PUSH8 0x5EAC2E648728B693 PUSH1 0xC0 SHL PUSH2 0x2B4A JUMP JUMPDEST PUSH1 0x7 PUSH1 0x0 DUP6 DUP4 DUP2 MLOAD DUP2 LT PUSH2 0x26F2 JUMPI PUSH2 0x26F1 PUSH2 0x3593 JUMP JUMPDEST JUMPDEST PUSH1 0x20 MUL PUSH1 0x20 ADD ADD MLOAD DUP2 MSTORE PUSH1 0x20 ADD SWAP1 DUP2 MSTORE PUSH1 0x20 ADD PUSH1 0x0 KECCAK256 PUSH1 0x40 MLOAD DUP1 PUSH1 0xA0 ADD PUSH1 0x40 MSTORE SWAP1 DUP2 PUSH1 0x0 DUP3 ADD SLOAD DUP2 MSTORE PUSH1 0x20 ADD PUSH1 0x1 DUP3 ADD SLOAD DUP2 MSTORE PUSH1 0x20 ADD PUSH1 0x2 DUP3 ADD SLOAD DUP2 MSTORE PUSH1 0x20 ADD PUSH1 0x3 DUP3 ADD PUSH1 0x0 SWAP1 SLOAD SWAP1 PUSH2 0x100 EXP SWAP1 DIV PUSH4 0xFFFFFFFF AND PUSH4 0xFFFFFFFF AND PUSH4 0xFFFFFFFF AND DUP2 MSTORE PUSH1 0x20 ADD PUSH1 0x3 DUP3 ADD PUSH1 0x4 SWAP1 SLOAD SWAP1 PUSH2 0x100 EXP SWAP1 DIV PUSH4 0xFFFFFFFF AND PUSH4 0xFFFFFFFF AND PUSH4 0xFFFFFFFF AND DUP2 MSTORE POP POP DUP3 DUP3 DUP2 MLOAD DUP2 LT PUSH2 0x2790 JUMPI PUSH2 0x278F PUSH2 0x3593 JUMP JUMPDEST JUMPDEST PUSH1 0x20 MUL PUSH1 0x20 ADD ADD DUP2 SWAP1 MSTORE POP DUP1 DUP1 PUSH1 0x1 ADD SWAP2 POP POP PUSH2 0x26BF JUMP JUMPDEST POP PUSH2 0x27BD PUSH8 0x498EDDE6B8D1C11D PUSH1 0xC0 SHL PUSH2 0x2B4A JUMP JUMPDEST PUSH2 0x27D1 PUSH8 0x7980D39775BFAD96 PUSH1 0xC0 SHL PUSH2 0x2B4A JUMP JUMPDEST DUP1 SWAP4 POP POP POP POP SWAP2 SWAP1 POP JUMP JUMPDEST PUSH1 0x0 PUSH2 0x27F2 PUSH8 0x55713DD11051EAF8 PUSH1 0xC0 SHL PUSH2 0x2B4A JUMP JUMPDEST PUSH2 0x2806 PUSH8 0x91568AF4F7459911 PUSH1 0xC0 SHL PUSH2 0x2B4A JUMP JUMPDEST PUSH2 0x281A PUSH8 0x8B342D011ACF0C6A PUSH1 0xC0 SHL PUSH2 0x2B4A JUMP JUMPDEST PUSH1 0x2 SLOAD SWAP1 POP SWAP1 JUMP JUMPDEST PUSH2 0x2836 PUSH8 0x86F329B15BF65E02 PUSH1 0xC0 SHL PUSH2 0x2B4A JUMP JUMPDEST PUSH2 0x284A PUSH8 0x3C8BD695F9D2AC3D PUSH1 0xC0 SHL PUSH2 0x2B4A JUMP JUMPDEST PUSH2 0x285E PUSH8 0x329A7792E7D41B5D PUSH1 0xC0 SHL PUSH2 0x2B4A JUMP JUMPDEST PUSH2 0x2872 PUSH8 0xDA024291C93CCD15 PUSH1 0xC0 SHL PUSH2 0x2B4A JUMP JUMPDEST PUSH1 0x32 PUSH1 0xFF AND PUSH1 0x0 DUP1 CALLER PUSH20 0xFFFFFFFFFFFFFFFFFFFFFFFFFFFFFFFFFFFFFFFF AND PUSH20 0xFFFFFFFFFFFFFFFFFFFFFFFFFFFFFFFFFFFFFFFF AND DUP2 MSTORE PUSH1 0x20 ADD SWAP1 DUP2 MSTORE PUSH1 0x20 ADD PUSH1 0x0 KECCAK256 PUSH1 0x0 SWAP1 SLOAD SWAP1 PUSH2 0x100 EXP SWAP1 DIV PUSH1 0xFF AND PUSH1 0xFF AND LT ISZERO PUSH2 0x2912 JUMPI PUSH2 0x28E0 PUSH8 0xDB403C649ACD3A8B PUSH1 0xC0 SHL PUSH2 0x2B4A JUMP JUMPDEST PUSH1 0x40 MLOAD PUSH32 0x13E433C900000000000000000000000000000000000000000000000000000000 DUP2 MSTORE PUSH1 0x4 ADD PUSH1 0x40 MLOAD DUP1 SWAP2 SUB SWAP1 REVERT JUMPDEST PUSH2 0x2926 PUSH8 0x6202FDD82776ABB3 PUSH1 0xC0 SHL PUSH2 0x2B4A JUMP JUMPDEST PUSH2 0x293A PUSH8 0x82EC471C4120DB74 PUSH1 0xC0 SHL PUSH2 0x2B4A JUMP JUMPDEST PUSH2 0x294E PUSH8 0xBA9073213795F35A PUSH1 0xC0 SHL PUSH2 0x2B4A JUMP JUMPDEST PUSH2 0x2962 PUSH8 0xF2894527A00C9056 PUSH1 0xC0 SHL PUSH2 0x2B4A JUMP JUMPDEST PUSH2 0x2976 PUSH8 0x5B6C66BB02C2AC9E PUSH1 0xC0 SHL PUSH2 0x2B4A JUMP JUMPDEST PUSH2 0x298A PUSH8 0x809B5309AF815FE6 PUSH1 0xC0 SHL PUSH2 0x2B4A JUMP JUMPDEST PUSH1 0x0 PUSH1 0x7 PUSH1 0x0 DUP4 PUSH1 0x20 ADD CALLDATALOAD DUP2 MSTORE PUSH1 0x20 ADD SWAP1 DUP2 MSTORE PUSH1 0x20 ADD PUSH1 0x0 KECCAK256 PUSH1 0x40 MLOAD DUP1 PUSH1 0xA0 ADD PUSH1 0x40 MSTORE SWAP1 DUP2 PUSH1 0x0 DUP3 ADD SLOAD DUP2 MSTORE PUSH1 0x20 ADD PUSH1 0x1 DUP3 ADD SLOAD DUP2 MSTORE PUSH1 0x20 ADD PUSH1 0x2 DUP3 ADD SLOAD DUP2 MSTORE PUSH1 0x20 ADD PUSH1 0x3 DUP3 ADD PUSH1 0x0 SWAP1 SLOAD SWAP1 PUSH2 0x100 EXP SWAP1 DIV PUSH4 0xFFFFFFFF AND PUSH4 0xFFFFFFFF AND PUSH4 0xFFFFFFFF AND DUP2 MSTORE PUSH1 0x20 ADD PUSH1 0x3 DUP3 ADD PUSH1 0x4 SWAP1 SLOAD SWAP1 PUSH2 0x100 EXP SWAP1 DIV PUSH4 0xFFFFFFFF AND PUSH4 0xFFFFFFFF AND PUSH4 0xFFFFFFFF AND DUP2 MSTORE POP POP SWAP1 POP PUSH2 0x2A2E PUSH8 0x786CEE6F541ACBD8 PUSH1 0xC0 SHL PUSH2 0x2B4A JUMP JUMPDEST PUSH2 0x2A42 PUSH8 0x36013CE0AB9203A9 PUSH1 0xC0 SHL PUSH2 0x2B4A JUMP JUMPDEST PUSH2 0x2A4C DUP2 DUP4 PUSH2 0x554 JUMP JUMPDEST PUSH2 0x2A96 JUMPI PUSH2 0x2A64 PUSH8 0x5AA0B2ADE7A1B6DF PUSH1 0xC0 SHL PUSH2 0x2B4A JUMP JUMPDEST PUSH1 0x40 MLOAD PUSH32 0x9FD8CECA00000000000000000000000000000000000000000000000000000000 DUP2 MSTORE PUSH1 0x4 ADD PUSH1 0x40 MLOAD DUP1 SWAP2 SUB SWAP1 REVERT JUMPDEST PUSH2 0x2AAA PUSH8 0xEC1E3FBDBCC6D655 PUSH1 0xC0 SHL PUSH2 0x2B4A JUMP JUMPDEST PUSH2 0x2ABE PUSH8 0x25621EE2A666055E PUSH1 0xC0 SHL PUSH2 0x2B4A JUMP JUMPDEST DUP4 PUSH1 0x6 PUSH1 0x0 DUP5 PUSH1 0x20 ADD CALLDATALOAD DUP2 MSTORE PUSH1 0x20 ADD SWAP1 DUP2 MSTORE PUSH1 0x20 ADD PUSH1 0x0 KECCAK256 PUSH1 0x2 DUP2 SLOAD DUP2 LT PUSH2 0x2AE9 JUMPI PUSH2 0x2AE8 PUSH2 0x3593 JUMP JUMPDEST JUMPDEST SWAP1 PUSH1 0x0 MSTORE PUSH1 0x20 PUSH1 0x0 KECCAK256 ADD DUP2 SWAP1 SSTORE POP PUSH2 0x2B0B PUSH8 0xB2615BD3DE1B7DC4 PUSH1 0xC0 SHL PUSH2 0x2B4A JUMP JUMPDEST DUP3 PUSH1 0x6 PUSH1 0x0 DUP5 PUSH1 0x20 ADD CALLDATALOAD DUP2 MSTORE PUSH1 0x20 ADD SWAP1 DUP2 MSTORE PUSH1 0x20 ADD PUSH1 0x0 KECCAK256 PUSH1 0x3 DUP2 SLOAD DUP2 LT PUSH2 0x2B36 JUMPI PUSH2 0x2B35 PUSH2 0x3593 JUMP JUMPDEST JUMPDEST SWAP1 PUSH1 0x0 MSTORE PUSH1 0x20 PUSH1 0x0 KECCAK256 ADD DUP2 SWAP1 SSTORE POP POP POP POP POP JUMP JUMPDEST POP JUMP JUMPDEST PUSH1 0x0 PUSH32 0xF0C57E16840DF040F15088DC2F81FE391C3923BEC73E23A9662EFC9C229C6A00 SWAP1 POP SWAP1 JUMP JUMPDEST PUSH1 0x40 MLOAD DUP1 PUSH1 0xA0 ADD PUSH1 0x40 MSTORE DUP1 PUSH1 0x0 DUP2 MSTORE PUSH1 0x20 ADD PUSH1 0x0 DUP1 NOT AND DUP2 MSTORE PUSH1 0x20 ADD PUSH1 0x0 DUP1 NOT AND DUP2 MSTORE PUSH1 0x20 ADD PUSH1 0x0 PUSH4 0xFFFFFFFF AND DUP2 MSTORE PUSH1 0x20 ADD PUSH1 0x0 PUSH4 0xFFFFFFFF AND DUP2 MSTORE POP SWAP1 JUMP JUMPDEST PUSH1 0x0 PUSH1 0x40 MLOAD SWAP1 POP SWAP1 JUMP JUMPDEST PUSH1 0x0 DUP1 REVERT JUMPDEST PUSH1 0x0 DUP1 REVERT JUMPDEST PUSH1 0x0 PUSH20 0xFFFFFFFFFFFFFFFFFFFFFFFFFFFFFFFFFFFFFFFF DUP3 AND SWAP1 POP SWAP2 SWAP1 POP JUMP JUMPDEST PUSH1 0x0 PUSH2 0x2BF5 DUP3 PUSH2 0x2BCA JUMP JUMPDEST SWAP1 POP SWAP2 SWAP1 POP JUMP JUMPDEST PUSH2 0x2C05 DUP2 PUSH2 0x2BEA JUMP JUMPDEST DUP2 EQ PUSH2 0x2C10 JUMPI PUSH1 0x0 DUP1 REVERT JUMPDEST POP JUMP JUMPDEST PUSH1 0x0 DUP2 CALLDATALOAD SWAP1 POP PUSH2 0x2C22 DUP2 PUSH2 0x2BFC JUMP JUMPDEST SWAP3 SWAP2 POP POP JUMP JUMPDEST PUSH1 0x0 PUSH1 0xFF DUP3 AND SWAP1 POP SWAP2 SWAP1 POP JUMP JUMPDEST PUSH2 0x2C3E DUP2 PUSH2 0x2C28 JUMP JUMPDEST DUP2 EQ PUSH2 0x2C49 JUMPI PUSH1 0x0 DUP1 REVERT JUMPDEST POP JUMP JUMPDEST PUSH1 0x0 DUP2 CALLDATALOAD SWAP1 POP PUSH2 0x2C5B DUP2 PUSH2 0x2C35 JUMP JUMPDEST SWAP3 SWAP2 POP POP JUMP JUMPDEST PUSH1 0x0 DUP1 PUSH1 0x40 DUP4 DUP6 SUB SLT ISZERO PUSH2 0x2C78 JUMPI PUSH2 0x2C77 PUSH2 0x2BC0 JUMP JUMPDEST JUMPDEST PUSH1 0x0 PUSH2 0x2C86 DUP6 DUP3 DUP7 ADD PUSH2 0x2C13 JUMP JUMPDEST SWAP3 POP POP PUSH1 0x20 PUSH2 0x2C97 DUP6 DUP3 DUP7 ADD PUSH2 0x2C4C JUMP JUMPDEST SWAP2 POP POP SWAP3 POP SWAP3 SWAP1 POP JUMP JUMPDEST PUSH1 0x0 DUP1 REVERT JUMPDEST PUSH1 0x0 PUSH1 0x1F NOT PUSH1 0x1F DUP4 ADD AND SWAP1 POP SWAP2 SWAP1 POP JUMP JUMPDEST PUSH32 0x4E487B7100000000000000000000000000000000000000000000000000000000 PUSH1 0x0 MSTORE PUSH1 0x41 PUSH1 0x4 MSTORE PUSH1 0x24 PUSH1 0x0 REVERT JUMPDEST PUSH2 0x2CEF DUP3 PUSH2 0x2CA6 JUMP JUMPDEST DUP2 ADD DUP2 DUP2 LT PUSH8 0xFFFFFFFFFFFFFFFF DUP3 GT OR ISZERO PUSH2 0x2D0E JUMPI PUSH2 0x2D0D PUSH2 0x2CB7 JUMP JUMPDEST JUMPDEST DUP1 PUSH1 0x40 MSTORE POP POP POP JUMP JUMPDEST PUSH1 0x0 PUSH2 0x2D21 PUSH2 0x2BB6 JUMP JUMPDEST SWAP1 POP PUSH2 0x2D2D DUP3 DUP3 PUSH2 0x2CE6 JUMP JUMPDEST SWAP2 SWAP1 POP JUMP JUMPDEST PUSH1 0x0 DUP2 SWAP1 POP SWAP2 SWAP1 POP JUMP JUMPDEST PUSH2 0x2D45 DUP2 PUSH2 0x2D32 JUMP JUMPDEST DUP2 EQ PUSH2 0x2D50 JUMPI PUSH1 0x0 DUP1 REVERT JUMPDEST POP JUMP JUMPDEST PUSH1 0x0 DUP2 CALLDATALOAD SWAP1 POP PUSH2 0x2D62 DUP2 PUSH2 0x2D3C JUMP JUMPDEST SWAP3 SWAP2 POP POP JUMP JUMPDEST PUSH1 0x0 DUP2 SWAP1 POP SWAP2 SWAP1 POP JUMP JUMPDEST PUSH2 0x2D7B DUP2 PUSH2 0x2D68 JUMP JUMPDEST DUP2 EQ PUSH2 0x2D86 JUMPI PUSH1 0x0 DUP1 REVERT JUMPDEST POP JUMP JUMPDEST PUSH1 0x0 DUP2 CALLDATALOAD SWAP1 POP PUSH2 0x2D98 DUP2 PUSH2 0x2D72 JUMP JUMPDEST SWAP3 SWAP2 POP POP JUMP JUMPDEST PUSH1 0x0 PUSH4 0xFFFFFFFF DUP3 AND SWAP1 POP SWAP2 SWAP1 POP JUMP JUMPDEST PUSH2 0x2DB7 DUP2 PUSH2 0x2D9E JUMP JUMPDEST DUP2 EQ PUSH2 0x2DC2 JUMPI PUSH1 0x0 DUP1 REVERT JUMPDEST POP JUMP JUMPDEST PUSH1 0x0 DUP2 CALLDATALOAD SWAP1 POP PUSH2 0x2DD4 DUP2 PUSH2 0x2DAE JUMP JUMPDEST SWAP3 SWAP2 POP POP JUMP JUMPDEST PUSH1 0x0 PUSH1 0xA0 DUP3 DUP5 SUB SLT ISZERO PUSH2 0x2DF0 JUMPI PUSH2 0x2DEF PUSH2 0x2CA1 JUMP JUMPDEST JUMPDEST PUSH2 0x2DFA PUSH1 0xA0 PUSH2 0x2D17 JUMP JUMPDEST SWAP1 POP PUSH1 0x0 PUSH2 0x2E0A DUP5 DUP3 DUP6 ADD PUSH2 0x2D53 JUMP JUMPDEST PUSH1 0x0 DUP4 ADD MSTORE POP PUSH1 0x20 PUSH2 0x2E1E DUP5 DUP3 DUP6 ADD PUSH2 0x2D89 JUMP JUMPDEST PUSH1 0x20 DUP4 ADD MSTORE POP PUSH1 0x40 PUSH2 0x2E32 DUP5 DUP3 DUP6 ADD PUSH2 0x2D89 JUMP JUMPDEST PUSH1 0x40 DUP4 ADD MSTORE POP PUSH1 0x60 PUSH2 0x2E46 DUP5 DUP3 DUP6 ADD PUSH2 0x2DC5 JUMP JUMPDEST PUSH1 0x60 DUP4 ADD MSTORE POP PUSH1 0x80 PUSH2 0x2E5A DUP5 DUP3 DUP6 ADD PUSH2 0x2DC5 JUMP JUMPDEST PUSH1 0x80 DUP4 ADD MSTORE POP SWAP3 SWAP2 POP POP JUMP JUMPDEST PUSH1 0x0 DUP1 REVERT JUMPDEST PUSH1 0x0 PUSH1 0x80 DUP3 DUP5 SUB SLT ISZERO PUSH2 0x2E81 JUMPI PUSH2 0x2E80 PUSH2 0x2E66 JUMP JUMPDEST JUMPDEST DUP2 SWAP1 POP SWAP3 SWAP2 POP POP JUMP JUMPDEST PUSH1 0x0 DUP1 PUSH1 0xC0 DUP4 DUP6 SUB SLT ISZERO PUSH2 0x2EA1 JUMPI PUSH2 0x2EA0 PUSH2 0x2BC0 JUMP JUMPDEST JUMPDEST PUSH1 0x0 PUSH2 0x2EAF DUP6 DUP3 DUP7 ADD PUSH2 0x2DDA JUMP JUMPDEST SWAP3 POP POP PUSH1 0xA0 DUP4 ADD CALLDATALOAD PUSH8 0xFFFFFFFFFFFFFFFF DUP2 GT ISZERO PUSH2 0x2ED0 JUMPI PUSH2 0x2ECF PUSH2 0x2BC5 JUMP JUMPDEST JUMPDEST PUSH2 0x2EDC DUP6 DUP3 DUP7 ADD PUSH2 0x2E6B JUMP JUMPDEST SWAP2 POP POP SWAP3 POP SWAP3 SWAP1 POP JUMP JUMPDEST PUSH1 0x0 DUP2 ISZERO ISZERO SWAP1 POP SWAP2 SWAP1 POP JUMP JUMPDEST PUSH2 0x2EFB DUP2 PUSH2 0x2EE6 JUMP JUMPDEST DUP3 MSTORE POP POP JUMP JUMPDEST PUSH1 0x0 PUSH1 0x20 DUP3 ADD SWAP1 POP PUSH2 0x2F16 PUSH1 0x0 DUP4 ADD DUP5 PUSH2 0x2EF2 JUMP JUMPDEST SWAP3 SWAP2 POP POP JUMP JUMPDEST PUSH1 0x0 DUP1 PUSH1 0x40 DUP4 DUP6 SUB SLT ISZERO PUSH2 0x2F33 JUMPI PUSH2 0x2F32 PUSH2 0x2BC0 JUMP JUMPDEST JUMPDEST PUSH1 0x0 PUSH2 0x2F41 DUP6 DUP3 DUP7 ADD PUSH2 0x2C13 JUMP JUMPDEST SWAP3 POP POP PUSH1 0x20 DUP4 ADD CALLDATALOAD PUSH8 0xFFFFFFFFFFFFFFFF DUP2 GT ISZERO PUSH2 0x2F62 JUMPI PUSH2 0x2F61 PUSH2 0x2BC5 JUMP JUMPDEST JUMPDEST PUSH2 0x2F6E DUP6 DUP3 DUP7 ADD PUSH2 0x2E6B JUMP JUMPDEST SWAP2 POP POP SWAP3 POP SWAP3 SWAP1 POP JUMP JUMPDEST PUSH1 0x0 PUSH1 0x20 DUP3 DUP5 SUB SLT ISZERO PUSH2 0x2F8E JUMPI PUSH2 0x2F8D PUSH2 0x2BC0 JUMP JUMPDEST JUMPDEST PUSH1 0x0 PUSH2 0x2F9C DUP5 DUP3 DUP6 ADD PUSH2 0x2D89 JUMP JUMPDEST SWAP2 POP POP SWAP3 SWAP2 POP POP JUMP JUMPDEST PUSH1 0x0 DUP2 MLOAD SWAP1 POP SWAP2 SWAP1 POP JUMP JUMPDEST PUSH1 0x0 DUP3 DUP3 MSTORE PUSH1 0x20 DUP3 ADD SWAP1 POP SWAP3 SWAP2 POP POP JUMP JUMPDEST PUSH1 0x0 DUP2 SWAP1 POP PUSH1 0x20 DUP3 ADD SWAP1 POP SWAP2 SWAP1 POP JUMP JUMPDEST PUSH2 0x2FDA DUP2 PUSH2 0x2BEA JUMP JUMPDEST DUP3 MSTORE POP POP JUMP JUMPDEST PUSH1 0x0 PUSH2 0x2FEC DUP4 DUP4 PUSH2 0x2FD1 JUMP JUMPDEST PUSH1 0x20 DUP4 ADD SWAP1 POP SWAP3 SWAP2 POP POP JUMP JUMPDEST PUSH1 0x0 PUSH1 0x20 DUP3 ADD SWAP1 POP SWAP2 SWAP1 POP JUMP JUMPDEST PUSH1 0x0 PUSH2 0x3010 DUP3 PUSH2 0x2FA5 JUMP JUMPDEST PUSH2 0x301A DUP2 DUP6 PUSH2 0x2FB0 JUMP JUMPDEST SWAP4 POP PUSH2 0x3025 DUP4 PUSH2 0x2FC1 JUMP JUMPDEST DUP1 PUSH1 0x0 JUMPDEST DUP4 DUP2 LT ISZERO PUSH2 0x3056 JUMPI DUP2 MLOAD PUSH2 0x303D DUP9 DUP3 PUSH2 0x2FE0 JUMP JUMPDEST SWAP8 POP PUSH2 0x3048 DUP4 PUSH2 0x2FF8 JUMP JUMPDEST SWAP3 POP POP PUSH1 0x1 DUP2 ADD SWAP1 POP PUSH2 0x3029 JUMP JUMPDEST POP DUP6 SWAP4 POP POP POP POP SWAP3 SWAP2 POP POP JUMP JUMPDEST PUSH1 0x0 PUSH1 0x20 DUP3 ADD SWAP1 POP DUP2 DUP2 SUB PUSH1 0x0 DUP4 ADD MSTORE PUSH2 0x307D DUP2 DUP5 PUSH2 0x3005 JUMP JUMPDEST SWAP1 POP SWAP3 SWAP2 POP POP JUMP JUMPDEST PUSH1 0x0 DUP1 PUSH1 0x0 DUP1 PUSH1 0x0 PUSH1 0xA0 DUP7 DUP9 SUB SLT ISZERO PUSH2 0x30A1 JUMPI PUSH2 0x30A0 PUSH2 0x2BC0 JUMP JUMPDEST JUMPDEST PUSH1 0x0 PUSH2 0x30AF DUP9 DUP3 DUP10 ADD PUSH2 0x2D89 JUMP JUMPDEST SWAP6 POP POP PUSH1 0x20 PUSH2 0x30C0 DUP9 DUP3 DUP10 ADD PUSH2 0x2D89 JUMP JUMPDEST SWAP5 POP POP PUSH1 0x40 PUSH2 0x30D1 DUP9 DUP3 DUP10 ADD PUSH2 0x2C13 JUMP JUMPDEST SWAP4 POP POP PUSH1 0x60 PUSH2 0x30E2 DUP9 DUP3 DUP10 ADD PUSH2 0x2D89 JUMP JUMPDEST SWAP3 POP POP PUSH1 0x80 PUSH2 0x30F3 DUP9 DUP3 DUP10 ADD PUSH2 0x2D89 JUMP JUMPDEST SWAP2 POP POP SWAP3 SWAP6 POP SWAP3 SWAP6 SWAP1 SWAP4 POP JUMP JUMPDEST PUSH2 0x3109 DUP2 PUSH2 0x2D32 JUMP JUMPDEST DUP3 MSTORE POP POP JUMP JUMPDEST PUSH1 0x0 PUSH1 0x20 DUP3 ADD SWAP1 POP PUSH2 0x3124 PUSH1 0x0 DUP4 ADD DUP5 PUSH2 0x3100 JUMP JUMPDEST SWAP3 SWAP2 POP POP JUMP JUMPDEST PUSH1 0x0 DUP1 PUSH1 0x40 DUP4 DUP6 SUB SLT ISZERO PUSH2 0x3141 JUMPI PUSH2 0x3140 PUSH2 0x2BC0 JUMP JUMPDEST JUMPDEST PUSH1 0x0 PUSH2 0x314F DUP6 DUP3 DUP7 ADD PUSH2 0x2C13 JUMP JUMPDEST SWAP3 POP POP PUSH1 0x20 PUSH2 0x3160 DUP6 DUP3 DUP7 ADD PUSH2 0x2C13 JUMP JUMPDEST SWAP2 POP POP SWAP3 POP SWAP3 SWAP1 POP JUMP JUMPDEST PUSH1 0x0 PUSH1 0x20 DUP3 DUP5 SUB SLT ISZERO PUSH2 0x3180 JUMPI PUSH2 0x317F PUSH2 0x2BC0 JUMP JUMPDEST JUMPDEST PUSH1 0x0 DUP3 ADD CALLDATALOAD PUSH8 0xFFFFFFFFFFFFFFFF DUP2 GT ISZERO PUSH2 0x319E JUMPI PUSH2 0x319D PUSH2 0x2BC5 JUMP JUMPDEST JUMPDEST PUSH2 0x31AA DUP5 DUP3 DUP6 ADD PUSH2 0x2E6B JUMP JUMPDEST SWAP2 POP POP SWAP3 SWAP2 POP POP JUMP JUMPDEST PUSH1 0x0 DUP1 PUSH1 0x0 PUSH1 0x60 DUP5 DUP7 SUB SLT ISZERO PUSH2 0x31CC JUMPI PUSH2 0x31CB PUSH2 0x2BC0 JUMP JUMPDEST JUMPDEST PUSH1 0x0 PUSH2 0x31DA DUP7 DUP3 DUP8 ADD PUSH2 0x2D89 JUMP JUMPDEST SWAP4 POP POP PUSH1 0x20 PUSH2 0x31EB DUP7 DUP3 DUP8 ADD PUSH2 0x2D89 JUMP JUMPDEST SWAP3 POP POP PUSH1 0x40 DUP5 ADD CALLDATALOAD PUSH8 0xFFFFFFFFFFFFFFFF DUP2 GT ISZERO PUSH2 0x320C JUMPI PUSH2 0x320B PUSH2 0x2BC5 JUMP JUMPDEST JUMPDEST PUSH2 0x3218 DUP7 DUP3 DUP8 ADD PUSH2 0x2E6B JUMP JUMPDEST SWAP2 POP POP SWAP3 POP SWAP3 POP SWAP3 JUMP JUMPDEST PUSH1 0x0 DUP2 MLOAD SWAP1 POP SWAP2 SWAP1 POP JUMP JUMPDEST PUSH1 0x0 DUP3 DUP3 MSTORE PUSH1 0x20 DUP3 ADD SWAP1 POP SWAP3 SWAP2 POP POP JUMP JUMPDEST PUSH1 0x0 DUP2 SWAP1 POP PUSH1 0x20 DUP3 ADD SWAP1 POP SWAP2 SWAP1 POP JUMP JUMPDEST PUSH2 0x3257 DUP2 PUSH2 0x2D68 JUMP JUMPDEST DUP3 MSTORE POP POP JUMP JUMPDEST PUSH1 0x0 PUSH2 0x3269 DUP4 DUP4 PUSH2 0x324E JUMP JUMPDEST PUSH1 0x20 DUP4 ADD SWAP1 POP SWAP3 SWAP2 POP POP JUMP JUMPDEST PUSH1 0x0 PUSH1 0x20 DUP3 ADD SWAP1 POP SWAP2 SWAP1 POP JUMP JUMPDEST PUSH1 0x0 PUSH2 0x328D DUP3 PUSH2 0x3222 JUMP JUMPDEST PUSH2 0x3297 DUP2 DUP6 PUSH2 0x322D JUMP JUMPDEST SWAP4 POP PUSH2 0x32A2 DUP4 PUSH2 0x323E JUMP JUMPDEST DUP1 PUSH1 0x0 JUMPDEST DUP4 DUP2 LT ISZERO PUSH2 0x32D3 JUMPI DUP2 MLOAD PUSH2 0x32BA DUP9 DUP3 PUSH2 0x325D JUMP JUMPDEST SWAP8 POP PUSH2 0x32C5 DUP4 PUSH2 0x3275 JUMP JUMPDEST SWAP3 POP POP PUSH1 0x1 DUP2 ADD SWAP1 POP PUSH2 0x32A6 JUMP JUMPDEST POP DUP6 SWAP4 POP POP POP POP SWAP3 SWAP2 POP POP JUMP JUMPDEST PUSH1 0x0 PUSH1 0x40 DUP3 ADD SWAP1 POP DUP2 DUP2 SUB PUSH1 0x0 DUP4 ADD MSTORE PUSH2 0x32FA DUP2 DUP6 PUSH2 0x3282 JUMP JUMPDEST SWAP1 POP DUP2 DUP2 SUB PUSH1 0x20 DUP4 ADD MSTORE PUSH2 0x330E DUP2 DUP5 PUSH2 0x3282 JUMP JUMPDEST SWAP1 POP SWAP4 SWAP3 POP POP POP JUMP JUMPDEST PUSH1 0x0 PUSH1 0x20 DUP3 ADD SWAP1 POP DUP2 DUP2 SUB PUSH1 0x0 DUP4 ADD MSTORE PUSH2 0x3331 DUP2 DUP5 PUSH2 0x3282 JUMP JUMPDEST SWAP1 POP SWAP3 SWAP2 POP POP JUMP JUMPDEST PUSH1 0x0 DUP1 PUSH1 0x0 PUSH1 0x60 DUP5 DUP7 SUB SLT ISZERO PUSH2 0x3352 JUMPI PUSH2 0x3351 PUSH2 0x2BC0 JUMP JUMPDEST JUMPDEST PUSH1 0x0 PUSH2 0x3360 DUP7 DUP3 DUP8 ADD PUSH2 0x2D89 JUMP JUMPDEST SWAP4 POP POP PUSH1 0x20 PUSH2 0x3371 DUP7 DUP3 DUP8 ADD PUSH2 0x2D89 JUMP JUMPDEST SWAP3 POP POP PUSH1 0x40 PUSH2 0x3382 DUP7 DUP3 DUP8 ADD PUSH2 0x2D89 JUMP JUMPDEST SWAP2 POP POP SWAP3 POP SWAP3 POP SWAP3 JUMP JUMPDEST PUSH1 0x0 PUSH1 0x20 DUP3 DUP5 SUB SLT ISZERO PUSH2 0x33A2 JUMPI PUSH2 0x33A1 PUSH2 0x2BC0 JUMP JUMPDEST JUMPDEST PUSH1 0x0 PUSH2 0x33B0 DUP5 DUP3 DUP6 ADD PUSH2 0x2C13 JUMP JUMPDEST SWAP2 POP POP SWAP3 SWAP2 POP POP JUMP JUMPDEST PUSH2 0x33C2 DUP2 PUSH2 0x2D32 JUMP JUMPDEST DUP3 MSTORE POP POP JUMP JUMPDEST PUSH2 0x33D1 DUP2 PUSH2 0x2D9E JUMP JUMPDEST DUP3 MSTORE POP POP JUMP JUMPDEST PUSH1 0xA0 DUP3 ADD PUSH1 0x0 DUP3 ADD MLOAD PUSH2 0x33ED PUSH1 0x0 DUP6 ADD DUP3 PUSH2 0x33B9 JUMP JUMPDEST POP PUSH1 0x20 DUP3 ADD MLOAD PUSH2 0x3400 PUSH1 0x20 DUP6 ADD DUP3 PUSH2 0x324E JUMP JUMPDEST POP PUSH1 0x40 DUP3 ADD MLOAD PUSH2 0x3413 PUSH1 0x40 DUP6 ADD DUP3 PUSH2 0x324E JUMP JUMPDEST POP PUSH1 0x60 DUP3 ADD MLOAD PUSH2 0x3426 PUSH1 0x60 DUP6 ADD DUP3 PUSH2 0x33C8 JUMP JUMPDEST POP PUSH1 0x80 DUP3 ADD MLOAD PUSH2 0x3439 PUSH1 0x80 DUP6 ADD DUP3 PUSH2 0x33C8 JUMP JUMPDEST POP POP POP POP JUMP JUMPDEST PUSH1 0x0 PUSH1 0xA0 DUP3 ADD SWAP1 POP PUSH2 0x3454 PUSH1 0x0 DUP4 ADD DUP5 PUSH2 0x33D7 JUMP JUMPDEST SWAP3 SWAP2 POP POP JUMP JUMPDEST PUSH1 0x0 DUP2 MLOAD SWAP1 POP SWAP2 SWAP1 POP JUMP JUMPDEST PUSH1 0x0 DUP3 DUP3 MSTORE PUSH1 0x20 DUP3 ADD SWAP1 POP SWAP3 SWAP2 POP POP JUMP JUMPDEST PUSH1 0x0 DUP2 SWAP1 POP PUSH1 0x20 DUP3 ADD SWAP1 POP SWAP2 SWAP1 POP JUMP JUMPDEST PUSH1 0xA0 DUP3 ADD PUSH1 0x0 DUP3 ADD MLOAD PUSH2 0x349C PUSH1 0x0 DUP6 ADD DUP3 PUSH2 0x33B9 JUMP JUMPDEST POP PUSH1 0x20 DUP3 ADD MLOAD PUSH2 0x34AF PUSH1 0x20 DUP6 ADD DUP3 PUSH2 0x324E JUMP JUMPDEST POP PUSH1 0x40 DUP3 ADD MLOAD PUSH2 0x34C2 PUSH1 0x40 DUP6 ADD DUP3 PUSH2 0x324E JUMP JUMPDEST POP PUSH1 0x60 DUP3 ADD MLOAD PUSH2 0x34D5 PUSH1 0x60 DUP6 ADD DUP3 PUSH2 0x33C8 JUMP JUMPDEST POP PUSH1 0x80 DUP3 ADD MLOAD PUSH2 0x34E8 PUSH1 0x80 DUP6 ADD DUP3 PUSH2 0x33C8 JUMP JUMPDEST POP POP POP POP JUMP JUMPDEST PUSH1 0x0 PUSH2 0x34FA DUP4 DUP4 PUSH2 0x3486 JUMP JUMPDEST PUSH1 0xA0 DUP4 ADD SWAP1 POP SWAP3 SWAP2 POP POP JUMP JUMPDEST PUSH1 0x0 PUSH1 0x20 DUP3 ADD SWAP1 POP SWAP2 SWAP1 POP JUMP JUMPDEST PUSH1 0x0 PUSH2 0x351E DUP3 PUSH2 0x345A JUMP JUMPDEST PUSH2 0x3528 DUP2 DUP6 PUSH2 0x3465 JUMP JUMPDEST SWAP4 POP PUSH2 0x3533 DUP4 PUSH2 0x3476 JUMP JUMPDEST DUP1 PUSH1 0x0 JUMPDEST DUP4 DUP2 LT ISZERO PUSH2 0x3564 JUMPI DUP2 MLOAD PUSH2 0x354B DUP9 DUP3 PUSH2 0x34EE JUMP JUMPDEST SWAP8 POP PUSH2 0x3556 DUP4 PUSH2 0x3506 JUMP JUMPDEST SWAP3 POP POP PUSH1 0x1 DUP2 ADD SWAP1 POP PUSH2 0x3537 JUMP JUMPDEST POP DUP6 SWAP4 POP POP POP POP SWAP3 SWAP2 POP POP JUMP JUMPDEST PUSH1 0x0 PUSH1 0x20 DUP3 ADD SWAP1 POP DUP2 DUP2 SUB PUSH1 0x0 DUP4 ADD MSTORE PUSH2 0x358B DUP2 DUP5 PUSH2 0x3513 JUMP JUMPDEST SWAP1 POP SWAP3 SWAP2 POP POP JUMP JUMPDEST PUSH32 0x4E487B7100000000000000000000000000000000000000000000000000000000 PUSH1 0x0 MSTORE PUSH1 0x32 PUSH1 0x4 MSTORE PUSH1 0x24 PUSH1 0x0 REVERT JUMPDEST PUSH1 0x0 DUP1 REVERT JUMPDEST PUSH1 0x0 DUP1 REVERT JUMPDEST PUSH1 0x0 DUP1 REVERT JUMPDEST PUSH1 0x0 DUP1 DUP4 CALLDATALOAD PUSH1 0x1 PUSH1 0x20 SUB DUP5 CALLDATASIZE SUB SUB DUP2 SLT PUSH2 0x35EE JUMPI PUSH2 0x35ED PUSH2 0x35C2 JUMP JUMPDEST JUMPDEST DUP1 DUP5 ADD SWAP3 POP DUP3 CALLDATALOAD SWAP2 POP PUSH8 0xFFFFFFFFFFFFFFFF DUP3 GT ISZERO PUSH2 0x3610 JUMPI PUSH2 0x360F PUSH2 0x35C7 JUMP JUMPDEST JUMPDEST PUSH1 0x20 DUP4 ADD SWAP3 POP PUSH1 0x1 DUP3 MUL CALLDATASIZE SUB DUP4 SGT ISZERO PUSH2 0x362C JUMPI PUSH2 0x362B PUSH2 0x35CC JUMP JUMPDEST JUMPDEST POP SWAP3 POP SWAP3 SWAP1 POP JUMP JUMPDEST PUSH2 0x363D DUP2 PUSH2 0x2D68 JUMP JUMPDEST DUP3 MSTORE POP POP JUMP JUMPDEST PUSH1 0x0 DUP3 DUP3 MSTORE PUSH1 0x20 DUP3 ADD SWAP1 POP SWAP3 SWAP2 POP POP JUMP JUMPDEST DUP3 DUP2 DUP4 CALLDATACOPY PUSH1 0x0 DUP4 DUP4 ADD MSTORE POP POP POP JUMP JUMPDEST PUSH1 0x0 PUSH2 0x366F DUP4 DUP6 PUSH2 0x3643 JUMP JUMPDEST SWAP4 POP PUSH2 0x367C DUP4 DUP6 DUP5 PUSH2 0x3654 JUMP JUMPDEST PUSH2 0x3685 DUP4 PUSH2 0x2CA6 JUMP JUMPDEST DUP5 ADD SWAP1 POP SWAP4 SWAP3 POP POP POP JUMP JUMPDEST PUSH1 0x0 PUSH1 0x80 DUP3 ADD SWAP1 POP PUSH2 0x36A5 PUSH1 0x0 DUP4 ADD DUP9 PUSH2 0x3634 JUMP JUMPDEST DUP2 DUP2 SUB PUSH1 0x20 DUP4 ADD MSTORE PUSH2 0x36B8 DUP2 DUP7 DUP9 PUSH2 0x3663 JUMP JUMPDEST SWAP1 POP PUSH2 0x36C7 PUSH1 0x40 DUP4 ADD DUP6 PUSH2 0x3634 JUMP JUMPDEST PUSH2 0x36D4 PUSH1 0x60 DUP4 ADD DUP5 PUSH2 0x3634 JUMP JUMPDEST SWAP7 SWAP6 POP POP POP POP POP POP JUMP JUMPDEST PUSH2 0x36E7 DUP2 PUSH2 0x2EE6 JUMP JUMPDEST DUP2 EQ PUSH2 0x36F2 JUMPI PUSH1 0x0 DUP1 REVERT JUMPDEST POP JUMP JUMPDEST PUSH1 0x0 DUP2 MLOAD SWAP1 POP PUSH2 0x3704 DUP2 PUSH2 0x36DE JUMP JUMPDEST SWAP3 SWAP2 POP POP JUMP JUMPDEST PUSH1 0x0 PUSH1 0x20 DUP3 DUP5 SUB SLT ISZERO PUSH2 0x3720 JUMPI PUSH2 0x371F PUSH2 0x2BC0 JUMP JUMPDEST JUMPDEST PUSH1 0x0 PUSH2 0x372E DUP5 DUP3 DUP6 ADD PUSH2 0x36F5 JUMP JUMPDEST SWAP2 POP POP SWAP3 SWAP2 POP POP JUMP JUMPDEST PUSH32 0x4E487B7100000000000000000000000000000000000000000000000000000000 PUSH1 0x0 MSTORE PUSH1 0x11 PUSH1 0x4 MSTORE PUSH1 0x24 PUSH1 0x0 REVERT JUMPDEST PUSH1 0x0 PUSH2 0x3771 DUP3 PUSH2 0x2D9E JUMP JUMPDEST SWAP2 POP PUSH2 0x377C DUP4 PUSH2 0x2D9E JUMP JUMPDEST SWAP3 POP DUP3 DUP3 ADD SWAP1 POP PUSH4 0xFFFFFFFF DUP2 GT ISZERO PUSH2 0x3798 JUMPI PUSH2 0x3797 PUSH2 0x3737 JUMP JUMPDEST JUMPDEST SWAP3 SWAP2 POP POP JUMP JUMPDEST PUSH1 0x0 PUSH2 0x37A9 DUP3 PUSH2 0x2D32 JUMP JUMPDEST SWAP2 POP PUSH2 0x37B4 DUP4 PUSH2 0x2D32 JUMP JUMPDEST SWAP3 POP DUP3 DUP3 ADD SWAP1 POP DUP1 DUP3 GT ISZERO PUSH2 0x37CC JUMPI PUSH2 0x37CB PUSH2 0x3737 JUMP JUMPDEST JUMPDEST SWAP3 SWAP2 POP POP JUMP JUMPDEST PUSH1 0x0 DUP2 SWAP1 POP SWAP2 SWAP1 POP JUMP JUMPDEST PUSH1 0x0 PUSH8 0xFFFFFFFFFFFFFFFF DUP3 AND SWAP1 POP SWAP2 SWAP1 POP JUMP JUMPDEST PUSH1 0x0 DUP2 SWAP1 POP SWAP2 SWAP1 POP JUMP JUMPDEST PUSH1 0x0 PUSH2 0x3815 PUSH2 0x3810 PUSH2 0x380B DUP5 PUSH2 0x37D2 JUMP JUMPDEST PUSH2 0x37F0 JUMP JUMPDEST PUSH2 0x37DC JUMP JUMPDEST SWAP1 POP SWAP2 SWAP1 POP JUMP JUMPDEST PUSH2 0x3825 DUP2 PUSH2 0x37FA JUMP JUMPDEST DUP3 MSTORE POP POP JUMP JUMPDEST PUSH1 0x0 PUSH1 0x20 DUP3 ADD SWAP1 POP PUSH2 0x3840 PUSH1 0x0 DUP4 ADD DUP5 PUSH2 0x381C JUMP JUMPDEST SWAP3 SWAP2 POP POP JUMP INVALID LOG2 PUSH5 0x6970667358 0x22 SLT KECCAK256 0xE5 0xE0 0xAB DUP9 EXTCODEHASH PUSH26 0x7A3B00CA2FEFCC80C31AEA1EF77BED4AEC11E1573EB6F18C1732 PUSH5 0x736F6C6343 STOP ADDMOD SHR STOP CALLER "},"methodIdentifiers":{"accountAddAddress(address,(uint256,bytes32,bytes32,bytes))":"3e244a85","accountAddKey(bytes32,bytes32,(uint256,bytes32,bytes32,bytes))":"734f231f","accountGetKeys((uint256,bytes32,bytes32,bytes))":"8ed0b01b","accountUpdateHash(bytes32,bytes32,(uint256,bytes32,bytes32,bytes))":"f378c9df","getAccount(bytes32)":"d1de5011","getAccountHashes(bytes32)":"9a1d554e","getAccounts(bytes32)":"d7c89f5b","getAddresses(bytes32)":"3fdada7a","getPerms(address)":"ac7eba6c","getTotalAccounts()":"da6841aa","initialize(address,address)":"485cc955","register(bytes32,bytes32,address,bytes32,bytes32)":"4470da90","updatePerms(address,uint8)":"16aac50e","updateSystemHash(bytes32,bytes32,bytes32)":"9d5c7e9f","verify((uint256,bytes32,bytes32,bytes))":"4a5af4e0","verifyFingerprint((uint256,bytes32,bytes32,uint32,uint32),(uint256,bytes32,bytes32,bytes))":"16c1c26d","version()":"54fd4d50"}},"storageLayout":{"storage":[{"astId":1717,"contract":"contracts/CarmelRegistry.sol:CarmelRegistry","label":"_perms","offset":0,"slot":"0","type":"t_mapping(t_address,t_uint8)"},{"astId":1721,"contract":"contracts/CarmelRegistry.sol:CarmelRegistry","label":"_verifier","offset":0,"slot":"1","type":"t_contract(ICarmelVerifier)1559"},{"astId":1724,"contract":"contracts/CarmelRegistry.sol:CarmelRegistry","label":"_total_accounts","offset":0,"slot":"2","type":"t_uint256"},{"astId":1727,"contract":"contracts/CarmelRegistry.sol:CarmelRegistry","label":"_owner","offset":0,"slot":"3","type":"t_address"},{"astId":1733,"contract":"contracts/CarmelRegistry.sol:CarmelRegistry","label":"_keys_x","offset":0,"slot":"4","type":"t_mapping(t_bytes32,t_array(t_bytes32)dyn_storage)"},{"astId":1738,"contract":"contracts/CarmelRegistry.sol:CarmelRegistry","label":"_keys_y","offset":0,"slot":"5","type":"t_mapping(t_bytes32,t_array(t_bytes32)dyn_storage)"},{"astId":1744,"contract":"contracts/CarmelRegistry.sol:CarmelRegistry","label":"_hashes","offset":0,"slot":"6","type":"t_mapping(t_bytes32,t_array(t_bytes32)dyn_storage)"},{"astId":1750,"contract":"contracts/CarmelRegistry.sol:CarmelRegistry","label":"_accounts","offset":0,"slot":"7","type":"t_mapping(t_bytes32,t_struct(CarmelAccount)1514_storage)"},{"astId":1756,"contract":"contracts/CarmelRegistry.sol:CarmelRegistry","label":"_usernames","offset":0,"slot":"8","type":"t_mapping(t_bytes32,t_array(t_bytes32)dyn_storage)"},{"astId":1762,"contract":"contracts/CarmelRegistry.sol:CarmelRegistry","label":"_addresses","offset":0,"slot":"9","type":"t_mapping(t_bytes32,t_array(t_address)dyn_storage)"}],"types":{"t_address":{"encoding":"inplace","label":"address","numberOfBytes":"20"},"t_array(t_address)dyn_storage":{"base":"t_address","encoding":"dynamic_array","label":"address[]","numberOfBytes":"32"},"t_array(t_bytes32)dyn_storage":{"base":"t_bytes32","encoding":"dynamic_array","label":"bytes32[]","numberOfBytes":"32"},"t_bytes32":{"encoding":"inplace","label":"bytes32","numberOfBytes":"32"},"t_contract(ICarmelVerifier)1559":{"encoding":"inplace","label":"contract ICarmelVerifier","numberOfBytes":"20"},"t_mapping(t_address,t_uint8)":{"encoding":"mapping","key":"t_address","label":"mapping(address => uint8)","numberOfBytes":"32","value":"t_uint8"},"t_mapping(t_bytes32,t_array(t_address)dyn_storage)":{"encoding":"mapping","key":"t_bytes32","label":"mapping(bytes32 => address[])","numberOfBytes":"32","value":"t_array(t_address)dyn_storage"},"t_mapping(t_bytes32,t_array(t_bytes32)dyn_storage)":{"encoding":"mapping","key":"t_bytes32","label":"mapping(bytes32 => bytes32[])","numberOfBytes":"32","value":"t_array(t_bytes32)dyn_storage"},"t_mapping(t_bytes32,t_struct(CarmelAccount)1514_storage)":{"encoding":"mapping","key":"t_bytes32","label":"mapping(bytes32 => struct CarmelBase.CarmelAccount)","numberOfBytes":"32","value":"t_struct(CarmelAccount)1514_storage"},"t_struct(CarmelAccount)1514_storage":{"encoding":"inplace","label":"struct CarmelBase.CarmelAccount","members":[{"astId":1505,"contract":"contracts/CarmelRegistry.sol:CarmelRegistry","label":"id","offset":0,"slot":"0","type":"t_uint256"},{"astId":1507,"contract":"contracts/CarmelRegistry.sol:CarmelRegistry","label":"username","offset":0,"slot":"1","type":"t_bytes32"},{"astId":1509,"contract":"contracts/CarmelRegistry.sol:CarmelRegistry","label":"group","offset":0,"slot":"2","type":"t_bytes32"},{"astId":1511,"contract":"contracts/CarmelRegistry.sol:CarmelRegistry","label":"total_keys","offset":0,"slot":"3","type":"t_uint32"},{"astId":1513,"contract":"contracts/CarmelRegistry.sol:CarmelRegistry","label":"total_addresses","offset":4,"slot":"3","type":"t_uint32"}],"numberOfBytes":"128"},"t_uint256":{"encoding":"inplace","label":"uint256","numberOfBytes":"32"},"t_uint32":{"encoding":"inplace","label":"uint32","numberOfBytes":"4"},"t_uint8":{"encoding":"inplace","label":"uint8","numberOfBytes":"1"}}}}}}