{"contracts/CarmelVerifier.sol":{"CarmelVerifier":{"abi":[{"inputs":[],"stateMutability":"nonpayable","type":"constructor"},{"inputs":[],"name":"InvalidInitialization","type":"error"},{"inputs":[],"name":"NotInitializing","type":"error"},{"anonymous":false,"inputs":[{"indexed":false,"internalType":"uint64","name":"version","type":"uint64"}],"name":"Initialized","type":"event"},{"inputs":[{"internalType":"address","name":"sen","type":"address"}],"name":"initialize","outputs":[],"stateMutability":"nonpayable","type":"function"},{"inputs":[{"internalType":"bytes32","name":"message","type":"bytes32"},{"internalType":"bytes","name":"signature","type":"bytes"},{"internalType":"bytes32","name":"qx","type":"bytes32"},{"internalType":"bytes32","name":"qy","type":"bytes32"}],"name":"verify","outputs":[{"internalType":"bool","name":"","type":"bool"}],"stateMutability":"view","type":"function"}],"evm":{"bytecode":{"linkReferences":{},"object":"608060405234801561001057600080fd5b5061002b67a8fc1b32150ffbcc60c01b61007260201b60201c565b61004567b89ec8060bf2ec2960c01b61007260201b60201c565b61005f678e5830c423183bae60c01b61007260201b60201c565b61006d61007560201b60201c565b6101df565b50565b600061008561017960201b60201c565b90508060000160089054906101000a900460ff16156100d0576040517ff92ee8a900000000000000000000000000000000000000000000000000000000815260040160405180910390fd5b67ffffffffffffffff80168160000160009054906101000a900467ffffffffffffffff1667ffffffffffffffff16146101765767ffffffffffffffff8160000160006101000a81548167ffffffffffffffff021916908367ffffffffffffffff1602179055507fc7f505b2f371ae2175ee4913f4499e1f2633a7b5936321eed1cdaeb6115181d267ffffffffffffffff60405161016d91906101c4565b60405180910390a15b50565b60007ff0c57e16840df040f15088dc2f81fe391c3923bec73e23a9662efc9c229c6a00905090565b600067ffffffffffffffff82169050919050565b6101be816101a1565b82525050565b60006020820190506101d960008301846101b5565b92915050565b6116ca806101ee6000396000f3fe608060405234801561001057600080fd5b50600436106100365760003560e01c8063a64f680b1461003b578063c4d66de81461006b575b600080fd5b610055600480360381019061005091906113ec565b610087565b604051610062919061148f565b60405180910390f35b61008560048036038101906100809190611508565b61078e565b005b600061009d6753f0e0f446c3784760c01b6109a4565b6100b167657477dc6dcb5d7360c01b6109a4565b6100c5675444064860a99a2060c01b6109a4565b6040858590501015610102576100e567be676c3300b1753560c01b6109a4565b6100f9676ffb471c89d6a77260c01b6109a4565b60009050610785565b61011667034774a811378e3660c01b6109a4565b61012a67018f28a382a3d99860c01b6109a4565b61013e67dd4cea0ebd228ce760c01b6109a4565b600085856000906020926101549392919061153f565b9061015f9190611592565b60001c905061017867c0d49853e419dd6360c01b6109a4565b61018c67e6eaa832a2d249a760c01b6109a4565b600086866020906040926101a29392919061153f565b906101ad9190611592565b60001c90506101c667497d022dd431de6460c01b6109a4565b6101da67f5945a89b2ea917960c01b6109a4565b60008860001c90506101f6678f47c7e4d6b6b86260c01b6109a4565b61020a6746de1063d03f721060c01b6109a4565b60008660001c90506102266760dab7e4aa37772660c01b6109a4565b61023a679da655614169466160c01b6109a4565b60008660001c90506102566794e1e098e96c17c660c01b6109a4565b61026a67c9671dc11c98e19d60c01b6109a4565b60008514801561028a575061028967765830029d97360060c01b6109a7565b5b806102ed57507fffffffff00000000ffffffffffffffffbce6faada7179e84f3b9cac2fc63255185101580156102d057506102cf670a50b8711c180a3a60c01b6109a7565b5b80156102ec57506102eb677a9828c74dffee9e60c01b6109a7565b5b5b806103305750600084148015610313575061031267d2fa8c67be6586a060c01b6109a7565b5b801561032f575061032e67d693c1b3b958142560c01b6109a7565b5b5b8061037757507fffffffff00000000ffffffffffffffffbce6faada7179e84f3b9cac2fc63255184101580156103765750610375674e26f5244da12e5a60c01b6109a7565b5b5b156103c65761039067960cca709696f54760c01b6109a4565b6103a46711c2dfacd4b95fbf60c01b6109a4565b6103b867e2de07609148229460c01b6109a4565b600095505050505050610785565b6103da67ad553f1101a9c29f60c01b6109a4565b6103ee67c0ec7584a52a62ed60c01b6109a4565b61040267a731e551e1115f1860c01b6109a4565b600015156104737fffffffff00000001000000000000000000000000ffffffffffffffffffffffff7fffffffff00000001000000000000000000000000fffffffffffffffffffffffc7f5ac635d8aa3a93e7b3ebbd55769886bc651d06b0cc53b0f63bce3c3e27d2604b86866109b2565b1515036104c45761048e67a75445769da8334e60c01b6109a4565b6104a267d17b12096186c2ea60c01b6109a4565b6104b667bc073660faa79edc60c01b6109a4565b600095505050505050610785565b6104d867078ce58b7034a5e060c01b6109a4565b6104ec670acfb32e4424308960c01b6109a4565b610500677c8f5ff3014c84ce60c01b6109a4565b600061050b85610a6b565b90506105216732a93d737a489ce260c01b6109a4565b61053567d0d29568a75acbdc60c01b6109a4565b60007fffffffff00000000ffffffffffffffffbce6faada7179e84f3b9cac2fc63255180610566576105656115f1565b5b828609905061057f670f304b486e032b9860c01b6109a4565b61059367d0784d131d3b21b660c01b6109a4565b60007fffffffff00000000ffffffffffffffffbce6faada7179e84f3b9cac2fc632551806105c4576105c36115f1565b5b83890990506105dd67ffed9d6760de09f660c01b6109a4565b6105f16746c02c82a5d8851760c01b6109a4565b60006040518060c001604052808781526020018681526020017fffffffff00000001000000000000000000000000ffffffffffffffffffffffff81526020017fffffffff00000001000000000000000000000000fffffffffffffffffffffffc81526020017f6b17d1f2e12c4247f8bce6e563a440f277037d812deb33a0f4a13945d898c29681526020017f4fe342e2fe1a7f9b8ee7eb4a7c0f9e162bce33576b315ececbb6406837bf51f581525090506106b66711df694544c701a660c01b6109a4565b6106ca676eb90570c548c01460c01b6109a4565b60006106e067c1f2ba7ad3d13d2a60c01b6109a4565b6106eb828585610b21565b50809150506107046736e35ebaa89b64a460c01b6109a4565b7fffffffff00000000ffffffffffffffffbce6faada7179e84f3b9cac2fc6325518a7fffffffff00000000ffffffffffffffffbce6faada7179e84f3b9cac2fc632551038208905061076067bba78bc5edcb926560c01b6109a4565b6107746758befc6699a55a7a60c01b6109a4565b600081149a50505050505050505050505b95945050505050565b6107a26759aa084af1f9389660c01b6109a4565b60006107ac61131f565b905060008160000160089054906101000a900460ff1615905060008260000160009054906101000a900467ffffffffffffffff1690506000808267ffffffffffffffff161480156107fa5750825b9050600060018367ffffffffffffffff1614801561082f575060003073ffffffffffffffffffffffffffffffffffffffff163b145b90508115801561083d575080155b15610874576040517ff92ee8a900000000000000000000000000000000000000000000000000000000815260040160405180910390fd5b60018560000160006101000a81548167ffffffffffffffff021916908367ffffffffffffffff16021790555083156108c45760018560000160086101000a81548160ff0219169083151502179055505b6108d86712d112ad19cf97b360c01b6109a4565b6108ec6744393147b01c349960c01b6109a4565b61090067a1d10ad4b590be1960c01b6109a4565b856000806101000a81548173ffffffffffffffffffffffffffffffffffffffff021916908373ffffffffffffffffffffffffffffffffffffffff160217905550831561099c5760008560000160086101000a81548160ff0219169083151502179055507fc7f505b2f371ae2175ee4913f4499e1f2633a7b5936321eed1cdaeb6115181d260016040516109939190611679565b60405180910390a15b505050505050565b50565b600060019050919050565b600080831480156109c35750600082145b806109ce5750858310155b806109d95750858210155b156109e75760009050610a62565b600086806109f8576109f76115f1565b5b838409905060008780610a0e57610a0d6115f1565b5b8880610a1d57610a1c6115f1565b5b8887098980610a2f57610a2e6115f1565b5b878b80610a3f57610a3e6115f1565b5b898a09090890508780610a5557610a546115f1565b5b8682089050808214925050505b95945050505050565b6000610a816756c137f3d23bf40a60c01b6109a4565b610a956742ef9a3c9129575f60c01b6109a4565b60405160208152602080820152602060408201528260608201527fffffffff00000000ffffffffffffffffbce6faada7179e84f3b9cac2fc63254f60808201527fffffffff00000000ffffffffffffffffbce6faada7179e84f3b9cac2fc63255160a082015260208160c0836005600019fa610b17576107fe60405260206040fd5b8051915050919050565b60008060007f80000000000000000000000000000000000000000000000000000000000000009050600085148015610b595750600084145b15610b6b576000809250925050611317565b60008061080060405101604052604088015161082060405101526108206040510151610ca9565b8281830152816020019150838183015281602001915084818301528160200191508581830152816020019150505050505050565b6000806000808886600209898182098a8188098b82840992508b8c8d8c8d098f098d8e8b8c096003090895508b8b840993508b8a830994508b8c8260028f03098d8889090896508b8c828e038908870991508b828d8b8609089550858c0395505050509650965096509692505050565b600080600080858b0395508a868c8a8d090899508a858c038c898c090898508a898a0993508a89850992508a84880991508a83890990508a84860996508a8b8860028e03098c858e038e8e8f09080893508a8a8c868e038a080994508a8b84880986089250975097509750979350505050565b610cc360018060a08c015160808d01516080604051610b92565b610cde60608a01518260018060a08e015160808f0151610bc6565b9550935095509550610cf883838789610100604051610b92565b610d0f8160a08b015160808c015186868a8c610c36565b9550935095509550610d2983838789610180604051610b92565b610d4460018060208c015160008d0151610200604051610b92565b6080890151955060a08901519450610d6a8160208b015160008c01516001808a8c610c36565b9550935095509550610d8483838789610280604051610b92565b610d9b8160a08b015160808c015186868a8c610c36565b9550935095509550610db583838789610300604051610b92565b610dcc8160a08b015160808c015186868a8c610c36565b9550935095509550610de683838789610380604051610b92565b6000890151955060208901519450610e0760608a015182600180898b610bc6565b9550935095509550610e2183838789610400604051610b92565b610e388160a08b015160808c015186868a8c610c36565b9550935095509550610e5283838789610480604051610b92565b610e698160a08b015160808c015186868a8c610c36565b9550935095509550610e8383838789610500604051610b92565b610e9a8160a08b015160808c015186868a8c610c36565b9550935095509550610eb483838789610580604051610b92565b61040060405101519550610420604051015194506104406040510151915061046060405101519250610ef38160208b015160008c015186868a8c610c36565b9550935095509550610f0d83838789610600604051610b92565b610f248160a08b015160808c015186868a8c610c36565b9550935095509550610f3e83838789610680604051610b92565b610f558160a08b015160808c015186868a8c610c36565b9550935095509550610f6f83838789610700604051610b92565b610f868160a08b015160808c015186868a8c610c36565b9550935095509550610fa083838789610780604051610b92565b50600091505b81610fe6578286161560010360031b8360011c87161560010360021b018388161560010360011b8460011c891615600103010191508260021c9250610fa6565b8160071b604051015194508160071b602001604051015193508160071b604001604051015190508160071b606001604051015191506040516108208101515b60008511156112ab5780866002098181820982818a09838284099250838487880960608f015109848186878e8f09600309089050848885099750848784099650600285039a508485838d0986838409089a5084858387038d08820992508483868c870908995089850399505050505080866002098181820982818a09838284099250838487880960608f015109848186878e8f09600309089050848885099750848784099650600285039a508485838d0986838409089a5084858387038d08820992508483868c8709089950505050508488161560010360031b8560011c89161560010360021b01858a161560010360011b8660011c8b1615600103010180611133578682039650506112a0565b8060071b90508083015181606001840151610860850152846111745780985081602001840151975081604001840151945081606001840151955050506112a0565b82836108608601518a0984888560200188015109086108408501528160400184015191508283838b098403848784090861084085015161122e578061122d5783896002860309925083838409905083818b09610840860152838184099250838487880960608f0151099150838285868d8e09600309089150838784099650838682099550838461084087015160028703098584850908995083848b8603610840880151088309905083848a8509820898505050506112a0565b5b83818209915083818309905083838584890909955083838b0992508361086086015185838a09099650838485846002880309850985838703876108408a01516108408b01510908089950838284099150838482866108608901518d090985610840880151878e89038708090898505050505b8460021c9450611025565b61088060405260405184606082015260208152602080820152602060408201526002820360808201528160a082015260208160c0836005600019fa6112f6576107ff60405260206040fd5b81815188099650818151850993508184850993508184890997505050505050505b935093915050565b60007ff0c57e16840df040f15088dc2f81fe391c3923bec73e23a9662efc9c229c6a00905090565b600080fd5b600080fd5b6000819050919050565b61136481611351565b811461136f57600080fd5b50565b6000813590506113818161135b565b92915050565b600080fd5b600080fd5b600080fd5b60008083601f8401126113ac576113ab611387565b5b8235905067ffffffffffffffff8111156113c9576113c861138c565b5b6020830191508360018202830111156113e5576113e4611391565b5b9250929050565b60008060008060006080868803121561140857611407611347565b5b600061141688828901611372565b955050602086013567ffffffffffffffff8111156114375761143661134c565b5b61144388828901611396565b9450945050604061145688828901611372565b925050606061146788828901611372565b9150509295509295909350565b60008115159050919050565b61148981611474565b82525050565b60006020820190506114a46000830184611480565b92915050565b600073ffffffffffffffffffffffffffffffffffffffff82169050919050565b60006114d5826114aa565b9050919050565b6114e5816114ca565b81146114f057600080fd5b50565b600081359050611502816114dc565b92915050565b60006020828403121561151e5761151d611347565b5b600061152c848285016114f3565b91505092915050565b600080fd5b600080fd5b6000808585111561155357611552611535565b5b838611156115645761156361153a565b5b6001850283019150848603905094509492505050565b600082905092915050565b600082821b905092915050565b600061159e838361157a565b826115a98135611351565b925060208210156115e9576115e47fffffffffffffffffffffffffffffffffffffffffffffffffffffffffffffffff83602003600802611585565b831692505b505092915050565b7f4e487b7100000000000000000000000000000000000000000000000000000000600052601260045260246000fd5b6000819050919050565b600067ffffffffffffffff82169050919050565b6000819050919050565b600061166361165e61165984611620565b61163e565b61162a565b9050919050565b61167381611648565b82525050565b600060208201905061168e600083018461166a565b9291505056fea264697066735822122007714e76db1f81689cbfc9cc1a45ce4ada795fd750c962254b6f35e1a8920d1164736f6c634300081c0033","opcodes":"PUSH1 0x80 PUSH1 0x40 MSTORE CALLVALUE DUP1 ISZERO PUSH2 0x10 JUMPI PUSH1 0x0 DUP1 REVERT JUMPDEST POP PUSH2 0x2B PUSH8 0xA8FC1B32150FFBCC PUSH1 0xC0 SHL PUSH2 0x72 PUSH1 0x20 SHL PUSH1 0x20 SHR JUMP JUMPDEST PUSH2 0x45 PUSH8 0xB89EC8060BF2EC29 PUSH1 0xC0 SHL PUSH2 0x72 PUSH1 0x20 SHL PUSH1 0x20 SHR JUMP JUMPDEST PUSH2 0x5F PUSH8 0x8E5830C423183BAE PUSH1 0xC0 SHL PUSH2 0x72 PUSH1 0x20 SHL PUSH1 0x20 SHR JUMP JUMPDEST PUSH2 0x6D PUSH2 0x75 PUSH1 0x20 SHL PUSH1 0x20 SHR JUMP JUMPDEST PUSH2 0x1DF JUMP JUMPDEST POP JUMP JUMPDEST PUSH1 0x0 PUSH2 0x85 PUSH2 0x179 PUSH1 0x20 SHL PUSH1 0x20 SHR JUMP JUMPDEST SWAP1 POP DUP1 PUSH1 0x0 ADD PUSH1 0x8 SWAP1 SLOAD SWAP1 PUSH2 0x100 EXP SWAP1 DIV PUSH1 0xFF AND ISZERO PUSH2 0xD0 JUMPI PUSH1 0x40 MLOAD PUSH32 0xF92EE8A900000000000000000000000000000000000000000000000000000000 DUP2 MSTORE PUSH1 0x4 ADD PUSH1 0x40 MLOAD DUP1 SWAP2 SUB SWAP1 REVERT JUMPDEST PUSH8 0xFFFFFFFFFFFFFFFF DUP1 AND DUP2 PUSH1 0x0 ADD PUSH1 0x0 SWAP1 SLOAD SWAP1 PUSH2 0x100 EXP SWAP1 DIV PUSH8 0xFFFFFFFFFFFFFFFF AND PUSH8 0xFFFFFFFFFFFFFFFF AND EQ PUSH2 0x176 JUMPI PUSH8 0xFFFFFFFFFFFFFFFF DUP2 PUSH1 0x0 ADD PUSH1 0x0 PUSH2 0x100 EXP DUP2 SLOAD DUP2 PUSH8 0xFFFFFFFFFFFFFFFF MUL NOT AND SWAP1 DUP4 PUSH8 0xFFFFFFFFFFFFFFFF AND MUL OR SWAP1 SSTORE POP PUSH32 0xC7F505B2F371AE2175EE4913F4499E1F2633A7B5936321EED1CDAEB6115181D2 PUSH8 0xFFFFFFFFFFFFFFFF PUSH1 0x40 MLOAD PUSH2 0x16D SWAP2 SWAP1 PUSH2 0x1C4 JUMP JUMPDEST PUSH1 0x40 MLOAD DUP1 SWAP2 SUB SWAP1 LOG1 JUMPDEST POP JUMP JUMPDEST PUSH1 0x0 PUSH32 0xF0C57E16840DF040F15088DC2F81FE391C3923BEC73E23A9662EFC9C229C6A00 SWAP1 POP SWAP1 JUMP JUMPDEST PUSH1 0x0 PUSH8 0xFFFFFFFFFFFFFFFF DUP3 AND SWAP1 POP SWAP2 SWAP1 POP JUMP JUMPDEST PUSH2 0x1BE DUP2 PUSH2 0x1A1 JUMP JUMPDEST DUP3 MSTORE POP POP JUMP JUMPDEST PUSH1 0x0 PUSH1 0x20 DUP3 ADD SWAP1 POP PUSH2 0x1D9 PUSH1 0x0 DUP4 ADD DUP5 PUSH2 0x1B5 JUMP JUMPDEST SWAP3 SWAP2 POP POP JUMP JUMPDEST PUSH2 0x16CA DUP1 PUSH2 0x1EE PUSH1 0x0 CODECOPY PUSH1 0x0 RETURN INVALID PUSH1 0x80 PUSH1 0x40 MSTORE CALLVALUE DUP1 ISZERO PUSH2 0x10 JUMPI PUSH1 0x0 DUP1 REVERT JUMPDEST POP PUSH1 0x4 CALLDATASIZE LT PUSH2 0x36 JUMPI PUSH1 0x0 CALLDATALOAD PUSH1 0xE0 SHR DUP1 PUSH4 0xA64F680B EQ PUSH2 0x3B JUMPI DUP1 PUSH4 0xC4D66DE8 EQ PUSH2 0x6B JUMPI JUMPDEST PUSH1 0x0 DUP1 REVERT JUMPDEST PUSH2 0x55 PUSH1 0x4 DUP1 CALLDATASIZE SUB DUP2 ADD SWAP1 PUSH2 0x50 SWAP2 SWAP1 PUSH2 0x13EC JUMP JUMPDEST PUSH2 0x87 JUMP JUMPDEST PUSH1 0x40 MLOAD PUSH2 0x62 SWAP2 SWAP1 PUSH2 0x148F JUMP JUMPDEST PUSH1 0x40 MLOAD DUP1 SWAP2 SUB SWAP1 RETURN JUMPDEST PUSH2 0x85 PUSH1 0x4 DUP1 CALLDATASIZE SUB DUP2 ADD SWAP1 PUSH2 0x80 SWAP2 SWAP1 PUSH2 0x1508 JUMP JUMPDEST PUSH2 0x78E JUMP JUMPDEST STOP JUMPDEST PUSH1 0x0 PUSH2 0x9D PUSH8 0x53F0E0F446C37847 PUSH1 0xC0 SHL PUSH2 0x9A4 JUMP JUMPDEST PUSH2 0xB1 PUSH8 0x657477DC6DCB5D73 PUSH1 0xC0 SHL PUSH2 0x9A4 JUMP JUMPDEST PUSH2 0xC5 PUSH8 0x5444064860A99A20 PUSH1 0xC0 SHL PUSH2 0x9A4 JUMP JUMPDEST PUSH1 0x40 DUP6 DUP6 SWAP1 POP LT ISZERO PUSH2 0x102 JUMPI PUSH2 0xE5 PUSH8 0xBE676C3300B17535 PUSH1 0xC0 SHL PUSH2 0x9A4 JUMP JUMPDEST PUSH2 0xF9 PUSH8 0x6FFB471C89D6A772 PUSH1 0xC0 SHL PUSH2 0x9A4 JUMP JUMPDEST PUSH1 0x0 SWAP1 POP PUSH2 0x785 JUMP JUMPDEST PUSH2 0x116 PUSH8 0x34774A811378E36 PUSH1 0xC0 SHL PUSH2 0x9A4 JUMP JUMPDEST PUSH2 0x12A PUSH8 0x18F28A382A3D998 PUSH1 0xC0 SHL PUSH2 0x9A4 JUMP JUMPDEST PUSH2 0x13E PUSH8 0xDD4CEA0EBD228CE7 PUSH1 0xC0 SHL PUSH2 0x9A4 JUMP JUMPDEST PUSH1 0x0 DUP6 DUP6 PUSH1 0x0 SWAP1 PUSH1 0x20 SWAP3 PUSH2 0x154 SWAP4 SWAP3 SWAP2 SWAP1 PUSH2 0x153F JUMP JUMPDEST SWAP1 PUSH2 0x15F SWAP2 SWAP1 PUSH2 0x1592 JUMP JUMPDEST PUSH1 0x0 SHR SWAP1 POP PUSH2 0x178 PUSH8 0xC0D49853E419DD63 PUSH1 0xC0 SHL PUSH2 0x9A4 JUMP JUMPDEST PUSH2 0x18C PUSH8 0xE6EAA832A2D249A7 PUSH1 0xC0 SHL PUSH2 0x9A4 JUMP JUMPDEST PUSH1 0x0 DUP7 DUP7 PUSH1 0x20 SWAP1 PUSH1 0x40 SWAP3 PUSH2 0x1A2 SWAP4 SWAP3 SWAP2 SWAP1 PUSH2 0x153F JUMP JUMPDEST SWAP1 PUSH2 0x1AD SWAP2 SWAP1 PUSH2 0x1592 JUMP JUMPDEST PUSH1 0x0 SHR SWAP1 POP PUSH2 0x1C6 PUSH8 0x497D022DD431DE64 PUSH1 0xC0 SHL PUSH2 0x9A4 JUMP JUMPDEST PUSH2 0x1DA PUSH8 0xF5945A89B2EA9179 PUSH1 0xC0 SHL PUSH2 0x9A4 JUMP JUMPDEST PUSH1 0x0 DUP9 PUSH1 0x0 SHR SWAP1 POP PUSH2 0x1F6 PUSH8 0x8F47C7E4D6B6B862 PUSH1 0xC0 SHL PUSH2 0x9A4 JUMP JUMPDEST PUSH2 0x20A PUSH8 0x46DE1063D03F7210 PUSH1 0xC0 SHL PUSH2 0x9A4 JUMP JUMPDEST PUSH1 0x0 DUP7 PUSH1 0x0 SHR SWAP1 POP PUSH2 0x226 PUSH8 0x60DAB7E4AA377726 PUSH1 0xC0 SHL PUSH2 0x9A4 JUMP JUMPDEST PUSH2 0x23A PUSH8 0x9DA6556141694661 PUSH1 0xC0 SHL PUSH2 0x9A4 JUMP JUMPDEST PUSH1 0x0 DUP7 PUSH1 0x0 SHR SWAP1 POP PUSH2 0x256 PUSH8 0x94E1E098E96C17C6 PUSH1 0xC0 SHL PUSH2 0x9A4 JUMP JUMPDEST PUSH2 0x26A PUSH8 0xC9671DC11C98E19D PUSH1 0xC0 SHL PUSH2 0x9A4 JUMP JUMPDEST PUSH1 0x0 DUP6 EQ DUP1 ISZERO PUSH2 0x28A JUMPI POP PUSH2 0x289 PUSH8 0x765830029D973600 PUSH1 0xC0 SHL PUSH2 0x9A7 JUMP JUMPDEST JUMPDEST DUP1 PUSH2 0x2ED JUMPI POP PUSH32 0xFFFFFFFF00000000FFFFFFFFFFFFFFFFBCE6FAADA7179E84F3B9CAC2FC632551 DUP6 LT ISZERO DUP1 ISZERO PUSH2 0x2D0 JUMPI POP PUSH2 0x2CF PUSH8 0xA50B8711C180A3A PUSH1 0xC0 SHL PUSH2 0x9A7 JUMP JUMPDEST JUMPDEST DUP1 ISZERO PUSH2 0x2EC JUMPI POP PUSH2 0x2EB PUSH8 0x7A9828C74DFFEE9E PUSH1 0xC0 SHL PUSH2 0x9A7 JUMP JUMPDEST JUMPDEST JUMPDEST DUP1 PUSH2 0x330 JUMPI POP PUSH1 0x0 DUP5 EQ DUP1 ISZERO PUSH2 0x313 JUMPI POP PUSH2 0x312 PUSH8 0xD2FA8C67BE6586A0 PUSH1 0xC0 SHL PUSH2 0x9A7 JUMP JUMPDEST JUMPDEST DUP1 ISZERO PUSH2 0x32F JUMPI POP PUSH2 0x32E PUSH8 0xD693C1B3B9581425 PUSH1 0xC0 SHL PUSH2 0x9A7 JUMP JUMPDEST JUMPDEST JUMPDEST DUP1 PUSH2 0x377 JUMPI POP PUSH32 0xFFFFFFFF00000000FFFFFFFFFFFFFFFFBCE6FAADA7179E84F3B9CAC2FC632551 DUP5 LT ISZERO DUP1 ISZERO PUSH2 0x376 JUMPI POP PUSH2 0x375 PUSH8 0x4E26F5244DA12E5A PUSH1 0xC0 SHL PUSH2 0x9A7 JUMP JUMPDEST JUMPDEST JUMPDEST ISZERO PUSH2 0x3C6 JUMPI PUSH2 0x390 PUSH8 0x960CCA709696F547 PUSH1 0xC0 SHL PUSH2 0x9A4 JUMP JUMPDEST PUSH2 0x3A4 PUSH8 0x11C2DFACD4B95FBF PUSH1 0xC0 SHL PUSH2 0x9A4 JUMP JUMPDEST PUSH2 0x3B8 PUSH8 0xE2DE076091482294 PUSH1 0xC0 SHL PUSH2 0x9A4 JUMP JUMPDEST PUSH1 0x0 SWAP6 POP POP POP POP POP POP PUSH2 0x785 JUMP JUMPDEST PUSH2 0x3DA PUSH8 0xAD553F1101A9C29F PUSH1 0xC0 SHL PUSH2 0x9A4 JUMP JUMPDEST PUSH2 0x3EE PUSH8 0xC0EC7584A52A62ED PUSH1 0xC0 SHL PUSH2 0x9A4 JUMP JUMPDEST PUSH2 0x402 PUSH8 0xA731E551E1115F18 PUSH1 0xC0 SHL PUSH2 0x9A4 JUMP JUMPDEST PUSH1 0x0 ISZERO ISZERO PUSH2 0x473 PUSH32 0xFFFFFFFF00000001000000000000000000000000FFFFFFFFFFFFFFFFFFFFFFFF PUSH32 0xFFFFFFFF00000001000000000000000000000000FFFFFFFFFFFFFFFFFFFFFFFC PUSH32 0x5AC635D8AA3A93E7B3EBBD55769886BC651D06B0CC53B0F63BCE3C3E27D2604B DUP7 DUP7 PUSH2 0x9B2 JUMP JUMPDEST ISZERO ISZERO SUB PUSH2 0x4C4 JUMPI PUSH2 0x48E PUSH8 0xA75445769DA8334E PUSH1 0xC0 SHL PUSH2 0x9A4 JUMP JUMPDEST PUSH2 0x4A2 PUSH8 0xD17B12096186C2EA PUSH1 0xC0 SHL PUSH2 0x9A4 JUMP JUMPDEST PUSH2 0x4B6 PUSH8 0xBC073660FAA79EDC PUSH1 0xC0 SHL PUSH2 0x9A4 JUMP JUMPDEST PUSH1 0x0 SWAP6 POP POP POP POP POP POP PUSH2 0x785 JUMP JUMPDEST PUSH2 0x4D8 PUSH8 0x78CE58B7034A5E0 PUSH1 0xC0 SHL PUSH2 0x9A4 JUMP JUMPDEST PUSH2 0x4EC PUSH8 0xACFB32E44243089 PUSH1 0xC0 SHL PUSH2 0x9A4 JUMP JUMPDEST PUSH2 0x500 PUSH8 0x7C8F5FF3014C84CE PUSH1 0xC0 SHL PUSH2 0x9A4 JUMP JUMPDEST PUSH1 0x0 PUSH2 0x50B DUP6 PUSH2 0xA6B JUMP JUMPDEST SWAP1 POP PUSH2 0x521 PUSH8 0x32A93D737A489CE2 PUSH1 0xC0 SHL PUSH2 0x9A4 JUMP JUMPDEST PUSH2 0x535 PUSH8 0xD0D29568A75ACBDC PUSH1 0xC0 SHL PUSH2 0x9A4 JUMP JUMPDEST PUSH1 0x0 PUSH32 0xFFFFFFFF00000000FFFFFFFFFFFFFFFFBCE6FAADA7179E84F3B9CAC2FC632551 DUP1 PUSH2 0x566 JUMPI PUSH2 0x565 PUSH2 0x15F1 JUMP JUMPDEST JUMPDEST DUP3 DUP7 MULMOD SWAP1 POP PUSH2 0x57F PUSH8 0xF304B486E032B98 PUSH1 0xC0 SHL PUSH2 0x9A4 JUMP JUMPDEST PUSH2 0x593 PUSH8 0xD0784D131D3B21B6 PUSH1 0xC0 SHL PUSH2 0x9A4 JUMP JUMPDEST PUSH1 0x0 PUSH32 0xFFFFFFFF00000000FFFFFFFFFFFFFFFFBCE6FAADA7179E84F3B9CAC2FC632551 DUP1 PUSH2 0x5C4 JUMPI PUSH2 0x5C3 PUSH2 0x15F1 JUMP JUMPDEST JUMPDEST DUP4 DUP10 MULMOD SWAP1 POP PUSH2 0x5DD PUSH8 0xFFED9D6760DE09F6 PUSH1 0xC0 SHL PUSH2 0x9A4 JUMP JUMPDEST PUSH2 0x5F1 PUSH8 0x46C02C82A5D88517 PUSH1 0xC0 SHL PUSH2 0x9A4 JUMP JUMPDEST PUSH1 0x0 PUSH1 0x40 MLOAD DUP1 PUSH1 0xC0 ADD PUSH1 0x40 MSTORE DUP1 DUP8 DUP2 MSTORE PUSH1 0x20 ADD DUP7 DUP2 MSTORE PUSH1 0x20 ADD PUSH32 0xFFFFFFFF00000001000000000000000000000000FFFFFFFFFFFFFFFFFFFFFFFF DUP2 MSTORE PUSH1 0x20 ADD PUSH32 0xFFFFFFFF00000001000000000000000000000000FFFFFFFFFFFFFFFFFFFFFFFC DUP2 MSTORE PUSH1 0x20 ADD PUSH32 0x6B17D1F2E12C4247F8BCE6E563A440F277037D812DEB33A0F4A13945D898C296 DUP2 MSTORE PUSH1 0x20 ADD PUSH32 0x4FE342E2FE1A7F9B8EE7EB4A7C0F9E162BCE33576B315ECECBB6406837BF51F5 DUP2 MSTORE POP SWAP1 POP PUSH2 0x6B6 PUSH8 0x11DF694544C701A6 PUSH1 0xC0 SHL PUSH2 0x9A4 JUMP JUMPDEST PUSH2 0x6CA PUSH8 0x6EB90570C548C014 PUSH1 0xC0 SHL PUSH2 0x9A4 JUMP JUMPDEST PUSH1 0x0 PUSH2 0x6E0 PUSH8 0xC1F2BA7AD3D13D2A PUSH1 0xC0 SHL PUSH2 0x9A4 JUMP JUMPDEST PUSH2 0x6EB DUP3 DUP6 DUP6 PUSH2 0xB21 JUMP JUMPDEST POP DUP1 SWAP2 POP POP PUSH2 0x704 PUSH8 0x36E35EBAA89B64A4 PUSH1 0xC0 SHL PUSH2 0x9A4 JUMP JUMPDEST PUSH32 0xFFFFFFFF00000000FFFFFFFFFFFFFFFFBCE6FAADA7179E84F3B9CAC2FC632551 DUP11 PUSH32 0xFFFFFFFF00000000FFFFFFFFFFFFFFFFBCE6FAADA7179E84F3B9CAC2FC632551 SUB DUP3 ADDMOD SWAP1 POP PUSH2 0x760 PUSH8 0xBBA78BC5EDCB9265 PUSH1 0xC0 SHL PUSH2 0x9A4 JUMP JUMPDEST PUSH2 0x774 PUSH8 0x58BEFC6699A55A7A PUSH1 0xC0 SHL PUSH2 0x9A4 JUMP JUMPDEST PUSH1 0x0 DUP2 EQ SWAP11 POP POP POP POP POP POP POP POP POP POP POP JUMPDEST SWAP6 SWAP5 POP POP POP POP POP JUMP JUMPDEST PUSH2 0x7A2 PUSH8 0x59AA084AF1F93896 PUSH1 0xC0 SHL PUSH2 0x9A4 JUMP JUMPDEST PUSH1 0x0 PUSH2 0x7AC PUSH2 0x131F JUMP JUMPDEST SWAP1 POP PUSH1 0x0 DUP2 PUSH1 0x0 ADD PUSH1 0x8 SWAP1 SLOAD SWAP1 PUSH2 0x100 EXP SWAP1 DIV PUSH1 0xFF AND ISZERO SWAP1 POP PUSH1 0x0 DUP3 PUSH1 0x0 ADD PUSH1 0x0 SWAP1 SLOAD SWAP1 PUSH2 0x100 EXP SWAP1 DIV PUSH8 0xFFFFFFFFFFFFFFFF AND SWAP1 POP PUSH1 0x0 DUP1 DUP3 PUSH8 0xFFFFFFFFFFFFFFFF AND EQ DUP1 ISZERO PUSH2 0x7FA JUMPI POP DUP3 JUMPDEST SWAP1 POP PUSH1 0x0 PUSH1 0x1 DUP4 PUSH8 0xFFFFFFFFFFFFFFFF AND EQ DUP1 ISZERO PUSH2 0x82F JUMPI POP PUSH1 0x0 ADDRESS PUSH20 0xFFFFFFFFFFFFFFFFFFFFFFFFFFFFFFFFFFFFFFFF AND EXTCODESIZE EQ JUMPDEST SWAP1 POP DUP2 ISZERO DUP1 ISZERO PUSH2 0x83D JUMPI POP DUP1 ISZERO JUMPDEST ISZERO PUSH2 0x874 JUMPI PUSH1 0x40 MLOAD PUSH32 0xF92EE8A900000000000000000000000000000000000000000000000000000000 DUP2 MSTORE PUSH1 0x4 ADD PUSH1 0x40 MLOAD DUP1 SWAP2 SUB SWAP1 REVERT JUMPDEST PUSH1 0x1 DUP6 PUSH1 0x0 ADD PUSH1 0x0 PUSH2 0x100 EXP DUP2 SLOAD DUP2 PUSH8 0xFFFFFFFFFFFFFFFF MUL NOT AND SWAP1 DUP4 PUSH8 0xFFFFFFFFFFFFFFFF AND MUL OR SWAP1 SSTORE POP DUP4 ISZERO PUSH2 0x8C4 JUMPI PUSH1 0x1 DUP6 PUSH1 0x0 ADD PUSH1 0x8 PUSH2 0x100 EXP DUP2 SLOAD DUP2 PUSH1 0xFF MUL NOT AND SWAP1 DUP4 ISZERO ISZERO MUL OR SWAP1 SSTORE POP JUMPDEST PUSH2 0x8D8 PUSH8 0x12D112AD19CF97B3 PUSH1 0xC0 SHL PUSH2 0x9A4 JUMP JUMPDEST PUSH2 0x8EC PUSH8 0x44393147B01C3499 PUSH1 0xC0 SHL PUSH2 0x9A4 JUMP JUMPDEST PUSH2 0x900 PUSH8 0xA1D10AD4B590BE19 PUSH1 0xC0 SHL PUSH2 0x9A4 JUMP JUMPDEST DUP6 PUSH1 0x0 DUP1 PUSH2 0x100 EXP DUP2 SLOAD DUP2 PUSH20 0xFFFFFFFFFFFFFFFFFFFFFFFFFFFFFFFFFFFFFFFF MUL NOT AND SWAP1 DUP4 PUSH20 0xFFFFFFFFFFFFFFFFFFFFFFFFFFFFFFFFFFFFFFFF AND MUL OR SWAP1 SSTORE POP DUP4 ISZERO PUSH2 0x99C JUMPI PUSH1 0x0 DUP6 PUSH1 0x0 ADD PUSH1 0x8 PUSH2 0x100 EXP DUP2 SLOAD DUP2 PUSH1 0xFF MUL NOT AND SWAP1 DUP4 ISZERO ISZERO MUL OR SWAP1 SSTORE POP PUSH32 0xC7F505B2F371AE2175EE4913F4499E1F2633A7B5936321EED1CDAEB6115181D2 PUSH1 0x1 PUSH1 0x40 MLOAD PUSH2 0x993 SWAP2 SWAP1 PUSH2 0x1679 JUMP JUMPDEST PUSH1 0x40 MLOAD DUP1 SWAP2 SUB SWAP1 LOG1 JUMPDEST POP POP POP POP POP POP JUMP JUMPDEST POP JUMP JUMPDEST PUSH1 0x0 PUSH1 0x1 SWAP1 POP SWAP2 SWAP1 POP JUMP JUMPDEST PUSH1 0x0 DUP1 DUP4 EQ DUP1 ISZERO PUSH2 0x9C3 JUMPI POP PUSH1 0x0 DUP3 EQ JUMPDEST DUP1 PUSH2 0x9CE JUMPI POP DUP6 DUP4 LT ISZERO JUMPDEST DUP1 PUSH2 0x9D9 JUMPI POP DUP6 DUP3 LT ISZERO JUMPDEST ISZERO PUSH2 0x9E7 JUMPI PUSH1 0x0 SWAP1 POP PUSH2 0xA62 JUMP JUMPDEST PUSH1 0x0 DUP7 DUP1 PUSH2 0x9F8 JUMPI PUSH2 0x9F7 PUSH2 0x15F1 JUMP JUMPDEST JUMPDEST DUP4 DUP5 MULMOD SWAP1 POP PUSH1 0x0 DUP8 DUP1 PUSH2 0xA0E JUMPI PUSH2 0xA0D PUSH2 0x15F1 JUMP JUMPDEST JUMPDEST DUP9 DUP1 PUSH2 0xA1D JUMPI PUSH2 0xA1C PUSH2 0x15F1 JUMP JUMPDEST JUMPDEST DUP9 DUP8 MULMOD DUP10 DUP1 PUSH2 0xA2F JUMPI PUSH2 0xA2E PUSH2 0x15F1 JUMP JUMPDEST JUMPDEST DUP8 DUP12 DUP1 PUSH2 0xA3F JUMPI PUSH2 0xA3E PUSH2 0x15F1 JUMP JUMPDEST JUMPDEST DUP10 DUP11 MULMOD MULMOD ADDMOD SWAP1 POP DUP8 DUP1 PUSH2 0xA55 JUMPI PUSH2 0xA54 PUSH2 0x15F1 JUMP JUMPDEST JUMPDEST DUP7 DUP3 ADDMOD SWAP1 POP DUP1 DUP3 EQ SWAP3 POP POP POP JUMPDEST SWAP6 SWAP5 POP POP POP POP POP JUMP JUMPDEST PUSH1 0x0 PUSH2 0xA81 PUSH8 0x56C137F3D23BF40A PUSH1 0xC0 SHL PUSH2 0x9A4 JUMP JUMPDEST PUSH2 0xA95 PUSH8 0x42EF9A3C9129575F PUSH1 0xC0 SHL PUSH2 0x9A4 JUMP JUMPDEST PUSH1 0x40 MLOAD PUSH1 0x20 DUP2 MSTORE PUSH1 0x20 DUP1 DUP3 ADD MSTORE PUSH1 0x20 PUSH1 0x40 DUP3 ADD MSTORE DUP3 PUSH1 0x60 DUP3 ADD MSTORE PUSH32 0xFFFFFFFF00000000FFFFFFFFFFFFFFFFBCE6FAADA7179E84F3B9CAC2FC63254F PUSH1 0x80 DUP3 ADD MSTORE PUSH32 0xFFFFFFFF00000000FFFFFFFFFFFFFFFFBCE6FAADA7179E84F3B9CAC2FC632551 PUSH1 0xA0 DUP3 ADD MSTORE PUSH1 0x20 DUP2 PUSH1 0xC0 DUP4 PUSH1 0x5 PUSH1 0x0 NOT STATICCALL PUSH2 0xB17 JUMPI PUSH2 0x7FE PUSH1 0x40 MSTORE PUSH1 0x20 PUSH1 0x40 REVERT JUMPDEST DUP1 MLOAD SWAP2 POP POP SWAP2 SWAP1 POP JUMP JUMPDEST PUSH1 0x0 DUP1 PUSH1 0x0 PUSH32 0x8000000000000000000000000000000000000000000000000000000000000000 SWAP1 POP PUSH1 0x0 DUP6 EQ DUP1 ISZERO PUSH2 0xB59 JUMPI POP PUSH1 0x0 DUP5 EQ JUMPDEST ISZERO PUSH2 0xB6B JUMPI PUSH1 0x0 DUP1 SWAP3 POP SWAP3 POP POP PUSH2 0x1317 JUMP JUMPDEST PUSH1 0x0 DUP1 PUSH2 0x800 PUSH1 0x40 MLOAD ADD PUSH1 0x40 MSTORE PUSH1 0x40 DUP9 ADD MLOAD PUSH2 0x820 PUSH1 0x40 MLOAD ADD MSTORE PUSH2 0x820 PUSH1 0x40 MLOAD ADD MLOAD PUSH2 0xCA9 JUMP JUMPDEST DUP3 DUP2 DUP4 ADD MSTORE DUP2 PUSH1 0x20 ADD SWAP2 POP DUP4 DUP2 DUP4 ADD MSTORE DUP2 PUSH1 0x20 ADD SWAP2 POP DUP5 DUP2 DUP4 ADD MSTORE DUP2 PUSH1 0x20 ADD SWAP2 POP DUP6 DUP2 DUP4 ADD MSTORE DUP2 PUSH1 0x20 ADD SWAP2 POP POP POP POP POP POP POP JUMP JUMPDEST PUSH1 0x0 DUP1 PUSH1 0x0 DUP1 DUP9 DUP7 PUSH1 0x2 MULMOD DUP10 DUP2 DUP3 MULMOD DUP11 DUP2 DUP9 MULMOD DUP12 DUP3 DUP5 MULMOD SWAP3 POP DUP12 DUP13 DUP14 DUP13 DUP14 MULMOD DUP16 MULMOD DUP14 DUP15 DUP12 DUP13 MULMOD PUSH1 0x3 MULMOD ADDMOD SWAP6 POP DUP12 DUP12 DUP5 MULMOD SWAP4 POP DUP12 DUP11 DUP4 MULMOD SWAP5 POP DUP12 DUP13 DUP3 PUSH1 0x2 DUP16 SUB MULMOD DUP14 DUP9 DUP10 MULMOD ADDMOD SWAP7 POP DUP12 DUP13 DUP3 DUP15 SUB DUP10 ADDMOD DUP8 MULMOD SWAP2 POP DUP12 DUP3 DUP14 DUP12 DUP7 MULMOD ADDMOD SWAP6 POP DUP6 DUP13 SUB SWAP6 POP POP POP POP SWAP7 POP SWAP7 POP SWAP7 POP SWAP7 SWAP3 POP POP POP JUMP JUMPDEST PUSH1 0x0 DUP1 PUSH1 0x0 DUP1 DUP6 DUP12 SUB SWAP6 POP DUP11 DUP7 DUP13 DUP11 DUP14 MULMOD ADDMOD SWAP10 POP DUP11 DUP6 DUP13 SUB DUP13 DUP10 DUP13 MULMOD ADDMOD SWAP9 POP DUP11 DUP10 DUP11 MULMOD SWAP4 POP DUP11 DUP10 DUP6 MULMOD SWAP3 POP DUP11 DUP5 DUP9 MULMOD SWAP2 POP DUP11 DUP4 DUP10 MULMOD SWAP1 POP DUP11 DUP5 DUP7 MULMOD SWAP7 POP DUP11 DUP12 DUP9 PUSH1 0x2 DUP15 SUB MULMOD DUP13 DUP6 DUP15 SUB DUP15 DUP15 DUP16 MULMOD ADDMOD ADDMOD SWAP4 POP DUP11 DUP11 DUP13 DUP7 DUP15 SUB DUP11 ADDMOD MULMOD SWAP5 POP DUP11 DUP12 DUP5 DUP9 MULMOD DUP7 ADDMOD SWAP3 POP SWAP8 POP SWAP8 POP SWAP8 POP SWAP8 SWAP4 POP POP POP POP JUMP JUMPDEST PUSH2 0xCC3 PUSH1 0x1 DUP1 PUSH1 0xA0 DUP13 ADD MLOAD PUSH1 0x80 DUP14 ADD MLOAD PUSH1 0x80 PUSH1 0x40 MLOAD PUSH2 0xB92 JUMP JUMPDEST PUSH2 0xCDE PUSH1 0x60 DUP11 ADD MLOAD DUP3 PUSH1 0x1 DUP1 PUSH1 0xA0 DUP15 ADD MLOAD PUSH1 0x80 DUP16 ADD MLOAD PUSH2 0xBC6 JUMP JUMPDEST SWAP6 POP SWAP4 POP SWAP6 POP SWAP6 POP PUSH2 0xCF8 DUP4 DUP4 DUP8 DUP10 PUSH2 0x100 PUSH1 0x40 MLOAD PUSH2 0xB92 JUMP JUMPDEST PUSH2 0xD0F DUP2 PUSH1 0xA0 DUP12 ADD MLOAD PUSH1 0x80 DUP13 ADD MLOAD DUP7 DUP7 DUP11 DUP13 PUSH2 0xC36 JUMP JUMPDEST SWAP6 POP SWAP4 POP SWAP6 POP SWAP6 POP PUSH2 0xD29 DUP4 DUP4 DUP8 DUP10 PUSH2 0x180 PUSH1 0x40 MLOAD PUSH2 0xB92 JUMP JUMPDEST PUSH2 0xD44 PUSH1 0x1 DUP1 PUSH1 0x20 DUP13 ADD MLOAD PUSH1 0x0 DUP14 ADD MLOAD PUSH2 0x200 PUSH1 0x40 MLOAD PUSH2 0xB92 JUMP JUMPDEST PUSH1 0x80 DUP10 ADD MLOAD SWAP6 POP PUSH1 0xA0 DUP10 ADD MLOAD SWAP5 POP PUSH2 0xD6A DUP2 PUSH1 0x20 DUP12 ADD MLOAD PUSH1 0x0 DUP13 ADD MLOAD PUSH1 0x1 DUP1 DUP11 DUP13 PUSH2 0xC36 JUMP JUMPDEST SWAP6 POP SWAP4 POP SWAP6 POP SWAP6 POP PUSH2 0xD84 DUP4 DUP4 DUP8 DUP10 PUSH2 0x280 PUSH1 0x40 MLOAD PUSH2 0xB92 JUMP JUMPDEST PUSH2 0xD9B DUP2 PUSH1 0xA0 DUP12 ADD MLOAD PUSH1 0x80 DUP13 ADD MLOAD DUP7 DUP7 DUP11 DUP13 PUSH2 0xC36 JUMP JUMPDEST SWAP6 POP SWAP4 POP SWAP6 POP SWAP6 POP PUSH2 0xDB5 DUP4 DUP4 DUP8 DUP10 PUSH2 0x300 PUSH1 0x40 MLOAD PUSH2 0xB92 JUMP JUMPDEST PUSH2 0xDCC DUP2 PUSH1 0xA0 DUP12 ADD MLOAD PUSH1 0x80 DUP13 ADD MLOAD DUP7 DUP7 DUP11 DUP13 PUSH2 0xC36 JUMP JUMPDEST SWAP6 POP SWAP4 POP SWAP6 POP SWAP6 POP PUSH2 0xDE6 DUP4 DUP4 DUP8 DUP10 PUSH2 0x380 PUSH1 0x40 MLOAD PUSH2 0xB92 JUMP JUMPDEST PUSH1 0x0 DUP10 ADD MLOAD SWAP6 POP PUSH1 0x20 DUP10 ADD MLOAD SWAP5 POP PUSH2 0xE07 PUSH1 0x60 DUP11 ADD MLOAD DUP3 PUSH1 0x1 DUP1 DUP10 DUP12 PUSH2 0xBC6 JUMP JUMPDEST SWAP6 POP SWAP4 POP SWAP6 POP SWAP6 POP PUSH2 0xE21 DUP4 DUP4 DUP8 DUP10 PUSH2 0x400 PUSH1 0x40 MLOAD PUSH2 0xB92 JUMP JUMPDEST PUSH2 0xE38 DUP2 PUSH1 0xA0 DUP12 ADD MLOAD PUSH1 0x80 DUP13 ADD MLOAD DUP7 DUP7 DUP11 DUP13 PUSH2 0xC36 JUMP JUMPDEST SWAP6 POP SWAP4 POP SWAP6 POP SWAP6 POP PUSH2 0xE52 DUP4 DUP4 DUP8 DUP10 PUSH2 0x480 PUSH1 0x40 MLOAD PUSH2 0xB92 JUMP JUMPDEST PUSH2 0xE69 DUP2 PUSH1 0xA0 DUP12 ADD MLOAD PUSH1 0x80 DUP13 ADD MLOAD DUP7 DUP7 DUP11 DUP13 PUSH2 0xC36 JUMP JUMPDEST SWAP6 POP SWAP4 POP SWAP6 POP SWAP6 POP PUSH2 0xE83 DUP4 DUP4 DUP8 DUP10 PUSH2 0x500 PUSH1 0x40 MLOAD PUSH2 0xB92 JUMP JUMPDEST PUSH2 0xE9A DUP2 PUSH1 0xA0 DUP12 ADD MLOAD PUSH1 0x80 DUP13 ADD MLOAD DUP7 DUP7 DUP11 DUP13 PUSH2 0xC36 JUMP JUMPDEST SWAP6 POP SWAP4 POP SWAP6 POP SWAP6 POP PUSH2 0xEB4 DUP4 DUP4 DUP8 DUP10 PUSH2 0x580 PUSH1 0x40 MLOAD PUSH2 0xB92 JUMP JUMPDEST PUSH2 0x400 PUSH1 0x40 MLOAD ADD MLOAD SWAP6 POP PUSH2 0x420 PUSH1 0x40 MLOAD ADD MLOAD SWAP5 POP PUSH2 0x440 PUSH1 0x40 MLOAD ADD MLOAD SWAP2 POP PUSH2 0x460 PUSH1 0x40 MLOAD ADD MLOAD SWAP3 POP PUSH2 0xEF3 DUP2 PUSH1 0x20 DUP12 ADD MLOAD PUSH1 0x0 DUP13 ADD MLOAD DUP7 DUP7 DUP11 DUP13 PUSH2 0xC36 JUMP JUMPDEST SWAP6 POP SWAP4 POP SWAP6 POP SWAP6 POP PUSH2 0xF0D DUP4 DUP4 DUP8 DUP10 PUSH2 0x600 PUSH1 0x40 MLOAD PUSH2 0xB92 JUMP JUMPDEST PUSH2 0xF24 DUP2 PUSH1 0xA0 DUP12 ADD MLOAD PUSH1 0x80 DUP13 ADD MLOAD DUP7 DUP7 DUP11 DUP13 PUSH2 0xC36 JUMP JUMPDEST SWAP6 POP SWAP4 POP SWAP6 POP SWAP6 POP PUSH2 0xF3E DUP4 DUP4 DUP8 DUP10 PUSH2 0x680 PUSH1 0x40 MLOAD PUSH2 0xB92 JUMP JUMPDEST PUSH2 0xF55 DUP2 PUSH1 0xA0 DUP12 ADD MLOAD PUSH1 0x80 DUP13 ADD MLOAD DUP7 DUP7 DUP11 DUP13 PUSH2 0xC36 JUMP JUMPDEST SWAP6 POP SWAP4 POP SWAP6 POP SWAP6 POP PUSH2 0xF6F DUP4 DUP4 DUP8 DUP10 PUSH2 0x700 PUSH1 0x40 MLOAD PUSH2 0xB92 JUMP JUMPDEST PUSH2 0xF86 DUP2 PUSH1 0xA0 DUP12 ADD MLOAD PUSH1 0x80 DUP13 ADD MLOAD DUP7 DUP7 DUP11 DUP13 PUSH2 0xC36 JUMP JUMPDEST SWAP6 POP SWAP4 POP SWAP6 POP SWAP6 POP PUSH2 0xFA0 DUP4 DUP4 DUP8 DUP10 PUSH2 0x780 PUSH1 0x40 MLOAD PUSH2 0xB92 JUMP JUMPDEST POP PUSH1 0x0 SWAP2 POP JUMPDEST DUP2 PUSH2 0xFE6 JUMPI DUP3 DUP7 AND ISZERO PUSH1 0x1 SUB PUSH1 0x3 SHL DUP4 PUSH1 0x1 SHR DUP8 AND ISZERO PUSH1 0x1 SUB PUSH1 0x2 SHL ADD DUP4 DUP9 AND ISZERO PUSH1 0x1 SUB PUSH1 0x1 SHL DUP5 PUSH1 0x1 SHR DUP10 AND ISZERO PUSH1 0x1 SUB ADD ADD SWAP2 POP DUP3 PUSH1 0x2 SHR SWAP3 POP PUSH2 0xFA6 JUMP JUMPDEST DUP2 PUSH1 0x7 SHL PUSH1 0x40 MLOAD ADD MLOAD SWAP5 POP DUP2 PUSH1 0x7 SHL PUSH1 0x20 ADD PUSH1 0x40 MLOAD ADD MLOAD SWAP4 POP DUP2 PUSH1 0x7 SHL PUSH1 0x40 ADD PUSH1 0x40 MLOAD ADD MLOAD SWAP1 POP DUP2 PUSH1 0x7 SHL PUSH1 0x60 ADD PUSH1 0x40 MLOAD ADD MLOAD SWAP2 POP PUSH1 0x40 MLOAD PUSH2 0x820 DUP2 ADD MLOAD JUMPDEST PUSH1 0x0 DUP6 GT ISZERO PUSH2 0x12AB JUMPI DUP1 DUP7 PUSH1 0x2 MULMOD DUP2 DUP2 DUP3 MULMOD DUP3 DUP2 DUP11 MULMOD DUP4 DUP3 DUP5 MULMOD SWAP3 POP DUP4 DUP5 DUP8 DUP9 MULMOD PUSH1 0x60 DUP16 ADD MLOAD MULMOD DUP5 DUP2 DUP7 DUP8 DUP15 DUP16 MULMOD PUSH1 0x3 MULMOD ADDMOD SWAP1 POP DUP5 DUP9 DUP6 MULMOD SWAP8 POP DUP5 DUP8 DUP5 MULMOD SWAP7 POP PUSH1 0x2 DUP6 SUB SWAP11 POP DUP5 DUP6 DUP4 DUP14 MULMOD DUP7 DUP4 DUP5 MULMOD ADDMOD SWAP11 POP DUP5 DUP6 DUP4 DUP8 SUB DUP14 ADDMOD DUP3 MULMOD SWAP3 POP DUP5 DUP4 DUP7 DUP13 DUP8 MULMOD ADDMOD SWAP10 POP DUP10 DUP6 SUB SWAP10 POP POP POP POP POP DUP1 DUP7 PUSH1 0x2 MULMOD DUP2 DUP2 DUP3 MULMOD DUP3 DUP2 DUP11 MULMOD DUP4 DUP3 DUP5 MULMOD SWAP3 POP DUP4 DUP5 DUP8 DUP9 MULMOD PUSH1 0x60 DUP16 ADD MLOAD MULMOD DUP5 DUP2 DUP7 DUP8 DUP15 DUP16 MULMOD PUSH1 0x3 MULMOD ADDMOD SWAP1 POP DUP5 DUP9 DUP6 MULMOD SWAP8 POP DUP5 DUP8 DUP5 MULMOD SWAP7 POP PUSH1 0x2 DUP6 SUB SWAP11 POP DUP5 DUP6 DUP4 DUP14 MULMOD DUP7 DUP4 DUP5 MULMOD ADDMOD SWAP11 POP DUP5 DUP6 DUP4 DUP8 SUB DUP14 ADDMOD DUP3 MULMOD SWAP3 POP DUP5 DUP4 DUP7 DUP13 DUP8 MULMOD ADDMOD SWAP10 POP POP POP POP POP DUP5 DUP9 AND ISZERO PUSH1 0x1 SUB PUSH1 0x3 SHL DUP6 PUSH1 0x1 SHR DUP10 AND ISZERO PUSH1 0x1 SUB PUSH1 0x2 SHL ADD DUP6 DUP11 AND ISZERO PUSH1 0x1 SUB PUSH1 0x1 SHL DUP7 PUSH1 0x1 SHR DUP12 AND ISZERO PUSH1 0x1 SUB ADD ADD DUP1 PUSH2 0x1133 JUMPI DUP7 DUP3 SUB SWAP7 POP POP PUSH2 0x12A0 JUMP JUMPDEST DUP1 PUSH1 0x7 SHL SWAP1 POP DUP1 DUP4 ADD MLOAD DUP2 PUSH1 0x60 ADD DUP5 ADD MLOAD PUSH2 0x860 DUP6 ADD MSTORE DUP5 PUSH2 0x1174 JUMPI DUP1 SWAP9 POP DUP2 PUSH1 0x20 ADD DUP5 ADD MLOAD SWAP8 POP DUP2 PUSH1 0x40 ADD DUP5 ADD MLOAD SWAP5 POP DUP2 PUSH1 0x60 ADD DUP5 ADD MLOAD SWAP6 POP POP POP PUSH2 0x12A0 JUMP JUMPDEST DUP3 DUP4 PUSH2 0x860 DUP7 ADD MLOAD DUP11 MULMOD DUP5 DUP9 DUP6 PUSH1 0x20 ADD DUP9 ADD MLOAD MULMOD ADDMOD PUSH2 0x840 DUP6 ADD MSTORE DUP2 PUSH1 0x40 ADD DUP5 ADD MLOAD SWAP2 POP DUP3 DUP4 DUP4 DUP12 MULMOD DUP5 SUB DUP5 DUP8 DUP5 MULMOD ADDMOD PUSH2 0x840 DUP6 ADD MLOAD PUSH2 0x122E JUMPI DUP1 PUSH2 0x122D JUMPI DUP4 DUP10 PUSH1 0x2 DUP7 SUB MULMOD SWAP3 POP DUP4 DUP4 DUP5 MULMOD SWAP1 POP DUP4 DUP2 DUP12 MULMOD PUSH2 0x840 DUP7 ADD MSTORE DUP4 DUP2 DUP5 MULMOD SWAP3 POP DUP4 DUP5 DUP8 DUP9 MULMOD PUSH1 0x60 DUP16 ADD MLOAD MULMOD SWAP2 POP DUP4 DUP3 DUP6 DUP7 DUP14 DUP15 MULMOD PUSH1 0x3 MULMOD ADDMOD SWAP2 POP DUP4 DUP8 DUP5 MULMOD SWAP7 POP DUP4 DUP7 DUP3 MULMOD SWAP6 POP DUP4 DUP5 PUSH2 0x840 DUP8 ADD MLOAD PUSH1 0x2 DUP8 SUB MULMOD DUP6 DUP5 DUP6 MULMOD ADDMOD SWAP10 POP DUP4 DUP5 DUP12 DUP7 SUB PUSH2 0x840 DUP9 ADD MLOAD ADDMOD DUP4 MULMOD SWAP1 POP DUP4 DUP5 DUP11 DUP6 MULMOD DUP3 ADDMOD SWAP9 POP POP POP POP PUSH2 0x12A0 JUMP JUMPDEST JUMPDEST DUP4 DUP2 DUP3 MULMOD SWAP2 POP DUP4 DUP2 DUP4 MULMOD SWAP1 POP DUP4 DUP4 DUP6 DUP5 DUP10 MULMOD MULMOD SWAP6 POP DUP4 DUP4 DUP12 MULMOD SWAP3 POP DUP4 PUSH2 0x860 DUP7 ADD MLOAD DUP6 DUP4 DUP11 MULMOD MULMOD SWAP7 POP DUP4 DUP5 DUP6 DUP5 PUSH1 0x2 DUP9 SUB MULMOD DUP6 MULMOD DUP6 DUP4 DUP8 SUB DUP8 PUSH2 0x840 DUP11 ADD MLOAD PUSH2 0x840 DUP12 ADD MLOAD MULMOD ADDMOD ADDMOD SWAP10 POP DUP4 DUP3 DUP5 MULMOD SWAP2 POP DUP4 DUP5 DUP3 DUP7 PUSH2 0x860 DUP10 ADD MLOAD DUP14 MULMOD MULMOD DUP6 PUSH2 0x840 DUP9 ADD MLOAD DUP8 DUP15 DUP10 SUB DUP8 ADDMOD MULMOD ADDMOD SWAP9 POP POP POP POP JUMPDEST DUP5 PUSH1 0x2 SHR SWAP5 POP PUSH2 0x1025 JUMP JUMPDEST PUSH2 0x880 PUSH1 0x40 MSTORE PUSH1 0x40 MLOAD DUP5 PUSH1 0x60 DUP3 ADD MSTORE PUSH1 0x20 DUP2 MSTORE PUSH1 0x20 DUP1 DUP3 ADD MSTORE PUSH1 0x20 PUSH1 0x40 DUP3 ADD MSTORE PUSH1 0x2 DUP3 SUB PUSH1 0x80 DUP3 ADD MSTORE DUP2 PUSH1 0xA0 DUP3 ADD MSTORE PUSH1 0x20 DUP2 PUSH1 0xC0 DUP4 PUSH1 0x5 PUSH1 0x0 NOT STATICCALL PUSH2 0x12F6 JUMPI PUSH2 0x7FF PUSH1 0x40 MSTORE PUSH1 0x20 PUSH1 0x40 REVERT JUMPDEST DUP2 DUP2 MLOAD DUP9 MULMOD SWAP7 POP DUP2 DUP2 MLOAD DUP6 MULMOD SWAP4 POP DUP2 DUP5 DUP6 MULMOD SWAP4 POP DUP2 DUP5 DUP10 MULMOD SWAP8 POP POP POP POP POP POP POP JUMPDEST SWAP4 POP SWAP4 SWAP2 POP POP JUMP JUMPDEST PUSH1 0x0 PUSH32 0xF0C57E16840DF040F15088DC2F81FE391C3923BEC73E23A9662EFC9C229C6A00 SWAP1 POP SWAP1 JUMP JUMPDEST PUSH1 0x0 DUP1 REVERT JUMPDEST PUSH1 0x0 DUP1 REVERT JUMPDEST PUSH1 0x0 DUP2 SWAP1 POP SWAP2 SWAP1 POP JUMP JUMPDEST PUSH2 0x1364 DUP2 PUSH2 0x1351 JUMP JUMPDEST DUP2 EQ PUSH2 0x136F JUMPI PUSH1 0x0 DUP1 REVERT JUMPDEST POP JUMP JUMPDEST PUSH1 0x0 DUP2 CALLDATALOAD SWAP1 POP PUSH2 0x1381 DUP2 PUSH2 0x135B JUMP JUMPDEST SWAP3 SWAP2 POP POP JUMP JUMPDEST PUSH1 0x0 DUP1 REVERT JUMPDEST PUSH1 0x0 DUP1 REVERT JUMPDEST PUSH1 0x0 DUP1 REVERT JUMPDEST PUSH1 0x0 DUP1 DUP4 PUSH1 0x1F DUP5 ADD SLT PUSH2 0x13AC JUMPI PUSH2 0x13AB PUSH2 0x1387 JUMP JUMPDEST JUMPDEST DUP3 CALLDATALOAD SWAP1 POP PUSH8 0xFFFFFFFFFFFFFFFF DUP2 GT ISZERO PUSH2 0x13C9 JUMPI PUSH2 0x13C8 PUSH2 0x138C JUMP JUMPDEST JUMPDEST PUSH1 0x20 DUP4 ADD SWAP2 POP DUP4 PUSH1 0x1 DUP3 MUL DUP4 ADD GT ISZERO PUSH2 0x13E5 JUMPI PUSH2 0x13E4 PUSH2 0x1391 JUMP JUMPDEST JUMPDEST SWAP3 POP SWAP3 SWAP1 POP JUMP JUMPDEST PUSH1 0x0 DUP1 PUSH1 0x0 DUP1 PUSH1 0x0 PUSH1 0x80 DUP7 DUP9 SUB SLT ISZERO PUSH2 0x1408 JUMPI PUSH2 0x1407 PUSH2 0x1347 JUMP JUMPDEST JUMPDEST PUSH1 0x0 PUSH2 0x1416 DUP9 DUP3 DUP10 ADD PUSH2 0x1372 JUMP JUMPDEST SWAP6 POP POP PUSH1 0x20 DUP7 ADD CALLDATALOAD PUSH8 0xFFFFFFFFFFFFFFFF DUP2 GT ISZERO PUSH2 0x1437 JUMPI PUSH2 0x1436 PUSH2 0x134C JUMP JUMPDEST JUMPDEST PUSH2 0x1443 DUP9 DUP3 DUP10 ADD PUSH2 0x1396 JUMP JUMPDEST SWAP5 POP SWAP5 POP POP PUSH1 0x40 PUSH2 0x1456 DUP9 DUP3 DUP10 ADD PUSH2 0x1372 JUMP JUMPDEST SWAP3 POP POP PUSH1 0x60 PUSH2 0x1467 DUP9 DUP3 DUP10 ADD PUSH2 0x1372 JUMP JUMPDEST SWAP2 POP POP SWAP3 SWAP6 POP SWAP3 SWAP6 SWAP1 SWAP4 POP JUMP JUMPDEST PUSH1 0x0 DUP2 ISZERO ISZERO SWAP1 POP SWAP2 SWAP1 POP JUMP JUMPDEST PUSH2 0x1489 DUP2 PUSH2 0x1474 JUMP JUMPDEST DUP3 MSTORE POP POP JUMP JUMPDEST PUSH1 0x0 PUSH1 0x20 DUP3 ADD SWAP1 POP PUSH2 0x14A4 PUSH1 0x0 DUP4 ADD DUP5 PUSH2 0x1480 JUMP JUMPDEST SWAP3 SWAP2 POP POP JUMP JUMPDEST PUSH1 0x0 PUSH20 0xFFFFFFFFFFFFFFFFFFFFFFFFFFFFFFFFFFFFFFFF DUP3 AND SWAP1 POP SWAP2 SWAP1 POP JUMP JUMPDEST PUSH1 0x0 PUSH2 0x14D5 DUP3 PUSH2 0x14AA JUMP JUMPDEST SWAP1 POP SWAP2 SWAP1 POP JUMP JUMPDEST PUSH2 0x14E5 DUP2 PUSH2 0x14CA JUMP JUMPDEST DUP2 EQ PUSH2 0x14F0 JUMPI PUSH1 0x0 DUP1 REVERT JUMPDEST POP JUMP JUMPDEST PUSH1 0x0 DUP2 CALLDATALOAD SWAP1 POP PUSH2 0x1502 DUP2 PUSH2 0x14DC JUMP JUMPDEST SWAP3 SWAP2 POP POP JUMP JUMPDEST PUSH1 0x0 PUSH1 0x20 DUP3 DUP5 SUB SLT ISZERO PUSH2 0x151E JUMPI PUSH2 0x151D PUSH2 0x1347 JUMP JUMPDEST JUMPDEST PUSH1 0x0 PUSH2 0x152C DUP5 DUP3 DUP6 ADD PUSH2 0x14F3 JUMP JUMPDEST SWAP2 POP POP SWAP3 SWAP2 POP POP JUMP JUMPDEST PUSH1 0x0 DUP1 REVERT JUMPDEST PUSH1 0x0 DUP1 REVERT JUMPDEST PUSH1 0x0 DUP1 DUP6 DUP6 GT ISZERO PUSH2 0x1553 JUMPI PUSH2 0x1552 PUSH2 0x1535 JUMP JUMPDEST JUMPDEST DUP4 DUP7 GT ISZERO PUSH2 0x1564 JUMPI PUSH2 0x1563 PUSH2 0x153A JUMP JUMPDEST JUMPDEST PUSH1 0x1 DUP6 MUL DUP4 ADD SWAP2 POP DUP5 DUP7 SUB SWAP1 POP SWAP5 POP SWAP5 SWAP3 POP POP POP JUMP JUMPDEST PUSH1 0x0 DUP3 SWAP1 POP SWAP3 SWAP2 POP POP JUMP JUMPDEST PUSH1 0x0 DUP3 DUP3 SHL SWAP1 POP SWAP3 SWAP2 POP POP JUMP JUMPDEST PUSH1 0x0 PUSH2 0x159E DUP4 DUP4 PUSH2 0x157A JUMP JUMPDEST DUP3 PUSH2 0x15A9 DUP2 CALLDATALOAD PUSH2 0x1351 JUMP JUMPDEST SWAP3 POP PUSH1 0x20 DUP3 LT ISZERO PUSH2 0x15E9 JUMPI PUSH2 0x15E4 PUSH32 0xFFFFFFFFFFFFFFFFFFFFFFFFFFFFFFFFFFFFFFFFFFFFFFFFFFFFFFFFFFFFFFFF DUP4 PUSH1 0x20 SUB PUSH1 0x8 MUL PUSH2 0x1585 JUMP JUMPDEST DUP4 AND SWAP3 POP JUMPDEST POP POP SWAP3 SWAP2 POP POP JUMP JUMPDEST PUSH32 0x4E487B7100000000000000000000000000000000000000000000000000000000 PUSH1 0x0 MSTORE PUSH1 0x12 PUSH1 0x4 MSTORE PUSH1 0x24 PUSH1 0x0 REVERT JUMPDEST PUSH1 0x0 DUP2 SWAP1 POP SWAP2 SWAP1 POP JUMP JUMPDEST PUSH1 0x0 PUSH8 0xFFFFFFFFFFFFFFFF DUP3 AND SWAP1 POP SWAP2 SWAP1 POP JUMP JUMPDEST PUSH1 0x0 DUP2 SWAP1 POP SWAP2 SWAP1 POP JUMP JUMPDEST PUSH1 0x0 PUSH2 0x1663 PUSH2 0x165E PUSH2 0x1659 DUP5 PUSH2 0x1620 JUMP JUMPDEST PUSH2 0x163E JUMP JUMPDEST PUSH2 0x162A JUMP JUMPDEST SWAP1 POP SWAP2 SWAP1 POP JUMP JUMPDEST PUSH2 0x1673 DUP2 PUSH2 0x1648 JUMP JUMPDEST DUP3 MSTORE POP POP JUMP JUMPDEST PUSH1 0x0 PUSH1 0x20 DUP3 ADD SWAP1 POP PUSH2 0x168E PUSH1 0x0 DUP4 ADD DUP5 PUSH2 0x166A JUMP JUMPDEST SWAP3 SWAP2 POP POP JUMP INVALID LOG2 PUSH5 0x6970667358 0x22 SLT KECCAK256 SMOD PUSH18 0x4E76DB1F81689CBFC9CC1A45CE4ADA795FD7 POP 0xC9 PUSH3 0x254B6F CALLDATALOAD 0xE1 0xA8 SWAP3 0xD GT PUSH5 0x736F6C6343 STOP ADDMOD SHR STOP CALLER "},"methodIdentifiers":{"initialize(address)":"c4d66de8","verify(bytes32,bytes,bytes32,bytes32)":"a64f680b"}},"storageLayout":{"storage":[{"astId":3695,"contract":"contracts/CarmelVerifier.sol:CarmelVerifier","label":"_owner","offset":0,"slot":"0","type":"t_address"}],"types":{"t_address":{"encoding":"inplace","label":"address","numberOfBytes":"20"}}}}}}