{"contracts/CarmelUtils.sol":{"CarmelUtils":{"abi":[{"inputs":[{"internalType":"string","name":"_str","type":"string"}],"name":"base64encode","outputs":[{"internalType":"string","name":"","type":"string"}],"stateMutability":"pure","type":"function"},{"inputs":[{"internalType":"bytes32","name":"_bytes32","type":"bytes32"}],"name":"bytes32ToBase64String","outputs":[{"internalType":"string","name":"","type":"string"}],"stateMutability":"pure","type":"function"},{"inputs":[{"internalType":"bytes32","name":"_bytes32","type":"bytes32"}],"name":"cleanString","outputs":[{"internalType":"string","name":"","type":"string"}],"stateMutability":"pure","type":"function"},{"inputs":[{"internalType":"uint8","name":"_uint8","type":"uint8"}],"name":"toByte","outputs":[{"internalType":"bytes1","name":"","type":"bytes1"}],"stateMutability":"pure","type":"function"},{"inputs":[{"internalType":"bytes32","name":"_bytes32","type":"bytes32"}],"name":"validChars","outputs":[{"internalType":"uint8","name":"","type":"uint8"}],"stateMutability":"pure","type":"function"},{"inputs":[{"internalType":"uint256","name":"message","type":"uint256"},{"internalType":"uint256[2]","name":"rs","type":"uint256[2]"},{"internalType":"uint256[2]","name":"Q","type":"uint256[2]"}],"name":"validateSignature","outputs":[{"internalType":"bool","name":"","type":"bool"}],"stateMutability":"pure","type":"function"}],"evm":{"bytecode":{"linkReferences":{},"object":"612b20610052600b82828239805160001a6073146045577f4e487b7100000000000000000000000000000000000000000000000000000000600052600060045260246000fd5b30600052607381538281f3fe730000000000000000000000000000000000000000301460806040526004361061006c5760003560e01c80630461ac111461007157806333ce83e1146100a157806390ad731f146100d1578063a86b73f014610101578063bfcacd4a14610131578063d3705aa114610161575b600080fd5b61008b600480360381019061008691906123ea565b610191565b6040516100989190612458565b60405180910390f35b6100bb60048036038101906100b691906124a9565b61051e565b6040516100c89190612555565b60405180910390f35b6100eb60048036038101906100e6919061262c565b610683565b6040516100f89190612555565b60405180910390f35b61011b600480360381019061011691906126ae565b610b86565b6040516101289190612716565b60405180910390f35b61014b600480360381019061014691906124a9565b610bc3565b6040516101589190612555565b60405180910390f35b61017b600480360381019061017691906124a9565b610da0565b6040516101889190612740565b60405180910390f35b600080836000600281106101a8576101a761275b565b5b602002015114806101f157507fffffffff00000000ffffffffffffffffbce6faada7179e84f3b9cac2fc632551836000600281106101e9576101e861275b565b5b602002015110155b80610214575060008360016002811061020d5761020c61275b565b5b6020020151145b156102225760009050610517565b61025c826000600281106102395761023861275b565b5b6020020151836001600281106102525761025161275b565b5b6020020151610ffb565b6102695760009050610517565b60008060008060006102b3886001600281106102885761028761275b565b5b60200201517fffffffff00000000ffffffffffffffffbce6faada7179e84f3b9cac2fc632551611244565b90506103317f6b17d1f2e12c4247f8bce6e563a440f277037d812deb33a0f4a13945d898c2967f4fe342e2fe1a7f9b8ee7eb4a7c0f9e162bce33576b315ececbb6406837bf51f57fffffffff00000000ffffffffffffffffbce6faada7179e84f3b9cac2fc632551806103295761032861278a565b5b848d09611330565b80945081965050506103bd876000600281106103505761034f61275b565b5b6020020151886001600281106103695761036861275b565b5b60200201517fffffffff00000000ffffffffffffffffbce6faada7179e84f3b9cac2fc6325518061039d5761039c61278a565b5b848c6000600281106103b2576103b161275b565b5b602002015109611330565b809350819550505060006103d386858786611431565b90506000816002600381106103eb576103ea61275b565b5b6020020151036104045760009650505050505050610517565b60006104488260026003811061041d5761041c61275b565b5b60200201517fffffffff00000001000000000000000000000000ffffffffffffffffffffffff611244565b90507fffffffff00000001000000000000000000000000ffffffffffffffffffffffff806104795761047861278a565b5b7fffffffff00000001000000000000000000000000ffffffffffffffffffffffff806104a8576104a761278a565b5b828309836000600381106104bf576104be61275b565b5b6020020151099050896000600281106104db576104da61275b565b5b60200201517fffffffff00000000ffffffffffffffffbce6faada7179e84f3b9cac2fc6325518261050c91906127b9565b149750505050505050505b9392505050565b6060600061052b83610da0565b905060008160ff1603610550576040518060200160405280600081525091505061067e565b60008160ff1667ffffffffffffffff81111561056f5761056e6122b9565b5b6040519080825280601f01601f1916602001820160405280156105a15781602001600182028036833780820191505090505b509050600091505b60208260ff161080156105fb5750600060f81b848360ff16602081106105d2576105d161275b565b5b1a60f81b7effffffffffffffffffffffffffffffffffffffffffffffffffffffffffffff191614155b15610678576000848360ff16602081106106185761061761275b565b5b1a60f81b905080828460ff16815181106106355761063461275b565b5b60200101907effffffffffffffffffffffffffffffffffffffffffffffffffffffffffffff1916908160001a90535050818061067090612819565b9250506105a9565b80925050505b919050565b6060600080600084519050600060038261069d91906127b9565b146106c9576003816106af91906127b9565b60036106bb9190612842565b816106c69190612876565b90505b600085905060008267ffffffffffffffff8111156106ea576106e96122b9565b5b6040519080825280601f01601f19166020018201604052801561071c5781602001600182028036833780820191505090505b509050600094505b815185101561079a578185815181106107405761073f61275b565b5b602001015160f81c60f81b81868151811061075e5761075d61275b565b5b60200101907effffffffffffffffffffffffffffffffffffffffffffffffffffffffffffff1916908160001a9053508480600101955050610724565b600060046003856107ab91906128aa565b6107b591906128db565b905060008167ffffffffffffffff8111156107d3576107d26122b9565b5b6040519080825280601f01601f1916602001820160405280156108055781602001600182028036833780820191505090505b509050600096505b84871015610b77576000600284898151811061082c5761082b61275b565b5b602001015160f81c60f81b60f81c60ff16901c9050600060048560018b6108539190612876565b815181106108645761086361275b565b5b602001015160f81c60f81b60f81c60ff16901c60046003878c8151811061088e5761088d61275b565b5b602001015160f81c60f81b60f81c60ff1616901b179050600060068660028c6108b79190612876565b815181106108c8576108c761275b565b5b602001015160f81c60f81b60f81c60ff16901c6002600f8860018e6108ed9190612876565b815181106108fe576108fd61275b565b5b602001015160f81c60f81b60f81c60ff1616901b1790506000603f8760028d6109279190612876565b815181106109385761093761275b565b5b602001015160f81c60f81b60f81c60ff16169050604051806060016040528060408152602001612aab6040913984815181106109775761097661275b565b5b602001015160f81c60f81b858b815181106109955761099461275b565b5b60200101907effffffffffffffffffffffffffffffffffffffffffffffffffffffffffffff1916908160001a905350604051806060016040528060408152602001612aab6040913983815181106109ef576109ee61275b565b5b602001015160f81c60f81b8560018c610a089190612876565b81518110610a1957610a1861275b565b5b60200101907effffffffffffffffffffffffffffffffffffffffffffffffffffffffffffff1916908160001a905350604051806060016040528060408152602001612aab604091398281518110610a7357610a7261275b565b5b602001015160f81c60f81b8560028c610a8c9190612876565b81518110610a9d57610a9c61275b565b5b60200101907effffffffffffffffffffffffffffffffffffffffffffffffffffffffffffff1916908160001a905350604051806060016040528060408152602001612aab604091398181518110610af757610af661275b565b5b602001015160f81c60f81b8560038c610b109190612876565b81518110610b2157610b2061275b565b5b60200101907effffffffffffffffffffffffffffffffffffffffffffffffffffffffffffff1916908160001a90535060048a610b5d9190612876565b995050505050600387610b709190612876565b965061080d565b80975050505050505050919050565b6000600a8260ff161015610bab57603082610ba1919061291d565b60f81b9050610bbe565b605782610bb8919061291d565b60f81b90505b919050565b6060600080604067ffffffffffffffff811115610be357610be26122b9565b5b6040519080825280601f01601f191660200182016040528015610c155781602001600182028036833780820191505090505b509050600091505b80518260ff161015610d6f576000600f60f81b85600285610c3e9190612952565b60ff1660208110610c5257610c5161275b565b5b1a60f81b1660f81c90506000600486600286610c6e9190612952565b60ff1660208110610c8257610c8161275b565b5b1a60f81b7effffffffffffffffffffffffffffffffffffffffffffffffffffffffffffff1916901c60f81c9050610cb881610b86565b838560ff1681518110610cce57610ccd61275b565b5b60200101907effffffffffffffffffffffffffffffffffffffffffffffffffffffffffffff1916908160001a905350600184610d0a919061291d565b9350610d1582610b86565b838560ff1681518110610d2b57610d2a61275b565b5b60200101907effffffffffffffffffffffffffffffffffffffffffffffffffffffffffffff1916908160001a90535050508180610d6790612819565b925050610c1d565b610d9781604051602001610d839190612a0b565b604051602081830303815290604052610683565b92505050919050565b600080600090505b60208160ff16108015610dfa5750600060f81b838260ff1660208110610dd157610dd061275b565b5b1a60f81b7effffffffffffffffffffffffffffffffffffffffffffffffffffffffffffff191614155b15610e12578080610e0a90612819565b915050610da8565b60005b8160ff168160ff1611610ff0576000848260ff1660208110610e3a57610e3961275b565b5b1a60f81b9050603060f81b817effffffffffffffffffffffffffffffffffffffffffffffffffffffffffffff191610158015610e9c5750603960f81b817effffffffffffffffffffffffffffffffffffffffffffffffffffffffffffff191611155b158015610f025750604160f81b817effffffffffffffffffffffffffffffffffffffffffffffffffffffffffffff191610158015610f005750605a60f81b817effffffffffffffffffffffffffffffffffffffffffffffffffffffffffffff191611155b155b8015610f675750606160f81b817effffffffffffffffffffffffffffffffffffffffffffffffffffffffffffff191610158015610f655750607a60f81b817effffffffffffffffffffffffffffffffffffffffffffffffffffffffffffff191611155b155b8015610f995750602e60f81b817effffffffffffffffffffffffffffffffffffffffffffffffffffffffffffff191614155b8015610fcb5750600060f81b817effffffffffffffffffffffffffffffffffffffffffffffffffffffffffffff191614155b15610fdc5760009350505050610ff6565b508080610fe890612819565b915050610e15565b50809150505b919050565b6000826000148061102b57507fffffffff00000001000000000000000000000000ffffffffffffffffffffffff83145b806110365750816000145b8061106057507fffffffff00000001000000000000000000000000ffffffffffffffffffffffff82145b1561106e576000905061123e565b60007fffffffff00000001000000000000000000000000ffffffffffffffffffffffff8061109f5761109e61278a565b5b838409905060007fffffffff00000001000000000000000000000000ffffffffffffffffffffffff806110d5576110d461278a565b5b857fffffffff00000001000000000000000000000000ffffffffffffffffffffffff806111055761110461278a565b5b87880909905060007fffffffff00000001000000000000000000000000fffffffffffffffffffffffc146111b9577fffffffff00000001000000000000000000000000ffffffffffffffffffffffff806111625761116161278a565b5b7fffffffff00000001000000000000000000000000ffffffffffffffffffffffff806111915761119061278a565b5b7fffffffff00000001000000000000000000000000fffffffffffffffffffffffc8709820890505b60007f5ac635d8aa3a93e7b3ebbd55769886bc651d06b0cc53b0f63bce3c3e27d2604b14611236577fffffffff00000001000000000000000000000000ffffffffffffffffffffffff806112105761120f61278a565b5b7f5ac635d8aa3a93e7b3ebbd55769886bc651d06b0cc53b0f63bce3c3e27d2604b820890505b808214925050505b92915050565b60008083141580156112565750818314155b8015611263575060008214155b6112a2576040517f08c379a000000000000000000000000000000000000000000000000000000000815260040161129990612a8a565b60405180910390fd5b60008060019050600084905060005b600087146113235786826112c591906128aa565b90508286806112d7576112d661278a565b5b87806112e6576112e561278a565b5b858409886112f49190612842565b8608809450819550505086878261130b91906128db565b836113169190612842565b80985081935050506112b1565b8394505050505092915050565b6000806000830361134c57611343611466565b91509150611429565b6001830361135f57848491509150611429565b6002830361137a576113718585611474565b91509150611429565b6000859050600085905060006001905060006001905088955087945060006002886113a591906127b9565b036113b257600094508495505b600187901c96505b6000871115611415576113ce8484846114a8565b80945081955082965050505060016002886113e991906127b9565b03611409576113fc848484898986611a05565b8093508197508298505050505b600187901c96506113ba565b611420868683611bbc565b95509550505050505b935093915050565b611439612237565b60008061144887878787611c5e565b809250819350505061145a8282611c98565b92505050949350505050565b600080600080915091509091565b6000806000611485858560016114a8565b80935081965082975050505061149c858583611bbc565b92509250509250929050565b60008060008060008060006114bd8a8a611dc5565b156114d9576114ca611def565b965096509650505050506119fc565b7fffffffff00000001000000000000000000000000ffffffffffffffffffffffff806115085761150761278a565b5b888a0992507fffffffff00000001000000000000000000000000ffffffffffffffffffffffff8061153c5761153b61278a565b5b6002840992507fffffffff00000001000000000000000000000000ffffffffffffffffffffffff806115715761157061278a565b5b8a840991507fffffffff00000001000000000000000000000000ffffffffffffffffffffffff806115a5576115a461278a565b5b89830991507fffffffff00000001000000000000000000000000ffffffffffffffffffffffff806115d9576115d861278a565b5b6002830991507fffffffff00000001000000000000000000000000ffffffffffffffffffffffff8061160e5761160d61278a565b5b8a8b0999507fffffffff00000001000000000000000000000000ffffffffffffffffffffffff806116425761164161278a565b5b60038b0993507fffffffff00000001000000000000000000000000ffffffffffffffffffffffff806116775761167661278a565b5b88890997507fffffffff00000001000000000000000000000000ffffffffffffffffffffffff806116ab576116aa61278a565b5b7fffffffff00000001000000000000000000000000fffffffffffffffffffffffc890997507fffffffff00000001000000000000000000000000ffffffffffffffffffffffff806116ff576116fe61278a565b5b88850893507fffffffff00000001000000000000000000000000ffffffffffffffffffffffff806117335761173261278a565b5b84850990507fffffffff00000001000000000000000000000000ffffffffffffffffffffffff806117675761176661278a565b5b8260020999507fffffffff00000001000000000000000000000000ffffffffffffffffffffffff8061179c5761179b61278a565b5b8a7fffffffff00000001000000000000000000000000ffffffffffffffffffffffff6117c89190612842565b820890507fffffffff00000001000000000000000000000000ffffffffffffffffffffffff806117fb576117fa61278a565b5b817fffffffff00000001000000000000000000000000ffffffffffffffffffffffff6118279190612842565b830899507fffffffff00000001000000000000000000000000ffffffffffffffffffffffff8061185a5761185961278a565b5b8a850999507fffffffff00000001000000000000000000000000ffffffffffffffffffffffff8061188e5761188d61278a565b5b838a0998507fffffffff00000001000000000000000000000000ffffffffffffffffffffffff806118c2576118c161278a565b5b898a0998507fffffffff00000001000000000000000000000000ffffffffffffffffffffffff806118f6576118f561278a565b5b8960020998507fffffffff00000001000000000000000000000000ffffffffffffffffffffffff8061192b5761192a61278a565b5b897fffffffff00000001000000000000000000000000ffffffffffffffffffffffff6119579190612842565b8b0895507fffffffff00000001000000000000000000000000ffffffffffffffffffffffff8061198a5761198961278a565b5b81840996507fffffffff00000001000000000000000000000000ffffffffffffffffffffffff806119be576119bd61278a565b5b83840994507fffffffff00000001000000000000000000000000ffffffffffffffffffffffff806119f2576119f161278a565b5b8386099450505050505b93509350939050565b6000806000806000806000611a1a8d8d611dc5565b15611a315789898996509650965050505050611bb0565b611a3b8a8a611dc5565b15611a52578c8c8c96509650965050505050611bb0565b7fffffffff00000001000000000000000000000000ffffffffffffffffffffffff80611a8157611a8061278a565b5b888d0993507fffffffff00000001000000000000000000000000ffffffffffffffffffffffff80611ab557611ab461278a565b5b8b8a0992507fffffffff00000001000000000000000000000000ffffffffffffffffffffffff80611ae957611ae861278a565b5b888e0991507fffffffff00000001000000000000000000000000ffffffffffffffffffffffff80611b1d57611b1c61278a565b5b8b8b099050808203611b6157828403611b4a57611b3b8d8d8d6114a8565b96509650965050505050611bb0565b611b52611def565b96509650965050505050611bb0565b611b9f7fffffffff00000001000000000000000000000000ffffffffffffffffffffffff80611b9357611b9261278a565b5b898d0983838688611e04565b809750819850829950505050505050505b96509650969350505050565b6000806000611beb847fffffffff00000001000000000000000000000000ffffffffffffffffffffffff611244565b90507fffffffff00000001000000000000000000000000ffffffffffffffffffffffff80611c1c57611c1b61278a565b5b81870992507fffffffff00000001000000000000000000000000ffffffffffffffffffffffff80611c5057611c4f61278a565b5b818609915050935093915050565b6000806000611c738787600188886001611a05565b809350819850829950505050611c8a878783611bbc565b925092505094509492505050565b611ca0612237565b7fffffffff00000001000000000000000000000000ffffffffffffffffffffffff80611ccf57611cce61278a565b5b600160000881600260038110611ce857611ce761275b565b5b6020020181815250507fffffffff00000001000000000000000000000000ffffffffffffffffffffffff80611d2057611d1f61278a565b5b81600260038110611d3457611d3361275b565b5b6020020151840981600060038110611d4f57611d4e61275b565b5b6020020181815250507fffffffff00000001000000000000000000000000ffffffffffffffffffffffff80611d8757611d8661278a565b5b81600260038110611d9b57611d9a61275b565b5b6020020151830981600160038110611db657611db561275b565b5b60200201818152505092915050565b60008083148015611dd65750600082145b15611de45760019050611de9565b600090505b92915050565b60008060008060016000925092509250909192565b6000806000806000806000807fffffffff00000001000000000000000000000000ffffffffffffffffffffffff80611e3f57611e3e61278a565b5b8a7fffffffff00000001000000000000000000000000ffffffffffffffffffffffff611e6b9190612842565b8a0890507fffffffff00000001000000000000000000000000ffffffffffffffffffffffff80611e9e57611e9d61278a565b5b8b7fffffffff00000001000000000000000000000000ffffffffffffffffffffffff611eca9190612842565b8d0894507fffffffff00000001000000000000000000000000ffffffffffffffffffffffff80611efd57611efc61278a565b5b85860993507fffffffff00000001000000000000000000000000ffffffffffffffffffffffff80611f3157611f3061278a565b5b81820991507fffffffff00000001000000000000000000000000ffffffffffffffffffffffff80611f6557611f6461278a565b5b8d830991507fffffffff00000001000000000000000000000000ffffffffffffffffffffffff80611f9957611f9861278a565b5b8c8c089a507fffffffff00000001000000000000000000000000ffffffffffffffffffffffff80611fcd57611fcc61278a565b5b848c099a507fffffffff00000001000000000000000000000000ffffffffffffffffffffffff806120015761200061278a565b5b8b7fffffffff00000001000000000000000000000000ffffffffffffffffffffffff61202d9190612842565b830891507fffffffff00000001000000000000000000000000ffffffffffffffffffffffff806120605761205f61278a565b5b82860997507fffffffff00000001000000000000000000000000ffffffffffffffffffffffff806120945761209361278a565b5b85850992507fffffffff00000001000000000000000000000000ffffffffffffffffffffffff806120c8576120c761278a565b5b848d099b507fffffffff00000001000000000000000000000000ffffffffffffffffffffffff806120fc576120fb61278a565b5b827fffffffff00000001000000000000000000000000ffffffffffffffffffffffff6121289190612842565b8d089b507fffffffff00000001000000000000000000000000ffffffffffffffffffffffff8061215b5761215a61278a565b5b8c820990507fffffffff00000001000000000000000000000000ffffffffffffffffffffffff8061218f5761218e61278a565b5b838a0998507fffffffff00000001000000000000000000000000ffffffffffffffffffffffff806121c3576121c261278a565b5b897fffffffff00000001000000000000000000000000ffffffffffffffffffffffff6121ef9190612842565b820896507fffffffff00000001000000000000000000000000ffffffffffffffffffffffff806122225761222161278a565b5b8d840995505050505050955095509592505050565b6040518060600160405280600390602082028036833780820191505090505090565b6000604051905090565b600080fd5b600080fd5b6000819050919050565b6122808161226d565b811461228b57600080fd5b50565b60008135905061229d81612277565b92915050565b600080fd5b6000601f19601f8301169050919050565b7f4e487b7100000000000000000000000000000000000000000000000000000000600052604160045260246000fd5b6122f1826122a8565b810181811067ffffffffffffffff821117156123105761230f6122b9565b5b80604052505050565b6000612323612259565b905061232f82826122e8565b919050565b600067ffffffffffffffff82111561234f5761234e6122b9565b5b602082029050919050565b600080fd5b600061237261236d84612334565b612319565b9050806020840283018581111561238c5761238b61235a565b5b835b818110156123b557806123a1888261228e565b84526020840193505060208101905061238e565b5050509392505050565b600082601f8301126123d4576123d36122a3565b5b60026123e184828561235f565b91505092915050565b600080600060a0848603121561240357612402612263565b5b60006124118682870161228e565b9350506020612422868287016123bf565b9250506060612433868287016123bf565b9150509250925092565b60008115159050919050565b6124528161243d565b82525050565b600060208201905061246d6000830184612449565b92915050565b6000819050919050565b61248681612473565b811461249157600080fd5b50565b6000813590506124a38161247d565b92915050565b6000602082840312156124bf576124be612263565b5b60006124cd84828501612494565b91505092915050565b600081519050919050565b600082825260208201905092915050565b60005b838110156125105780820151818401526020810190506124f5565b60008484015250505050565b6000612527826124d6565b61253181856124e1565b93506125418185602086016124f2565b61254a816122a8565b840191505092915050565b6000602082019050818103600083015261256f818461251c565b905092915050565b600080fd5b600067ffffffffffffffff821115612597576125966122b9565b5b6125a0826122a8565b9050602081019050919050565b82818337600083830152505050565b60006125cf6125ca8461257c565b612319565b9050828152602081018484840111156125eb576125ea612577565b5b6125f68482856125ad565b509392505050565b600082601f830112612613576126126122a3565b5b81356126238482602086016125bc565b91505092915050565b60006020828403121561264257612641612263565b5b600082013567ffffffffffffffff8111156126605761265f612268565b5b61266c848285016125fe565b91505092915050565b600060ff82169050919050565b61268b81612675565b811461269657600080fd5b50565b6000813590506126a881612682565b92915050565b6000602082840312156126c4576126c3612263565b5b60006126d284828501612699565b91505092915050565b60007fff0000000000000000000000000000000000000000000000000000000000000082169050919050565b612710816126db565b82525050565b600060208201905061272b6000830184612707565b92915050565b61273a81612675565b82525050565b60006020820190506127556000830184612731565b92915050565b7f4e487b7100000000000000000000000000000000000000000000000000000000600052603260045260246000fd5b7f4e487b7100000000000000000000000000000000000000000000000000000000600052601260045260246000fd5b60006127c48261226d565b91506127cf8361226d565b9250826127df576127de61278a565b5b828206905092915050565b7f4e487b7100000000000000000000000000000000000000000000000000000000600052601160045260246000fd5b600061282482612675565b915060ff8203612837576128366127ea565b5b600182019050919050565b600061284d8261226d565b91506128588361226d565b92508282039050818111156128705761286f6127ea565b5b92915050565b60006128818261226d565b915061288c8361226d565b92508282019050808211156128a4576128a36127ea565b5b92915050565b60006128b58261226d565b91506128c08361226d565b9250826128d0576128cf61278a565b5b828204905092915050565b60006128e68261226d565b91506128f18361226d565b92508282026128ff8161226d565b91508282048414831517612916576129156127ea565b5b5092915050565b600061292882612675565b915061293383612675565b9250828201905060ff81111561294c5761294b6127ea565b5b92915050565b600061295d82612675565b915061296883612675565b9250826129785761297761278a565b5b828204905092915050565b600081905092915050565b7f3078000000000000000000000000000000000000000000000000000000000000600082015250565b60006129c4600283612983565b91506129cf8261298e565b600282019050919050565b60006129e5826124d6565b6129ef8185612983565b93506129ff8185602086016124f2565b80840191505092915050565b6000612a16826129b7565b9150612a2282846129da565b915081905092915050565b600082825260208201905092915050565b7f496e76616c6964206e756d626572000000000000000000000000000000000000600082015250565b6000612a74600e83612a2d565b9150612a7f82612a3e565b602082019050919050565b60006020820190508181036000830152612aa381612a67565b905091905056fe4142434445464748494a4b4c4d4e4f505152535455565758595a6162636465666768696a6b6c6d6e6f707172737475767778797a303132333435363738392d5fa26469706673582212201d10df242379bdb1baf1df78d34d27fae1c81a8b3ff87159c6172413b38a55e764736f6c634300081c0033","opcodes":"PUSH2 0x2B20 PUSH2 0x52 PUSH1 0xB DUP3 DUP3 DUP3 CODECOPY DUP1 MLOAD PUSH1 0x0 BYTE PUSH1 0x73 EQ PUSH1 0x45 JUMPI PUSH32 0x4E487B7100000000000000000000000000000000000000000000000000000000 PUSH1 0x0 MSTORE PUSH1 0x0 PUSH1 0x4 MSTORE PUSH1 0x24 PUSH1 0x0 REVERT JUMPDEST ADDRESS PUSH1 0x0 MSTORE PUSH1 0x73 DUP2 MSTORE8 DUP3 DUP2 RETURN INVALID PUSH20 0x0 ADDRESS EQ PUSH1 0x80 PUSH1 0x40 MSTORE PUSH1 0x4 CALLDATASIZE LT PUSH2 0x6C JUMPI PUSH1 0x0 CALLDATALOAD PUSH1 0xE0 SHR DUP1 PUSH4 0x461AC11 EQ PUSH2 0x71 JUMPI DUP1 PUSH4 0x33CE83E1 EQ PUSH2 0xA1 JUMPI DUP1 PUSH4 0x90AD731F EQ PUSH2 0xD1 JUMPI DUP1 PUSH4 0xA86B73F0 EQ PUSH2 0x101 JUMPI DUP1 PUSH4 0xBFCACD4A EQ PUSH2 0x131 JUMPI DUP1 PUSH4 0xD3705AA1 EQ PUSH2 0x161 JUMPI JUMPDEST PUSH1 0x0 DUP1 REVERT JUMPDEST PUSH2 0x8B PUSH1 0x4 DUP1 CALLDATASIZE SUB DUP2 ADD SWAP1 PUSH2 0x86 SWAP2 SWAP1 PUSH2 0x23EA JUMP JUMPDEST PUSH2 0x191 JUMP JUMPDEST PUSH1 0x40 MLOAD PUSH2 0x98 SWAP2 SWAP1 PUSH2 0x2458 JUMP JUMPDEST PUSH1 0x40 MLOAD DUP1 SWAP2 SUB SWAP1 RETURN JUMPDEST PUSH2 0xBB PUSH1 0x4 DUP1 CALLDATASIZE SUB DUP2 ADD SWAP1 PUSH2 0xB6 SWAP2 SWAP1 PUSH2 0x24A9 JUMP JUMPDEST PUSH2 0x51E JUMP JUMPDEST PUSH1 0x40 MLOAD PUSH2 0xC8 SWAP2 SWAP1 PUSH2 0x2555 JUMP JUMPDEST PUSH1 0x40 MLOAD DUP1 SWAP2 SUB SWAP1 RETURN JUMPDEST PUSH2 0xEB PUSH1 0x4 DUP1 CALLDATASIZE SUB DUP2 ADD SWAP1 PUSH2 0xE6 SWAP2 SWAP1 PUSH2 0x262C JUMP JUMPDEST PUSH2 0x683 JUMP JUMPDEST PUSH1 0x40 MLOAD PUSH2 0xF8 SWAP2 SWAP1 PUSH2 0x2555 JUMP JUMPDEST PUSH1 0x40 MLOAD DUP1 SWAP2 SUB SWAP1 RETURN JUMPDEST PUSH2 0x11B PUSH1 0x4 DUP1 CALLDATASIZE SUB DUP2 ADD SWAP1 PUSH2 0x116 SWAP2 SWAP1 PUSH2 0x26AE JUMP JUMPDEST PUSH2 0xB86 JUMP JUMPDEST PUSH1 0x40 MLOAD PUSH2 0x128 SWAP2 SWAP1 PUSH2 0x2716 JUMP JUMPDEST PUSH1 0x40 MLOAD DUP1 SWAP2 SUB SWAP1 RETURN JUMPDEST PUSH2 0x14B PUSH1 0x4 DUP1 CALLDATASIZE SUB DUP2 ADD SWAP1 PUSH2 0x146 SWAP2 SWAP1 PUSH2 0x24A9 JUMP JUMPDEST PUSH2 0xBC3 JUMP JUMPDEST PUSH1 0x40 MLOAD PUSH2 0x158 SWAP2 SWAP1 PUSH2 0x2555 JUMP JUMPDEST PUSH1 0x40 MLOAD DUP1 SWAP2 SUB SWAP1 RETURN JUMPDEST PUSH2 0x17B PUSH1 0x4 DUP1 CALLDATASIZE SUB DUP2 ADD SWAP1 PUSH2 0x176 SWAP2 SWAP1 PUSH2 0x24A9 JUMP JUMPDEST PUSH2 0xDA0 JUMP JUMPDEST PUSH1 0x40 MLOAD PUSH2 0x188 SWAP2 SWAP1 PUSH2 0x2740 JUMP JUMPDEST PUSH1 0x40 MLOAD DUP1 SWAP2 SUB SWAP1 RETURN JUMPDEST PUSH1 0x0 DUP1 DUP4 PUSH1 0x0 PUSH1 0x2 DUP2 LT PUSH2 0x1A8 JUMPI PUSH2 0x1A7 PUSH2 0x275B JUMP JUMPDEST JUMPDEST PUSH1 0x20 MUL ADD MLOAD EQ DUP1 PUSH2 0x1F1 JUMPI POP PUSH32 0xFFFFFFFF00000000FFFFFFFFFFFFFFFFBCE6FAADA7179E84F3B9CAC2FC632551 DUP4 PUSH1 0x0 PUSH1 0x2 DUP2 LT PUSH2 0x1E9 JUMPI PUSH2 0x1E8 PUSH2 0x275B JUMP JUMPDEST JUMPDEST PUSH1 0x20 MUL ADD MLOAD LT ISZERO JUMPDEST DUP1 PUSH2 0x214 JUMPI POP PUSH1 0x0 DUP4 PUSH1 0x1 PUSH1 0x2 DUP2 LT PUSH2 0x20D JUMPI PUSH2 0x20C PUSH2 0x275B JUMP JUMPDEST JUMPDEST PUSH1 0x20 MUL ADD MLOAD EQ JUMPDEST ISZERO PUSH2 0x222 JUMPI PUSH1 0x0 SWAP1 POP PUSH2 0x517 JUMP JUMPDEST PUSH2 0x25C DUP3 PUSH1 0x0 PUSH1 0x2 DUP2 LT PUSH2 0x239 JUMPI PUSH2 0x238 PUSH2 0x275B JUMP JUMPDEST JUMPDEST PUSH1 0x20 MUL ADD MLOAD DUP4 PUSH1 0x1 PUSH1 0x2 DUP2 LT PUSH2 0x252 JUMPI PUSH2 0x251 PUSH2 0x275B JUMP JUMPDEST JUMPDEST PUSH1 0x20 MUL ADD MLOAD PUSH2 0xFFB JUMP JUMPDEST PUSH2 0x269 JUMPI PUSH1 0x0 SWAP1 POP PUSH2 0x517 JUMP JUMPDEST PUSH1 0x0 DUP1 PUSH1 0x0 DUP1 PUSH1 0x0 PUSH2 0x2B3 DUP9 PUSH1 0x1 PUSH1 0x2 DUP2 LT PUSH2 0x288 JUMPI PUSH2 0x287 PUSH2 0x275B JUMP JUMPDEST JUMPDEST PUSH1 0x20 MUL ADD MLOAD PUSH32 0xFFFFFFFF00000000FFFFFFFFFFFFFFFFBCE6FAADA7179E84F3B9CAC2FC632551 PUSH2 0x1244 JUMP JUMPDEST SWAP1 POP PUSH2 0x331 PUSH32 0x6B17D1F2E12C4247F8BCE6E563A440F277037D812DEB33A0F4A13945D898C296 PUSH32 0x4FE342E2FE1A7F9B8EE7EB4A7C0F9E162BCE33576B315ECECBB6406837BF51F5 PUSH32 0xFFFFFFFF00000000FFFFFFFFFFFFFFFFBCE6FAADA7179E84F3B9CAC2FC632551 DUP1 PUSH2 0x329 JUMPI PUSH2 0x328 PUSH2 0x278A JUMP JUMPDEST JUMPDEST DUP5 DUP14 MULMOD PUSH2 0x1330 JUMP JUMPDEST DUP1 SWAP5 POP DUP2 SWAP7 POP POP POP PUSH2 0x3BD DUP8 PUSH1 0x0 PUSH1 0x2 DUP2 LT PUSH2 0x350 JUMPI PUSH2 0x34F PUSH2 0x275B JUMP JUMPDEST JUMPDEST PUSH1 0x20 MUL ADD MLOAD DUP9 PUSH1 0x1 PUSH1 0x2 DUP2 LT PUSH2 0x369 JUMPI PUSH2 0x368 PUSH2 0x275B JUMP JUMPDEST JUMPDEST PUSH1 0x20 MUL ADD MLOAD PUSH32 0xFFFFFFFF00000000FFFFFFFFFFFFFFFFBCE6FAADA7179E84F3B9CAC2FC632551 DUP1 PUSH2 0x39D JUMPI PUSH2 0x39C PUSH2 0x278A JUMP JUMPDEST JUMPDEST DUP5 DUP13 PUSH1 0x0 PUSH1 0x2 DUP2 LT PUSH2 0x3B2 JUMPI PUSH2 0x3B1 PUSH2 0x275B JUMP JUMPDEST JUMPDEST PUSH1 0x20 MUL ADD MLOAD MULMOD PUSH2 0x1330 JUMP JUMPDEST DUP1 SWAP4 POP DUP2 SWAP6 POP POP POP PUSH1 0x0 PUSH2 0x3D3 DUP7 DUP6 DUP8 DUP7 PUSH2 0x1431 JUMP JUMPDEST SWAP1 POP PUSH1 0x0 DUP2 PUSH1 0x2 PUSH1 0x3 DUP2 LT PUSH2 0x3EB JUMPI PUSH2 0x3EA PUSH2 0x275B JUMP JUMPDEST JUMPDEST PUSH1 0x20 MUL ADD MLOAD SUB PUSH2 0x404 JUMPI PUSH1 0x0 SWAP7 POP POP POP POP POP POP POP PUSH2 0x517 JUMP JUMPDEST PUSH1 0x0 PUSH2 0x448 DUP3 PUSH1 0x2 PUSH1 0x3 DUP2 LT PUSH2 0x41D JUMPI PUSH2 0x41C PUSH2 0x275B JUMP JUMPDEST JUMPDEST PUSH1 0x20 MUL ADD MLOAD PUSH32 0xFFFFFFFF00000001000000000000000000000000FFFFFFFFFFFFFFFFFFFFFFFF PUSH2 0x1244 JUMP JUMPDEST SWAP1 POP PUSH32 0xFFFFFFFF00000001000000000000000000000000FFFFFFFFFFFFFFFFFFFFFFFF DUP1 PUSH2 0x479 JUMPI PUSH2 0x478 PUSH2 0x278A JUMP JUMPDEST JUMPDEST PUSH32 0xFFFFFFFF00000001000000000000000000000000FFFFFFFFFFFFFFFFFFFFFFFF DUP1 PUSH2 0x4A8 JUMPI PUSH2 0x4A7 PUSH2 0x278A JUMP JUMPDEST JUMPDEST DUP3 DUP4 MULMOD DUP4 PUSH1 0x0 PUSH1 0x3 DUP2 LT PUSH2 0x4BF JUMPI PUSH2 0x4BE PUSH2 0x275B JUMP JUMPDEST JUMPDEST PUSH1 0x20 MUL ADD MLOAD MULMOD SWAP1 POP DUP10 PUSH1 0x0 PUSH1 0x2 DUP2 LT PUSH2 0x4DB JUMPI PUSH2 0x4DA PUSH2 0x275B JUMP JUMPDEST JUMPDEST PUSH1 0x20 MUL ADD MLOAD PUSH32 0xFFFFFFFF00000000FFFFFFFFFFFFFFFFBCE6FAADA7179E84F3B9CAC2FC632551 DUP3 PUSH2 0x50C SWAP2 SWAP1 PUSH2 0x27B9 JUMP JUMPDEST EQ SWAP8 POP POP POP POP POP POP POP POP JUMPDEST SWAP4 SWAP3 POP POP POP JUMP JUMPDEST PUSH1 0x60 PUSH1 0x0 PUSH2 0x52B DUP4 PUSH2 0xDA0 JUMP JUMPDEST SWAP1 POP PUSH1 0x0 DUP2 PUSH1 0xFF AND SUB PUSH2 0x550 JUMPI PUSH1 0x40 MLOAD DUP1 PUSH1 0x20 ADD PUSH1 0x40 MSTORE DUP1 PUSH1 0x0 DUP2 MSTORE POP SWAP2 POP POP PUSH2 0x67E JUMP JUMPDEST PUSH1 0x0 DUP2 PUSH1 0xFF AND PUSH8 0xFFFFFFFFFFFFFFFF DUP2 GT ISZERO PUSH2 0x56F JUMPI PUSH2 0x56E PUSH2 0x22B9 JUMP JUMPDEST JUMPDEST PUSH1 0x40 MLOAD SWAP1 DUP1 DUP3 MSTORE DUP1 PUSH1 0x1F ADD PUSH1 0x1F NOT AND PUSH1 0x20 ADD DUP3 ADD PUSH1 0x40 MSTORE DUP1 ISZERO PUSH2 0x5A1 JUMPI DUP2 PUSH1 0x20 ADD PUSH1 0x1 DUP3 MUL DUP1 CALLDATASIZE DUP4 CALLDATACOPY DUP1 DUP3 ADD SWAP2 POP POP SWAP1 POP JUMPDEST POP SWAP1 POP PUSH1 0x0 SWAP2 POP JUMPDEST PUSH1 0x20 DUP3 PUSH1 0xFF AND LT DUP1 ISZERO PUSH2 0x5FB JUMPI POP PUSH1 0x0 PUSH1 0xF8 SHL DUP5 DUP4 PUSH1 0xFF AND PUSH1 0x20 DUP2 LT PUSH2 0x5D2 JUMPI PUSH2 0x5D1 PUSH2 0x275B JUMP JUMPDEST JUMPDEST BYTE PUSH1 0xF8 SHL PUSH31 0xFFFFFFFFFFFFFFFFFFFFFFFFFFFFFFFFFFFFFFFFFFFFFFFFFFFFFFFFFFFFFF NOT AND EQ ISZERO JUMPDEST ISZERO PUSH2 0x678 JUMPI PUSH1 0x0 DUP5 DUP4 PUSH1 0xFF AND PUSH1 0x20 DUP2 LT PUSH2 0x618 JUMPI PUSH2 0x617 PUSH2 0x275B JUMP JUMPDEST JUMPDEST BYTE PUSH1 0xF8 SHL SWAP1 POP DUP1 DUP3 DUP5 PUSH1 0xFF AND DUP2 MLOAD DUP2 LT PUSH2 0x635 JUMPI PUSH2 0x634 PUSH2 0x275B JUMP JUMPDEST JUMPDEST PUSH1 0x20 ADD ADD SWAP1 PUSH31 0xFFFFFFFFFFFFFFFFFFFFFFFFFFFFFFFFFFFFFFFFFFFFFFFFFFFFFFFFFFFFFF NOT AND SWAP1 DUP2 PUSH1 0x0 BYTE SWAP1 MSTORE8 POP POP DUP2 DUP1 PUSH2 0x670 SWAP1 PUSH2 0x2819 JUMP JUMPDEST SWAP3 POP POP PUSH2 0x5A9 JUMP JUMPDEST DUP1 SWAP3 POP POP POP JUMPDEST SWAP2 SWAP1 POP JUMP JUMPDEST PUSH1 0x60 PUSH1 0x0 DUP1 PUSH1 0x0 DUP5 MLOAD SWAP1 POP PUSH1 0x0 PUSH1 0x3 DUP3 PUSH2 0x69D SWAP2 SWAP1 PUSH2 0x27B9 JUMP JUMPDEST EQ PUSH2 0x6C9 JUMPI PUSH1 0x3 DUP2 PUSH2 0x6AF SWAP2 SWAP1 PUSH2 0x27B9 JUMP JUMPDEST PUSH1 0x3 PUSH2 0x6BB SWAP2 SWAP1 PUSH2 0x2842 JUMP JUMPDEST DUP2 PUSH2 0x6C6 SWAP2 SWAP1 PUSH2 0x2876 JUMP JUMPDEST SWAP1 POP JUMPDEST PUSH1 0x0 DUP6 SWAP1 POP PUSH1 0x0 DUP3 PUSH8 0xFFFFFFFFFFFFFFFF DUP2 GT ISZERO PUSH2 0x6EA JUMPI PUSH2 0x6E9 PUSH2 0x22B9 JUMP JUMPDEST JUMPDEST PUSH1 0x40 MLOAD SWAP1 DUP1 DUP3 MSTORE DUP1 PUSH1 0x1F ADD PUSH1 0x1F NOT AND PUSH1 0x20 ADD DUP3 ADD PUSH1 0x40 MSTORE DUP1 ISZERO PUSH2 0x71C JUMPI DUP2 PUSH1 0x20 ADD PUSH1 0x1 DUP3 MUL DUP1 CALLDATASIZE DUP4 CALLDATACOPY DUP1 DUP3 ADD SWAP2 POP POP SWAP1 POP JUMPDEST POP SWAP1 POP PUSH1 0x0 SWAP5 POP JUMPDEST DUP2 MLOAD DUP6 LT ISZERO PUSH2 0x79A JUMPI DUP2 DUP6 DUP2 MLOAD DUP2 LT PUSH2 0x740 JUMPI PUSH2 0x73F PUSH2 0x275B JUMP JUMPDEST JUMPDEST PUSH1 0x20 ADD ADD MLOAD PUSH1 0xF8 SHR PUSH1 0xF8 SHL DUP2 DUP7 DUP2 MLOAD DUP2 LT PUSH2 0x75E JUMPI PUSH2 0x75D PUSH2 0x275B JUMP JUMPDEST JUMPDEST PUSH1 0x20 ADD ADD SWAP1 PUSH31 0xFFFFFFFFFFFFFFFFFFFFFFFFFFFFFFFFFFFFFFFFFFFFFFFFFFFFFFFFFFFFFF NOT AND SWAP1 DUP2 PUSH1 0x0 BYTE SWAP1 MSTORE8 POP DUP5 DUP1 PUSH1 0x1 ADD SWAP6 POP POP PUSH2 0x724 JUMP JUMPDEST PUSH1 0x0 PUSH1 0x4 PUSH1 0x3 DUP6 PUSH2 0x7AB SWAP2 SWAP1 PUSH2 0x28AA JUMP JUMPDEST PUSH2 0x7B5 SWAP2 SWAP1 PUSH2 0x28DB JUMP JUMPDEST SWAP1 POP PUSH1 0x0 DUP2 PUSH8 0xFFFFFFFFFFFFFFFF DUP2 GT ISZERO PUSH2 0x7D3 JUMPI PUSH2 0x7D2 PUSH2 0x22B9 JUMP JUMPDEST JUMPDEST PUSH1 0x40 MLOAD SWAP1 DUP1 DUP3 MSTORE DUP1 PUSH1 0x1F ADD PUSH1 0x1F NOT AND PUSH1 0x20 ADD DUP3 ADD PUSH1 0x40 MSTORE DUP1 ISZERO PUSH2 0x805 JUMPI DUP2 PUSH1 0x20 ADD PUSH1 0x1 DUP3 MUL DUP1 CALLDATASIZE DUP4 CALLDATACOPY DUP1 DUP3 ADD SWAP2 POP POP SWAP1 POP JUMPDEST POP SWAP1 POP PUSH1 0x0 SWAP7 POP JUMPDEST DUP5 DUP8 LT ISZERO PUSH2 0xB77 JUMPI PUSH1 0x0 PUSH1 0x2 DUP5 DUP10 DUP2 MLOAD DUP2 LT PUSH2 0x82C JUMPI PUSH2 0x82B PUSH2 0x275B JUMP JUMPDEST JUMPDEST PUSH1 0x20 ADD ADD MLOAD PUSH1 0xF8 SHR PUSH1 0xF8 SHL PUSH1 0xF8 SHR PUSH1 0xFF AND SWAP1 SHR SWAP1 POP PUSH1 0x0 PUSH1 0x4 DUP6 PUSH1 0x1 DUP12 PUSH2 0x853 SWAP2 SWAP1 PUSH2 0x2876 JUMP JUMPDEST DUP2 MLOAD DUP2 LT PUSH2 0x864 JUMPI PUSH2 0x863 PUSH2 0x275B JUMP JUMPDEST JUMPDEST PUSH1 0x20 ADD ADD MLOAD PUSH1 0xF8 SHR PUSH1 0xF8 SHL PUSH1 0xF8 SHR PUSH1 0xFF AND SWAP1 SHR PUSH1 0x4 PUSH1 0x3 DUP8 DUP13 DUP2 MLOAD DUP2 LT PUSH2 0x88E JUMPI PUSH2 0x88D PUSH2 0x275B JUMP JUMPDEST JUMPDEST PUSH1 0x20 ADD ADD MLOAD PUSH1 0xF8 SHR PUSH1 0xF8 SHL PUSH1 0xF8 SHR PUSH1 0xFF AND AND SWAP1 SHL OR SWAP1 POP PUSH1 0x0 PUSH1 0x6 DUP7 PUSH1 0x2 DUP13 PUSH2 0x8B7 SWAP2 SWAP1 PUSH2 0x2876 JUMP JUMPDEST DUP2 MLOAD DUP2 LT PUSH2 0x8C8 JUMPI PUSH2 0x8C7 PUSH2 0x275B JUMP JUMPDEST JUMPDEST PUSH1 0x20 ADD ADD MLOAD PUSH1 0xF8 SHR PUSH1 0xF8 SHL PUSH1 0xF8 SHR PUSH1 0xFF AND SWAP1 SHR PUSH1 0x2 PUSH1 0xF DUP9 PUSH1 0x1 DUP15 PUSH2 0x8ED SWAP2 SWAP1 PUSH2 0x2876 JUMP JUMPDEST DUP2 MLOAD DUP2 LT PUSH2 0x8FE JUMPI PUSH2 0x8FD PUSH2 0x275B JUMP JUMPDEST JUMPDEST PUSH1 0x20 ADD ADD MLOAD PUSH1 0xF8 SHR PUSH1 0xF8 SHL PUSH1 0xF8 SHR PUSH1 0xFF AND AND SWAP1 SHL OR SWAP1 POP PUSH1 0x0 PUSH1 0x3F DUP8 PUSH1 0x2 DUP14 PUSH2 0x927 SWAP2 SWAP1 PUSH2 0x2876 JUMP JUMPDEST DUP2 MLOAD DUP2 LT PUSH2 0x938 JUMPI PUSH2 0x937 PUSH2 0x275B JUMP JUMPDEST JUMPDEST PUSH1 0x20 ADD ADD MLOAD PUSH1 0xF8 SHR PUSH1 0xF8 SHL PUSH1 0xF8 SHR PUSH1 0xFF AND AND SWAP1 POP PUSH1 0x40 MLOAD DUP1 PUSH1 0x60 ADD PUSH1 0x40 MSTORE DUP1 PUSH1 0x40 DUP2 MSTORE PUSH1 0x20 ADD PUSH2 0x2AAB PUSH1 0x40 SWAP2 CODECOPY DUP5 DUP2 MLOAD DUP2 LT PUSH2 0x977 JUMPI PUSH2 0x976 PUSH2 0x275B JUMP JUMPDEST JUMPDEST PUSH1 0x20 ADD ADD MLOAD PUSH1 0xF8 SHR PUSH1 0xF8 SHL DUP6 DUP12 DUP2 MLOAD DUP2 LT PUSH2 0x995 JUMPI PUSH2 0x994 PUSH2 0x275B JUMP JUMPDEST JUMPDEST PUSH1 0x20 ADD ADD SWAP1 PUSH31 0xFFFFFFFFFFFFFFFFFFFFFFFFFFFFFFFFFFFFFFFFFFFFFFFFFFFFFFFFFFFFFF NOT AND SWAP1 DUP2 PUSH1 0x0 BYTE SWAP1 MSTORE8 POP PUSH1 0x40 MLOAD DUP1 PUSH1 0x60 ADD PUSH1 0x40 MSTORE DUP1 PUSH1 0x40 DUP2 MSTORE PUSH1 0x20 ADD PUSH2 0x2AAB PUSH1 0x40 SWAP2 CODECOPY DUP4 DUP2 MLOAD DUP2 LT PUSH2 0x9EF JUMPI PUSH2 0x9EE PUSH2 0x275B JUMP JUMPDEST JUMPDEST PUSH1 0x20 ADD ADD MLOAD PUSH1 0xF8 SHR PUSH1 0xF8 SHL DUP6 PUSH1 0x1 DUP13 PUSH2 0xA08 SWAP2 SWAP1 PUSH2 0x2876 JUMP JUMPDEST DUP2 MLOAD DUP2 LT PUSH2 0xA19 JUMPI PUSH2 0xA18 PUSH2 0x275B JUMP JUMPDEST JUMPDEST PUSH1 0x20 ADD ADD SWAP1 PUSH31 0xFFFFFFFFFFFFFFFFFFFFFFFFFFFFFFFFFFFFFFFFFFFFFFFFFFFFFFFFFFFFFF NOT AND SWAP1 DUP2 PUSH1 0x0 BYTE SWAP1 MSTORE8 POP PUSH1 0x40 MLOAD DUP1 PUSH1 0x60 ADD PUSH1 0x40 MSTORE DUP1 PUSH1 0x40 DUP2 MSTORE PUSH1 0x20 ADD PUSH2 0x2AAB PUSH1 0x40 SWAP2 CODECOPY DUP3 DUP2 MLOAD DUP2 LT PUSH2 0xA73 JUMPI PUSH2 0xA72 PUSH2 0x275B JUMP JUMPDEST JUMPDEST PUSH1 0x20 ADD ADD MLOAD PUSH1 0xF8 SHR PUSH1 0xF8 SHL DUP6 PUSH1 0x2 DUP13 PUSH2 0xA8C SWAP2 SWAP1 PUSH2 0x2876 JUMP JUMPDEST DUP2 MLOAD DUP2 LT PUSH2 0xA9D JUMPI PUSH2 0xA9C PUSH2 0x275B JUMP JUMPDEST JUMPDEST PUSH1 0x20 ADD ADD SWAP1 PUSH31 0xFFFFFFFFFFFFFFFFFFFFFFFFFFFFFFFFFFFFFFFFFFFFFFFFFFFFFFFFFFFFFF NOT AND SWAP1 DUP2 PUSH1 0x0 BYTE SWAP1 MSTORE8 POP PUSH1 0x40 MLOAD DUP1 PUSH1 0x60 ADD PUSH1 0x40 MSTORE DUP1 PUSH1 0x40 DUP2 MSTORE PUSH1 0x20 ADD PUSH2 0x2AAB PUSH1 0x40 SWAP2 CODECOPY DUP2 DUP2 MLOAD DUP2 LT PUSH2 0xAF7 JUMPI PUSH2 0xAF6 PUSH2 0x275B JUMP JUMPDEST JUMPDEST PUSH1 0x20 ADD ADD MLOAD PUSH1 0xF8 SHR PUSH1 0xF8 SHL DUP6 PUSH1 0x3 DUP13 PUSH2 0xB10 SWAP2 SWAP1 PUSH2 0x2876 JUMP JUMPDEST DUP2 MLOAD DUP2 LT PUSH2 0xB21 JUMPI PUSH2 0xB20 PUSH2 0x275B JUMP JUMPDEST JUMPDEST PUSH1 0x20 ADD ADD SWAP1 PUSH31 0xFFFFFFFFFFFFFFFFFFFFFFFFFFFFFFFFFFFFFFFFFFFFFFFFFFFFFFFFFFFFFF NOT AND SWAP1 DUP2 PUSH1 0x0 BYTE SWAP1 MSTORE8 POP PUSH1 0x4 DUP11 PUSH2 0xB5D SWAP2 SWAP1 PUSH2 0x2876 JUMP JUMPDEST SWAP10 POP POP POP POP POP PUSH1 0x3 DUP8 PUSH2 0xB70 SWAP2 SWAP1 PUSH2 0x2876 JUMP JUMPDEST SWAP7 POP PUSH2 0x80D JUMP JUMPDEST DUP1 SWAP8 POP POP POP POP POP POP POP POP SWAP2 SWAP1 POP JUMP JUMPDEST PUSH1 0x0 PUSH1 0xA DUP3 PUSH1 0xFF AND LT ISZERO PUSH2 0xBAB JUMPI PUSH1 0x30 DUP3 PUSH2 0xBA1 SWAP2 SWAP1 PUSH2 0x291D JUMP JUMPDEST PUSH1 0xF8 SHL SWAP1 POP PUSH2 0xBBE JUMP JUMPDEST PUSH1 0x57 DUP3 PUSH2 0xBB8 SWAP2 SWAP1 PUSH2 0x291D JUMP JUMPDEST PUSH1 0xF8 SHL SWAP1 POP JUMPDEST SWAP2 SWAP1 POP JUMP JUMPDEST PUSH1 0x60 PUSH1 0x0 DUP1 PUSH1 0x40 PUSH8 0xFFFFFFFFFFFFFFFF DUP2 GT ISZERO PUSH2 0xBE3 JUMPI PUSH2 0xBE2 PUSH2 0x22B9 JUMP JUMPDEST JUMPDEST PUSH1 0x40 MLOAD SWAP1 DUP1 DUP3 MSTORE DUP1 PUSH1 0x1F ADD PUSH1 0x1F NOT AND PUSH1 0x20 ADD DUP3 ADD PUSH1 0x40 MSTORE DUP1 ISZERO PUSH2 0xC15 JUMPI DUP2 PUSH1 0x20 ADD PUSH1 0x1 DUP3 MUL DUP1 CALLDATASIZE DUP4 CALLDATACOPY DUP1 DUP3 ADD SWAP2 POP POP SWAP1 POP JUMPDEST POP SWAP1 POP PUSH1 0x0 SWAP2 POP JUMPDEST DUP1 MLOAD DUP3 PUSH1 0xFF AND LT ISZERO PUSH2 0xD6F JUMPI PUSH1 0x0 PUSH1 0xF PUSH1 0xF8 SHL DUP6 PUSH1 0x2 DUP6 PUSH2 0xC3E SWAP2 SWAP1 PUSH2 0x2952 JUMP JUMPDEST PUSH1 0xFF AND PUSH1 0x20 DUP2 LT PUSH2 0xC52 JUMPI PUSH2 0xC51 PUSH2 0x275B JUMP JUMPDEST JUMPDEST BYTE PUSH1 0xF8 SHL AND PUSH1 0xF8 SHR SWAP1 POP PUSH1 0x0 PUSH1 0x4 DUP7 PUSH1 0x2 DUP7 PUSH2 0xC6E SWAP2 SWAP1 PUSH2 0x2952 JUMP JUMPDEST PUSH1 0xFF AND PUSH1 0x20 DUP2 LT PUSH2 0xC82 JUMPI PUSH2 0xC81 PUSH2 0x275B JUMP JUMPDEST JUMPDEST BYTE PUSH1 0xF8 SHL PUSH31 0xFFFFFFFFFFFFFFFFFFFFFFFFFFFFFFFFFFFFFFFFFFFFFFFFFFFFFFFFFFFFFF NOT AND SWAP1 SHR PUSH1 0xF8 SHR SWAP1 POP PUSH2 0xCB8 DUP2 PUSH2 0xB86 JUMP JUMPDEST DUP4 DUP6 PUSH1 0xFF AND DUP2 MLOAD DUP2 LT PUSH2 0xCCE JUMPI PUSH2 0xCCD PUSH2 0x275B JUMP JUMPDEST JUMPDEST PUSH1 0x20 ADD ADD SWAP1 PUSH31 0xFFFFFFFFFFFFFFFFFFFFFFFFFFFFFFFFFFFFFFFFFFFFFFFFFFFFFFFFFFFFFF NOT AND SWAP1 DUP2 PUSH1 0x0 BYTE SWAP1 MSTORE8 POP PUSH1 0x1 DUP5 PUSH2 0xD0A SWAP2 SWAP1 PUSH2 0x291D JUMP JUMPDEST SWAP4 POP PUSH2 0xD15 DUP3 PUSH2 0xB86 JUMP JUMPDEST DUP4 DUP6 PUSH1 0xFF AND DUP2 MLOAD DUP2 LT PUSH2 0xD2B JUMPI PUSH2 0xD2A PUSH2 0x275B JUMP JUMPDEST JUMPDEST PUSH1 0x20 ADD ADD SWAP1 PUSH31 0xFFFFFFFFFFFFFFFFFFFFFFFFFFFFFFFFFFFFFFFFFFFFFFFFFFFFFFFFFFFFFF NOT AND SWAP1 DUP2 PUSH1 0x0 BYTE SWAP1 MSTORE8 POP POP POP DUP2 DUP1 PUSH2 0xD67 SWAP1 PUSH2 0x2819 JUMP JUMPDEST SWAP3 POP POP PUSH2 0xC1D JUMP JUMPDEST PUSH2 0xD97 DUP2 PUSH1 0x40 MLOAD PUSH1 0x20 ADD PUSH2 0xD83 SWAP2 SWAP1 PUSH2 0x2A0B JUMP JUMPDEST PUSH1 0x40 MLOAD PUSH1 0x20 DUP2 DUP4 SUB SUB DUP2 MSTORE SWAP1 PUSH1 0x40 MSTORE PUSH2 0x683 JUMP JUMPDEST SWAP3 POP POP POP SWAP2 SWAP1 POP JUMP JUMPDEST PUSH1 0x0 DUP1 PUSH1 0x0 SWAP1 POP JUMPDEST PUSH1 0x20 DUP2 PUSH1 0xFF AND LT DUP1 ISZERO PUSH2 0xDFA JUMPI POP PUSH1 0x0 PUSH1 0xF8 SHL DUP4 DUP3 PUSH1 0xFF AND PUSH1 0x20 DUP2 LT PUSH2 0xDD1 JUMPI PUSH2 0xDD0 PUSH2 0x275B JUMP JUMPDEST JUMPDEST BYTE PUSH1 0xF8 SHL PUSH31 0xFFFFFFFFFFFFFFFFFFFFFFFFFFFFFFFFFFFFFFFFFFFFFFFFFFFFFFFFFFFFFF NOT AND EQ ISZERO JUMPDEST ISZERO PUSH2 0xE12 JUMPI DUP1 DUP1 PUSH2 0xE0A SWAP1 PUSH2 0x2819 JUMP JUMPDEST SWAP2 POP POP PUSH2 0xDA8 JUMP JUMPDEST PUSH1 0x0 JUMPDEST DUP2 PUSH1 0xFF AND DUP2 PUSH1 0xFF AND GT PUSH2 0xFF0 JUMPI PUSH1 0x0 DUP5 DUP3 PUSH1 0xFF AND PUSH1 0x20 DUP2 LT PUSH2 0xE3A JUMPI PUSH2 0xE39 PUSH2 0x275B JUMP JUMPDEST JUMPDEST BYTE PUSH1 0xF8 SHL SWAP1 POP PUSH1 0x30 PUSH1 0xF8 SHL DUP2 PUSH31 0xFFFFFFFFFFFFFFFFFFFFFFFFFFFFFFFFFFFFFFFFFFFFFFFFFFFFFFFFFFFFFF NOT AND LT ISZERO DUP1 ISZERO PUSH2 0xE9C JUMPI POP PUSH1 0x39 PUSH1 0xF8 SHL DUP2 PUSH31 0xFFFFFFFFFFFFFFFFFFFFFFFFFFFFFFFFFFFFFFFFFFFFFFFFFFFFFFFFFFFFFF NOT AND GT ISZERO JUMPDEST ISZERO DUP1 ISZERO PUSH2 0xF02 JUMPI POP PUSH1 0x41 PUSH1 0xF8 SHL DUP2 PUSH31 0xFFFFFFFFFFFFFFFFFFFFFFFFFFFFFFFFFFFFFFFFFFFFFFFFFFFFFFFFFFFFFF NOT AND LT ISZERO DUP1 ISZERO PUSH2 0xF00 JUMPI POP PUSH1 0x5A PUSH1 0xF8 SHL DUP2 PUSH31 0xFFFFFFFFFFFFFFFFFFFFFFFFFFFFFFFFFFFFFFFFFFFFFFFFFFFFFFFFFFFFFF NOT AND GT ISZERO JUMPDEST ISZERO JUMPDEST DUP1 ISZERO PUSH2 0xF67 JUMPI POP PUSH1 0x61 PUSH1 0xF8 SHL DUP2 PUSH31 0xFFFFFFFFFFFFFFFFFFFFFFFFFFFFFFFFFFFFFFFFFFFFFFFFFFFFFFFFFFFFFF NOT AND LT ISZERO DUP1 ISZERO PUSH2 0xF65 JUMPI POP PUSH1 0x7A PUSH1 0xF8 SHL DUP2 PUSH31 0xFFFFFFFFFFFFFFFFFFFFFFFFFFFFFFFFFFFFFFFFFFFFFFFFFFFFFFFFFFFFFF NOT AND GT ISZERO JUMPDEST ISZERO JUMPDEST DUP1 ISZERO PUSH2 0xF99 JUMPI POP PUSH1 0x2E PUSH1 0xF8 SHL DUP2 PUSH31 0xFFFFFFFFFFFFFFFFFFFFFFFFFFFFFFFFFFFFFFFFFFFFFFFFFFFFFFFFFFFFFF NOT AND EQ ISZERO JUMPDEST DUP1 ISZERO PUSH2 0xFCB JUMPI POP PUSH1 0x0 PUSH1 0xF8 SHL DUP2 PUSH31 0xFFFFFFFFFFFFFFFFFFFFFFFFFFFFFFFFFFFFFFFFFFFFFFFFFFFFFFFFFFFFFF NOT AND EQ ISZERO JUMPDEST ISZERO PUSH2 0xFDC JUMPI PUSH1 0x0 SWAP4 POP POP POP POP PUSH2 0xFF6 JUMP JUMPDEST POP DUP1 DUP1 PUSH2 0xFE8 SWAP1 PUSH2 0x2819 JUMP JUMPDEST SWAP2 POP POP PUSH2 0xE15 JUMP JUMPDEST POP DUP1 SWAP2 POP POP JUMPDEST SWAP2 SWAP1 POP JUMP JUMPDEST PUSH1 0x0 DUP3 PUSH1 0x0 EQ DUP1 PUSH2 0x102B JUMPI POP PUSH32 0xFFFFFFFF00000001000000000000000000000000FFFFFFFFFFFFFFFFFFFFFFFF DUP4 EQ JUMPDEST DUP1 PUSH2 0x1036 JUMPI POP DUP2 PUSH1 0x0 EQ JUMPDEST DUP1 PUSH2 0x1060 JUMPI POP PUSH32 0xFFFFFFFF00000001000000000000000000000000FFFFFFFFFFFFFFFFFFFFFFFF DUP3 EQ JUMPDEST ISZERO PUSH2 0x106E JUMPI PUSH1 0x0 SWAP1 POP PUSH2 0x123E JUMP JUMPDEST PUSH1 0x0 PUSH32 0xFFFFFFFF00000001000000000000000000000000FFFFFFFFFFFFFFFFFFFFFFFF DUP1 PUSH2 0x109F JUMPI PUSH2 0x109E PUSH2 0x278A JUMP JUMPDEST JUMPDEST DUP4 DUP5 MULMOD SWAP1 POP PUSH1 0x0 PUSH32 0xFFFFFFFF00000001000000000000000000000000FFFFFFFFFFFFFFFFFFFFFFFF DUP1 PUSH2 0x10D5 JUMPI PUSH2 0x10D4 PUSH2 0x278A JUMP JUMPDEST JUMPDEST DUP6 PUSH32 0xFFFFFFFF00000001000000000000000000000000FFFFFFFFFFFFFFFFFFFFFFFF DUP1 PUSH2 0x1105 JUMPI PUSH2 0x1104 PUSH2 0x278A JUMP JUMPDEST JUMPDEST DUP8 DUP9 MULMOD MULMOD SWAP1 POP PUSH1 0x0 PUSH32 0xFFFFFFFF00000001000000000000000000000000FFFFFFFFFFFFFFFFFFFFFFFC EQ PUSH2 0x11B9 JUMPI PUSH32 0xFFFFFFFF00000001000000000000000000000000FFFFFFFFFFFFFFFFFFFFFFFF DUP1 PUSH2 0x1162 JUMPI PUSH2 0x1161 PUSH2 0x278A JUMP JUMPDEST JUMPDEST PUSH32 0xFFFFFFFF00000001000000000000000000000000FFFFFFFFFFFFFFFFFFFFFFFF DUP1 PUSH2 0x1191 JUMPI PUSH2 0x1190 PUSH2 0x278A JUMP JUMPDEST JUMPDEST PUSH32 0xFFFFFFFF00000001000000000000000000000000FFFFFFFFFFFFFFFFFFFFFFFC DUP8 MULMOD DUP3 ADDMOD SWAP1 POP JUMPDEST PUSH1 0x0 PUSH32 0x5AC635D8AA3A93E7B3EBBD55769886BC651D06B0CC53B0F63BCE3C3E27D2604B EQ PUSH2 0x1236 JUMPI PUSH32 0xFFFFFFFF00000001000000000000000000000000FFFFFFFFFFFFFFFFFFFFFFFF DUP1 PUSH2 0x1210 JUMPI PUSH2 0x120F PUSH2 0x278A JUMP JUMPDEST JUMPDEST PUSH32 0x5AC635D8AA3A93E7B3EBBD55769886BC651D06B0CC53B0F63BCE3C3E27D2604B DUP3 ADDMOD SWAP1 POP JUMPDEST DUP1 DUP3 EQ SWAP3 POP POP POP JUMPDEST SWAP3 SWAP2 POP POP JUMP JUMPDEST PUSH1 0x0 DUP1 DUP4 EQ ISZERO DUP1 ISZERO PUSH2 0x1256 JUMPI POP DUP2 DUP4 EQ ISZERO JUMPDEST DUP1 ISZERO PUSH2 0x1263 JUMPI POP PUSH1 0x0 DUP3 EQ ISZERO JUMPDEST PUSH2 0x12A2 JUMPI PUSH1 0x40 MLOAD PUSH32 0x8C379A000000000000000000000000000000000000000000000000000000000 DUP2 MSTORE PUSH1 0x4 ADD PUSH2 0x1299 SWAP1 PUSH2 0x2A8A JUMP JUMPDEST PUSH1 0x40 MLOAD DUP1 SWAP2 SUB SWAP1 REVERT JUMPDEST PUSH1 0x0 DUP1 PUSH1 0x1 SWAP1 POP PUSH1 0x0 DUP5 SWAP1 POP PUSH1 0x0 JUMPDEST PUSH1 0x0 DUP8 EQ PUSH2 0x1323 JUMPI DUP7 DUP3 PUSH2 0x12C5 SWAP2 SWAP1 PUSH2 0x28AA JUMP JUMPDEST SWAP1 POP DUP3 DUP7 DUP1 PUSH2 0x12D7 JUMPI PUSH2 0x12D6 PUSH2 0x278A JUMP JUMPDEST JUMPDEST DUP8 DUP1 PUSH2 0x12E6 JUMPI PUSH2 0x12E5 PUSH2 0x278A JUMP JUMPDEST JUMPDEST DUP6 DUP5 MULMOD DUP9 PUSH2 0x12F4 SWAP2 SWAP1 PUSH2 0x2842 JUMP JUMPDEST DUP7 ADDMOD DUP1 SWAP5 POP DUP2 SWAP6 POP POP POP DUP7 DUP8 DUP3 PUSH2 0x130B SWAP2 SWAP1 PUSH2 0x28DB JUMP JUMPDEST DUP4 PUSH2 0x1316 SWAP2 SWAP1 PUSH2 0x2842 JUMP JUMPDEST DUP1 SWAP9 POP DUP2 SWAP4 POP POP POP PUSH2 0x12B1 JUMP JUMPDEST DUP4 SWAP5 POP POP POP POP POP SWAP3 SWAP2 POP POP JUMP JUMPDEST PUSH1 0x0 DUP1 PUSH1 0x0 DUP4 SUB PUSH2 0x134C JUMPI PUSH2 0x1343 PUSH2 0x1466 JUMP JUMPDEST SWAP2 POP SWAP2 POP PUSH2 0x1429 JUMP JUMPDEST PUSH1 0x1 DUP4 SUB PUSH2 0x135F JUMPI DUP5 DUP5 SWAP2 POP SWAP2 POP PUSH2 0x1429 JUMP JUMPDEST PUSH1 0x2 DUP4 SUB PUSH2 0x137A JUMPI PUSH2 0x1371 DUP6 DUP6 PUSH2 0x1474 JUMP JUMPDEST SWAP2 POP SWAP2 POP PUSH2 0x1429 JUMP JUMPDEST PUSH1 0x0 DUP6 SWAP1 POP PUSH1 0x0 DUP6 SWAP1 POP PUSH1 0x0 PUSH1 0x1 SWAP1 POP PUSH1 0x0 PUSH1 0x1 SWAP1 POP DUP9 SWAP6 POP DUP8 SWAP5 POP PUSH1 0x0 PUSH1 0x2 DUP9 PUSH2 0x13A5 SWAP2 SWAP1 PUSH2 0x27B9 JUMP JUMPDEST SUB PUSH2 0x13B2 JUMPI PUSH1 0x0 SWAP5 POP DUP5 SWAP6 POP JUMPDEST PUSH1 0x1 DUP8 SWAP1 SHR SWAP7 POP JUMPDEST PUSH1 0x0 DUP8 GT ISZERO PUSH2 0x1415 JUMPI PUSH2 0x13CE DUP5 DUP5 DUP5 PUSH2 0x14A8 JUMP JUMPDEST DUP1 SWAP5 POP DUP2 SWAP6 POP DUP3 SWAP7 POP POP POP POP PUSH1 0x1 PUSH1 0x2 DUP9 PUSH2 0x13E9 SWAP2 SWAP1 PUSH2 0x27B9 JUMP JUMPDEST SUB PUSH2 0x1409 JUMPI PUSH2 0x13FC DUP5 DUP5 DUP5 DUP10 DUP10 DUP7 PUSH2 0x1A05 JUMP JUMPDEST DUP1 SWAP4 POP DUP2 SWAP8 POP DUP3 SWAP9 POP POP POP POP JUMPDEST PUSH1 0x1 DUP8 SWAP1 SHR SWAP7 POP PUSH2 0x13BA JUMP JUMPDEST PUSH2 0x1420 DUP7 DUP7 DUP4 PUSH2 0x1BBC JUMP JUMPDEST SWAP6 POP SWAP6 POP POP POP POP POP JUMPDEST SWAP4 POP SWAP4 SWAP2 POP POP JUMP JUMPDEST PUSH2 0x1439 PUSH2 0x2237 JUMP JUMPDEST PUSH1 0x0 DUP1 PUSH2 0x1448 DUP8 DUP8 DUP8 DUP8 PUSH2 0x1C5E JUMP JUMPDEST DUP1 SWAP3 POP DUP2 SWAP4 POP POP POP PUSH2 0x145A DUP3 DUP3 PUSH2 0x1C98 JUMP JUMPDEST SWAP3 POP POP POP SWAP5 SWAP4 POP POP POP POP JUMP JUMPDEST PUSH1 0x0 DUP1 PUSH1 0x0 DUP1 SWAP2 POP SWAP2 POP SWAP1 SWAP2 JUMP JUMPDEST PUSH1 0x0 DUP1 PUSH1 0x0 PUSH2 0x1485 DUP6 DUP6 PUSH1 0x1 PUSH2 0x14A8 JUMP JUMPDEST DUP1 SWAP4 POP DUP2 SWAP7 POP DUP3 SWAP8 POP POP POP POP PUSH2 0x149C DUP6 DUP6 DUP4 PUSH2 0x1BBC JUMP JUMPDEST SWAP3 POP SWAP3 POP POP SWAP3 POP SWAP3 SWAP1 POP JUMP JUMPDEST PUSH1 0x0 DUP1 PUSH1 0x0 DUP1 PUSH1 0x0 DUP1 PUSH1 0x0 PUSH2 0x14BD DUP11 DUP11 PUSH2 0x1DC5 JUMP JUMPDEST ISZERO PUSH2 0x14D9 JUMPI PUSH2 0x14CA PUSH2 0x1DEF JUMP JUMPDEST SWAP7 POP SWAP7 POP SWAP7 POP POP POP POP POP PUSH2 0x19FC JUMP JUMPDEST PUSH32 0xFFFFFFFF00000001000000000000000000000000FFFFFFFFFFFFFFFFFFFFFFFF DUP1 PUSH2 0x1508 JUMPI PUSH2 0x1507 PUSH2 0x278A JUMP JUMPDEST JUMPDEST DUP9 DUP11 MULMOD SWAP3 POP PUSH32 0xFFFFFFFF00000001000000000000000000000000FFFFFFFFFFFFFFFFFFFFFFFF DUP1 PUSH2 0x153C JUMPI PUSH2 0x153B PUSH2 0x278A JUMP JUMPDEST JUMPDEST PUSH1 0x2 DUP5 MULMOD SWAP3 POP PUSH32 0xFFFFFFFF00000001000000000000000000000000FFFFFFFFFFFFFFFFFFFFFFFF DUP1 PUSH2 0x1571 JUMPI PUSH2 0x1570 PUSH2 0x278A JUMP JUMPDEST JUMPDEST DUP11 DUP5 MULMOD SWAP2 POP PUSH32 0xFFFFFFFF00000001000000000000000000000000FFFFFFFFFFFFFFFFFFFFFFFF DUP1 PUSH2 0x15A5 JUMPI PUSH2 0x15A4 PUSH2 0x278A JUMP JUMPDEST JUMPDEST DUP10 DUP4 MULMOD SWAP2 POP PUSH32 0xFFFFFFFF00000001000000000000000000000000FFFFFFFFFFFFFFFFFFFFFFFF DUP1 PUSH2 0x15D9 JUMPI PUSH2 0x15D8 PUSH2 0x278A JUMP JUMPDEST JUMPDEST PUSH1 0x2 DUP4 MULMOD SWAP2 POP PUSH32 0xFFFFFFFF00000001000000000000000000000000FFFFFFFFFFFFFFFFFFFFFFFF DUP1 PUSH2 0x160E JUMPI PUSH2 0x160D PUSH2 0x278A JUMP JUMPDEST JUMPDEST DUP11 DUP12 MULMOD SWAP10 POP PUSH32 0xFFFFFFFF00000001000000000000000000000000FFFFFFFFFFFFFFFFFFFFFFFF DUP1 PUSH2 0x1642 JUMPI PUSH2 0x1641 PUSH2 0x278A JUMP JUMPDEST JUMPDEST PUSH1 0x3 DUP12 MULMOD SWAP4 POP PUSH32 0xFFFFFFFF00000001000000000000000000000000FFFFFFFFFFFFFFFFFFFFFFFF DUP1 PUSH2 0x1677 JUMPI PUSH2 0x1676 PUSH2 0x278A JUMP JUMPDEST JUMPDEST DUP9 DUP10 MULMOD SWAP8 POP PUSH32 0xFFFFFFFF00000001000000000000000000000000FFFFFFFFFFFFFFFFFFFFFFFF DUP1 PUSH2 0x16AB JUMPI PUSH2 0x16AA PUSH2 0x278A JUMP JUMPDEST JUMPDEST PUSH32 0xFFFFFFFF00000001000000000000000000000000FFFFFFFFFFFFFFFFFFFFFFFC DUP10 MULMOD SWAP8 POP PUSH32 0xFFFFFFFF00000001000000000000000000000000FFFFFFFFFFFFFFFFFFFFFFFF DUP1 PUSH2 0x16FF JUMPI PUSH2 0x16FE PUSH2 0x278A JUMP JUMPDEST JUMPDEST DUP9 DUP6 ADDMOD SWAP4 POP PUSH32 0xFFFFFFFF00000001000000000000000000000000FFFFFFFFFFFFFFFFFFFFFFFF DUP1 PUSH2 0x1733 JUMPI PUSH2 0x1732 PUSH2 0x278A JUMP JUMPDEST JUMPDEST DUP5 DUP6 MULMOD SWAP1 POP PUSH32 0xFFFFFFFF00000001000000000000000000000000FFFFFFFFFFFFFFFFFFFFFFFF DUP1 PUSH2 0x1767 JUMPI PUSH2 0x1766 PUSH2 0x278A JUMP JUMPDEST JUMPDEST DUP3 PUSH1 0x2 MULMOD SWAP10 POP PUSH32 0xFFFFFFFF00000001000000000000000000000000FFFFFFFFFFFFFFFFFFFFFFFF DUP1 PUSH2 0x179C JUMPI PUSH2 0x179B PUSH2 0x278A JUMP JUMPDEST JUMPDEST DUP11 PUSH32 0xFFFFFFFF00000001000000000000000000000000FFFFFFFFFFFFFFFFFFFFFFFF PUSH2 0x17C8 SWAP2 SWAP1 PUSH2 0x2842 JUMP JUMPDEST DUP3 ADDMOD SWAP1 POP PUSH32 0xFFFFFFFF00000001000000000000000000000000FFFFFFFFFFFFFFFFFFFFFFFF DUP1 PUSH2 0x17FB JUMPI PUSH2 0x17FA PUSH2 0x278A JUMP JUMPDEST JUMPDEST DUP2 PUSH32 0xFFFFFFFF00000001000000000000000000000000FFFFFFFFFFFFFFFFFFFFFFFF PUSH2 0x1827 SWAP2 SWAP1 PUSH2 0x2842 JUMP JUMPDEST DUP4 ADDMOD SWAP10 POP PUSH32 0xFFFFFFFF00000001000000000000000000000000FFFFFFFFFFFFFFFFFFFFFFFF DUP1 PUSH2 0x185A JUMPI PUSH2 0x1859 PUSH2 0x278A JUMP JUMPDEST JUMPDEST DUP11 DUP6 MULMOD SWAP10 POP PUSH32 0xFFFFFFFF00000001000000000000000000000000FFFFFFFFFFFFFFFFFFFFFFFF DUP1 PUSH2 0x188E JUMPI PUSH2 0x188D PUSH2 0x278A JUMP JUMPDEST JUMPDEST DUP4 DUP11 MULMOD SWAP9 POP PUSH32 0xFFFFFFFF00000001000000000000000000000000FFFFFFFFFFFFFFFFFFFFFFFF DUP1 PUSH2 0x18C2 JUMPI PUSH2 0x18C1 PUSH2 0x278A JUMP JUMPDEST JUMPDEST DUP10 DUP11 MULMOD SWAP9 POP PUSH32 0xFFFFFFFF00000001000000000000000000000000FFFFFFFFFFFFFFFFFFFFFFFF DUP1 PUSH2 0x18F6 JUMPI PUSH2 0x18F5 PUSH2 0x278A JUMP JUMPDEST JUMPDEST DUP10 PUSH1 0x2 MULMOD SWAP9 POP PUSH32 0xFFFFFFFF00000001000000000000000000000000FFFFFFFFFFFFFFFFFFFFFFFF DUP1 PUSH2 0x192B JUMPI PUSH2 0x192A PUSH2 0x278A JUMP JUMPDEST JUMPDEST DUP10 PUSH32 0xFFFFFFFF00000001000000000000000000000000FFFFFFFFFFFFFFFFFFFFFFFF PUSH2 0x1957 SWAP2 SWAP1 PUSH2 0x2842 JUMP JUMPDEST DUP12 ADDMOD SWAP6 POP PUSH32 0xFFFFFFFF00000001000000000000000000000000FFFFFFFFFFFFFFFFFFFFFFFF DUP1 PUSH2 0x198A JUMPI PUSH2 0x1989 PUSH2 0x278A JUMP JUMPDEST JUMPDEST DUP2 DUP5 MULMOD SWAP7 POP PUSH32 0xFFFFFFFF00000001000000000000000000000000FFFFFFFFFFFFFFFFFFFFFFFF DUP1 PUSH2 0x19BE JUMPI PUSH2 0x19BD PUSH2 0x278A JUMP JUMPDEST JUMPDEST DUP4 DUP5 MULMOD SWAP5 POP PUSH32 0xFFFFFFFF00000001000000000000000000000000FFFFFFFFFFFFFFFFFFFFFFFF DUP1 PUSH2 0x19F2 JUMPI PUSH2 0x19F1 PUSH2 0x278A JUMP JUMPDEST JUMPDEST DUP4 DUP7 MULMOD SWAP5 POP POP POP POP POP JUMPDEST SWAP4 POP SWAP4 POP SWAP4 SWAP1 POP JUMP JUMPDEST PUSH1 0x0 DUP1 PUSH1 0x0 DUP1 PUSH1 0x0 DUP1 PUSH1 0x0 PUSH2 0x1A1A DUP14 DUP14 PUSH2 0x1DC5 JUMP JUMPDEST ISZERO PUSH2 0x1A31 JUMPI DUP10 DUP10 DUP10 SWAP7 POP SWAP7 POP SWAP7 POP POP POP POP POP PUSH2 0x1BB0 JUMP JUMPDEST PUSH2 0x1A3B DUP11 DUP11 PUSH2 0x1DC5 JUMP JUMPDEST ISZERO PUSH2 0x1A52 JUMPI DUP13 DUP13 DUP13 SWAP7 POP SWAP7 POP SWAP7 POP POP POP POP POP PUSH2 0x1BB0 JUMP JUMPDEST PUSH32 0xFFFFFFFF00000001000000000000000000000000FFFFFFFFFFFFFFFFFFFFFFFF DUP1 PUSH2 0x1A81 JUMPI PUSH2 0x1A80 PUSH2 0x278A JUMP JUMPDEST JUMPDEST DUP9 DUP14 MULMOD SWAP4 POP PUSH32 0xFFFFFFFF00000001000000000000000000000000FFFFFFFFFFFFFFFFFFFFFFFF DUP1 PUSH2 0x1AB5 JUMPI PUSH2 0x1AB4 PUSH2 0x278A JUMP JUMPDEST JUMPDEST DUP12 DUP11 MULMOD SWAP3 POP PUSH32 0xFFFFFFFF00000001000000000000000000000000FFFFFFFFFFFFFFFFFFFFFFFF DUP1 PUSH2 0x1AE9 JUMPI PUSH2 0x1AE8 PUSH2 0x278A JUMP JUMPDEST JUMPDEST DUP9 DUP15 MULMOD SWAP2 POP PUSH32 0xFFFFFFFF00000001000000000000000000000000FFFFFFFFFFFFFFFFFFFFFFFF DUP1 PUSH2 0x1B1D JUMPI PUSH2 0x1B1C PUSH2 0x278A JUMP JUMPDEST JUMPDEST DUP12 DUP12 MULMOD SWAP1 POP DUP1 DUP3 SUB PUSH2 0x1B61 JUMPI DUP3 DUP5 SUB PUSH2 0x1B4A JUMPI PUSH2 0x1B3B DUP14 DUP14 DUP14 PUSH2 0x14A8 JUMP JUMPDEST SWAP7 POP SWAP7 POP SWAP7 POP POP POP POP POP PUSH2 0x1BB0 JUMP JUMPDEST PUSH2 0x1B52 PUSH2 0x1DEF JUMP JUMPDEST SWAP7 POP SWAP7 POP SWAP7 POP POP POP POP POP PUSH2 0x1BB0 JUMP JUMPDEST PUSH2 0x1B9F PUSH32 0xFFFFFFFF00000001000000000000000000000000FFFFFFFFFFFFFFFFFFFFFFFF DUP1 PUSH2 0x1B93 JUMPI PUSH2 0x1B92 PUSH2 0x278A JUMP JUMPDEST JUMPDEST DUP10 DUP14 MULMOD DUP4 DUP4 DUP7 DUP9 PUSH2 0x1E04 JUMP JUMPDEST DUP1 SWAP8 POP DUP2 SWAP9 POP DUP3 SWAP10 POP POP POP POP POP POP POP POP JUMPDEST SWAP7 POP SWAP7 POP SWAP7 SWAP4 POP POP POP POP JUMP JUMPDEST PUSH1 0x0 DUP1 PUSH1 0x0 PUSH2 0x1BEB DUP5 PUSH32 0xFFFFFFFF00000001000000000000000000000000FFFFFFFFFFFFFFFFFFFFFFFF PUSH2 0x1244 JUMP JUMPDEST SWAP1 POP PUSH32 0xFFFFFFFF00000001000000000000000000000000FFFFFFFFFFFFFFFFFFFFFFFF DUP1 PUSH2 0x1C1C JUMPI PUSH2 0x1C1B PUSH2 0x278A JUMP JUMPDEST JUMPDEST DUP2 DUP8 MULMOD SWAP3 POP PUSH32 0xFFFFFFFF00000001000000000000000000000000FFFFFFFFFFFFFFFFFFFFFFFF DUP1 PUSH2 0x1C50 JUMPI PUSH2 0x1C4F PUSH2 0x278A JUMP JUMPDEST JUMPDEST DUP2 DUP7 MULMOD SWAP2 POP POP SWAP4 POP SWAP4 SWAP2 POP POP JUMP JUMPDEST PUSH1 0x0 DUP1 PUSH1 0x0 PUSH2 0x1C73 DUP8 DUP8 PUSH1 0x1 DUP9 DUP9 PUSH1 0x1 PUSH2 0x1A05 JUMP JUMPDEST DUP1 SWAP4 POP DUP2 SWAP9 POP DUP3 SWAP10 POP POP POP POP PUSH2 0x1C8A DUP8 DUP8 DUP4 PUSH2 0x1BBC JUMP JUMPDEST SWAP3 POP SWAP3 POP POP SWAP5 POP SWAP5 SWAP3 POP POP POP JUMP JUMPDEST PUSH2 0x1CA0 PUSH2 0x2237 JUMP JUMPDEST PUSH32 0xFFFFFFFF00000001000000000000000000000000FFFFFFFFFFFFFFFFFFFFFFFF DUP1 PUSH2 0x1CCF JUMPI PUSH2 0x1CCE PUSH2 0x278A JUMP JUMPDEST JUMPDEST PUSH1 0x1 PUSH1 0x0 ADDMOD DUP2 PUSH1 0x2 PUSH1 0x3 DUP2 LT PUSH2 0x1CE8 JUMPI PUSH2 0x1CE7 PUSH2 0x275B JUMP JUMPDEST JUMPDEST PUSH1 0x20 MUL ADD DUP2 DUP2 MSTORE POP POP PUSH32 0xFFFFFFFF00000001000000000000000000000000FFFFFFFFFFFFFFFFFFFFFFFF DUP1 PUSH2 0x1D20 JUMPI PUSH2 0x1D1F PUSH2 0x278A JUMP JUMPDEST JUMPDEST DUP2 PUSH1 0x2 PUSH1 0x3 DUP2 LT PUSH2 0x1D34 JUMPI PUSH2 0x1D33 PUSH2 0x275B JUMP JUMPDEST JUMPDEST PUSH1 0x20 MUL ADD MLOAD DUP5 MULMOD DUP2 PUSH1 0x0 PUSH1 0x3 DUP2 LT PUSH2 0x1D4F JUMPI PUSH2 0x1D4E PUSH2 0x275B JUMP JUMPDEST JUMPDEST PUSH1 0x20 MUL ADD DUP2 DUP2 MSTORE POP POP PUSH32 0xFFFFFFFF00000001000000000000000000000000FFFFFFFFFFFFFFFFFFFFFFFF DUP1 PUSH2 0x1D87 JUMPI PUSH2 0x1D86 PUSH2 0x278A JUMP JUMPDEST JUMPDEST DUP2 PUSH1 0x2 PUSH1 0x3 DUP2 LT PUSH2 0x1D9B JUMPI PUSH2 0x1D9A PUSH2 0x275B JUMP JUMPDEST JUMPDEST PUSH1 0x20 MUL ADD MLOAD DUP4 MULMOD DUP2 PUSH1 0x1 PUSH1 0x3 DUP2 LT PUSH2 0x1DB6 JUMPI PUSH2 0x1DB5 PUSH2 0x275B JUMP JUMPDEST JUMPDEST PUSH1 0x20 MUL ADD DUP2 DUP2 MSTORE POP POP SWAP3 SWAP2 POP POP JUMP JUMPDEST PUSH1 0x0 DUP1 DUP4 EQ DUP1 ISZERO PUSH2 0x1DD6 JUMPI POP PUSH1 0x0 DUP3 EQ JUMPDEST ISZERO PUSH2 0x1DE4 JUMPI PUSH1 0x1 SWAP1 POP PUSH2 0x1DE9 JUMP JUMPDEST PUSH1 0x0 SWAP1 POP JUMPDEST SWAP3 SWAP2 POP POP JUMP JUMPDEST PUSH1 0x0 DUP1 PUSH1 0x0 DUP1 PUSH1 0x1 PUSH1 0x0 SWAP3 POP SWAP3 POP SWAP3 POP SWAP1 SWAP2 SWAP3 JUMP JUMPDEST PUSH1 0x0 DUP1 PUSH1 0x0 DUP1 PUSH1 0x0 DUP1 PUSH1 0x0 DUP1 PUSH32 0xFFFFFFFF00000001000000000000000000000000FFFFFFFFFFFFFFFFFFFFFFFF DUP1 PUSH2 0x1E3F JUMPI PUSH2 0x1E3E PUSH2 0x278A JUMP JUMPDEST JUMPDEST DUP11 PUSH32 0xFFFFFFFF00000001000000000000000000000000FFFFFFFFFFFFFFFFFFFFFFFF PUSH2 0x1E6B SWAP2 SWAP1 PUSH2 0x2842 JUMP JUMPDEST DUP11 ADDMOD SWAP1 POP PUSH32 0xFFFFFFFF00000001000000000000000000000000FFFFFFFFFFFFFFFFFFFFFFFF DUP1 PUSH2 0x1E9E JUMPI PUSH2 0x1E9D PUSH2 0x278A JUMP JUMPDEST JUMPDEST DUP12 PUSH32 0xFFFFFFFF00000001000000000000000000000000FFFFFFFFFFFFFFFFFFFFFFFF PUSH2 0x1ECA SWAP2 SWAP1 PUSH2 0x2842 JUMP JUMPDEST DUP14 ADDMOD SWAP5 POP PUSH32 0xFFFFFFFF00000001000000000000000000000000FFFFFFFFFFFFFFFFFFFFFFFF DUP1 PUSH2 0x1EFD JUMPI PUSH2 0x1EFC PUSH2 0x278A JUMP JUMPDEST JUMPDEST DUP6 DUP7 MULMOD SWAP4 POP PUSH32 0xFFFFFFFF00000001000000000000000000000000FFFFFFFFFFFFFFFFFFFFFFFF DUP1 PUSH2 0x1F31 JUMPI PUSH2 0x1F30 PUSH2 0x278A JUMP JUMPDEST JUMPDEST DUP2 DUP3 MULMOD SWAP2 POP PUSH32 0xFFFFFFFF00000001000000000000000000000000FFFFFFFFFFFFFFFFFFFFFFFF DUP1 PUSH2 0x1F65 JUMPI PUSH2 0x1F64 PUSH2 0x278A JUMP JUMPDEST JUMPDEST DUP14 DUP4 MULMOD SWAP2 POP PUSH32 0xFFFFFFFF00000001000000000000000000000000FFFFFFFFFFFFFFFFFFFFFFFF DUP1 PUSH2 0x1F99 JUMPI PUSH2 0x1F98 PUSH2 0x278A JUMP JUMPDEST JUMPDEST DUP13 DUP13 ADDMOD SWAP11 POP PUSH32 0xFFFFFFFF00000001000000000000000000000000FFFFFFFFFFFFFFFFFFFFFFFF DUP1 PUSH2 0x1FCD JUMPI PUSH2 0x1FCC PUSH2 0x278A JUMP JUMPDEST JUMPDEST DUP5 DUP13 MULMOD SWAP11 POP PUSH32 0xFFFFFFFF00000001000000000000000000000000FFFFFFFFFFFFFFFFFFFFFFFF DUP1 PUSH2 0x2001 JUMPI PUSH2 0x2000 PUSH2 0x278A JUMP JUMPDEST JUMPDEST DUP12 PUSH32 0xFFFFFFFF00000001000000000000000000000000FFFFFFFFFFFFFFFFFFFFFFFF PUSH2 0x202D SWAP2 SWAP1 PUSH2 0x2842 JUMP JUMPDEST DUP4 ADDMOD SWAP2 POP PUSH32 0xFFFFFFFF00000001000000000000000000000000FFFFFFFFFFFFFFFFFFFFFFFF DUP1 PUSH2 0x2060 JUMPI PUSH2 0x205F PUSH2 0x278A JUMP JUMPDEST JUMPDEST DUP3 DUP7 MULMOD SWAP8 POP PUSH32 0xFFFFFFFF00000001000000000000000000000000FFFFFFFFFFFFFFFFFFFFFFFF DUP1 PUSH2 0x2094 JUMPI PUSH2 0x2093 PUSH2 0x278A JUMP JUMPDEST JUMPDEST DUP6 DUP6 MULMOD SWAP3 POP PUSH32 0xFFFFFFFF00000001000000000000000000000000FFFFFFFFFFFFFFFFFFFFFFFF DUP1 PUSH2 0x20C8 JUMPI PUSH2 0x20C7 PUSH2 0x278A JUMP JUMPDEST JUMPDEST DUP5 DUP14 MULMOD SWAP12 POP PUSH32 0xFFFFFFFF00000001000000000000000000000000FFFFFFFFFFFFFFFFFFFFFFFF DUP1 PUSH2 0x20FC JUMPI PUSH2 0x20FB PUSH2 0x278A JUMP JUMPDEST JUMPDEST DUP3 PUSH32 0xFFFFFFFF00000001000000000000000000000000FFFFFFFFFFFFFFFFFFFFFFFF PUSH2 0x2128 SWAP2 SWAP1 PUSH2 0x2842 JUMP JUMPDEST DUP14 ADDMOD SWAP12 POP PUSH32 0xFFFFFFFF00000001000000000000000000000000FFFFFFFFFFFFFFFFFFFFFFFF DUP1 PUSH2 0x215B JUMPI PUSH2 0x215A PUSH2 0x278A JUMP JUMPDEST JUMPDEST DUP13 DUP3 MULMOD SWAP1 POP PUSH32 0xFFFFFFFF00000001000000000000000000000000FFFFFFFFFFFFFFFFFFFFFFFF DUP1 PUSH2 0x218F JUMPI PUSH2 0x218E PUSH2 0x278A JUMP JUMPDEST JUMPDEST DUP4 DUP11 MULMOD SWAP9 POP PUSH32 0xFFFFFFFF00000001000000000000000000000000FFFFFFFFFFFFFFFFFFFFFFFF DUP1 PUSH2 0x21C3 JUMPI PUSH2 0x21C2 PUSH2 0x278A JUMP JUMPDEST JUMPDEST DUP10 PUSH32 0xFFFFFFFF00000001000000000000000000000000FFFFFFFFFFFFFFFFFFFFFFFF PUSH2 0x21EF SWAP2 SWAP1 PUSH2 0x2842 JUMP JUMPDEST DUP3 ADDMOD SWAP7 POP PUSH32 0xFFFFFFFF00000001000000000000000000000000FFFFFFFFFFFFFFFFFFFFFFFF DUP1 PUSH2 0x2222 JUMPI PUSH2 0x2221 PUSH2 0x278A JUMP JUMPDEST JUMPDEST DUP14 DUP5 MULMOD SWAP6 POP POP POP POP POP POP SWAP6 POP SWAP6 POP SWAP6 SWAP3 POP POP POP JUMP JUMPDEST PUSH1 0x40 MLOAD DUP1 PUSH1 0x60 ADD PUSH1 0x40 MSTORE DUP1 PUSH1 0x3 SWAP1 PUSH1 0x20 DUP3 MUL DUP1 CALLDATASIZE DUP4 CALLDATACOPY DUP1 DUP3 ADD SWAP2 POP POP SWAP1 POP POP SWAP1 JUMP JUMPDEST PUSH1 0x0 PUSH1 0x40 MLOAD SWAP1 POP SWAP1 JUMP JUMPDEST PUSH1 0x0 DUP1 REVERT JUMPDEST PUSH1 0x0 DUP1 REVERT JUMPDEST PUSH1 0x0 DUP2 SWAP1 POP SWAP2 SWAP1 POP JUMP JUMPDEST PUSH2 0x2280 DUP2 PUSH2 0x226D JUMP JUMPDEST DUP2 EQ PUSH2 0x228B JUMPI PUSH1 0x0 DUP1 REVERT JUMPDEST POP JUMP JUMPDEST PUSH1 0x0 DUP2 CALLDATALOAD SWAP1 POP PUSH2 0x229D DUP2 PUSH2 0x2277 JUMP JUMPDEST SWAP3 SWAP2 POP POP JUMP JUMPDEST PUSH1 0x0 DUP1 REVERT JUMPDEST PUSH1 0x0 PUSH1 0x1F NOT PUSH1 0x1F DUP4 ADD AND SWAP1 POP SWAP2 SWAP1 POP JUMP JUMPDEST PUSH32 0x4E487B7100000000000000000000000000000000000000000000000000000000 PUSH1 0x0 MSTORE PUSH1 0x41 PUSH1 0x4 MSTORE PUSH1 0x24 PUSH1 0x0 REVERT JUMPDEST PUSH2 0x22F1 DUP3 PUSH2 0x22A8 JUMP JUMPDEST DUP2 ADD DUP2 DUP2 LT PUSH8 0xFFFFFFFFFFFFFFFF DUP3 GT OR ISZERO PUSH2 0x2310 JUMPI PUSH2 0x230F PUSH2 0x22B9 JUMP JUMPDEST JUMPDEST DUP1 PUSH1 0x40 MSTORE POP POP POP JUMP JUMPDEST PUSH1 0x0 PUSH2 0x2323 PUSH2 0x2259 JUMP JUMPDEST SWAP1 POP PUSH2 0x232F DUP3 DUP3 PUSH2 0x22E8 JUMP JUMPDEST SWAP2 SWAP1 POP JUMP JUMPDEST PUSH1 0x0 PUSH8 0xFFFFFFFFFFFFFFFF DUP3 GT ISZERO PUSH2 0x234F JUMPI PUSH2 0x234E PUSH2 0x22B9 JUMP JUMPDEST JUMPDEST PUSH1 0x20 DUP3 MUL SWAP1 POP SWAP2 SWAP1 POP JUMP JUMPDEST PUSH1 0x0 DUP1 REVERT JUMPDEST PUSH1 0x0 PUSH2 0x2372 PUSH2 0x236D DUP5 PUSH2 0x2334 JUMP JUMPDEST PUSH2 0x2319 JUMP JUMPDEST SWAP1 POP DUP1 PUSH1 0x20 DUP5 MUL DUP4 ADD DUP6 DUP2 GT ISZERO PUSH2 0x238C JUMPI PUSH2 0x238B PUSH2 0x235A JUMP JUMPDEST JUMPDEST DUP4 JUMPDEST DUP2 DUP2 LT ISZERO PUSH2 0x23B5 JUMPI DUP1 PUSH2 0x23A1 DUP9 DUP3 PUSH2 0x228E JUMP JUMPDEST DUP5 MSTORE PUSH1 0x20 DUP5 ADD SWAP4 POP POP PUSH1 0x20 DUP2 ADD SWAP1 POP PUSH2 0x238E JUMP JUMPDEST POP POP POP SWAP4 SWAP3 POP POP POP JUMP JUMPDEST PUSH1 0x0 DUP3 PUSH1 0x1F DUP4 ADD SLT PUSH2 0x23D4 JUMPI PUSH2 0x23D3 PUSH2 0x22A3 JUMP JUMPDEST JUMPDEST PUSH1 0x2 PUSH2 0x23E1 DUP5 DUP3 DUP6 PUSH2 0x235F JUMP JUMPDEST SWAP2 POP POP SWAP3 SWAP2 POP POP JUMP JUMPDEST PUSH1 0x0 DUP1 PUSH1 0x0 PUSH1 0xA0 DUP5 DUP7 SUB SLT ISZERO PUSH2 0x2403 JUMPI PUSH2 0x2402 PUSH2 0x2263 JUMP JUMPDEST JUMPDEST PUSH1 0x0 PUSH2 0x2411 DUP7 DUP3 DUP8 ADD PUSH2 0x228E JUMP JUMPDEST SWAP4 POP POP PUSH1 0x20 PUSH2 0x2422 DUP7 DUP3 DUP8 ADD PUSH2 0x23BF JUMP JUMPDEST SWAP3 POP POP PUSH1 0x60 PUSH2 0x2433 DUP7 DUP3 DUP8 ADD PUSH2 0x23BF JUMP JUMPDEST SWAP2 POP POP SWAP3 POP SWAP3 POP SWAP3 JUMP JUMPDEST PUSH1 0x0 DUP2 ISZERO ISZERO SWAP1 POP SWAP2 SWAP1 POP JUMP JUMPDEST PUSH2 0x2452 DUP2 PUSH2 0x243D JUMP JUMPDEST DUP3 MSTORE POP POP JUMP JUMPDEST PUSH1 0x0 PUSH1 0x20 DUP3 ADD SWAP1 POP PUSH2 0x246D PUSH1 0x0 DUP4 ADD DUP5 PUSH2 0x2449 JUMP JUMPDEST SWAP3 SWAP2 POP POP JUMP JUMPDEST PUSH1 0x0 DUP2 SWAP1 POP SWAP2 SWAP1 POP JUMP JUMPDEST PUSH2 0x2486 DUP2 PUSH2 0x2473 JUMP JUMPDEST DUP2 EQ PUSH2 0x2491 JUMPI PUSH1 0x0 DUP1 REVERT JUMPDEST POP JUMP JUMPDEST PUSH1 0x0 DUP2 CALLDATALOAD SWAP1 POP PUSH2 0x24A3 DUP2 PUSH2 0x247D JUMP JUMPDEST SWAP3 SWAP2 POP POP JUMP JUMPDEST PUSH1 0x0 PUSH1 0x20 DUP3 DUP5 SUB SLT ISZERO PUSH2 0x24BF JUMPI PUSH2 0x24BE PUSH2 0x2263 JUMP JUMPDEST JUMPDEST PUSH1 0x0 PUSH2 0x24CD DUP5 DUP3 DUP6 ADD PUSH2 0x2494 JUMP JUMPDEST SWAP2 POP POP SWAP3 SWAP2 POP POP JUMP JUMPDEST PUSH1 0x0 DUP2 MLOAD SWAP1 POP SWAP2 SWAP1 POP JUMP JUMPDEST PUSH1 0x0 DUP3 DUP3 MSTORE PUSH1 0x20 DUP3 ADD SWAP1 POP SWAP3 SWAP2 POP POP JUMP JUMPDEST PUSH1 0x0 JUMPDEST DUP4 DUP2 LT ISZERO PUSH2 0x2510 JUMPI DUP1 DUP3 ADD MLOAD DUP2 DUP5 ADD MSTORE PUSH1 0x20 DUP2 ADD SWAP1 POP PUSH2 0x24F5 JUMP JUMPDEST PUSH1 0x0 DUP5 DUP5 ADD MSTORE POP POP POP POP JUMP JUMPDEST PUSH1 0x0 PUSH2 0x2527 DUP3 PUSH2 0x24D6 JUMP JUMPDEST PUSH2 0x2531 DUP2 DUP6 PUSH2 0x24E1 JUMP JUMPDEST SWAP4 POP PUSH2 0x2541 DUP2 DUP6 PUSH1 0x20 DUP7 ADD PUSH2 0x24F2 JUMP JUMPDEST PUSH2 0x254A DUP2 PUSH2 0x22A8 JUMP JUMPDEST DUP5 ADD SWAP2 POP POP SWAP3 SWAP2 POP POP JUMP JUMPDEST PUSH1 0x0 PUSH1 0x20 DUP3 ADD SWAP1 POP DUP2 DUP2 SUB PUSH1 0x0 DUP4 ADD MSTORE PUSH2 0x256F DUP2 DUP5 PUSH2 0x251C JUMP JUMPDEST SWAP1 POP SWAP3 SWAP2 POP POP JUMP JUMPDEST PUSH1 0x0 DUP1 REVERT JUMPDEST PUSH1 0x0 PUSH8 0xFFFFFFFFFFFFFFFF DUP3 GT ISZERO PUSH2 0x2597 JUMPI PUSH2 0x2596 PUSH2 0x22B9 JUMP JUMPDEST JUMPDEST PUSH2 0x25A0 DUP3 PUSH2 0x22A8 JUMP JUMPDEST SWAP1 POP PUSH1 0x20 DUP2 ADD SWAP1 POP SWAP2 SWAP1 POP JUMP JUMPDEST DUP3 DUP2 DUP4 CALLDATACOPY PUSH1 0x0 DUP4 DUP4 ADD MSTORE POP POP POP JUMP JUMPDEST PUSH1 0x0 PUSH2 0x25CF PUSH2 0x25CA DUP5 PUSH2 0x257C JUMP JUMPDEST PUSH2 0x2319 JUMP JUMPDEST SWAP1 POP DUP3 DUP2 MSTORE PUSH1 0x20 DUP2 ADD DUP5 DUP5 DUP5 ADD GT ISZERO PUSH2 0x25EB JUMPI PUSH2 0x25EA PUSH2 0x2577 JUMP JUMPDEST JUMPDEST PUSH2 0x25F6 DUP5 DUP3 DUP6 PUSH2 0x25AD JUMP JUMPDEST POP SWAP4 SWAP3 POP POP POP JUMP JUMPDEST PUSH1 0x0 DUP3 PUSH1 0x1F DUP4 ADD SLT PUSH2 0x2613 JUMPI PUSH2 0x2612 PUSH2 0x22A3 JUMP JUMPDEST JUMPDEST DUP2 CALLDATALOAD PUSH2 0x2623 DUP5 DUP3 PUSH1 0x20 DUP7 ADD PUSH2 0x25BC JUMP JUMPDEST SWAP2 POP POP SWAP3 SWAP2 POP POP JUMP JUMPDEST PUSH1 0x0 PUSH1 0x20 DUP3 DUP5 SUB SLT ISZERO PUSH2 0x2642 JUMPI PUSH2 0x2641 PUSH2 0x2263 JUMP JUMPDEST JUMPDEST PUSH1 0x0 DUP3 ADD CALLDATALOAD PUSH8 0xFFFFFFFFFFFFFFFF DUP2 GT ISZERO PUSH2 0x2660 JUMPI PUSH2 0x265F PUSH2 0x2268 JUMP JUMPDEST JUMPDEST PUSH2 0x266C DUP5 DUP3 DUP6 ADD PUSH2 0x25FE JUMP JUMPDEST SWAP2 POP POP SWAP3 SWAP2 POP POP JUMP JUMPDEST PUSH1 0x0 PUSH1 0xFF DUP3 AND SWAP1 POP SWAP2 SWAP1 POP JUMP JUMPDEST PUSH2 0x268B DUP2 PUSH2 0x2675 JUMP JUMPDEST DUP2 EQ PUSH2 0x2696 JUMPI PUSH1 0x0 DUP1 REVERT JUMPDEST POP JUMP JUMPDEST PUSH1 0x0 DUP2 CALLDATALOAD SWAP1 POP PUSH2 0x26A8 DUP2 PUSH2 0x2682 JUMP JUMPDEST SWAP3 SWAP2 POP POP JUMP JUMPDEST PUSH1 0x0 PUSH1 0x20 DUP3 DUP5 SUB SLT ISZERO PUSH2 0x26C4 JUMPI PUSH2 0x26C3 PUSH2 0x2263 JUMP JUMPDEST JUMPDEST PUSH1 0x0 PUSH2 0x26D2 DUP5 DUP3 DUP6 ADD PUSH2 0x2699 JUMP JUMPDEST SWAP2 POP POP SWAP3 SWAP2 POP POP JUMP JUMPDEST PUSH1 0x0 PUSH32 0xFF00000000000000000000000000000000000000000000000000000000000000 DUP3 AND SWAP1 POP SWAP2 SWAP1 POP JUMP JUMPDEST PUSH2 0x2710 DUP2 PUSH2 0x26DB JUMP JUMPDEST DUP3 MSTORE POP POP JUMP JUMPDEST PUSH1 0x0 PUSH1 0x20 DUP3 ADD SWAP1 POP PUSH2 0x272B PUSH1 0x0 DUP4 ADD DUP5 PUSH2 0x2707 JUMP JUMPDEST SWAP3 SWAP2 POP POP JUMP JUMPDEST PUSH2 0x273A DUP2 PUSH2 0x2675 JUMP JUMPDEST DUP3 MSTORE POP POP JUMP JUMPDEST PUSH1 0x0 PUSH1 0x20 DUP3 ADD SWAP1 POP PUSH2 0x2755 PUSH1 0x0 DUP4 ADD DUP5 PUSH2 0x2731 JUMP JUMPDEST SWAP3 SWAP2 POP POP JUMP JUMPDEST PUSH32 0x4E487B7100000000000000000000000000000000000000000000000000000000 PUSH1 0x0 MSTORE PUSH1 0x32 PUSH1 0x4 MSTORE PUSH1 0x24 PUSH1 0x0 REVERT JUMPDEST PUSH32 0x4E487B7100000000000000000000000000000000000000000000000000000000 PUSH1 0x0 MSTORE PUSH1 0x12 PUSH1 0x4 MSTORE PUSH1 0x24 PUSH1 0x0 REVERT JUMPDEST PUSH1 0x0 PUSH2 0x27C4 DUP3 PUSH2 0x226D JUMP JUMPDEST SWAP2 POP PUSH2 0x27CF DUP4 PUSH2 0x226D JUMP JUMPDEST SWAP3 POP DUP3 PUSH2 0x27DF JUMPI PUSH2 0x27DE PUSH2 0x278A JUMP JUMPDEST JUMPDEST DUP3 DUP3 MOD SWAP1 POP SWAP3 SWAP2 POP POP JUMP JUMPDEST PUSH32 0x4E487B7100000000000000000000000000000000000000000000000000000000 PUSH1 0x0 MSTORE PUSH1 0x11 PUSH1 0x4 MSTORE PUSH1 0x24 PUSH1 0x0 REVERT JUMPDEST PUSH1 0x0 PUSH2 0x2824 DUP3 PUSH2 0x2675 JUMP JUMPDEST SWAP2 POP PUSH1 0xFF DUP3 SUB PUSH2 0x2837 JUMPI PUSH2 0x2836 PUSH2 0x27EA JUMP JUMPDEST JUMPDEST PUSH1 0x1 DUP3 ADD SWAP1 POP SWAP2 SWAP1 POP JUMP JUMPDEST PUSH1 0x0 PUSH2 0x284D DUP3 PUSH2 0x226D JUMP JUMPDEST SWAP2 POP PUSH2 0x2858 DUP4 PUSH2 0x226D JUMP JUMPDEST SWAP3 POP DUP3 DUP3 SUB SWAP1 POP DUP2 DUP2 GT ISZERO PUSH2 0x2870 JUMPI PUSH2 0x286F PUSH2 0x27EA JUMP JUMPDEST JUMPDEST SWAP3 SWAP2 POP POP JUMP JUMPDEST PUSH1 0x0 PUSH2 0x2881 DUP3 PUSH2 0x226D JUMP JUMPDEST SWAP2 POP PUSH2 0x288C DUP4 PUSH2 0x226D JUMP JUMPDEST SWAP3 POP DUP3 DUP3 ADD SWAP1 POP DUP1 DUP3 GT ISZERO PUSH2 0x28A4 JUMPI PUSH2 0x28A3 PUSH2 0x27EA JUMP JUMPDEST JUMPDEST SWAP3 SWAP2 POP POP JUMP JUMPDEST PUSH1 0x0 PUSH2 0x28B5 DUP3 PUSH2 0x226D JUMP JUMPDEST SWAP2 POP PUSH2 0x28C0 DUP4 PUSH2 0x226D JUMP JUMPDEST SWAP3 POP DUP3 PUSH2 0x28D0 JUMPI PUSH2 0x28CF PUSH2 0x278A JUMP JUMPDEST JUMPDEST DUP3 DUP3 DIV SWAP1 POP SWAP3 SWAP2 POP POP JUMP JUMPDEST PUSH1 0x0 PUSH2 0x28E6 DUP3 PUSH2 0x226D JUMP JUMPDEST SWAP2 POP PUSH2 0x28F1 DUP4 PUSH2 0x226D JUMP JUMPDEST SWAP3 POP DUP3 DUP3 MUL PUSH2 0x28FF DUP2 PUSH2 0x226D JUMP JUMPDEST SWAP2 POP DUP3 DUP3 DIV DUP5 EQ DUP4 ISZERO OR PUSH2 0x2916 JUMPI PUSH2 0x2915 PUSH2 0x27EA JUMP JUMPDEST JUMPDEST POP SWAP3 SWAP2 POP POP JUMP JUMPDEST PUSH1 0x0 PUSH2 0x2928 DUP3 PUSH2 0x2675 JUMP JUMPDEST SWAP2 POP PUSH2 0x2933 DUP4 PUSH2 0x2675 JUMP JUMPDEST SWAP3 POP DUP3 DUP3 ADD SWAP1 POP PUSH1 0xFF DUP2 GT ISZERO PUSH2 0x294C JUMPI PUSH2 0x294B PUSH2 0x27EA JUMP JUMPDEST JUMPDEST SWAP3 SWAP2 POP POP JUMP JUMPDEST PUSH1 0x0 PUSH2 0x295D DUP3 PUSH2 0x2675 JUMP JUMPDEST SWAP2 POP PUSH2 0x2968 DUP4 PUSH2 0x2675 JUMP JUMPDEST SWAP3 POP DUP3 PUSH2 0x2978 JUMPI PUSH2 0x2977 PUSH2 0x278A JUMP JUMPDEST JUMPDEST DUP3 DUP3 DIV SWAP1 POP SWAP3 SWAP2 POP POP JUMP JUMPDEST PUSH1 0x0 DUP2 SWAP1 POP SWAP3 SWAP2 POP POP JUMP JUMPDEST PUSH32 0x3078000000000000000000000000000000000000000000000000000000000000 PUSH1 0x0 DUP3 ADD MSTORE POP JUMP JUMPDEST PUSH1 0x0 PUSH2 0x29C4 PUSH1 0x2 DUP4 PUSH2 0x2983 JUMP JUMPDEST SWAP2 POP PUSH2 0x29CF DUP3 PUSH2 0x298E JUMP JUMPDEST PUSH1 0x2 DUP3 ADD SWAP1 POP SWAP2 SWAP1 POP JUMP JUMPDEST PUSH1 0x0 PUSH2 0x29E5 DUP3 PUSH2 0x24D6 JUMP JUMPDEST PUSH2 0x29EF DUP2 DUP6 PUSH2 0x2983 JUMP JUMPDEST SWAP4 POP PUSH2 0x29FF DUP2 DUP6 PUSH1 0x20 DUP7 ADD PUSH2 0x24F2 JUMP JUMPDEST DUP1 DUP5 ADD SWAP2 POP POP SWAP3 SWAP2 POP POP JUMP JUMPDEST PUSH1 0x0 PUSH2 0x2A16 DUP3 PUSH2 0x29B7 JUMP JUMPDEST SWAP2 POP PUSH2 0x2A22 DUP3 DUP5 PUSH2 0x29DA JUMP JUMPDEST SWAP2 POP DUP2 SWAP1 POP SWAP3 SWAP2 POP POP JUMP JUMPDEST PUSH1 0x0 DUP3 DUP3 MSTORE PUSH1 0x20 DUP3 ADD SWAP1 POP SWAP3 SWAP2 POP POP JUMP JUMPDEST PUSH32 0x496E76616C6964206E756D626572000000000000000000000000000000000000 PUSH1 0x0 DUP3 ADD MSTORE POP JUMP JUMPDEST PUSH1 0x0 PUSH2 0x2A74 PUSH1 0xE DUP4 PUSH2 0x2A2D JUMP JUMPDEST SWAP2 POP PUSH2 0x2A7F DUP3 PUSH2 0x2A3E JUMP JUMPDEST PUSH1 0x20 DUP3 ADD SWAP1 POP SWAP2 SWAP1 POP JUMP JUMPDEST PUSH1 0x0 PUSH1 0x20 DUP3 ADD SWAP1 POP DUP2 DUP2 SUB PUSH1 0x0 DUP4 ADD MSTORE PUSH2 0x2AA3 DUP2 PUSH2 0x2A67 JUMP JUMPDEST SWAP1 POP SWAP2 SWAP1 POP JUMP INVALID COINBASE TIMESTAMP NUMBER PREVRANDAO GASLIMIT CHAINID SELFBALANCE BASEFEE BLOBHASH BLOBBASEFEE 0x4B 0x4C 0x4D 0x4E 0x4F POP MLOAD MSTORE MSTORE8 SLOAD SSTORE JUMP JUMPI PC MSIZE GAS PUSH2 0x6263 PUSH5 0x6566676869 PUSH11 0x6B6C6D6E6F707172737475 PUSH23 0x7778797A303132333435363738392D5FA2646970667358 0x22 SLT KECCAK256 SAR LT 0xDF 0x24 0x23 PUSH26 0xBDB1BAF1DF78D34D27FAE1C81A8B3FF87159C6172413B38A55E7 PUSH5 0x736F6C6343 STOP ADDMOD SHR STOP CALLER "},"methodIdentifiers":{"base64encode(string)":"90ad731f","bytes32ToBase64String(bytes32)":"bfcacd4a","cleanString(bytes32)":"33ce83e1","toByte(uint8)":"a86b73f0","validChars(bytes32)":"d3705aa1","validateSignature(uint256,uint256[2],uint256[2])":"0461ac11"}},"storageLayout":{"storage":[],"types":null}}}}