{"contracts/CarmelSigner.sol":{"CarmelSigner":{"abi":[{"inputs":[],"stateMutability":"nonpayable","type":"constructor"},{"inputs":[],"name":"InvalidInitialization","type":"error"},{"inputs":[],"name":"NotInitializing","type":"error"},{"anonymous":false,"inputs":[{"indexed":false,"internalType":"uint64","name":"version","type":"uint64"}],"name":"Initialized","type":"event"},{"inputs":[{"internalType":"bytes32","name":"message","type":"bytes32"},{"internalType":"uint256","name":"r","type":"uint256"},{"internalType":"uint256","name":"s","type":"uint256"},{"internalType":"uint256","name":"qx","type":"uint256"},{"internalType":"uint256","name":"qy","type":"uint256"}],"name":"check_signature","outputs":[{"internalType":"bool","name":"","type":"bool"}],"stateMutability":"view","type":"function"},{"inputs":[],"name":"initialize","outputs":[],"stateMutability":"nonpayable","type":"function"},{"inputs":[{"internalType":"bytes","name":"authenticatorData","type":"bytes"},{"internalType":"string","name":"origin","type":"string"},{"internalType":"string","name":"challenge","type":"string"},{"internalType":"uint256[2]","name":"rs","type":"uint256[2]"},{"internalType":"uint256[2]","name":"q","type":"uint256[2]"}],"name":"verify","outputs":[{"internalType":"bool","name":"","type":"bool"}],"stateMutability":"view","type":"function"}],"evm":{"bytecode":{"linkReferences":{},"object":"608060405234801561001057600080fd5b5061001f61002460201b60201c565b61018e565b600061003461012860201b60201c565b90508060000160089054906101000a900460ff161561007f576040517ff92ee8a900000000000000000000000000000000000000000000000000000000815260040160405180910390fd5b67ffffffffffffffff80168160000160009054906101000a900467ffffffffffffffff1667ffffffffffffffff16146101255767ffffffffffffffff8160000160006101000a81548167ffffffffffffffff021916908367ffffffffffffffff1602179055507fc7f505b2f371ae2175ee4913f4499e1f2633a7b5936321eed1cdaeb6115181d267ffffffffffffffff60405161011c9190610173565b60405180910390a15b50565b60007ff0c57e16840df040f15088dc2f81fe391c3923bec73e23a9662efc9c229c6a00905090565b600067ffffffffffffffff82169050919050565b61016d81610150565b82525050565b60006020820190506101886000830184610164565b92915050565b6117e08061019d6000396000f3fe608060405234801561001057600080fd5b50600436106100415760003560e01c80638129fc1c14610046578063d7ed656d14610050578063f2fbdc0614610080575b600080fd5b61004e6100b0565b005b61006a60048036038101906100659190611279565b610235565b6040516100779190611363565b60405180910390f35b61009a600480360381019061009591906113b4565b610394565b6040516100a79190611363565b60405180910390f35b60006100ba610625565b905060008160000160089054906101000a900460ff1615905060008260000160009054906101000a900467ffffffffffffffff1690506000808267ffffffffffffffff161480156101085750825b9050600060018367ffffffffffffffff1614801561013d575060003073ffffffffffffffffffffffffffffffffffffffff163b145b90508115801561014b575080155b15610182576040517ff92ee8a900000000000000000000000000000000000000000000000000000000815260040160405180910390fd5b60018560000160006101000a81548167ffffffffffffffff021916908367ffffffffffffffff16021790555083156101d25760018560000160086101000a81548160ff0219169083151502179055505b831561022e5760008560000160086101000a81548160ff0219169083151502179055507fc7f505b2f371ae2175ee4913f4499e1f2633a7b5936321eed1cdaeb6115181d260016040516102259190611488565b60405180910390a15b5050505050565b6000806002876002878960405160200161025092919061161e565b60405160208183030381529060405260405161026c91906116aa565b602060405180830381855afa158015610289573d6000803e3d6000fd5b5050506040513d601f19601f820116820180604052508101906102ac91906116d6565b6040516020016102bd929190611724565b6040516020818303038152906040526040516102d991906116aa565b602060405180830381855afa1580156102f6573d6000803e3d6000fd5b5050506040513d601f19601f8201168201806040525081019061031991906116d6565b905061038881856000600281106103335761033261174c565b5b60200201518660016002811061034c5761034b61174c565b5b6020020151866000600281106103655761036461174c565b5b60200201518760016002811061037e5761037d61174c565b5b6020020151610394565b91505095945050505050565b6000808514806103c457507fffffffff00000000ffffffffffffffffbce6faada7179e84f3b9cac2fc6325518510155b806103cf5750600084145b806103fa57507fffffffff00000000ffffffffffffffffbce6faada7179e84f3b9cac2fc6325518410155b15610408576000905061061c565b600015156104797fffffffff00000001000000000000000000000000ffffffffffffffffffffffff7fffffffff00000001000000000000000000000000fffffffffffffffffffffffc7f5ac635d8aa3a93e7b3ebbd55769886bc651d06b0cc53b0f63bce3c3e27d2604b878761064d565b151503610489576000905061061c565b600061049485610706565b905060007fffffffff00000000ffffffffffffffffbce6faada7179e84f3b9cac2fc632551806104c7576104c661177b565b5b828960001c09905060007fffffffff00000000ffffffffffffffffbce6faada7179e84f3b9cac2fc63255180610500576104ff61177b565b5b838909905060006040518060c001604052808881526020018781526020017fffffffff00000001000000000000000000000000ffffffffffffffffffffffff81526020017fffffffff00000001000000000000000000000000fffffffffffffffffffffffc81526020017f6b17d1f2e12c4247f8bce6e563a440f277037d812deb33a0f4a13945d898c29681526020017f4fe342e2fe1a7f9b8ee7eb4a7c0f9e162bce33576b315ececbb6406837bf51f5815250905060006105c3828585610794565b50809150507fffffffff00000000ffffffffffffffffbce6faada7179e84f3b9cac2fc6325518a7fffffffff00000000ffffffffffffffffbce6faada7179e84f3b9cac2fc632551038208905060008114955050505050505b95945050505050565b60007ff0c57e16840df040f15088dc2f81fe391c3923bec73e23a9662efc9c229c6a00905090565b6000808314801561065e5750600082145b806106695750858310155b806106745750858210155b1561068257600090506106fd565b600086806106935761069261177b565b5b8384099050600087806106a9576106a861177b565b5b88806106b8576106b761177b565b5b88870989806106ca576106c961177b565b5b878b806106da576106d961177b565b5b898a090908905087806106f0576106ef61177b565b5b8682089050808214925050505b95945050505050565b600060405160208152602080820152602060408201528260608201527f1000000000000000000000000000000014def9dea2f79cd65812631a5cf5d3eb60808201527fffffffff00000000ffffffffffffffffbce6faada7179e84f3b9cac2fc63255160a082015260208160c0836005600019fa61078a576107fe60405260206040fd5b8051915050919050565b60008060007f800000000000000000000000000000000000000000000000000000000000000090506000851480156107cc5750600084145b156107de576000809250925050610f8a565b6000806108006040510160405260408801516108206040510152610820604051015161091c565b8281830152816020019150838183015281602001915084818301528160200191508581830152816020019150505050505050565b6000806000808886600209898182098a8188098b82840992508b8c8d8c8d098f098d8e8b8c096003090895508b8b840993508b8a830994508b8c8260028f03098d8889090896508b8c828e038908870991508b828d8b8609089550858c0395505050509650965096509692505050565b600080600080858b0395508a868c8a8d090899508a858c038c898c090898508a898a0993508a89850992508a84880991508a83890990508a84860996508a8b8860028e03098c858e038e8e8f09080893508a8a8c868e038a080994508a8b84880986089250975097509750979350505050565b61093660018060a08c015160808d01516080604051610805565b61095160608a01518260018060a08e015160808f0151610839565b955093509550955061096b83838789610100604051610805565b6109828160a08b015160808c015186868a8c6108a9565b955093509550955061099c83838789610180604051610805565b6109b760018060208c015160008d0151610200604051610805565b6080890151955060a089015194506109dd8160208b015160008c01516001808a8c6108a9565b95509350955095506109f783838789610280604051610805565b610a0e8160a08b015160808c015186868a8c6108a9565b9550935095509550610a2883838789610300604051610805565b610a3f8160a08b015160808c015186868a8c6108a9565b9550935095509550610a5983838789610380604051610805565b6000890151955060208901519450610a7a60608a015182600180898b610839565b9550935095509550610a9483838789610400604051610805565b610aab8160a08b015160808c015186868a8c6108a9565b9550935095509550610ac583838789610480604051610805565b610adc8160a08b015160808c015186868a8c6108a9565b9550935095509550610af683838789610500604051610805565b610b0d8160a08b015160808c015186868a8c6108a9565b9550935095509550610b2783838789610580604051610805565b61040060405101519550610420604051015194506104406040510151915061046060405101519250610b668160208b015160008c015186868a8c6108a9565b9550935095509550610b8083838789610600604051610805565b610b978160a08b015160808c015186868a8c6108a9565b9550935095509550610bb183838789610680604051610805565b610bc88160a08b015160808c015186868a8c6108a9565b9550935095509550610be283838789610700604051610805565b610bf98160a08b015160808c015186868a8c6108a9565b9550935095509550610c1383838789610780604051610805565b50600091505b81610c59578286161560010360031b8360011c87161560010360021b018388161560010360011b8460011c891615600103010191508260021c9250610c19565b8160071b604051015194508160071b602001604051015193508160071b604001604051015190508160071b606001604051015191506040516108208101515b6000851115610f1e5780866002098181820982818a09838284099250838487880960608f015109848186878e8f09600309089050848885099750848784099650600285039a508485838d0986838409089a5084858387038d08820992508483868c870908995089850399505050505080866002098181820982818a09838284099250838487880960608f015109848186878e8f09600309089050848885099750848784099650600285039a508485838d0986838409089a5084858387038d08820992508483868c8709089950505050508488161560010360031b8560011c89161560010360021b01858a161560010360011b8660011c8b1615600103010180610da657868203965050610f13565b8060071b9050808301518160600184015161086085015284610de7578098508160200184015197508160400184015194508160600184015195505050610f13565b82836108608601518a0984888560200188015109086108408501528160400184015191508283838b0984038487840908610840850151610ea15780610ea05783896002860309925083838409905083818b09610840860152838184099250838487880960608f0151099150838285868d8e09600309089150838784099650838682099550838461084087015160028703098584850908995083848b8603610840880151088309905083848a850982089850505050610f13565b5b83818209915083818309905083838584890909955083838b0992508361086086015185838a09099650838485846002880309850985838703876108408a01516108408b01510908089950838284099150838482866108608901518d090985610840880151878e89038708090898505050505b8460021c9450610c98565b61088060405260405184606082015260208152602080820152602060408201526002820360808201528160a082015260208160c0836005600019fa610f69576107ff60405260206040fd5b81815188099650818151850993508184850993508184890997505050505050505b935093915050565b6000604051905090565b600080fd5b600080fd5b600080fd5b600080fd5b6000601f19601f8301169050919050565b7f4e487b7100000000000000000000000000000000000000000000000000000000600052604160045260246000fd5b610ff982610fb0565b810181811067ffffffffffffffff8211171561101857611017610fc1565b5b80604052505050565b600061102b610f92565b90506110378282610ff0565b919050565b600067ffffffffffffffff82111561105757611056610fc1565b5b61106082610fb0565b9050602081019050919050565b82818337600083830152505050565b600061108f61108a8461103c565b611021565b9050828152602081018484840111156110ab576110aa610fab565b5b6110b684828561106d565b509392505050565b600082601f8301126110d3576110d2610fa6565b5b81356110e384826020860161107c565b91505092915050565b600067ffffffffffffffff82111561110757611106610fc1565b5b61111082610fb0565b9050602081019050919050565b600061113061112b846110ec565b611021565b90508281526020810184848401111561114c5761114b610fab565b5b61115784828561106d565b509392505050565b600082601f83011261117457611173610fa6565b5b813561118484826020860161111d565b91505092915050565b600067ffffffffffffffff8211156111a8576111a7610fc1565b5b602082029050919050565b600080fd5b6000819050919050565b6111cb816111b8565b81146111d657600080fd5b50565b6000813590506111e8816111c2565b92915050565b60006112016111fc8461118d565b611021565b9050806020840283018581111561121b5761121a6111b3565b5b835b81811015611244578061123088826111d9565b84526020840193505060208101905061121d565b5050509392505050565b600082601f83011261126357611262610fa6565b5b60026112708482856111ee565b91505092915050565b600080600080600060e0868803121561129557611294610f9c565b5b600086013567ffffffffffffffff8111156112b3576112b2610fa1565b5b6112bf888289016110be565b955050602086013567ffffffffffffffff8111156112e0576112df610fa1565b5b6112ec8882890161115f565b945050604086013567ffffffffffffffff81111561130d5761130c610fa1565b5b6113198882890161115f565b935050606061132a8882890161124e565b92505060a061133b8882890161124e565b9150509295509295909350565b60008115159050919050565b61135d81611348565b82525050565b60006020820190506113786000830184611354565b92915050565b6000819050919050565b6113918161137e565b811461139c57600080fd5b50565b6000813590506113ae81611388565b92915050565b600080600080600060a086880312156113d0576113cf610f9c565b5b60006113de8882890161139f565b95505060206113ef888289016111d9565b9450506040611400888289016111d9565b9350506060611411888289016111d9565b9250506080611422888289016111d9565b9150509295509295909350565b6000819050919050565b600067ffffffffffffffff82169050919050565b6000819050919050565b600061147261146d6114688461142f565b61144d565b611439565b9050919050565b61148281611457565b82525050565b600060208201905061149d6000830184611479565b92915050565b600081905092915050565b7f7b2274797065223a22776562617574686e2e676574222c226368616c6c656e6760008201527f65223a2200000000000000000000000000000000000000000000000000000000602082015250565b600061150a6024836114a3565b9150611515826114ae565b602482019050919050565b600081519050919050565b60005b8381101561154957808201518184015260208101905061152e565b60008484015250505050565b600061156082611520565b61156a81856114a3565b935061157a81856020860161152b565b80840191505092915050565b7f222c226f726967696e223a220000000000000000000000000000000000000000600082015250565b60006115bc600c836114a3565b91506115c782611586565b600c82019050919050565b7f222c2263726f73734f726967696e223a66616c73657d00000000000000000000600082015250565b60006116086016836114a3565b9150611613826115d2565b601682019050919050565b6000611629826114fd565b91506116358285611555565b9150611640826115af565b915061164c8284611555565b9150611657826115fb565b91508190509392505050565b600081519050919050565b600081905092915050565b600061168482611663565b61168e818561166e565b935061169e81856020860161152b565b80840191505092915050565b60006116b68284611679565b915081905092915050565b6000815190506116d081611388565b92915050565b6000602082840312156116ec576116eb610f9c565b5b60006116fa848285016116c1565b91505092915050565b6000819050919050565b61171e6117198261137e565b611703565b82525050565b60006117308285611679565b915061173c828461170d565b6020820191508190509392505050565b7f4e487b7100000000000000000000000000000000000000000000000000000000600052603260045260246000fd5b7f4e487b7100000000000000000000000000000000000000000000000000000000600052601260045260246000fdfea2646970667358221220a4efd7923530a090dd45da7b14ed079425cc40dd38a6acb0442df13a1cfdd83764736f6c634300081c0033","opcodes":"PUSH1 0x80 PUSH1 0x40 MSTORE CALLVALUE DUP1 ISZERO PUSH2 0x10 JUMPI PUSH1 0x0 DUP1 REVERT JUMPDEST POP PUSH2 0x1F PUSH2 0x24 PUSH1 0x20 SHL PUSH1 0x20 SHR JUMP JUMPDEST PUSH2 0x18E JUMP JUMPDEST PUSH1 0x0 PUSH2 0x34 PUSH2 0x128 PUSH1 0x20 SHL PUSH1 0x20 SHR JUMP JUMPDEST SWAP1 POP DUP1 PUSH1 0x0 ADD PUSH1 0x8 SWAP1 SLOAD SWAP1 PUSH2 0x100 EXP SWAP1 DIV PUSH1 0xFF AND ISZERO PUSH2 0x7F JUMPI PUSH1 0x40 MLOAD PUSH32 0xF92EE8A900000000000000000000000000000000000000000000000000000000 DUP2 MSTORE PUSH1 0x4 ADD PUSH1 0x40 MLOAD DUP1 SWAP2 SUB SWAP1 REVERT JUMPDEST PUSH8 0xFFFFFFFFFFFFFFFF DUP1 AND DUP2 PUSH1 0x0 ADD PUSH1 0x0 SWAP1 SLOAD SWAP1 PUSH2 0x100 EXP SWAP1 DIV PUSH8 0xFFFFFFFFFFFFFFFF AND PUSH8 0xFFFFFFFFFFFFFFFF AND EQ PUSH2 0x125 JUMPI PUSH8 0xFFFFFFFFFFFFFFFF DUP2 PUSH1 0x0 ADD PUSH1 0x0 PUSH2 0x100 EXP DUP2 SLOAD DUP2 PUSH8 0xFFFFFFFFFFFFFFFF MUL NOT AND SWAP1 DUP4 PUSH8 0xFFFFFFFFFFFFFFFF AND MUL OR SWAP1 SSTORE POP PUSH32 0xC7F505B2F371AE2175EE4913F4499E1F2633A7B5936321EED1CDAEB6115181D2 PUSH8 0xFFFFFFFFFFFFFFFF PUSH1 0x40 MLOAD PUSH2 0x11C SWAP2 SWAP1 PUSH2 0x173 JUMP JUMPDEST PUSH1 0x40 MLOAD DUP1 SWAP2 SUB SWAP1 LOG1 JUMPDEST POP JUMP JUMPDEST PUSH1 0x0 PUSH32 0xF0C57E16840DF040F15088DC2F81FE391C3923BEC73E23A9662EFC9C229C6A00 SWAP1 POP SWAP1 JUMP JUMPDEST PUSH1 0x0 PUSH8 0xFFFFFFFFFFFFFFFF DUP3 AND SWAP1 POP SWAP2 SWAP1 POP JUMP JUMPDEST PUSH2 0x16D DUP2 PUSH2 0x150 JUMP JUMPDEST DUP3 MSTORE POP POP JUMP JUMPDEST PUSH1 0x0 PUSH1 0x20 DUP3 ADD SWAP1 POP PUSH2 0x188 PUSH1 0x0 DUP4 ADD DUP5 PUSH2 0x164 JUMP JUMPDEST SWAP3 SWAP2 POP POP JUMP JUMPDEST PUSH2 0x17E0 DUP1 PUSH2 0x19D PUSH1 0x0 CODECOPY PUSH1 0x0 RETURN INVALID PUSH1 0x80 PUSH1 0x40 MSTORE CALLVALUE DUP1 ISZERO PUSH2 0x10 JUMPI PUSH1 0x0 DUP1 REVERT JUMPDEST POP PUSH1 0x4 CALLDATASIZE LT PUSH2 0x41 JUMPI PUSH1 0x0 CALLDATALOAD PUSH1 0xE0 SHR DUP1 PUSH4 0x8129FC1C EQ PUSH2 0x46 JUMPI DUP1 PUSH4 0xD7ED656D EQ PUSH2 0x50 JUMPI DUP1 PUSH4 0xF2FBDC06 EQ PUSH2 0x80 JUMPI JUMPDEST PUSH1 0x0 DUP1 REVERT JUMPDEST PUSH2 0x4E PUSH2 0xB0 JUMP JUMPDEST STOP JUMPDEST PUSH2 0x6A PUSH1 0x4 DUP1 CALLDATASIZE SUB DUP2 ADD SWAP1 PUSH2 0x65 SWAP2 SWAP1 PUSH2 0x1279 JUMP JUMPDEST PUSH2 0x235 JUMP JUMPDEST PUSH1 0x40 MLOAD PUSH2 0x77 SWAP2 SWAP1 PUSH2 0x1363 JUMP JUMPDEST PUSH1 0x40 MLOAD DUP1 SWAP2 SUB SWAP1 RETURN JUMPDEST PUSH2 0x9A PUSH1 0x4 DUP1 CALLDATASIZE SUB DUP2 ADD SWAP1 PUSH2 0x95 SWAP2 SWAP1 PUSH2 0x13B4 JUMP JUMPDEST PUSH2 0x394 JUMP JUMPDEST PUSH1 0x40 MLOAD PUSH2 0xA7 SWAP2 SWAP1 PUSH2 0x1363 JUMP JUMPDEST PUSH1 0x40 MLOAD DUP1 SWAP2 SUB SWAP1 RETURN JUMPDEST PUSH1 0x0 PUSH2 0xBA PUSH2 0x625 JUMP JUMPDEST SWAP1 POP PUSH1 0x0 DUP2 PUSH1 0x0 ADD PUSH1 0x8 SWAP1 SLOAD SWAP1 PUSH2 0x100 EXP SWAP1 DIV PUSH1 0xFF AND ISZERO SWAP1 POP PUSH1 0x0 DUP3 PUSH1 0x0 ADD PUSH1 0x0 SWAP1 SLOAD SWAP1 PUSH2 0x100 EXP SWAP1 DIV PUSH8 0xFFFFFFFFFFFFFFFF AND SWAP1 POP PUSH1 0x0 DUP1 DUP3 PUSH8 0xFFFFFFFFFFFFFFFF AND EQ DUP1 ISZERO PUSH2 0x108 JUMPI POP DUP3 JUMPDEST SWAP1 POP PUSH1 0x0 PUSH1 0x1 DUP4 PUSH8 0xFFFFFFFFFFFFFFFF AND EQ DUP1 ISZERO PUSH2 0x13D JUMPI POP PUSH1 0x0 ADDRESS PUSH20 0xFFFFFFFFFFFFFFFFFFFFFFFFFFFFFFFFFFFFFFFF AND EXTCODESIZE EQ JUMPDEST SWAP1 POP DUP2 ISZERO DUP1 ISZERO PUSH2 0x14B JUMPI POP DUP1 ISZERO JUMPDEST ISZERO PUSH2 0x182 JUMPI PUSH1 0x40 MLOAD PUSH32 0xF92EE8A900000000000000000000000000000000000000000000000000000000 DUP2 MSTORE PUSH1 0x4 ADD PUSH1 0x40 MLOAD DUP1 SWAP2 SUB SWAP1 REVERT JUMPDEST PUSH1 0x1 DUP6 PUSH1 0x0 ADD PUSH1 0x0 PUSH2 0x100 EXP DUP2 SLOAD DUP2 PUSH8 0xFFFFFFFFFFFFFFFF MUL NOT AND SWAP1 DUP4 PUSH8 0xFFFFFFFFFFFFFFFF AND MUL OR SWAP1 SSTORE POP DUP4 ISZERO PUSH2 0x1D2 JUMPI PUSH1 0x1 DUP6 PUSH1 0x0 ADD PUSH1 0x8 PUSH2 0x100 EXP DUP2 SLOAD DUP2 PUSH1 0xFF MUL NOT AND SWAP1 DUP4 ISZERO ISZERO MUL OR SWAP1 SSTORE POP JUMPDEST DUP4 ISZERO PUSH2 0x22E JUMPI PUSH1 0x0 DUP6 PUSH1 0x0 ADD PUSH1 0x8 PUSH2 0x100 EXP DUP2 SLOAD DUP2 PUSH1 0xFF MUL NOT AND SWAP1 DUP4 ISZERO ISZERO MUL OR SWAP1 SSTORE POP PUSH32 0xC7F505B2F371AE2175EE4913F4499E1F2633A7B5936321EED1CDAEB6115181D2 PUSH1 0x1 PUSH1 0x40 MLOAD PUSH2 0x225 SWAP2 SWAP1 PUSH2 0x1488 JUMP JUMPDEST PUSH1 0x40 MLOAD DUP1 SWAP2 SUB SWAP1 LOG1 JUMPDEST POP POP POP POP POP JUMP JUMPDEST PUSH1 0x0 DUP1 PUSH1 0x2 DUP8 PUSH1 0x2 DUP8 DUP10 PUSH1 0x40 MLOAD PUSH1 0x20 ADD PUSH2 0x250 SWAP3 SWAP2 SWAP1 PUSH2 0x161E JUMP JUMPDEST PUSH1 0x40 MLOAD PUSH1 0x20 DUP2 DUP4 SUB SUB DUP2 MSTORE SWAP1 PUSH1 0x40 MSTORE PUSH1 0x40 MLOAD PUSH2 0x26C SWAP2 SWAP1 PUSH2 0x16AA JUMP JUMPDEST PUSH1 0x20 PUSH1 0x40 MLOAD DUP1 DUP4 SUB DUP2 DUP6 GAS STATICCALL ISZERO DUP1 ISZERO PUSH2 0x289 JUMPI RETURNDATASIZE PUSH1 0x0 DUP1 RETURNDATACOPY RETURNDATASIZE PUSH1 0x0 REVERT JUMPDEST POP POP POP PUSH1 0x40 MLOAD RETURNDATASIZE PUSH1 0x1F NOT PUSH1 0x1F DUP3 ADD AND DUP3 ADD DUP1 PUSH1 0x40 MSTORE POP DUP2 ADD SWAP1 PUSH2 0x2AC SWAP2 SWAP1 PUSH2 0x16D6 JUMP JUMPDEST PUSH1 0x40 MLOAD PUSH1 0x20 ADD PUSH2 0x2BD SWAP3 SWAP2 SWAP1 PUSH2 0x1724 JUMP JUMPDEST PUSH1 0x40 MLOAD PUSH1 0x20 DUP2 DUP4 SUB SUB DUP2 MSTORE SWAP1 PUSH1 0x40 MSTORE PUSH1 0x40 MLOAD PUSH2 0x2D9 SWAP2 SWAP1 PUSH2 0x16AA JUMP JUMPDEST PUSH1 0x20 PUSH1 0x40 MLOAD DUP1 DUP4 SUB DUP2 DUP6 GAS STATICCALL ISZERO DUP1 ISZERO PUSH2 0x2F6 JUMPI RETURNDATASIZE PUSH1 0x0 DUP1 RETURNDATACOPY RETURNDATASIZE PUSH1 0x0 REVERT JUMPDEST POP POP POP PUSH1 0x40 MLOAD RETURNDATASIZE PUSH1 0x1F NOT PUSH1 0x1F DUP3 ADD AND DUP3 ADD DUP1 PUSH1 0x40 MSTORE POP DUP2 ADD SWAP1 PUSH2 0x319 SWAP2 SWAP1 PUSH2 0x16D6 JUMP JUMPDEST SWAP1 POP PUSH2 0x388 DUP2 DUP6 PUSH1 0x0 PUSH1 0x2 DUP2 LT PUSH2 0x333 JUMPI PUSH2 0x332 PUSH2 0x174C JUMP JUMPDEST JUMPDEST PUSH1 0x20 MUL ADD MLOAD DUP7 PUSH1 0x1 PUSH1 0x2 DUP2 LT PUSH2 0x34C JUMPI PUSH2 0x34B PUSH2 0x174C JUMP JUMPDEST JUMPDEST PUSH1 0x20 MUL ADD MLOAD DUP7 PUSH1 0x0 PUSH1 0x2 DUP2 LT PUSH2 0x365 JUMPI PUSH2 0x364 PUSH2 0x174C JUMP JUMPDEST JUMPDEST PUSH1 0x20 MUL ADD MLOAD DUP8 PUSH1 0x1 PUSH1 0x2 DUP2 LT PUSH2 0x37E JUMPI PUSH2 0x37D PUSH2 0x174C JUMP JUMPDEST JUMPDEST PUSH1 0x20 MUL ADD MLOAD PUSH2 0x394 JUMP JUMPDEST SWAP2 POP POP SWAP6 SWAP5 POP POP POP POP POP JUMP JUMPDEST PUSH1 0x0 DUP1 DUP6 EQ DUP1 PUSH2 0x3C4 JUMPI POP PUSH32 0xFFFFFFFF00000000FFFFFFFFFFFFFFFFBCE6FAADA7179E84F3B9CAC2FC632551 DUP6 LT ISZERO JUMPDEST DUP1 PUSH2 0x3CF JUMPI POP PUSH1 0x0 DUP5 EQ JUMPDEST DUP1 PUSH2 0x3FA JUMPI POP PUSH32 0xFFFFFFFF00000000FFFFFFFFFFFFFFFFBCE6FAADA7179E84F3B9CAC2FC632551 DUP5 LT ISZERO JUMPDEST ISZERO PUSH2 0x408 JUMPI PUSH1 0x0 SWAP1 POP PUSH2 0x61C JUMP JUMPDEST PUSH1 0x0 ISZERO ISZERO PUSH2 0x479 PUSH32 0xFFFFFFFF00000001000000000000000000000000FFFFFFFFFFFFFFFFFFFFFFFF PUSH32 0xFFFFFFFF00000001000000000000000000000000FFFFFFFFFFFFFFFFFFFFFFFC PUSH32 0x5AC635D8AA3A93E7B3EBBD55769886BC651D06B0CC53B0F63BCE3C3E27D2604B DUP8 DUP8 PUSH2 0x64D JUMP JUMPDEST ISZERO ISZERO SUB PUSH2 0x489 JUMPI PUSH1 0x0 SWAP1 POP PUSH2 0x61C JUMP JUMPDEST PUSH1 0x0 PUSH2 0x494 DUP6 PUSH2 0x706 JUMP JUMPDEST SWAP1 POP PUSH1 0x0 PUSH32 0xFFFFFFFF00000000FFFFFFFFFFFFFFFFBCE6FAADA7179E84F3B9CAC2FC632551 DUP1 PUSH2 0x4C7 JUMPI PUSH2 0x4C6 PUSH2 0x177B JUMP JUMPDEST JUMPDEST DUP3 DUP10 PUSH1 0x0 SHR MULMOD SWAP1 POP PUSH1 0x0 PUSH32 0xFFFFFFFF00000000FFFFFFFFFFFFFFFFBCE6FAADA7179E84F3B9CAC2FC632551 DUP1 PUSH2 0x500 JUMPI PUSH2 0x4FF PUSH2 0x177B JUMP JUMPDEST JUMPDEST DUP4 DUP10 MULMOD SWAP1 POP PUSH1 0x0 PUSH1 0x40 MLOAD DUP1 PUSH1 0xC0 ADD PUSH1 0x40 MSTORE DUP1 DUP9 DUP2 MSTORE PUSH1 0x20 ADD DUP8 DUP2 MSTORE PUSH1 0x20 ADD PUSH32 0xFFFFFFFF00000001000000000000000000000000FFFFFFFFFFFFFFFFFFFFFFFF DUP2 MSTORE PUSH1 0x20 ADD PUSH32 0xFFFFFFFF00000001000000000000000000000000FFFFFFFFFFFFFFFFFFFFFFFC DUP2 MSTORE PUSH1 0x20 ADD PUSH32 0x6B17D1F2E12C4247F8BCE6E563A440F277037D812DEB33A0F4A13945D898C296 DUP2 MSTORE PUSH1 0x20 ADD PUSH32 0x4FE342E2FE1A7F9B8EE7EB4A7C0F9E162BCE33576B315ECECBB6406837BF51F5 DUP2 MSTORE POP SWAP1 POP PUSH1 0x0 PUSH2 0x5C3 DUP3 DUP6 DUP6 PUSH2 0x794 JUMP JUMPDEST POP DUP1 SWAP2 POP POP PUSH32 0xFFFFFFFF00000000FFFFFFFFFFFFFFFFBCE6FAADA7179E84F3B9CAC2FC632551 DUP11 PUSH32 0xFFFFFFFF00000000FFFFFFFFFFFFFFFFBCE6FAADA7179E84F3B9CAC2FC632551 SUB DUP3 ADDMOD SWAP1 POP PUSH1 0x0 DUP2 EQ SWAP6 POP POP POP POP POP POP JUMPDEST SWAP6 SWAP5 POP POP POP POP POP JUMP JUMPDEST PUSH1 0x0 PUSH32 0xF0C57E16840DF040F15088DC2F81FE391C3923BEC73E23A9662EFC9C229C6A00 SWAP1 POP SWAP1 JUMP JUMPDEST PUSH1 0x0 DUP1 DUP4 EQ DUP1 ISZERO PUSH2 0x65E JUMPI POP PUSH1 0x0 DUP3 EQ JUMPDEST DUP1 PUSH2 0x669 JUMPI POP DUP6 DUP4 LT ISZERO JUMPDEST DUP1 PUSH2 0x674 JUMPI POP DUP6 DUP3 LT ISZERO JUMPDEST ISZERO PUSH2 0x682 JUMPI PUSH1 0x0 SWAP1 POP PUSH2 0x6FD JUMP JUMPDEST PUSH1 0x0 DUP7 DUP1 PUSH2 0x693 JUMPI PUSH2 0x692 PUSH2 0x177B JUMP JUMPDEST JUMPDEST DUP4 DUP5 MULMOD SWAP1 POP PUSH1 0x0 DUP8 DUP1 PUSH2 0x6A9 JUMPI PUSH2 0x6A8 PUSH2 0x177B JUMP JUMPDEST JUMPDEST DUP9 DUP1 PUSH2 0x6B8 JUMPI PUSH2 0x6B7 PUSH2 0x177B JUMP JUMPDEST JUMPDEST DUP9 DUP8 MULMOD DUP10 DUP1 PUSH2 0x6CA JUMPI PUSH2 0x6C9 PUSH2 0x177B JUMP JUMPDEST JUMPDEST DUP8 DUP12 DUP1 PUSH2 0x6DA JUMPI PUSH2 0x6D9 PUSH2 0x177B JUMP JUMPDEST JUMPDEST DUP10 DUP11 MULMOD MULMOD ADDMOD SWAP1 POP DUP8 DUP1 PUSH2 0x6F0 JUMPI PUSH2 0x6EF PUSH2 0x177B JUMP JUMPDEST JUMPDEST DUP7 DUP3 ADDMOD SWAP1 POP DUP1 DUP3 EQ SWAP3 POP POP POP JUMPDEST SWAP6 SWAP5 POP POP POP POP POP JUMP JUMPDEST PUSH1 0x0 PUSH1 0x40 MLOAD PUSH1 0x20 DUP2 MSTORE PUSH1 0x20 DUP1 DUP3 ADD MSTORE PUSH1 0x20 PUSH1 0x40 DUP3 ADD MSTORE DUP3 PUSH1 0x60 DUP3 ADD MSTORE PUSH32 0x1000000000000000000000000000000014DEF9DEA2F79CD65812631A5CF5D3EB PUSH1 0x80 DUP3 ADD MSTORE PUSH32 0xFFFFFFFF00000000FFFFFFFFFFFFFFFFBCE6FAADA7179E84F3B9CAC2FC632551 PUSH1 0xA0 DUP3 ADD MSTORE PUSH1 0x20 DUP2 PUSH1 0xC0 DUP4 PUSH1 0x5 PUSH1 0x0 NOT STATICCALL PUSH2 0x78A JUMPI PUSH2 0x7FE PUSH1 0x40 MSTORE PUSH1 0x20 PUSH1 0x40 REVERT JUMPDEST DUP1 MLOAD SWAP2 POP POP SWAP2 SWAP1 POP JUMP JUMPDEST PUSH1 0x0 DUP1 PUSH1 0x0 PUSH32 0x8000000000000000000000000000000000000000000000000000000000000000 SWAP1 POP PUSH1 0x0 DUP6 EQ DUP1 ISZERO PUSH2 0x7CC JUMPI POP PUSH1 0x0 DUP5 EQ JUMPDEST ISZERO PUSH2 0x7DE JUMPI PUSH1 0x0 DUP1 SWAP3 POP SWAP3 POP POP PUSH2 0xF8A JUMP JUMPDEST PUSH1 0x0 DUP1 PUSH2 0x800 PUSH1 0x40 MLOAD ADD PUSH1 0x40 MSTORE PUSH1 0x40 DUP9 ADD MLOAD PUSH2 0x820 PUSH1 0x40 MLOAD ADD MSTORE PUSH2 0x820 PUSH1 0x40 MLOAD ADD MLOAD PUSH2 0x91C JUMP JUMPDEST DUP3 DUP2 DUP4 ADD MSTORE DUP2 PUSH1 0x20 ADD SWAP2 POP DUP4 DUP2 DUP4 ADD MSTORE DUP2 PUSH1 0x20 ADD SWAP2 POP DUP5 DUP2 DUP4 ADD MSTORE DUP2 PUSH1 0x20 ADD SWAP2 POP DUP6 DUP2 DUP4 ADD MSTORE DUP2 PUSH1 0x20 ADD SWAP2 POP POP POP POP POP POP POP JUMP JUMPDEST PUSH1 0x0 DUP1 PUSH1 0x0 DUP1 DUP9 DUP7 PUSH1 0x2 MULMOD DUP10 DUP2 DUP3 MULMOD DUP11 DUP2 DUP9 MULMOD DUP12 DUP3 DUP5 MULMOD SWAP3 POP DUP12 DUP13 DUP14 DUP13 DUP14 MULMOD DUP16 MULMOD DUP14 DUP15 DUP12 DUP13 MULMOD PUSH1 0x3 MULMOD ADDMOD SWAP6 POP DUP12 DUP12 DUP5 MULMOD SWAP4 POP DUP12 DUP11 DUP4 MULMOD SWAP5 POP DUP12 DUP13 DUP3 PUSH1 0x2 DUP16 SUB MULMOD DUP14 DUP9 DUP10 MULMOD ADDMOD SWAP7 POP DUP12 DUP13 DUP3 DUP15 SUB DUP10 ADDMOD DUP8 MULMOD SWAP2 POP DUP12 DUP3 DUP14 DUP12 DUP7 MULMOD ADDMOD SWAP6 POP DUP6 DUP13 SUB SWAP6 POP POP POP POP SWAP7 POP SWAP7 POP SWAP7 POP SWAP7 SWAP3 POP POP POP JUMP JUMPDEST PUSH1 0x0 DUP1 PUSH1 0x0 DUP1 DUP6 DUP12 SUB SWAP6 POP DUP11 DUP7 DUP13 DUP11 DUP14 MULMOD ADDMOD SWAP10 POP DUP11 DUP6 DUP13 SUB DUP13 DUP10 DUP13 MULMOD ADDMOD SWAP9 POP DUP11 DUP10 DUP11 MULMOD SWAP4 POP DUP11 DUP10 DUP6 MULMOD SWAP3 POP DUP11 DUP5 DUP9 MULMOD SWAP2 POP DUP11 DUP4 DUP10 MULMOD SWAP1 POP DUP11 DUP5 DUP7 MULMOD SWAP7 POP DUP11 DUP12 DUP9 PUSH1 0x2 DUP15 SUB MULMOD DUP13 DUP6 DUP15 SUB DUP15 DUP15 DUP16 MULMOD ADDMOD ADDMOD SWAP4 POP DUP11 DUP11 DUP13 DUP7 DUP15 SUB DUP11 ADDMOD MULMOD SWAP5 POP DUP11 DUP12 DUP5 DUP9 MULMOD DUP7 ADDMOD SWAP3 POP SWAP8 POP SWAP8 POP SWAP8 POP SWAP8 SWAP4 POP POP POP POP JUMP JUMPDEST PUSH2 0x936 PUSH1 0x1 DUP1 PUSH1 0xA0 DUP13 ADD MLOAD PUSH1 0x80 DUP14 ADD MLOAD PUSH1 0x80 PUSH1 0x40 MLOAD PUSH2 0x805 JUMP JUMPDEST PUSH2 0x951 PUSH1 0x60 DUP11 ADD MLOAD DUP3 PUSH1 0x1 DUP1 PUSH1 0xA0 DUP15 ADD MLOAD PUSH1 0x80 DUP16 ADD MLOAD PUSH2 0x839 JUMP JUMPDEST SWAP6 POP SWAP4 POP SWAP6 POP SWAP6 POP PUSH2 0x96B DUP4 DUP4 DUP8 DUP10 PUSH2 0x100 PUSH1 0x40 MLOAD PUSH2 0x805 JUMP JUMPDEST PUSH2 0x982 DUP2 PUSH1 0xA0 DUP12 ADD MLOAD PUSH1 0x80 DUP13 ADD MLOAD DUP7 DUP7 DUP11 DUP13 PUSH2 0x8A9 JUMP JUMPDEST SWAP6 POP SWAP4 POP SWAP6 POP SWAP6 POP PUSH2 0x99C DUP4 DUP4 DUP8 DUP10 PUSH2 0x180 PUSH1 0x40 MLOAD PUSH2 0x805 JUMP JUMPDEST PUSH2 0x9B7 PUSH1 0x1 DUP1 PUSH1 0x20 DUP13 ADD MLOAD PUSH1 0x0 DUP14 ADD MLOAD PUSH2 0x200 PUSH1 0x40 MLOAD PUSH2 0x805 JUMP JUMPDEST PUSH1 0x80 DUP10 ADD MLOAD SWAP6 POP PUSH1 0xA0 DUP10 ADD MLOAD SWAP5 POP PUSH2 0x9DD DUP2 PUSH1 0x20 DUP12 ADD MLOAD PUSH1 0x0 DUP13 ADD MLOAD PUSH1 0x1 DUP1 DUP11 DUP13 PUSH2 0x8A9 JUMP JUMPDEST SWAP6 POP SWAP4 POP SWAP6 POP SWAP6 POP PUSH2 0x9F7 DUP4 DUP4 DUP8 DUP10 PUSH2 0x280 PUSH1 0x40 MLOAD PUSH2 0x805 JUMP JUMPDEST PUSH2 0xA0E DUP2 PUSH1 0xA0 DUP12 ADD MLOAD PUSH1 0x80 DUP13 ADD MLOAD DUP7 DUP7 DUP11 DUP13 PUSH2 0x8A9 JUMP JUMPDEST SWAP6 POP SWAP4 POP SWAP6 POP SWAP6 POP PUSH2 0xA28 DUP4 DUP4 DUP8 DUP10 PUSH2 0x300 PUSH1 0x40 MLOAD PUSH2 0x805 JUMP JUMPDEST PUSH2 0xA3F DUP2 PUSH1 0xA0 DUP12 ADD MLOAD PUSH1 0x80 DUP13 ADD MLOAD DUP7 DUP7 DUP11 DUP13 PUSH2 0x8A9 JUMP JUMPDEST SWAP6 POP SWAP4 POP SWAP6 POP SWAP6 POP PUSH2 0xA59 DUP4 DUP4 DUP8 DUP10 PUSH2 0x380 PUSH1 0x40 MLOAD PUSH2 0x805 JUMP JUMPDEST PUSH1 0x0 DUP10 ADD MLOAD SWAP6 POP PUSH1 0x20 DUP10 ADD MLOAD SWAP5 POP PUSH2 0xA7A PUSH1 0x60 DUP11 ADD MLOAD DUP3 PUSH1 0x1 DUP1 DUP10 DUP12 PUSH2 0x839 JUMP JUMPDEST SWAP6 POP SWAP4 POP SWAP6 POP SWAP6 POP PUSH2 0xA94 DUP4 DUP4 DUP8 DUP10 PUSH2 0x400 PUSH1 0x40 MLOAD PUSH2 0x805 JUMP JUMPDEST PUSH2 0xAAB DUP2 PUSH1 0xA0 DUP12 ADD MLOAD PUSH1 0x80 DUP13 ADD MLOAD DUP7 DUP7 DUP11 DUP13 PUSH2 0x8A9 JUMP JUMPDEST SWAP6 POP SWAP4 POP SWAP6 POP SWAP6 POP PUSH2 0xAC5 DUP4 DUP4 DUP8 DUP10 PUSH2 0x480 PUSH1 0x40 MLOAD PUSH2 0x805 JUMP JUMPDEST PUSH2 0xADC DUP2 PUSH1 0xA0 DUP12 ADD MLOAD PUSH1 0x80 DUP13 ADD MLOAD DUP7 DUP7 DUP11 DUP13 PUSH2 0x8A9 JUMP JUMPDEST SWAP6 POP SWAP4 POP SWAP6 POP SWAP6 POP PUSH2 0xAF6 DUP4 DUP4 DUP8 DUP10 PUSH2 0x500 PUSH1 0x40 MLOAD PUSH2 0x805 JUMP JUMPDEST PUSH2 0xB0D DUP2 PUSH1 0xA0 DUP12 ADD MLOAD PUSH1 0x80 DUP13 ADD MLOAD DUP7 DUP7 DUP11 DUP13 PUSH2 0x8A9 JUMP JUMPDEST SWAP6 POP SWAP4 POP SWAP6 POP SWAP6 POP PUSH2 0xB27 DUP4 DUP4 DUP8 DUP10 PUSH2 0x580 PUSH1 0x40 MLOAD PUSH2 0x805 JUMP JUMPDEST PUSH2 0x400 PUSH1 0x40 MLOAD ADD MLOAD SWAP6 POP PUSH2 0x420 PUSH1 0x40 MLOAD ADD MLOAD SWAP5 POP PUSH2 0x440 PUSH1 0x40 MLOAD ADD MLOAD SWAP2 POP PUSH2 0x460 PUSH1 0x40 MLOAD ADD MLOAD SWAP3 POP PUSH2 0xB66 DUP2 PUSH1 0x20 DUP12 ADD MLOAD PUSH1 0x0 DUP13 ADD MLOAD DUP7 DUP7 DUP11 DUP13 PUSH2 0x8A9 JUMP JUMPDEST SWAP6 POP SWAP4 POP SWAP6 POP SWAP6 POP PUSH2 0xB80 DUP4 DUP4 DUP8 DUP10 PUSH2 0x600 PUSH1 0x40 MLOAD PUSH2 0x805 JUMP JUMPDEST PUSH2 0xB97 DUP2 PUSH1 0xA0 DUP12 ADD MLOAD PUSH1 0x80 DUP13 ADD MLOAD DUP7 DUP7 DUP11 DUP13 PUSH2 0x8A9 JUMP JUMPDEST SWAP6 POP SWAP4 POP SWAP6 POP SWAP6 POP PUSH2 0xBB1 DUP4 DUP4 DUP8 DUP10 PUSH2 0x680 PUSH1 0x40 MLOAD PUSH2 0x805 JUMP JUMPDEST PUSH2 0xBC8 DUP2 PUSH1 0xA0 DUP12 ADD MLOAD PUSH1 0x80 DUP13 ADD MLOAD DUP7 DUP7 DUP11 DUP13 PUSH2 0x8A9 JUMP JUMPDEST SWAP6 POP SWAP4 POP SWAP6 POP SWAP6 POP PUSH2 0xBE2 DUP4 DUP4 DUP8 DUP10 PUSH2 0x700 PUSH1 0x40 MLOAD PUSH2 0x805 JUMP JUMPDEST PUSH2 0xBF9 DUP2 PUSH1 0xA0 DUP12 ADD MLOAD PUSH1 0x80 DUP13 ADD MLOAD DUP7 DUP7 DUP11 DUP13 PUSH2 0x8A9 JUMP JUMPDEST SWAP6 POP SWAP4 POP SWAP6 POP SWAP6 POP PUSH2 0xC13 DUP4 DUP4 DUP8 DUP10 PUSH2 0x780 PUSH1 0x40 MLOAD PUSH2 0x805 JUMP JUMPDEST POP PUSH1 0x0 SWAP2 POP JUMPDEST DUP2 PUSH2 0xC59 JUMPI DUP3 DUP7 AND ISZERO PUSH1 0x1 SUB PUSH1 0x3 SHL DUP4 PUSH1 0x1 SHR DUP8 AND ISZERO PUSH1 0x1 SUB PUSH1 0x2 SHL ADD DUP4 DUP9 AND ISZERO PUSH1 0x1 SUB PUSH1 0x1 SHL DUP5 PUSH1 0x1 SHR DUP10 AND ISZERO PUSH1 0x1 SUB ADD ADD SWAP2 POP DUP3 PUSH1 0x2 SHR SWAP3 POP PUSH2 0xC19 JUMP JUMPDEST DUP2 PUSH1 0x7 SHL PUSH1 0x40 MLOAD ADD MLOAD SWAP5 POP DUP2 PUSH1 0x7 SHL PUSH1 0x20 ADD PUSH1 0x40 MLOAD ADD MLOAD SWAP4 POP DUP2 PUSH1 0x7 SHL PUSH1 0x40 ADD PUSH1 0x40 MLOAD ADD MLOAD SWAP1 POP DUP2 PUSH1 0x7 SHL PUSH1 0x60 ADD PUSH1 0x40 MLOAD ADD MLOAD SWAP2 POP PUSH1 0x40 MLOAD PUSH2 0x820 DUP2 ADD MLOAD JUMPDEST PUSH1 0x0 DUP6 GT ISZERO PUSH2 0xF1E JUMPI DUP1 DUP7 PUSH1 0x2 MULMOD DUP2 DUP2 DUP3 MULMOD DUP3 DUP2 DUP11 MULMOD DUP4 DUP3 DUP5 MULMOD SWAP3 POP DUP4 DUP5 DUP8 DUP9 MULMOD PUSH1 0x60 DUP16 ADD MLOAD MULMOD DUP5 DUP2 DUP7 DUP8 DUP15 DUP16 MULMOD PUSH1 0x3 MULMOD ADDMOD SWAP1 POP DUP5 DUP9 DUP6 MULMOD SWAP8 POP DUP5 DUP8 DUP5 MULMOD SWAP7 POP PUSH1 0x2 DUP6 SUB SWAP11 POP DUP5 DUP6 DUP4 DUP14 MULMOD DUP7 DUP4 DUP5 MULMOD ADDMOD SWAP11 POP DUP5 DUP6 DUP4 DUP8 SUB DUP14 ADDMOD DUP3 MULMOD SWAP3 POP DUP5 DUP4 DUP7 DUP13 DUP8 MULMOD ADDMOD SWAP10 POP DUP10 DUP6 SUB SWAP10 POP POP POP POP POP DUP1 DUP7 PUSH1 0x2 MULMOD DUP2 DUP2 DUP3 MULMOD DUP3 DUP2 DUP11 MULMOD DUP4 DUP3 DUP5 MULMOD SWAP3 POP DUP4 DUP5 DUP8 DUP9 MULMOD PUSH1 0x60 DUP16 ADD MLOAD MULMOD DUP5 DUP2 DUP7 DUP8 DUP15 DUP16 MULMOD PUSH1 0x3 MULMOD ADDMOD SWAP1 POP DUP5 DUP9 DUP6 MULMOD SWAP8 POP DUP5 DUP8 DUP5 MULMOD SWAP7 POP PUSH1 0x2 DUP6 SUB SWAP11 POP DUP5 DUP6 DUP4 DUP14 MULMOD DUP7 DUP4 DUP5 MULMOD ADDMOD SWAP11 POP DUP5 DUP6 DUP4 DUP8 SUB DUP14 ADDMOD DUP3 MULMOD SWAP3 POP DUP5 DUP4 DUP7 DUP13 DUP8 MULMOD ADDMOD SWAP10 POP POP POP POP POP DUP5 DUP9 AND ISZERO PUSH1 0x1 SUB PUSH1 0x3 SHL DUP6 PUSH1 0x1 SHR DUP10 AND ISZERO PUSH1 0x1 SUB PUSH1 0x2 SHL ADD DUP6 DUP11 AND ISZERO PUSH1 0x1 SUB PUSH1 0x1 SHL DUP7 PUSH1 0x1 SHR DUP12 AND ISZERO PUSH1 0x1 SUB ADD ADD DUP1 PUSH2 0xDA6 JUMPI DUP7 DUP3 SUB SWAP7 POP POP PUSH2 0xF13 JUMP JUMPDEST DUP1 PUSH1 0x7 SHL SWAP1 POP DUP1 DUP4 ADD MLOAD DUP2 PUSH1 0x60 ADD DUP5 ADD MLOAD PUSH2 0x860 DUP6 ADD MSTORE DUP5 PUSH2 0xDE7 JUMPI DUP1 SWAP9 POP DUP2 PUSH1 0x20 ADD DUP5 ADD MLOAD SWAP8 POP DUP2 PUSH1 0x40 ADD DUP5 ADD MLOAD SWAP5 POP DUP2 PUSH1 0x60 ADD DUP5 ADD MLOAD SWAP6 POP POP POP PUSH2 0xF13 JUMP JUMPDEST DUP3 DUP4 PUSH2 0x860 DUP7 ADD MLOAD DUP11 MULMOD DUP5 DUP9 DUP6 PUSH1 0x20 ADD DUP9 ADD MLOAD MULMOD ADDMOD PUSH2 0x840 DUP6 ADD MSTORE DUP2 PUSH1 0x40 ADD DUP5 ADD MLOAD SWAP2 POP DUP3 DUP4 DUP4 DUP12 MULMOD DUP5 SUB DUP5 DUP8 DUP5 MULMOD ADDMOD PUSH2 0x840 DUP6 ADD MLOAD PUSH2 0xEA1 JUMPI DUP1 PUSH2 0xEA0 JUMPI DUP4 DUP10 PUSH1 0x2 DUP7 SUB MULMOD SWAP3 POP DUP4 DUP4 DUP5 MULMOD SWAP1 POP DUP4 DUP2 DUP12 MULMOD PUSH2 0x840 DUP7 ADD MSTORE DUP4 DUP2 DUP5 MULMOD SWAP3 POP DUP4 DUP5 DUP8 DUP9 MULMOD PUSH1 0x60 DUP16 ADD MLOAD MULMOD SWAP2 POP DUP4 DUP3 DUP6 DUP7 DUP14 DUP15 MULMOD PUSH1 0x3 MULMOD ADDMOD SWAP2 POP DUP4 DUP8 DUP5 MULMOD SWAP7 POP DUP4 DUP7 DUP3 MULMOD SWAP6 POP DUP4 DUP5 PUSH2 0x840 DUP8 ADD MLOAD PUSH1 0x2 DUP8 SUB MULMOD DUP6 DUP5 DUP6 MULMOD ADDMOD SWAP10 POP DUP4 DUP5 DUP12 DUP7 SUB PUSH2 0x840 DUP9 ADD MLOAD ADDMOD DUP4 MULMOD SWAP1 POP DUP4 DUP5 DUP11 DUP6 MULMOD DUP3 ADDMOD SWAP9 POP POP POP POP PUSH2 0xF13 JUMP JUMPDEST JUMPDEST DUP4 DUP2 DUP3 MULMOD SWAP2 POP DUP4 DUP2 DUP4 MULMOD SWAP1 POP DUP4 DUP4 DUP6 DUP5 DUP10 MULMOD MULMOD SWAP6 POP DUP4 DUP4 DUP12 MULMOD SWAP3 POP DUP4 PUSH2 0x860 DUP7 ADD MLOAD DUP6 DUP4 DUP11 MULMOD MULMOD SWAP7 POP DUP4 DUP5 DUP6 DUP5 PUSH1 0x2 DUP9 SUB MULMOD DUP6 MULMOD DUP6 DUP4 DUP8 SUB DUP8 PUSH2 0x840 DUP11 ADD MLOAD PUSH2 0x840 DUP12 ADD MLOAD MULMOD ADDMOD ADDMOD SWAP10 POP DUP4 DUP3 DUP5 MULMOD SWAP2 POP DUP4 DUP5 DUP3 DUP7 PUSH2 0x860 DUP10 ADD MLOAD DUP14 MULMOD MULMOD DUP6 PUSH2 0x840 DUP9 ADD MLOAD DUP8 DUP15 DUP10 SUB DUP8 ADDMOD MULMOD ADDMOD SWAP9 POP POP POP POP JUMPDEST DUP5 PUSH1 0x2 SHR SWAP5 POP PUSH2 0xC98 JUMP JUMPDEST PUSH2 0x880 PUSH1 0x40 MSTORE PUSH1 0x40 MLOAD DUP5 PUSH1 0x60 DUP3 ADD MSTORE PUSH1 0x20 DUP2 MSTORE PUSH1 0x20 DUP1 DUP3 ADD MSTORE PUSH1 0x20 PUSH1 0x40 DUP3 ADD MSTORE PUSH1 0x2 DUP3 SUB PUSH1 0x80 DUP3 ADD MSTORE DUP2 PUSH1 0xA0 DUP3 ADD MSTORE PUSH1 0x20 DUP2 PUSH1 0xC0 DUP4 PUSH1 0x5 PUSH1 0x0 NOT STATICCALL PUSH2 0xF69 JUMPI PUSH2 0x7FF PUSH1 0x40 MSTORE PUSH1 0x20 PUSH1 0x40 REVERT JUMPDEST DUP2 DUP2 MLOAD DUP9 MULMOD SWAP7 POP DUP2 DUP2 MLOAD DUP6 MULMOD SWAP4 POP DUP2 DUP5 DUP6 MULMOD SWAP4 POP DUP2 DUP5 DUP10 MULMOD SWAP8 POP POP POP POP POP POP POP JUMPDEST SWAP4 POP SWAP4 SWAP2 POP POP JUMP JUMPDEST PUSH1 0x0 PUSH1 0x40 MLOAD SWAP1 POP SWAP1 JUMP JUMPDEST PUSH1 0x0 DUP1 REVERT JUMPDEST PUSH1 0x0 DUP1 REVERT JUMPDEST PUSH1 0x0 DUP1 REVERT JUMPDEST PUSH1 0x0 DUP1 REVERT JUMPDEST PUSH1 0x0 PUSH1 0x1F NOT PUSH1 0x1F DUP4 ADD AND SWAP1 POP SWAP2 SWAP1 POP JUMP JUMPDEST PUSH32 0x4E487B7100000000000000000000000000000000000000000000000000000000 PUSH1 0x0 MSTORE PUSH1 0x41 PUSH1 0x4 MSTORE PUSH1 0x24 PUSH1 0x0 REVERT JUMPDEST PUSH2 0xFF9 DUP3 PUSH2 0xFB0 JUMP JUMPDEST DUP2 ADD DUP2 DUP2 LT PUSH8 0xFFFFFFFFFFFFFFFF DUP3 GT OR ISZERO PUSH2 0x1018 JUMPI PUSH2 0x1017 PUSH2 0xFC1 JUMP JUMPDEST JUMPDEST DUP1 PUSH1 0x40 MSTORE POP POP POP JUMP JUMPDEST PUSH1 0x0 PUSH2 0x102B PUSH2 0xF92 JUMP JUMPDEST SWAP1 POP PUSH2 0x1037 DUP3 DUP3 PUSH2 0xFF0 JUMP JUMPDEST SWAP2 SWAP1 POP JUMP JUMPDEST PUSH1 0x0 PUSH8 0xFFFFFFFFFFFFFFFF DUP3 GT ISZERO PUSH2 0x1057 JUMPI PUSH2 0x1056 PUSH2 0xFC1 JUMP JUMPDEST JUMPDEST PUSH2 0x1060 DUP3 PUSH2 0xFB0 JUMP JUMPDEST SWAP1 POP PUSH1 0x20 DUP2 ADD SWAP1 POP SWAP2 SWAP1 POP JUMP JUMPDEST DUP3 DUP2 DUP4 CALLDATACOPY PUSH1 0x0 DUP4 DUP4 ADD MSTORE POP POP POP JUMP JUMPDEST PUSH1 0x0 PUSH2 0x108F PUSH2 0x108A DUP5 PUSH2 0x103C JUMP JUMPDEST PUSH2 0x1021 JUMP JUMPDEST SWAP1 POP DUP3 DUP2 MSTORE PUSH1 0x20 DUP2 ADD DUP5 DUP5 DUP5 ADD GT ISZERO PUSH2 0x10AB JUMPI PUSH2 0x10AA PUSH2 0xFAB JUMP JUMPDEST JUMPDEST PUSH2 0x10B6 DUP5 DUP3 DUP6 PUSH2 0x106D JUMP JUMPDEST POP SWAP4 SWAP3 POP POP POP JUMP JUMPDEST PUSH1 0x0 DUP3 PUSH1 0x1F DUP4 ADD SLT PUSH2 0x10D3 JUMPI PUSH2 0x10D2 PUSH2 0xFA6 JUMP JUMPDEST JUMPDEST DUP2 CALLDATALOAD PUSH2 0x10E3 DUP5 DUP3 PUSH1 0x20 DUP7 ADD PUSH2 0x107C JUMP JUMPDEST SWAP2 POP POP SWAP3 SWAP2 POP POP JUMP JUMPDEST PUSH1 0x0 PUSH8 0xFFFFFFFFFFFFFFFF DUP3 GT ISZERO PUSH2 0x1107 JUMPI PUSH2 0x1106 PUSH2 0xFC1 JUMP JUMPDEST JUMPDEST PUSH2 0x1110 DUP3 PUSH2 0xFB0 JUMP JUMPDEST SWAP1 POP PUSH1 0x20 DUP2 ADD SWAP1 POP SWAP2 SWAP1 POP JUMP JUMPDEST PUSH1 0x0 PUSH2 0x1130 PUSH2 0x112B DUP5 PUSH2 0x10EC JUMP JUMPDEST PUSH2 0x1021 JUMP JUMPDEST SWAP1 POP DUP3 DUP2 MSTORE PUSH1 0x20 DUP2 ADD DUP5 DUP5 DUP5 ADD GT ISZERO PUSH2 0x114C JUMPI PUSH2 0x114B PUSH2 0xFAB JUMP JUMPDEST JUMPDEST PUSH2 0x1157 DUP5 DUP3 DUP6 PUSH2 0x106D JUMP JUMPDEST POP SWAP4 SWAP3 POP POP POP JUMP JUMPDEST PUSH1 0x0 DUP3 PUSH1 0x1F DUP4 ADD SLT PUSH2 0x1174 JUMPI PUSH2 0x1173 PUSH2 0xFA6 JUMP JUMPDEST JUMPDEST DUP2 CALLDATALOAD PUSH2 0x1184 DUP5 DUP3 PUSH1 0x20 DUP7 ADD PUSH2 0x111D JUMP JUMPDEST SWAP2 POP POP SWAP3 SWAP2 POP POP JUMP JUMPDEST PUSH1 0x0 PUSH8 0xFFFFFFFFFFFFFFFF DUP3 GT ISZERO PUSH2 0x11A8 JUMPI PUSH2 0x11A7 PUSH2 0xFC1 JUMP JUMPDEST JUMPDEST PUSH1 0x20 DUP3 MUL SWAP1 POP SWAP2 SWAP1 POP JUMP JUMPDEST PUSH1 0x0 DUP1 REVERT JUMPDEST PUSH1 0x0 DUP2 SWAP1 POP SWAP2 SWAP1 POP JUMP JUMPDEST PUSH2 0x11CB DUP2 PUSH2 0x11B8 JUMP JUMPDEST DUP2 EQ PUSH2 0x11D6 JUMPI PUSH1 0x0 DUP1 REVERT JUMPDEST POP JUMP JUMPDEST PUSH1 0x0 DUP2 CALLDATALOAD SWAP1 POP PUSH2 0x11E8 DUP2 PUSH2 0x11C2 JUMP JUMPDEST SWAP3 SWAP2 POP POP JUMP JUMPDEST PUSH1 0x0 PUSH2 0x1201 PUSH2 0x11FC DUP5 PUSH2 0x118D JUMP JUMPDEST PUSH2 0x1021 JUMP JUMPDEST SWAP1 POP DUP1 PUSH1 0x20 DUP5 MUL DUP4 ADD DUP6 DUP2 GT ISZERO PUSH2 0x121B JUMPI PUSH2 0x121A PUSH2 0x11B3 JUMP JUMPDEST JUMPDEST DUP4 JUMPDEST DUP2 DUP2 LT ISZERO PUSH2 0x1244 JUMPI DUP1 PUSH2 0x1230 DUP9 DUP3 PUSH2 0x11D9 JUMP JUMPDEST DUP5 MSTORE PUSH1 0x20 DUP5 ADD SWAP4 POP POP PUSH1 0x20 DUP2 ADD SWAP1 POP PUSH2 0x121D JUMP JUMPDEST POP POP POP SWAP4 SWAP3 POP POP POP JUMP JUMPDEST PUSH1 0x0 DUP3 PUSH1 0x1F DUP4 ADD SLT PUSH2 0x1263 JUMPI PUSH2 0x1262 PUSH2 0xFA6 JUMP JUMPDEST JUMPDEST PUSH1 0x2 PUSH2 0x1270 DUP5 DUP3 DUP6 PUSH2 0x11EE JUMP JUMPDEST SWAP2 POP POP SWAP3 SWAP2 POP POP JUMP JUMPDEST PUSH1 0x0 DUP1 PUSH1 0x0 DUP1 PUSH1 0x0 PUSH1 0xE0 DUP7 DUP9 SUB SLT ISZERO PUSH2 0x1295 JUMPI PUSH2 0x1294 PUSH2 0xF9C JUMP JUMPDEST JUMPDEST PUSH1 0x0 DUP7 ADD CALLDATALOAD PUSH8 0xFFFFFFFFFFFFFFFF DUP2 GT ISZERO PUSH2 0x12B3 JUMPI PUSH2 0x12B2 PUSH2 0xFA1 JUMP JUMPDEST JUMPDEST PUSH2 0x12BF DUP9 DUP3 DUP10 ADD PUSH2 0x10BE JUMP JUMPDEST SWAP6 POP POP PUSH1 0x20 DUP7 ADD CALLDATALOAD PUSH8 0xFFFFFFFFFFFFFFFF DUP2 GT ISZERO PUSH2 0x12E0 JUMPI PUSH2 0x12DF PUSH2 0xFA1 JUMP JUMPDEST JUMPDEST PUSH2 0x12EC DUP9 DUP3 DUP10 ADD PUSH2 0x115F JUMP JUMPDEST SWAP5 POP POP PUSH1 0x40 DUP7 ADD CALLDATALOAD PUSH8 0xFFFFFFFFFFFFFFFF DUP2 GT ISZERO PUSH2 0x130D JUMPI PUSH2 0x130C PUSH2 0xFA1 JUMP JUMPDEST JUMPDEST PUSH2 0x1319 DUP9 DUP3 DUP10 ADD PUSH2 0x115F JUMP JUMPDEST SWAP4 POP POP PUSH1 0x60 PUSH2 0x132A DUP9 DUP3 DUP10 ADD PUSH2 0x124E JUMP JUMPDEST SWAP3 POP POP PUSH1 0xA0 PUSH2 0x133B DUP9 DUP3 DUP10 ADD PUSH2 0x124E JUMP JUMPDEST SWAP2 POP POP SWAP3 SWAP6 POP SWAP3 SWAP6 SWAP1 SWAP4 POP JUMP JUMPDEST PUSH1 0x0 DUP2 ISZERO ISZERO SWAP1 POP SWAP2 SWAP1 POP JUMP JUMPDEST PUSH2 0x135D DUP2 PUSH2 0x1348 JUMP JUMPDEST DUP3 MSTORE POP POP JUMP JUMPDEST PUSH1 0x0 PUSH1 0x20 DUP3 ADD SWAP1 POP PUSH2 0x1378 PUSH1 0x0 DUP4 ADD DUP5 PUSH2 0x1354 JUMP JUMPDEST SWAP3 SWAP2 POP POP JUMP JUMPDEST PUSH1 0x0 DUP2 SWAP1 POP SWAP2 SWAP1 POP JUMP JUMPDEST PUSH2 0x1391 DUP2 PUSH2 0x137E JUMP JUMPDEST DUP2 EQ PUSH2 0x139C JUMPI PUSH1 0x0 DUP1 REVERT JUMPDEST POP JUMP JUMPDEST PUSH1 0x0 DUP2 CALLDATALOAD SWAP1 POP PUSH2 0x13AE DUP2 PUSH2 0x1388 JUMP JUMPDEST SWAP3 SWAP2 POP POP JUMP JUMPDEST PUSH1 0x0 DUP1 PUSH1 0x0 DUP1 PUSH1 0x0 PUSH1 0xA0 DUP7 DUP9 SUB SLT ISZERO PUSH2 0x13D0 JUMPI PUSH2 0x13CF PUSH2 0xF9C JUMP JUMPDEST JUMPDEST PUSH1 0x0 PUSH2 0x13DE DUP9 DUP3 DUP10 ADD PUSH2 0x139F JUMP JUMPDEST SWAP6 POP POP PUSH1 0x20 PUSH2 0x13EF DUP9 DUP3 DUP10 ADD PUSH2 0x11D9 JUMP JUMPDEST SWAP5 POP POP PUSH1 0x40 PUSH2 0x1400 DUP9 DUP3 DUP10 ADD PUSH2 0x11D9 JUMP JUMPDEST SWAP4 POP POP PUSH1 0x60 PUSH2 0x1411 DUP9 DUP3 DUP10 ADD PUSH2 0x11D9 JUMP JUMPDEST SWAP3 POP POP PUSH1 0x80 PUSH2 0x1422 DUP9 DUP3 DUP10 ADD PUSH2 0x11D9 JUMP JUMPDEST SWAP2 POP POP SWAP3 SWAP6 POP SWAP3 SWAP6 SWAP1 SWAP4 POP JUMP JUMPDEST PUSH1 0x0 DUP2 SWAP1 POP SWAP2 SWAP1 POP JUMP JUMPDEST PUSH1 0x0 PUSH8 0xFFFFFFFFFFFFFFFF DUP3 AND SWAP1 POP SWAP2 SWAP1 POP JUMP JUMPDEST PUSH1 0x0 DUP2 SWAP1 POP SWAP2 SWAP1 POP JUMP JUMPDEST PUSH1 0x0 PUSH2 0x1472 PUSH2 0x146D PUSH2 0x1468 DUP5 PUSH2 0x142F JUMP JUMPDEST PUSH2 0x144D JUMP JUMPDEST PUSH2 0x1439 JUMP JUMPDEST SWAP1 POP SWAP2 SWAP1 POP JUMP JUMPDEST PUSH2 0x1482 DUP2 PUSH2 0x1457 JUMP JUMPDEST DUP3 MSTORE POP POP JUMP JUMPDEST PUSH1 0x0 PUSH1 0x20 DUP3 ADD SWAP1 POP PUSH2 0x149D PUSH1 0x0 DUP4 ADD DUP5 PUSH2 0x1479 JUMP JUMPDEST SWAP3 SWAP2 POP POP JUMP JUMPDEST PUSH1 0x0 DUP2 SWAP1 POP SWAP3 SWAP2 POP POP JUMP JUMPDEST PUSH32 0x7B2274797065223A22776562617574686E2E676574222C226368616C6C656E67 PUSH1 0x0 DUP3 ADD MSTORE PUSH32 0x65223A2200000000000000000000000000000000000000000000000000000000 PUSH1 0x20 DUP3 ADD MSTORE POP JUMP JUMPDEST PUSH1 0x0 PUSH2 0x150A PUSH1 0x24 DUP4 PUSH2 0x14A3 JUMP JUMPDEST SWAP2 POP PUSH2 0x1515 DUP3 PUSH2 0x14AE JUMP JUMPDEST PUSH1 0x24 DUP3 ADD SWAP1 POP SWAP2 SWAP1 POP JUMP JUMPDEST PUSH1 0x0 DUP2 MLOAD SWAP1 POP SWAP2 SWAP1 POP JUMP JUMPDEST PUSH1 0x0 JUMPDEST DUP4 DUP2 LT ISZERO PUSH2 0x1549 JUMPI DUP1 DUP3 ADD MLOAD DUP2 DUP5 ADD MSTORE PUSH1 0x20 DUP2 ADD SWAP1 POP PUSH2 0x152E JUMP JUMPDEST PUSH1 0x0 DUP5 DUP5 ADD MSTORE POP POP POP POP JUMP JUMPDEST PUSH1 0x0 PUSH2 0x1560 DUP3 PUSH2 0x1520 JUMP JUMPDEST PUSH2 0x156A DUP2 DUP6 PUSH2 0x14A3 JUMP JUMPDEST SWAP4 POP PUSH2 0x157A DUP2 DUP6 PUSH1 0x20 DUP7 ADD PUSH2 0x152B JUMP JUMPDEST DUP1 DUP5 ADD SWAP2 POP POP SWAP3 SWAP2 POP POP JUMP JUMPDEST PUSH32 0x222C226F726967696E223A220000000000000000000000000000000000000000 PUSH1 0x0 DUP3 ADD MSTORE POP JUMP JUMPDEST PUSH1 0x0 PUSH2 0x15BC PUSH1 0xC DUP4 PUSH2 0x14A3 JUMP JUMPDEST SWAP2 POP PUSH2 0x15C7 DUP3 PUSH2 0x1586 JUMP JUMPDEST PUSH1 0xC DUP3 ADD SWAP1 POP SWAP2 SWAP1 POP JUMP JUMPDEST PUSH32 0x222C2263726F73734F726967696E223A66616C73657D00000000000000000000 PUSH1 0x0 DUP3 ADD MSTORE POP JUMP JUMPDEST PUSH1 0x0 PUSH2 0x1608 PUSH1 0x16 DUP4 PUSH2 0x14A3 JUMP JUMPDEST SWAP2 POP PUSH2 0x1613 DUP3 PUSH2 0x15D2 JUMP JUMPDEST PUSH1 0x16 DUP3 ADD SWAP1 POP SWAP2 SWAP1 POP JUMP JUMPDEST PUSH1 0x0 PUSH2 0x1629 DUP3 PUSH2 0x14FD JUMP JUMPDEST SWAP2 POP PUSH2 0x1635 DUP3 DUP6 PUSH2 0x1555 JUMP JUMPDEST SWAP2 POP PUSH2 0x1640 DUP3 PUSH2 0x15AF JUMP JUMPDEST SWAP2 POP PUSH2 0x164C DUP3 DUP5 PUSH2 0x1555 JUMP JUMPDEST SWAP2 POP PUSH2 0x1657 DUP3 PUSH2 0x15FB JUMP JUMPDEST SWAP2 POP DUP2 SWAP1 POP SWAP4 SWAP3 POP POP POP JUMP JUMPDEST PUSH1 0x0 DUP2 MLOAD SWAP1 POP SWAP2 SWAP1 POP JUMP JUMPDEST PUSH1 0x0 DUP2 SWAP1 POP SWAP3 SWAP2 POP POP JUMP JUMPDEST PUSH1 0x0 PUSH2 0x1684 DUP3 PUSH2 0x1663 JUMP JUMPDEST PUSH2 0x168E DUP2 DUP6 PUSH2 0x166E JUMP JUMPDEST SWAP4 POP PUSH2 0x169E DUP2 DUP6 PUSH1 0x20 DUP7 ADD PUSH2 0x152B JUMP JUMPDEST DUP1 DUP5 ADD SWAP2 POP POP SWAP3 SWAP2 POP POP JUMP JUMPDEST PUSH1 0x0 PUSH2 0x16B6 DUP3 DUP5 PUSH2 0x1679 JUMP JUMPDEST SWAP2 POP DUP2 SWAP1 POP SWAP3 SWAP2 POP POP JUMP JUMPDEST PUSH1 0x0 DUP2 MLOAD SWAP1 POP PUSH2 0x16D0 DUP2 PUSH2 0x1388 JUMP JUMPDEST SWAP3 SWAP2 POP POP JUMP JUMPDEST PUSH1 0x0 PUSH1 0x20 DUP3 DUP5 SUB SLT ISZERO PUSH2 0x16EC JUMPI PUSH2 0x16EB PUSH2 0xF9C JUMP JUMPDEST JUMPDEST PUSH1 0x0 PUSH2 0x16FA DUP5 DUP3 DUP6 ADD PUSH2 0x16C1 JUMP JUMPDEST SWAP2 POP POP SWAP3 SWAP2 POP POP JUMP JUMPDEST PUSH1 0x0 DUP2 SWAP1 POP SWAP2 SWAP1 POP JUMP JUMPDEST PUSH2 0x171E PUSH2 0x1719 DUP3 PUSH2 0x137E JUMP JUMPDEST PUSH2 0x1703 JUMP JUMPDEST DUP3 MSTORE POP POP JUMP JUMPDEST PUSH1 0x0 PUSH2 0x1730 DUP3 DUP6 PUSH2 0x1679 JUMP JUMPDEST SWAP2 POP PUSH2 0x173C DUP3 DUP5 PUSH2 0x170D JUMP JUMPDEST PUSH1 0x20 DUP3 ADD SWAP2 POP DUP2 SWAP1 POP SWAP4 SWAP3 POP POP POP JUMP JUMPDEST PUSH32 0x4E487B7100000000000000000000000000000000000000000000000000000000 PUSH1 0x0 MSTORE PUSH1 0x32 PUSH1 0x4 MSTORE PUSH1 0x24 PUSH1 0x0 REVERT JUMPDEST PUSH32 0x4E487B7100000000000000000000000000000000000000000000000000000000 PUSH1 0x0 MSTORE PUSH1 0x12 PUSH1 0x4 MSTORE PUSH1 0x24 PUSH1 0x0 REVERT INVALID LOG2 PUSH5 0x6970667358 0x22 SLT KECCAK256 LOG4 0xEF 0xD7 SWAP3 CALLDATALOAD ADDRESS LOG0 SWAP1 0xDD GASLIMIT 0xDA PUSH28 0x14ED079425CC40DD38A6ACB0442DF13A1CFDD83764736F6C63430008 SHR STOP CALLER "},"methodIdentifiers":{"check_signature(bytes32,uint256,uint256,uint256,uint256)":"f2fbdc06","initialize()":"8129fc1c","verify(bytes,string,string,uint256[2],uint256[2])":"d7ed656d"}},"storageLayout":{"storage":[],"types":null}}}}