{"contracts/CarmelRegistry.sol":{"CarmelRegistry":{"abi":[{"inputs":[],"stateMutability":"nonpayable","type":"constructor"},{"inputs":[],"name":"InvalidInitialization","type":"error"},{"inputs":[],"name":"NotInitializing","type":"error"},{"anonymous":false,"inputs":[{"indexed":false,"internalType":"uint64","name":"version","type":"uint64"}],"name":"Initialized","type":"event"},{"inputs":[],"name":"accountImpl","outputs":[{"internalType":"contract CarmelAccount","name":"","type":"address"}],"stateMutability":"view","type":"function"},{"inputs":[{"internalType":"bytes32","name":"","type":"bytes32"}],"name":"accounts","outputs":[{"internalType":"uint256","name":"id","type":"uint256"},{"internalType":"bytes32","name":"username","type":"bytes32"},{"internalType":"bytes32","name":"sysmeta0","type":"bytes32"},{"internalType":"bytes32","name":"sysmeta1","type":"bytes32"},{"internalType":"bytes32","name":"umeta0","type":"bytes32"},{"internalType":"bytes32","name":"umeta1","type":"bytes32"},{"internalType":"bytes32","name":"group","type":"bytes32"},{"internalType":"uint32","name":"total_keys","type":"uint32"},{"internalType":"uint32","name":"total_addresses","type":"uint32"}],"stateMutability":"view","type":"function"},{"inputs":[{"internalType":"bytes32","name":"username","type":"bytes32"},{"internalType":"uint256","name":"x","type":"uint256"},{"internalType":"uint256","name":"y","type":"uint256"}],"name":"addKey","outputs":[],"stateMutability":"nonpayable","type":"function"},{"inputs":[{"internalType":"bytes32","name":"","type":"bytes32"},{"internalType":"uint256","name":"","type":"uint256"}],"name":"addresses","outputs":[{"internalType":"address","name":"","type":"address"}],"stateMutability":"view","type":"function"},{"inputs":[],"name":"entryPointAddress","outputs":[{"internalType":"address","name":"","type":"address"}],"stateMutability":"view","type":"function"},{"inputs":[{"internalType":"bytes32","name":"grp","type":"bytes32"}],"name":"group","outputs":[{"components":[{"internalType":"uint256","name":"id","type":"uint256"},{"internalType":"bytes32","name":"username","type":"bytes32"},{"internalType":"bytes32","name":"sysmeta0","type":"bytes32"},{"internalType":"bytes32","name":"sysmeta1","type":"bytes32"},{"internalType":"bytes32","name":"umeta0","type":"bytes32"},{"internalType":"bytes32","name":"umeta1","type":"bytes32"},{"internalType":"bytes32","name":"group","type":"bytes32"},{"internalType":"uint32","name":"total_keys","type":"uint32"},{"internalType":"uint32","name":"total_addresses","type":"uint32"}],"internalType":"struct CarmelRegistry.Account[]","name":"","type":"tuple[]"}],"stateMutability":"view","type":"function"},{"inputs":[{"internalType":"address","name":"sender","type":"address"},{"internalType":"address","name":"ep","type":"address"},{"internalType":"address","name":"ver","type":"address"}],"name":"initialize","outputs":[],"stateMutability":"nonpayable","type":"function"},{"inputs":[{"internalType":"bytes32","name":"","type":"bytes32"},{"internalType":"uint256","name":"","type":"uint256"}],"name":"keys_x","outputs":[{"internalType":"uint256","name":"","type":"uint256"}],"stateMutability":"view","type":"function"},{"inputs":[{"internalType":"bytes32","name":"","type":"bytes32"},{"internalType":"uint256","name":"","type":"uint256"}],"name":"keys_y","outputs":[{"internalType":"uint256","name":"","type":"uint256"}],"stateMutability":"view","type":"function"},{"inputs":[],"name":"owner","outputs":[{"internalType":"address","name":"","type":"address"}],"stateMutability":"view","type":"function"},{"inputs":[{"internalType":"address","name":"","type":"address"}],"name":"perms","outputs":[{"internalType":"uint8","name":"","type":"uint8"}],"stateMutability":"view","type":"function"},{"inputs":[{"internalType":"bytes32","name":"username","type":"bytes32"},{"internalType":"bytes32","name":"grp","type":"bytes32"},{"internalType":"address","name":"addr","type":"address"},{"internalType":"bytes32[2]","name":"sh","type":"bytes32[2]"},{"internalType":"bytes32[2]","name":"uh","type":"bytes32[2]"}],"name":"register","outputs":[],"stateMutability":"nonpayable","type":"function"},{"inputs":[{"components":[{"internalType":"bytes32","name":"username","type":"bytes32"},{"internalType":"uint256","name":"keyId","type":"uint256"},{"internalType":"uint256","name":"r","type":"uint256"},{"internalType":"uint256","name":"s","type":"uint256"},{"internalType":"bytes","name":"authenticatorData","type":"bytes"},{"internalType":"string","name":"clientDataJSON","type":"string"}],"internalType":"struct CarmelRegistry.Signature","name":"signature","type":"tuple"}],"name":"sign","outputs":[{"internalType":"bool","name":"","type":"bool"}],"stateMutability":"view","type":"function"},{"inputs":[],"name":"total_accounts","outputs":[{"internalType":"uint256","name":"","type":"uint256"}],"stateMutability":"view","type":"function"},{"inputs":[{"internalType":"address","name":"addr","type":"address"},{"internalType":"uint8","name":"level","type":"uint8"}],"name":"updatePerms","outputs":[],"stateMutability":"nonpayable","type":"function"},{"inputs":[{"internalType":"bytes32","name":"","type":"bytes32"},{"internalType":"uint256","name":"","type":"uint256"}],"name":"usernames","outputs":[{"internalType":"bytes32","name":"","type":"bytes32"}],"stateMutability":"view","type":"function"},{"inputs":[],"name":"verifier","outputs":[{"internalType":"address","name":"","type":"address"}],"stateMutability":"view","type":"function"},{"inputs":[],"name":"version","outputs":[{"internalType":"uint16","name":"","type":"uint16"}],"stateMutability":"pure","type":"function"}],"evm":{"bytecode":{"linkReferences":{},"object":"6080604052348015600f57600080fd5b506016601a565b60ca565b7ff0c57e16840df040f15088dc2f81fe391c3923bec73e23a9662efc9c229c6a00805468010000000000000000900460ff161560695760405163f92ee8a960e01b815260040160405180910390fd5b80546001600160401b039081161460c75780546001600160401b0319166001600160401b0390811782556040519081527fc7f505b2f371ae2175ee4913f4499e1f2633a7b5936321eed1cdaeb6115181d29060200160405180910390a15b50565b612c5f806100d96000396000f3fe608060405234801561001057600080fd5b50600436106101165760003560e01c80638804eb9f116100a2578063ac7b591111610071578063ac7b59111461023e578063b409ea4e14610261578063b76b70d514610296578063bc529c43146102a9578063c0c53b8b1461035b57600080fd5b80638804eb9f146101f25780638da5cb5b14610205578063970a7e481461021857806398ebbd3c1461022b57600080fd5b80634aba0058116100e95780634aba00581461018657806354fd4d50146101a757806356d9815a146101b657806377cdfa98146101c95780637993c18f146101d257600080fd5b806306dc245c1461011b57806316aac50e1461014b5780631d381240146101605780632b7ac3f314610173575b600080fd5b60015461012e906001600160a01b031681565b6040516001600160a01b0390911681526020015b60405180910390f35b61015e61015936600461103d565b61036e565b005b61015e61016e36600461107a565b6103d9565b60045461012e906001600160a01b031681565b6101996101943660046110a6565b610557565b604051908152602001610142565b60405160018152602001610142565b6101996101c43660046110a6565b610588565b61019960025481565b6101e56101e03660046110c8565b6105a4565b60405161014291906110e1565b60005461012e906001600160a01b031681565b60035461012e906001600160a01b031681565b61015e61022636600461123a565b610777565b6101996102393660046110a6565b6109e9565b61025161024c366004611329565b610a05565b6040519015158152602001610142565b61028461026f3660046113ee565b60056020526000908152604090205460ff1681565b60405160ff9091168152602001610142565b61012e6102a43660046110a6565b610c79565b61030e6102b73660046110c8565b60066020819052600091825260409091208054600182015460028301546003840154600485015460058601549686015460079096015494969395929491939092909163ffffffff8082169164010000000090041689565b60408051998a5260208a0198909852968801959095526060870193909352608086019190915260a085015260c084015263ffffffff90811660e08401521661010082015261012001610142565b61015e610369366004611409565b610cb1565b3360009081526005602052604090205460fa60ff90911610156103ac5760405162461bcd60e51b81526004016103a39061144c565b60405180910390fd5b6001600160a01b03919091166000908152600560205260409020805460ff191660ff909216919091179055565b3360009081526005602052604090205460fa60ff909116101561040e5760405162461bcd60e51b81526004016103a39061144c565b6000838152600660208181526040928390208351610120810185528154815260018201549281018390526002820154948101949094526003810154606085015260048101546080850152600581015460a08501529182015460c084015260079091015463ffffffff80821660e0850152640100000000909104166101008301526104da5760405162461bcd60e51b815260206004820152601a60248201527f546865206163636f756e7420646f6573206e6f7420657869737400000000000060448201526064016103a3565b6000848152600860209081526040808320805460018181018355918552838520018790558784526009835290832080548083018255908452919092200183905560e082015161052891611490565b600094855260066020526040909420600701805463ffffffff191663ffffffff90951694909417909355505050565b6008602052816000526040600020818154811061057357600080fd5b90600052602060002001600091509150505481565b6007602052816000526040600020818154811061057357600080fd5b60008181526007602090815260408083208054825181850281018501909352808352606094938301828280156105f957602002820191906000526020600020905b8154815260200190600101908083116105e5575b5050505050905060008151905060008167ffffffffffffffff8111156106215761062161118b565b60405190808252806020026020018201604052801561069857816020015b604080516101208101825260008082526020808301829052928201819052606082018190526080820181905260a0820181905260c0820181905260e08201819052610100820152825260001990920191018161063f5790505b50905060005b8281101561076e57600660008583815181106106bc576106bc6114ac565b6020908102919091018101518252818101929092526040908101600020815161012081018352815481526001820154938101939093526002810154918301919091526003810154606083015260048101546080830152600581015460a0830152600681015460c08301526007015463ffffffff80821660e084015264010000000090910416610100820152825183908390811061075b5761075b6114ac565b602090810291909101015260010161069e565b50949350505050565b3360009081526005602052604090205460fa60ff90911610156107ac5760405162461bcd60e51b81526004016103a39061144c565b6000858152600660208181526040928390208351610120810185528154815260018201549281018390526002820154948101949094526003810154606085015260048101546080850152600581015460a08501529182015460c084015260079091015463ffffffff80821660e085015264010000000090910416610100830152156108795760405162461bcd60e51b815260206004820152601b60248201527f54686520757365726e616d6520616c726561647920657869737473000000000060448201526064016103a3565b6040805161012081018252600254815260208082018990528551928201929092529084015160608201528251608082015260009060a0810184600160209081029190910151825281810189905260006040808401829052600160609485018190528c83526006808552828420875181558786015181840155878401516002808301919091559688015160038201556080880151600482015560a088015160058083019190915560c08901519282019290925560e0880151600791820180546101008b015163ffffffff9081166401000000000267ffffffffffffffff19909216931692909217919091179055600a8652838520805480850182559086528686200180546001600160a01b038f166001600160a01b031990911681179091558e865290865283852080548085018255908652868620018f905584529093529020805460ff19168217905590549192506109d191906114c2565b6002556109df856000610e59565b5050505050505050565b6009602052816000526040600020818154811061057357600080fd5b3360009081526005602052604081205460fa60ff9091161015610a3a5760405162461bcd60e51b81526004016103a39061144c565b81516000908152600660208181526040928390208351610120810185528154815260018201549281018390526002820154948101949094526003810154606085015260048101546080850152600581015460a08501529182015460c084015260079091015463ffffffff80821660e085015264010000000090910416610100830152610b085760405162461bcd60e51b815260206004820152601a60248201527f546865206163636f756e7420646f6573206e6f7420657869737400000000000060448201526064016103a3565b602080840151845160009081526008909252604090912054118015610b425750602080840151845160009081526009909252604090912054115b610b7f5760405162461bcd60e51b815260206004820152600e60248201526d496e76616c69642064657669636560901b60448201526064016103a3565b8251600090815260086020908152604082209085015181548110610ba557610ba56114ac565b6000918252602080832090910154865183526009825260408320918701518254919450908110610bd757610bd76114ac565b60009182526020909120015460048054608088015160a08901516040808b015160608c015191516362445d8d60e11b81529697506001600160a01b039094169563c488bb1a95610c2d9592918a918a9101611525565b602060405180830381865afa158015610c4a573d6000803e3d6000fd5b505050506040513d601f19601f82011682018060405250810190610c6e9190611570565b93505050505b919050565b600a6020528160005260406000208181548110610c9557600080fd5b6000918252602090912001546001600160a01b03169150829050565b7ff0c57e16840df040f15088dc2f81fe391c3923bec73e23a9662efc9c229c6a008054600160401b810460ff16159067ffffffffffffffff16600081158015610cf75750825b905060008267ffffffffffffffff166001148015610d145750303b155b905081158015610d22575080155b15610d405760405163f92ee8a960e01b815260040160405180910390fd5b845467ffffffffffffffff191660011785558315610d6a57845460ff60401b1916600160401b1785555b3360009081526005602052604090819020805460ff191660fa179055600380546001600160a01b038b81166001600160a01b031992831617909255600180548b841690831617905560048054928a169290911691909117905551610dcd9061100c565b604051809103906000f080158015610de9573d6000803e3d6000fd5b50600080546001600160a01b0319166001600160a01b039290921691909117905583156109df57845460ff60401b19168555604051600181527fc7f505b2f371ae2175ee4913f4499e1f2633a7b5936321eed1cdaeb6115181d29060200160405180910390a15050505050505050565b600080610e668484610f0f565b90506001600160a01b0381163b8015610e8157509050610f09565b6000546001546040516001600160a01b0391821660248201528692919091169060440160408051601f198184030181529181526020820180516001600160e01b031663189acdbd60e31b17905251610ed890611019565b610ee3929190611592565b8190604051809103906000f5905080158015610f03573d6000803e3d6000fd5b50925050505b92915050565b6000610fca8260001b60405180602001610f2890611019565b601f1982820381018352601f9091011660408190526000546001546001600160a01b039081166024840152169060440160408051601f19818403018152918152602080830180516001600160e01b031663189acdbd60e31b1790529051610f9193929101611592565b60408051601f1981840301815290829052610faf92916020016115be565b60405160208183030381529060405280519060200120610fd1565b9392505050565b6000610fca8383306000604051836040820152846020820152828152600b8101905060ff8153605590206001600160a01b0316949350505050565b61122c806115ee83390190565b6104108061281a83390190565b80356001600160a01b0381168114610c7457600080fd5b6000806040838503121561105057600080fd5b61105983611026565b9150602083013560ff8116811461106f57600080fd5b809150509250929050565b60008060006060848603121561108f57600080fd5b505081359360208301359350604090920135919050565b600080604083850312156110b957600080fd5b50508035926020909101359150565b6000602082840312156110da57600080fd5b5035919050565b602080825282518282018190526000918401906040840190835b81811015611180578351805184526020810151602085015260408101516040850152606081015160608501526080810151608085015260a081015160a085015260c081015160c085015263ffffffff60e08201511660e085015263ffffffff6101008201511661010085015250610120830192506020840193506001810190506110fb565b509095945050505050565b634e487b7160e01b600052604160045260246000fd5b60405160c0810167ffffffffffffffff811182821017156111c4576111c461118b565b60405290565b600082601f8301126111db57600080fd5b6040805190810167ffffffffffffffff811182821017156111fe576111fe61118b565b806040525080604084018581111561121557600080fd5b845b8181101561122f578035835260209283019201611217565b509195945050505050565b600080600080600060e0868803121561125257600080fd5b853594506020860135935061126960408701611026565b925061127887606088016111ca565b91506112878760a088016111ca565b90509295509295909350565b600082601f8301126112a457600080fd5b81356020830160008067ffffffffffffffff8411156112c5576112c561118b565b50604051601f19601f85018116603f0116810181811067ffffffffffffffff821117156112f4576112f461118b565b60405283815290508082840187101561130c57600080fd5b838360208301376000602085830101528094505050505092915050565b60006020828403121561133b57600080fd5b813567ffffffffffffffff81111561135257600080fd5b820160c0818503121561136457600080fd5b61136c6111a1565b81358152602080830135908201526040808301359082015260608083013590820152608082013567ffffffffffffffff8111156113a857600080fd5b6113b486828501611293565b60808301525060a082013567ffffffffffffffff8111156113d457600080fd5b6113e086828501611293565b60a083015250949350505050565b60006020828403121561140057600080fd5b610fca82611026565b60008060006060848603121561141e57600080fd5b61142784611026565b925061143560208501611026565b915061144360408501611026565b90509250925092565b60208082526014908201527310591b5a5b881b195d995b081c995c5d5a5c995960621b604082015260600190565b634e487b7160e01b600052601160045260246000fd5b63ffffffff8181168382160190811115610f0957610f0961147a565b634e487b7160e01b600052603260045260246000fd5b80820180821115610f0957610f0961147a565b60005b838110156114f05781810151838201526020016114d8565b50506000910152565b600081518084526115118160208601602086016114d5565b601f01601f19169290920160200192915050565b60c08152600061153860c08301896114f9565b828103602084015261154a81896114f9565b9150508560408301528460608301528360808301528260a0830152979650505050505050565b60006020828403121561158257600080fd5b81518015158114610fca57600080fd5b6001600160a01b03831681526040602082018190526000906115b6908301846114f9565b949350505050565b600083516115d08184602088016114d5565b8351908301906115e48183602088016114d5565b0194935050505056fe6080604052348015600f57600080fd5b506016601a565b60ca565b7ff0c57e16840df040f15088dc2f81fe391c3923bec73e23a9662efc9c229c6a00805468010000000000000000900460ff161560695760405163f92ee8a960e01b815260040160405180910390fd5b80546001600160401b039081161460c75780546001600160401b0319166001600160401b0390811782556040519081527fc7f505b2f371ae2175ee4913f4499e1f2633a7b5936321eed1cdaeb6115181d29060200160405180910390a15b50565b611153806100d96000396000f3fe60806040526004361061007f5760003560e01c80633e1b08121161004e5780633e1b08121461014e578063b0d691fe1461016e578063c4d66de81461018c578063d087d288146101ac57600080fd5b806306dc245c1461008b57806307a00330146100c857806319822f7c146100f0578063258ae5821461011e57600080fd5b3661008657005b600080fd5b34801561009757600080fd5b506000546100ab906001600160a01b031681565b6040516001600160a01b0390911681526020015b60405180910390f35b3480156100d457600080fd5b506100ee6100e3366004610e7f565b600191909155600255565b005b3480156100fc57600080fd5b5061011061010b366004610ea1565b6101c1565b6040519081526020016100bf565b34801561012a57600080fd5b5061013e610139366004610ef5565b610207565b60405190151581526020016100bf565b34801561015a57600080fd5b50610110610169366004610f73565b610280565b34801561017a57600080fd5b506000546001600160a01b03166100ab565b34801561019857600080fd5b506100ee6101a7366004610f9c565b61030c565b3480156101b857600080fd5b5061011061042e565b60006101cb61043f565b60006101e4816101df610100880188610fc5565b610495565b6101ef5760016101f2565b60005b90506101fd836104a2565b90505b9392505050565b600060408210806102185750600154155b806102235750600254155b1561023057506000610200565b600061023f6020828587611013565b6102489161103d565b9050600061025a604060208688611013565b6102639161103d565b90506102768683836001546002546104f6565b9695505050505050565b600080546001600160a01b0316604051631aab3f0d60e11b81523060048201526001600160c01b03841660248201526001600160a01b0391909116906335567e1a90604401602060405180830381865afa1580156102e2573d6000803e3d6000fd5b505050506040513d601f19601f82011682018060405250810190610306919061105b565b92915050565b7ff0c57e16840df040f15088dc2f81fe391c3923bec73e23a9662efc9c229c6a008054600160401b810460ff16159067ffffffffffffffff166000811580156103525750825b905060008267ffffffffffffffff16600114801561036f5750303b155b90508115801561037d575080155b1561039b5760405163f92ee8a960e01b815260040160405180910390fd5b845467ffffffffffffffff1916600117855583156103c557845460ff60401b1916600160401b1785555b600080546001600160a01b0319166001600160a01b038816179055831561042657845460ff60401b19168555604051600181527fc7f505b2f371ae2175ee4913f4499e1f2633a7b5936321eed1cdaeb6115181d29060200160405180910390a15b505050505050565b600061043a6000610280565b905090565b336104526000546001600160a01b031690565b6001600160a01b0316816001600160a01b03161461049257604051637cf8632b60e01b81526001600160a01b038216600482015260240160405180910390fd5b50565b60006101fd848484610207565b801561049257604051600090339083908381818185875af1925050503d80600081146104ea576040519150601f19603f3d011682016040523d82523d6000602084013e6104ef565b606091505b5050505050565b60008060006105088888888888610533565b91509150806105235761051e8888888888610637565b610525565b815b925050505b95945050505050565b60008061054086866106f2565b15806105535750610551848461074b565b155b15610564575060009050600161062d565b6040805160208101899052908101879052606081018690526080810185905260a0810184905260009081906101009060c00160408051601f19818403018152908290526105b091611074565b600060405180830381855afa9150503d80600081146105eb576040519150601f19603f3d011682016040523d82523d6000602084013e6105f0565b606091505b5091509150818015610603575080516020145b61060f57600080610626565b8080602001905181019061062391906110a3565b60015b9350935050505b9550959350505050565b600061064385856106f2565b15806106565750610654838361074b565b155b156106635750600061052a565b600061066f84846107b0565b9050600061068b866000805160206110fe8339815191526109a7565b905060006000805160206110fe833981519152828a09905060006000805160206110fe833981519152838a09905060006106c68584846109b7565b509050896106e26000805160206110fe833981519152836110c5565b149b9a5050505050505050505050565b6000821580159061071057506000805160206110fe83398151915283105b801561071b57508115155b80156102005750507f7fffffff800000007fffffffffffffffde737d56d38bcf4279dce5617e3192a81015919050565b6000600160601b63ffffffff60c01b031980838409817f5ac635d8aa3a93e7b3ebbd55769886bc651d06b0cc53b0f63bce3c3e27d2604b8387856003600160601b0363ffffffff60c01b0319878b8c0908090894821191909310169190921416919050565b6107b8610e35565b604051806060016040528060008152602001600081526020016000815250816000601081106107e9576107e96110e7565b60200201819052506040518060600160405280848152602001838152602001600181525081600160108110610820576108206110e7565b602002018190525060405180606001604052807f6b17d1f2e12c4247f8bce6e563a440f277037d812deb33a0f4a13945d898c29681526020017f4fe342e2fe1a7f9b8ee7eb4a7c0f9e162bce33576b315ececbb6406837bf51f58152602001600181525081600460108110610897576108976110e7565b60200201526108ad8160015b6020020151610adf565b60408201526108bd8160046108a3565b61010082015260208101516108da908260025b6020020151610b41565b60608201526108f38160015b60200201518260046108d0565b60a08201526109038160026108e6565b60c08201526109138160036108e6565b60e082015261092c8160015b60200201518260086108d0565b61012082015261093d81600261091f565b61014082015261094e81600361091f565b61016082015261095f81600461091f565b6101808201526109798160015b602002015182600c6108d0565b6101a082015261098a81600261096c565b6101c082015261099b81600361096c565b6101e082015292915050565b6000610200836002840384610ba5565b6000806000806000805b6080811015610ac35781156109f5576109db848484610bc8565b919550935091506109ed848484610bc8565b919550935091505b600c60fc89901c1660fe88901c17898160108110610a1557610a156110e7565b60200201516040015115610aaf5782600003610a8557898160108110610a3d57610a3d6110e7565b6020020151518a8260108110610a5557610a556110e7565b6020020151602001518b8360108110610a7057610a706110e7565b60200201516040015191965094509250610aaf565b610aa78a8260108110610a9a57610a9a6110e7565b6020020151868686610c4d565b919650945092505b50600297881b979690961b956001016109c1565b50610acf838383610d7b565b945094505050505b935093915050565b610b0360405180606001604052806000815260200160008152602001600081525090565b6000806000610b1f856000015186602001518760400151610bc8565b6040805160608101825293845260208401929092529082015295945050505050565b610b6560405180606001604052806000815260200160008152602001600081525090565b6000806000610b8286866000015187602001518860400151610c4d565b604080516060810182529384526020840192909252908201529695505050505050565b6000806000610bb5868686610dcc565b915091508161052a5761052a6012610e23565b6000806000600160601b63ffffffff60c01b031980868709818687098283848384096003600160601b0363ffffffff60c01b03190984858c8d096003090890508283838b09600409838482600209850385848509089650838485858609600809850385868a880385088509089550505050808186880960020991505093509350939050565b6000806000600160601b63ffffffff60c01b0319604088015181818209828388858a8b090960208c0151098381850385868686098c090884858a8b098d51098581870387868f0908935081158415168015610caf5760018114610cf557610d6a565b868586098788898386096002098903898a848a098b038b88890908089a5087888983890987098903898a8e8c038c8689090887090899505086878c880986099750610d6a565b8c8c8c898283098a8283098b8c8d8384096003600160601b0363ffffffff60c01b0319098d8e8889096003090890508b8c83870960040994508b8c866002098d038d838409089e508b8c8384096008098c0391508b8f8d03860894508b828d878409089d505050898a8284096002099a505050505b505050505050509450945094915050565b60008082600003610d9157506000905080610ad7565b600160601b63ffffffff60c01b03196000610dac85836109a7565b905081818209828189099450828383830988099350505050935093915050565b60008082600003610de257506000905080610ad7565b60405160208152602080820152602060408201528560608201528460808201528360a08201526020600060c08360055afa9250506000519050935093915050565b634e487b71600052806020526024601cfd5b6040518061020001604052806010905b610e6960405180606001604052806000815260200160008152602001600081525090565b815260200190600190039081610e455790505090565b60008060408385031215610e9257600080fd5b50508035926020909101359150565b600080600060608486031215610eb657600080fd5b833567ffffffffffffffff811115610ecd57600080fd5b84016101208187031215610ee057600080fd5b95602085013595506040909401359392505050565b600080600060408486031215610f0a57600080fd5b83359250602084013567ffffffffffffffff811115610f2857600080fd5b8401601f81018613610f3957600080fd5b803567ffffffffffffffff811115610f5057600080fd5b866020828401011115610f6257600080fd5b939660209190910195509293505050565b600060208284031215610f8557600080fd5b81356001600160c01b038116811461020057600080fd5b600060208284031215610fae57600080fd5b81356001600160a01b038116811461020057600080fd5b6000808335601e19843603018112610fdc57600080fd5b83018035915067ffffffffffffffff821115610ff757600080fd5b60200191503681900382131561100c57600080fd5b9250929050565b6000808585111561102357600080fd5b8386111561103057600080fd5b5050820193919092039150565b8035602083101561030657600019602084900360031b1b1692915050565b60006020828403121561106d57600080fd5b5051919050565b6000825160005b81811015611095576020818601810151858301520161107b565b506000920191825250919050565b6000602082840312156110b557600080fd5b8151801515811461020057600080fd5b6000826110e257634e487b7160e01b600052601260045260246000fd5b500690565b634e487b7160e01b600052603260045260246000fdfeffffffff00000000ffffffffffffffffbce6faada7179e84f3b9cac2fc632551a2646970667358221220047d953df243afe512af0fb44a341cc5feef2b91cc8bf4562e587bf1b352d1c464736f6c634300081c0033608060405260405161041038038061041083398101604081905261002291610268565b61002c8282610033565b5050610358565b61003c82610092565b6040516001600160a01b038316907fbc7cd75a20ee27fd9adebab32041f755214dbc6bffa90cc0225b39da2e5c2d3b90600090a280511561008657610081828261010e565b505050565b61008e610185565b5050565b806001600160a01b03163b6000036100cd57604051634c9c8ce360e01b81526001600160a01b03821660048201526024015b60405180910390fd5b7f360894a13ba1a3210667c828492db98dca3e2076cc3735a920a3ca505d382bbc80546001600160a01b0319166001600160a01b0392909216919091179055565b6060600080846001600160a01b03168460405161012b919061033c565b600060405180830381855af49150503d8060008114610166576040519150601f19603f3d011682016040523d82523d6000602084013e61016b565b606091505b50909250905061017c8583836101a6565b95945050505050565b34156101a45760405163b398979f60e01b815260040160405180910390fd5b565b6060826101bb576101b682610205565b6101fe565b81511580156101d257506001600160a01b0384163b155b156101fb57604051639996b31560e01b81526001600160a01b03851660048201526024016100c4565b50805b9392505050565b8051156102155780518082602001fd5b60405163d6bda27560e01b815260040160405180910390fd5b634e487b7160e01b600052604160045260246000fd5b60005b8381101561025f578181015183820152602001610247565b50506000910152565b6000806040838503121561027b57600080fd5b82516001600160a01b038116811461029257600080fd5b60208401519092506001600160401b038111156102ae57600080fd5b8301601f810185136102bf57600080fd5b80516001600160401b038111156102d8576102d861022e565b604051601f8201601f19908116603f011681016001600160401b03811182821017156103065761030661022e565b60405281815282820160200187101561031e57600080fd5b61032f826020830160208601610244565b8093505050509250929050565b6000825161034e818460208701610244565b9190910192915050565b60aa806103666000396000f3fe6080604052600a600c565b005b60186014601a565b6051565b565b6000604c7f360894a13ba1a3210667c828492db98dca3e2076cc3735a920a3ca505d382bbc546001600160a01b031690565b905090565b3660008037600080366000845af43d6000803e808015606f573d6000f35b3d6000fdfea264697066735822122012aee0aff40d6f2eb1044cc9318f954c49344be34dd1a3cb522a85bb3adc83bc64736f6c634300081c0033a26469706673582212205f970d0e0e043694ee3b3c713fe8559753e9519f28042bb6726e28cff9e8d92364736f6c634300081c0033","opcodes":"PUSH1 0x80 PUSH1 0x40 MSTORE CALLVALUE DUP1 ISZERO PUSH1 0xF JUMPI PUSH1 0x0 DUP1 REVERT JUMPDEST POP PUSH1 0x16 PUSH1 0x1A JUMP JUMPDEST PUSH1 0xCA JUMP JUMPDEST PUSH32 0xF0C57E16840DF040F15088DC2F81FE391C3923BEC73E23A9662EFC9C229C6A00 DUP1 SLOAD PUSH9 0x10000000000000000 SWAP1 DIV PUSH1 0xFF AND ISZERO PUSH1 0x69 JUMPI PUSH1 0x40 MLOAD PUSH4 0xF92EE8A9 PUSH1 0xE0 SHL DUP2 MSTORE PUSH1 0x4 ADD PUSH1 0x40 MLOAD DUP1 SWAP2 SUB SWAP1 REVERT JUMPDEST DUP1 SLOAD PUSH1 0x1 PUSH1 0x1 PUSH1 0x40 SHL SUB SWAP1 DUP2 AND EQ PUSH1 0xC7 JUMPI DUP1 SLOAD PUSH1 0x1 PUSH1 0x1 PUSH1 0x40 SHL SUB NOT AND PUSH1 0x1 PUSH1 0x1 PUSH1 0x40 SHL SUB SWAP1 DUP2 OR DUP3 SSTORE PUSH1 0x40 MLOAD SWAP1 DUP2 MSTORE PUSH32 0xC7F505B2F371AE2175EE4913F4499E1F2633A7B5936321EED1CDAEB6115181D2 SWAP1 PUSH1 0x20 ADD PUSH1 0x40 MLOAD DUP1 SWAP2 SUB SWAP1 LOG1 JUMPDEST POP JUMP JUMPDEST PUSH2 0x2C5F DUP1 PUSH2 0xD9 PUSH1 0x0 CODECOPY PUSH1 0x0 RETURN INVALID PUSH1 0x80 PUSH1 0x40 MSTORE CALLVALUE DUP1 ISZERO PUSH2 0x10 JUMPI PUSH1 0x0 DUP1 REVERT JUMPDEST POP PUSH1 0x4 CALLDATASIZE LT PUSH2 0x116 JUMPI PUSH1 0x0 CALLDATALOAD PUSH1 0xE0 SHR DUP1 PUSH4 0x8804EB9F GT PUSH2 0xA2 JUMPI DUP1 PUSH4 0xAC7B5911 GT PUSH2 0x71 JUMPI DUP1 PUSH4 0xAC7B5911 EQ PUSH2 0x23E JUMPI DUP1 PUSH4 0xB409EA4E EQ PUSH2 0x261 JUMPI DUP1 PUSH4 0xB76B70D5 EQ PUSH2 0x296 JUMPI DUP1 PUSH4 0xBC529C43 EQ PUSH2 0x2A9 JUMPI DUP1 PUSH4 0xC0C53B8B EQ PUSH2 0x35B JUMPI PUSH1 0x0 DUP1 REVERT JUMPDEST DUP1 PUSH4 0x8804EB9F EQ PUSH2 0x1F2 JUMPI DUP1 PUSH4 0x8DA5CB5B EQ PUSH2 0x205 JUMPI DUP1 PUSH4 0x970A7E48 EQ PUSH2 0x218 JUMPI DUP1 PUSH4 0x98EBBD3C EQ PUSH2 0x22B JUMPI PUSH1 0x0 DUP1 REVERT JUMPDEST DUP1 PUSH4 0x4ABA0058 GT PUSH2 0xE9 JUMPI DUP1 PUSH4 0x4ABA0058 EQ PUSH2 0x186 JUMPI DUP1 PUSH4 0x54FD4D50 EQ PUSH2 0x1A7 JUMPI DUP1 PUSH4 0x56D9815A EQ PUSH2 0x1B6 JUMPI DUP1 PUSH4 0x77CDFA98 EQ PUSH2 0x1C9 JUMPI DUP1 PUSH4 0x7993C18F EQ PUSH2 0x1D2 JUMPI PUSH1 0x0 DUP1 REVERT JUMPDEST DUP1 PUSH4 0x6DC245C EQ PUSH2 0x11B JUMPI DUP1 PUSH4 0x16AAC50E EQ PUSH2 0x14B JUMPI DUP1 PUSH4 0x1D381240 EQ PUSH2 0x160 JUMPI DUP1 PUSH4 0x2B7AC3F3 EQ PUSH2 0x173 JUMPI JUMPDEST PUSH1 0x0 DUP1 REVERT JUMPDEST PUSH1 0x1 SLOAD PUSH2 0x12E SWAP1 PUSH1 0x1 PUSH1 0x1 PUSH1 0xA0 SHL SUB AND DUP2 JUMP JUMPDEST PUSH1 0x40 MLOAD PUSH1 0x1 PUSH1 0x1 PUSH1 0xA0 SHL SUB SWAP1 SWAP2 AND DUP2 MSTORE PUSH1 0x20 ADD JUMPDEST PUSH1 0x40 MLOAD DUP1 SWAP2 SUB SWAP1 RETURN JUMPDEST PUSH2 0x15E PUSH2 0x159 CALLDATASIZE PUSH1 0x4 PUSH2 0x103D JUMP JUMPDEST PUSH2 0x36E JUMP JUMPDEST STOP JUMPDEST PUSH2 0x15E PUSH2 0x16E CALLDATASIZE PUSH1 0x4 PUSH2 0x107A JUMP JUMPDEST PUSH2 0x3D9 JUMP JUMPDEST PUSH1 0x4 SLOAD PUSH2 0x12E SWAP1 PUSH1 0x1 PUSH1 0x1 PUSH1 0xA0 SHL SUB AND DUP2 JUMP JUMPDEST PUSH2 0x199 PUSH2 0x194 CALLDATASIZE PUSH1 0x4 PUSH2 0x10A6 JUMP JUMPDEST PUSH2 0x557 JUMP JUMPDEST PUSH1 0x40 MLOAD SWAP1 DUP2 MSTORE PUSH1 0x20 ADD PUSH2 0x142 JUMP JUMPDEST PUSH1 0x40 MLOAD PUSH1 0x1 DUP2 MSTORE PUSH1 0x20 ADD PUSH2 0x142 JUMP JUMPDEST PUSH2 0x199 PUSH2 0x1C4 CALLDATASIZE PUSH1 0x4 PUSH2 0x10A6 JUMP JUMPDEST PUSH2 0x588 JUMP JUMPDEST PUSH2 0x199 PUSH1 0x2 SLOAD DUP2 JUMP JUMPDEST PUSH2 0x1E5 PUSH2 0x1E0 CALLDATASIZE PUSH1 0x4 PUSH2 0x10C8 JUMP JUMPDEST PUSH2 0x5A4 JUMP JUMPDEST PUSH1 0x40 MLOAD PUSH2 0x142 SWAP2 SWAP1 PUSH2 0x10E1 JUMP JUMPDEST PUSH1 0x0 SLOAD PUSH2 0x12E SWAP1 PUSH1 0x1 PUSH1 0x1 PUSH1 0xA0 SHL SUB AND DUP2 JUMP JUMPDEST PUSH1 0x3 SLOAD PUSH2 0x12E SWAP1 PUSH1 0x1 PUSH1 0x1 PUSH1 0xA0 SHL SUB AND DUP2 JUMP JUMPDEST PUSH2 0x15E PUSH2 0x226 CALLDATASIZE PUSH1 0x4 PUSH2 0x123A JUMP JUMPDEST PUSH2 0x777 JUMP JUMPDEST PUSH2 0x199 PUSH2 0x239 CALLDATASIZE PUSH1 0x4 PUSH2 0x10A6 JUMP JUMPDEST PUSH2 0x9E9 JUMP JUMPDEST PUSH2 0x251 PUSH2 0x24C CALLDATASIZE PUSH1 0x4 PUSH2 0x1329 JUMP JUMPDEST PUSH2 0xA05 JUMP JUMPDEST PUSH1 0x40 MLOAD SWAP1 ISZERO ISZERO DUP2 MSTORE PUSH1 0x20 ADD PUSH2 0x142 JUMP JUMPDEST PUSH2 0x284 PUSH2 0x26F CALLDATASIZE PUSH1 0x4 PUSH2 0x13EE JUMP JUMPDEST PUSH1 0x5 PUSH1 0x20 MSTORE PUSH1 0x0 SWAP1 DUP2 MSTORE PUSH1 0x40 SWAP1 KECCAK256 SLOAD PUSH1 0xFF AND DUP2 JUMP JUMPDEST PUSH1 0x40 MLOAD PUSH1 0xFF SWAP1 SWAP2 AND DUP2 MSTORE PUSH1 0x20 ADD PUSH2 0x142 JUMP JUMPDEST PUSH2 0x12E PUSH2 0x2A4 CALLDATASIZE PUSH1 0x4 PUSH2 0x10A6 JUMP JUMPDEST PUSH2 0xC79 JUMP JUMPDEST PUSH2 0x30E PUSH2 0x2B7 CALLDATASIZE PUSH1 0x4 PUSH2 0x10C8 JUMP JUMPDEST PUSH1 0x6 PUSH1 0x20 DUP2 SWAP1 MSTORE PUSH1 0x0 SWAP2 DUP3 MSTORE PUSH1 0x40 SWAP1 SWAP2 KECCAK256 DUP1 SLOAD PUSH1 0x1 DUP3 ADD SLOAD PUSH1 0x2 DUP4 ADD SLOAD PUSH1 0x3 DUP5 ADD SLOAD PUSH1 0x4 DUP6 ADD SLOAD PUSH1 0x5 DUP7 ADD SLOAD SWAP7 DUP7 ADD SLOAD PUSH1 0x7 SWAP1 SWAP7 ADD SLOAD SWAP5 SWAP7 SWAP4 SWAP6 SWAP3 SWAP5 SWAP2 SWAP4 SWAP1 SWAP3 SWAP1 SWAP2 PUSH4 0xFFFFFFFF DUP1 DUP3 AND SWAP2 PUSH5 0x100000000 SWAP1 DIV AND DUP10 JUMP JUMPDEST PUSH1 0x40 DUP1 MLOAD SWAP10 DUP11 MSTORE PUSH1 0x20 DUP11 ADD SWAP9 SWAP1 SWAP9 MSTORE SWAP7 DUP9 ADD SWAP6 SWAP1 SWAP6 MSTORE PUSH1 0x60 DUP8 ADD SWAP4 SWAP1 SWAP4 MSTORE PUSH1 0x80 DUP7 ADD SWAP2 SWAP1 SWAP2 MSTORE PUSH1 0xA0 DUP6 ADD MSTORE PUSH1 0xC0 DUP5 ADD MSTORE PUSH4 0xFFFFFFFF SWAP1 DUP2 AND PUSH1 0xE0 DUP5 ADD MSTORE AND PUSH2 0x100 DUP3 ADD MSTORE PUSH2 0x120 ADD PUSH2 0x142 JUMP JUMPDEST PUSH2 0x15E PUSH2 0x369 CALLDATASIZE PUSH1 0x4 PUSH2 0x1409 JUMP JUMPDEST PUSH2 0xCB1 JUMP JUMPDEST CALLER PUSH1 0x0 SWAP1 DUP2 MSTORE PUSH1 0x5 PUSH1 0x20 MSTORE PUSH1 0x40 SWAP1 KECCAK256 SLOAD PUSH1 0xFA PUSH1 0xFF SWAP1 SWAP2 AND LT ISZERO PUSH2 0x3AC JUMPI PUSH1 0x40 MLOAD PUSH3 0x461BCD PUSH1 0xE5 SHL DUP2 MSTORE PUSH1 0x4 ADD PUSH2 0x3A3 SWAP1 PUSH2 0x144C JUMP JUMPDEST PUSH1 0x40 MLOAD DUP1 SWAP2 SUB SWAP1 REVERT JUMPDEST PUSH1 0x1 PUSH1 0x1 PUSH1 0xA0 SHL SUB SWAP2 SWAP1 SWAP2 AND PUSH1 0x0 SWAP1 DUP2 MSTORE PUSH1 0x5 PUSH1 0x20 MSTORE PUSH1 0x40 SWAP1 KECCAK256 DUP1 SLOAD PUSH1 0xFF NOT AND PUSH1 0xFF SWAP1 SWAP3 AND SWAP2 SWAP1 SWAP2 OR SWAP1 SSTORE JUMP JUMPDEST CALLER PUSH1 0x0 SWAP1 DUP2 MSTORE PUSH1 0x5 PUSH1 0x20 MSTORE PUSH1 0x40 SWAP1 KECCAK256 SLOAD PUSH1 0xFA PUSH1 0xFF SWAP1 SWAP2 AND LT ISZERO PUSH2 0x40E JUMPI PUSH1 0x40 MLOAD PUSH3 0x461BCD PUSH1 0xE5 SHL DUP2 MSTORE PUSH1 0x4 ADD PUSH2 0x3A3 SWAP1 PUSH2 0x144C JUMP JUMPDEST PUSH1 0x0 DUP4 DUP2 MSTORE PUSH1 0x6 PUSH1 0x20 DUP2 DUP2 MSTORE PUSH1 0x40 SWAP3 DUP4 SWAP1 KECCAK256 DUP4 MLOAD PUSH2 0x120 DUP2 ADD DUP6 MSTORE DUP2 SLOAD DUP2 MSTORE PUSH1 0x1 DUP3 ADD SLOAD SWAP3 DUP2 ADD DUP4 SWAP1 MSTORE PUSH1 0x2 DUP3 ADD SLOAD SWAP5 DUP2 ADD SWAP5 SWAP1 SWAP5 MSTORE PUSH1 0x3 DUP2 ADD SLOAD PUSH1 0x60 DUP6 ADD MSTORE PUSH1 0x4 DUP2 ADD SLOAD PUSH1 0x80 DUP6 ADD MSTORE PUSH1 0x5 DUP2 ADD SLOAD PUSH1 0xA0 DUP6 ADD MSTORE SWAP2 DUP3 ADD SLOAD PUSH1 0xC0 DUP5 ADD MSTORE PUSH1 0x7 SWAP1 SWAP2 ADD SLOAD PUSH4 0xFFFFFFFF DUP1 DUP3 AND PUSH1 0xE0 DUP6 ADD MSTORE PUSH5 0x100000000 SWAP1 SWAP2 DIV AND PUSH2 0x100 DUP4 ADD MSTORE PUSH2 0x4DA JUMPI PUSH1 0x40 MLOAD PUSH3 0x461BCD PUSH1 0xE5 SHL DUP2 MSTORE PUSH1 0x20 PUSH1 0x4 DUP3 ADD MSTORE PUSH1 0x1A PUSH1 0x24 DUP3 ADD MSTORE PUSH32 0x546865206163636F756E7420646F6573206E6F74206578697374000000000000 PUSH1 0x44 DUP3 ADD MSTORE PUSH1 0x64 ADD PUSH2 0x3A3 JUMP JUMPDEST PUSH1 0x0 DUP5 DUP2 MSTORE PUSH1 0x8 PUSH1 0x20 SWAP1 DUP2 MSTORE PUSH1 0x40 DUP1 DUP4 KECCAK256 DUP1 SLOAD PUSH1 0x1 DUP2 DUP2 ADD DUP4 SSTORE SWAP2 DUP6 MSTORE DUP4 DUP6 KECCAK256 ADD DUP8 SWAP1 SSTORE DUP8 DUP5 MSTORE PUSH1 0x9 DUP4 MSTORE SWAP1 DUP4 KECCAK256 DUP1 SLOAD DUP1 DUP4 ADD DUP3 SSTORE SWAP1 DUP5 MSTORE SWAP2 SWAP1 SWAP3 KECCAK256 ADD DUP4 SWAP1 SSTORE PUSH1 0xE0 DUP3 ADD MLOAD PUSH2 0x528 SWAP2 PUSH2 0x1490 JUMP JUMPDEST PUSH1 0x0 SWAP5 DUP6 MSTORE PUSH1 0x6 PUSH1 0x20 MSTORE PUSH1 0x40 SWAP1 SWAP5 KECCAK256 PUSH1 0x7 ADD DUP1 SLOAD PUSH4 0xFFFFFFFF NOT AND PUSH4 0xFFFFFFFF SWAP1 SWAP6 AND SWAP5 SWAP1 SWAP5 OR SWAP1 SWAP4 SSTORE POP POP POP JUMP JUMPDEST PUSH1 0x8 PUSH1 0x20 MSTORE DUP2 PUSH1 0x0 MSTORE PUSH1 0x40 PUSH1 0x0 KECCAK256 DUP2 DUP2 SLOAD DUP2 LT PUSH2 0x573 JUMPI PUSH1 0x0 DUP1 REVERT JUMPDEST SWAP1 PUSH1 0x0 MSTORE PUSH1 0x20 PUSH1 0x0 KECCAK256 ADD PUSH1 0x0 SWAP2 POP SWAP2 POP POP SLOAD DUP2 JUMP JUMPDEST PUSH1 0x7 PUSH1 0x20 MSTORE DUP2 PUSH1 0x0 MSTORE PUSH1 0x40 PUSH1 0x0 KECCAK256 DUP2 DUP2 SLOAD DUP2 LT PUSH2 0x573 JUMPI PUSH1 0x0 DUP1 REVERT JUMPDEST PUSH1 0x0 DUP2 DUP2 MSTORE PUSH1 0x7 PUSH1 0x20 SWAP1 DUP2 MSTORE PUSH1 0x40 DUP1 DUP4 KECCAK256 DUP1 SLOAD DUP3 MLOAD DUP2 DUP6 MUL DUP2 ADD DUP6 ADD SWAP1 SWAP4 MSTORE DUP1 DUP4 MSTORE PUSH1 0x60 SWAP5 SWAP4 DUP4 ADD DUP3 DUP3 DUP1 ISZERO PUSH2 0x5F9 JUMPI PUSH1 0x20 MUL DUP3 ADD SWAP2 SWAP1 PUSH1 0x0 MSTORE PUSH1 0x20 PUSH1 0x0 KECCAK256 SWAP1 JUMPDEST DUP2 SLOAD DUP2 MSTORE PUSH1 0x20 ADD SWAP1 PUSH1 0x1 ADD SWAP1 DUP1 DUP4 GT PUSH2 0x5E5 JUMPI JUMPDEST POP POP POP POP POP SWAP1 POP PUSH1 0x0 DUP2 MLOAD SWAP1 POP PUSH1 0x0 DUP2 PUSH8 0xFFFFFFFFFFFFFFFF DUP2 GT ISZERO PUSH2 0x621 JUMPI PUSH2 0x621 PUSH2 0x118B JUMP JUMPDEST PUSH1 0x40 MLOAD SWAP1 DUP1 DUP3 MSTORE DUP1 PUSH1 0x20 MUL PUSH1 0x20 ADD DUP3 ADD PUSH1 0x40 MSTORE DUP1 ISZERO PUSH2 0x698 JUMPI DUP2 PUSH1 0x20 ADD JUMPDEST PUSH1 0x40 DUP1 MLOAD PUSH2 0x120 DUP2 ADD DUP3 MSTORE PUSH1 0x0 DUP1 DUP3 MSTORE PUSH1 0x20 DUP1 DUP4 ADD DUP3 SWAP1 MSTORE SWAP3 DUP3 ADD DUP2 SWAP1 MSTORE PUSH1 0x60 DUP3 ADD DUP2 SWAP1 MSTORE PUSH1 0x80 DUP3 ADD DUP2 SWAP1 MSTORE PUSH1 0xA0 DUP3 ADD DUP2 SWAP1 MSTORE PUSH1 0xC0 DUP3 ADD DUP2 SWAP1 MSTORE PUSH1 0xE0 DUP3 ADD DUP2 SWAP1 MSTORE PUSH2 0x100 DUP3 ADD MSTORE DUP3 MSTORE PUSH1 0x0 NOT SWAP1 SWAP3 ADD SWAP2 ADD DUP2 PUSH2 0x63F JUMPI SWAP1 POP JUMPDEST POP SWAP1 POP PUSH1 0x0 JUMPDEST DUP3 DUP2 LT ISZERO PUSH2 0x76E JUMPI PUSH1 0x6 PUSH1 0x0 DUP6 DUP4 DUP2 MLOAD DUP2 LT PUSH2 0x6BC JUMPI PUSH2 0x6BC PUSH2 0x14AC JUMP JUMPDEST PUSH1 0x20 SWAP1 DUP2 MUL SWAP2 SWAP1 SWAP2 ADD DUP2 ADD MLOAD DUP3 MSTORE DUP2 DUP2 ADD SWAP3 SWAP1 SWAP3 MSTORE PUSH1 0x40 SWAP1 DUP2 ADD PUSH1 0x0 KECCAK256 DUP2 MLOAD PUSH2 0x120 DUP2 ADD DUP4 MSTORE DUP2 SLOAD DUP2 MSTORE PUSH1 0x1 DUP3 ADD SLOAD SWAP4 DUP2 ADD SWAP4 SWAP1 SWAP4 MSTORE PUSH1 0x2 DUP2 ADD SLOAD SWAP2 DUP4 ADD SWAP2 SWAP1 SWAP2 MSTORE PUSH1 0x3 DUP2 ADD SLOAD PUSH1 0x60 DUP4 ADD MSTORE PUSH1 0x4 DUP2 ADD SLOAD PUSH1 0x80 DUP4 ADD MSTORE PUSH1 0x5 DUP2 ADD SLOAD PUSH1 0xA0 DUP4 ADD MSTORE PUSH1 0x6 DUP2 ADD SLOAD PUSH1 0xC0 DUP4 ADD MSTORE PUSH1 0x7 ADD SLOAD PUSH4 0xFFFFFFFF DUP1 DUP3 AND PUSH1 0xE0 DUP5 ADD MSTORE PUSH5 0x100000000 SWAP1 SWAP2 DIV AND PUSH2 0x100 DUP3 ADD MSTORE DUP3 MLOAD DUP4 SWAP1 DUP4 SWAP1 DUP2 LT PUSH2 0x75B JUMPI PUSH2 0x75B PUSH2 0x14AC JUMP JUMPDEST PUSH1 0x20 SWAP1 DUP2 MUL SWAP2 SWAP1 SWAP2 ADD ADD MSTORE PUSH1 0x1 ADD PUSH2 0x69E JUMP JUMPDEST POP SWAP5 SWAP4 POP POP POP POP JUMP JUMPDEST CALLER PUSH1 0x0 SWAP1 DUP2 MSTORE PUSH1 0x5 PUSH1 0x20 MSTORE PUSH1 0x40 SWAP1 KECCAK256 SLOAD PUSH1 0xFA PUSH1 0xFF SWAP1 SWAP2 AND LT ISZERO PUSH2 0x7AC JUMPI PUSH1 0x40 MLOAD PUSH3 0x461BCD PUSH1 0xE5 SHL DUP2 MSTORE PUSH1 0x4 ADD PUSH2 0x3A3 SWAP1 PUSH2 0x144C JUMP JUMPDEST PUSH1 0x0 DUP6 DUP2 MSTORE PUSH1 0x6 PUSH1 0x20 DUP2 DUP2 MSTORE PUSH1 0x40 SWAP3 DUP4 SWAP1 KECCAK256 DUP4 MLOAD PUSH2 0x120 DUP2 ADD DUP6 MSTORE DUP2 SLOAD DUP2 MSTORE PUSH1 0x1 DUP3 ADD SLOAD SWAP3 DUP2 ADD DUP4 SWAP1 MSTORE PUSH1 0x2 DUP3 ADD SLOAD SWAP5 DUP2 ADD SWAP5 SWAP1 SWAP5 MSTORE PUSH1 0x3 DUP2 ADD SLOAD PUSH1 0x60 DUP6 ADD MSTORE PUSH1 0x4 DUP2 ADD SLOAD PUSH1 0x80 DUP6 ADD MSTORE PUSH1 0x5 DUP2 ADD SLOAD PUSH1 0xA0 DUP6 ADD MSTORE SWAP2 DUP3 ADD SLOAD PUSH1 0xC0 DUP5 ADD MSTORE PUSH1 0x7 SWAP1 SWAP2 ADD SLOAD PUSH4 0xFFFFFFFF DUP1 DUP3 AND PUSH1 0xE0 DUP6 ADD MSTORE PUSH5 0x100000000 SWAP1 SWAP2 DIV AND PUSH2 0x100 DUP4 ADD MSTORE ISZERO PUSH2 0x879 JUMPI PUSH1 0x40 MLOAD PUSH3 0x461BCD PUSH1 0xE5 SHL DUP2 MSTORE PUSH1 0x20 PUSH1 0x4 DUP3 ADD MSTORE PUSH1 0x1B PUSH1 0x24 DUP3 ADD MSTORE PUSH32 0x54686520757365726E616D6520616C7265616479206578697374730000000000 PUSH1 0x44 DUP3 ADD MSTORE PUSH1 0x64 ADD PUSH2 0x3A3 JUMP JUMPDEST PUSH1 0x40 DUP1 MLOAD PUSH2 0x120 DUP2 ADD DUP3 MSTORE PUSH1 0x2 SLOAD DUP2 MSTORE PUSH1 0x20 DUP1 DUP3 ADD DUP10 SWAP1 MSTORE DUP6 MLOAD SWAP3 DUP3 ADD SWAP3 SWAP1 SWAP3 MSTORE SWAP1 DUP5 ADD MLOAD PUSH1 0x60 DUP3 ADD MSTORE DUP3 MLOAD PUSH1 0x80 DUP3 ADD MSTORE PUSH1 0x0 SWAP1 PUSH1 0xA0 DUP2 ADD DUP5 PUSH1 0x1 PUSH1 0x20 SWAP1 DUP2 MUL SWAP2 SWAP1 SWAP2 ADD MLOAD DUP3 MSTORE DUP2 DUP2 ADD DUP10 SWAP1 MSTORE PUSH1 0x0 PUSH1 0x40 DUP1 DUP5 ADD DUP3 SWAP1 MSTORE PUSH1 0x1 PUSH1 0x60 SWAP5 DUP6 ADD DUP2 SWAP1 MSTORE DUP13 DUP4 MSTORE PUSH1 0x6 DUP1 DUP6 MSTORE DUP3 DUP5 KECCAK256 DUP8 MLOAD DUP2 SSTORE DUP8 DUP7 ADD MLOAD DUP2 DUP5 ADD SSTORE DUP8 DUP5 ADD MLOAD PUSH1 0x2 DUP1 DUP4 ADD SWAP2 SWAP1 SWAP2 SSTORE SWAP7 DUP9 ADD MLOAD PUSH1 0x3 DUP3 ADD SSTORE PUSH1 0x80 DUP9 ADD MLOAD PUSH1 0x4 DUP3 ADD SSTORE PUSH1 0xA0 DUP9 ADD MLOAD PUSH1 0x5 DUP1 DUP4 ADD SWAP2 SWAP1 SWAP2 SSTORE PUSH1 0xC0 DUP10 ADD MLOAD SWAP3 DUP3 ADD SWAP3 SWAP1 SWAP3 SSTORE PUSH1 0xE0 DUP9 ADD MLOAD PUSH1 0x7 SWAP2 DUP3 ADD DUP1 SLOAD PUSH2 0x100 DUP12 ADD MLOAD PUSH4 0xFFFFFFFF SWAP1 DUP2 AND PUSH5 0x100000000 MUL PUSH8 0xFFFFFFFFFFFFFFFF NOT SWAP1 SWAP3 AND SWAP4 AND SWAP3 SWAP1 SWAP3 OR SWAP2 SWAP1 SWAP2 OR SWAP1 SSTORE PUSH1 0xA DUP7 MSTORE DUP4 DUP6 KECCAK256 DUP1 SLOAD DUP1 DUP6 ADD DUP3 SSTORE SWAP1 DUP7 MSTORE DUP7 DUP7 KECCAK256 ADD DUP1 SLOAD PUSH1 0x1 PUSH1 0x1 PUSH1 0xA0 SHL SUB DUP16 AND PUSH1 0x1 PUSH1 0x1 PUSH1 0xA0 SHL SUB NOT SWAP1 SWAP2 AND DUP2 OR SWAP1 SWAP2 SSTORE DUP15 DUP7 MSTORE SWAP1 DUP7 MSTORE DUP4 DUP6 KECCAK256 DUP1 SLOAD DUP1 DUP6 ADD DUP3 SSTORE SWAP1 DUP7 MSTORE DUP7 DUP7 KECCAK256 ADD DUP16 SWAP1 SSTORE DUP5 MSTORE SWAP1 SWAP4 MSTORE SWAP1 KECCAK256 DUP1 SLOAD PUSH1 0xFF NOT AND DUP3 OR SWAP1 SSTORE SWAP1 SLOAD SWAP2 SWAP3 POP PUSH2 0x9D1 SWAP2 SWAP1 PUSH2 0x14C2 JUMP JUMPDEST PUSH1 0x2 SSTORE PUSH2 0x9DF DUP6 PUSH1 0x0 PUSH2 0xE59 JUMP JUMPDEST POP POP POP POP POP POP POP POP JUMP JUMPDEST PUSH1 0x9 PUSH1 0x20 MSTORE DUP2 PUSH1 0x0 MSTORE PUSH1 0x40 PUSH1 0x0 KECCAK256 DUP2 DUP2 SLOAD DUP2 LT PUSH2 0x573 JUMPI PUSH1 0x0 DUP1 REVERT JUMPDEST CALLER PUSH1 0x0 SWAP1 DUP2 MSTORE PUSH1 0x5 PUSH1 0x20 MSTORE PUSH1 0x40 DUP2 KECCAK256 SLOAD PUSH1 0xFA PUSH1 0xFF SWAP1 SWAP2 AND LT ISZERO PUSH2 0xA3A JUMPI PUSH1 0x40 MLOAD PUSH3 0x461BCD PUSH1 0xE5 SHL DUP2 MSTORE PUSH1 0x4 ADD PUSH2 0x3A3 SWAP1 PUSH2 0x144C JUMP JUMPDEST DUP2 MLOAD PUSH1 0x0 SWAP1 DUP2 MSTORE PUSH1 0x6 PUSH1 0x20 DUP2 DUP2 MSTORE PUSH1 0x40 SWAP3 DUP4 SWAP1 KECCAK256 DUP4 MLOAD PUSH2 0x120 DUP2 ADD DUP6 MSTORE DUP2 SLOAD DUP2 MSTORE PUSH1 0x1 DUP3 ADD SLOAD SWAP3 DUP2 ADD DUP4 SWAP1 MSTORE PUSH1 0x2 DUP3 ADD SLOAD SWAP5 DUP2 ADD SWAP5 SWAP1 SWAP5 MSTORE PUSH1 0x3 DUP2 ADD SLOAD PUSH1 0x60 DUP6 ADD MSTORE PUSH1 0x4 DUP2 ADD SLOAD PUSH1 0x80 DUP6 ADD MSTORE PUSH1 0x5 DUP2 ADD SLOAD PUSH1 0xA0 DUP6 ADD MSTORE SWAP2 DUP3 ADD SLOAD PUSH1 0xC0 DUP5 ADD MSTORE PUSH1 0x7 SWAP1 SWAP2 ADD SLOAD PUSH4 0xFFFFFFFF DUP1 DUP3 AND PUSH1 0xE0 DUP6 ADD MSTORE PUSH5 0x100000000 SWAP1 SWAP2 DIV AND PUSH2 0x100 DUP4 ADD MSTORE PUSH2 0xB08 JUMPI PUSH1 0x40 MLOAD PUSH3 0x461BCD PUSH1 0xE5 SHL DUP2 MSTORE PUSH1 0x20 PUSH1 0x4 DUP3 ADD MSTORE PUSH1 0x1A PUSH1 0x24 DUP3 ADD MSTORE PUSH32 0x546865206163636F756E7420646F6573206E6F74206578697374000000000000 PUSH1 0x44 DUP3 ADD MSTORE PUSH1 0x64 ADD PUSH2 0x3A3 JUMP JUMPDEST PUSH1 0x20 DUP1 DUP5 ADD MLOAD DUP5 MLOAD PUSH1 0x0 SWAP1 DUP2 MSTORE PUSH1 0x8 SWAP1 SWAP3 MSTORE PUSH1 0x40 SWAP1 SWAP2 KECCAK256 SLOAD GT DUP1 ISZERO PUSH2 0xB42 JUMPI POP PUSH1 0x20 DUP1 DUP5 ADD MLOAD DUP5 MLOAD PUSH1 0x0 SWAP1 DUP2 MSTORE PUSH1 0x9 SWAP1 SWAP3 MSTORE PUSH1 0x40 SWAP1 SWAP2 KECCAK256 SLOAD GT JUMPDEST PUSH2 0xB7F JUMPI PUSH1 0x40 MLOAD PUSH3 0x461BCD PUSH1 0xE5 SHL DUP2 MSTORE PUSH1 0x20 PUSH1 0x4 DUP3 ADD MSTORE PUSH1 0xE PUSH1 0x24 DUP3 ADD MSTORE PUSH14 0x496E76616C696420646576696365 PUSH1 0x90 SHL PUSH1 0x44 DUP3 ADD MSTORE PUSH1 0x64 ADD PUSH2 0x3A3 JUMP JUMPDEST DUP3 MLOAD PUSH1 0x0 SWAP1 DUP2 MSTORE PUSH1 0x8 PUSH1 0x20 SWAP1 DUP2 MSTORE PUSH1 0x40 DUP3 KECCAK256 SWAP1 DUP6 ADD MLOAD DUP2 SLOAD DUP2 LT PUSH2 0xBA5 JUMPI PUSH2 0xBA5 PUSH2 0x14AC JUMP JUMPDEST PUSH1 0x0 SWAP2 DUP3 MSTORE PUSH1 0x20 DUP1 DUP4 KECCAK256 SWAP1 SWAP2 ADD SLOAD DUP7 MLOAD DUP4 MSTORE PUSH1 0x9 DUP3 MSTORE PUSH1 0x40 DUP4 KECCAK256 SWAP2 DUP8 ADD MLOAD DUP3 SLOAD SWAP2 SWAP5 POP SWAP1 DUP2 LT PUSH2 0xBD7 JUMPI PUSH2 0xBD7 PUSH2 0x14AC JUMP JUMPDEST PUSH1 0x0 SWAP2 DUP3 MSTORE PUSH1 0x20 SWAP1 SWAP2 KECCAK256 ADD SLOAD PUSH1 0x4 DUP1 SLOAD PUSH1 0x80 DUP9 ADD MLOAD PUSH1 0xA0 DUP10 ADD MLOAD PUSH1 0x40 DUP1 DUP12 ADD MLOAD PUSH1 0x60 DUP13 ADD MLOAD SWAP2 MLOAD PUSH4 0x62445D8D PUSH1 0xE1 SHL DUP2 MSTORE SWAP7 SWAP8 POP PUSH1 0x1 PUSH1 0x1 PUSH1 0xA0 SHL SUB SWAP1 SWAP5 AND SWAP6 PUSH4 0xC488BB1A SWAP6 PUSH2 0xC2D SWAP6 SWAP3 SWAP2 DUP11 SWAP2 DUP11 SWAP2 ADD PUSH2 0x1525 JUMP JUMPDEST PUSH1 0x20 PUSH1 0x40 MLOAD DUP1 DUP4 SUB DUP2 DUP7 GAS STATICCALL ISZERO DUP1 ISZERO PUSH2 0xC4A JUMPI RETURNDATASIZE PUSH1 0x0 DUP1 RETURNDATACOPY RETURNDATASIZE PUSH1 0x0 REVERT JUMPDEST POP POP POP POP PUSH1 0x40 MLOAD RETURNDATASIZE PUSH1 0x1F NOT PUSH1 0x1F DUP3 ADD AND DUP3 ADD DUP1 PUSH1 0x40 MSTORE POP DUP2 ADD SWAP1 PUSH2 0xC6E SWAP2 SWAP1 PUSH2 0x1570 JUMP JUMPDEST SWAP4 POP POP POP POP JUMPDEST SWAP2 SWAP1 POP JUMP JUMPDEST PUSH1 0xA PUSH1 0x20 MSTORE DUP2 PUSH1 0x0 MSTORE PUSH1 0x40 PUSH1 0x0 KECCAK256 DUP2 DUP2 SLOAD DUP2 LT PUSH2 0xC95 JUMPI PUSH1 0x0 DUP1 REVERT JUMPDEST PUSH1 0x0 SWAP2 DUP3 MSTORE PUSH1 0x20 SWAP1 SWAP2 KECCAK256 ADD SLOAD PUSH1 0x1 PUSH1 0x1 PUSH1 0xA0 SHL SUB AND SWAP2 POP DUP3 SWAP1 POP JUMP JUMPDEST PUSH32 0xF0C57E16840DF040F15088DC2F81FE391C3923BEC73E23A9662EFC9C229C6A00 DUP1 SLOAD PUSH1 0x1 PUSH1 0x40 SHL DUP2 DIV PUSH1 0xFF AND ISZERO SWAP1 PUSH8 0xFFFFFFFFFFFFFFFF AND PUSH1 0x0 DUP2 ISZERO DUP1 ISZERO PUSH2 0xCF7 JUMPI POP DUP3 JUMPDEST SWAP1 POP PUSH1 0x0 DUP3 PUSH8 0xFFFFFFFFFFFFFFFF AND PUSH1 0x1 EQ DUP1 ISZERO PUSH2 0xD14 JUMPI POP ADDRESS EXTCODESIZE ISZERO JUMPDEST SWAP1 POP DUP2 ISZERO DUP1 ISZERO PUSH2 0xD22 JUMPI POP DUP1 ISZERO JUMPDEST ISZERO PUSH2 0xD40 JUMPI PUSH1 0x40 MLOAD PUSH4 0xF92EE8A9 PUSH1 0xE0 SHL DUP2 MSTORE PUSH1 0x4 ADD PUSH1 0x40 MLOAD DUP1 SWAP2 SUB SWAP1 REVERT JUMPDEST DUP5 SLOAD PUSH8 0xFFFFFFFFFFFFFFFF NOT AND PUSH1 0x1 OR DUP6 SSTORE DUP4 ISZERO PUSH2 0xD6A JUMPI DUP5 SLOAD PUSH1 0xFF PUSH1 0x40 SHL NOT AND PUSH1 0x1 PUSH1 0x40 SHL OR DUP6 SSTORE JUMPDEST CALLER PUSH1 0x0 SWAP1 DUP2 MSTORE PUSH1 0x5 PUSH1 0x20 MSTORE PUSH1 0x40 SWAP1 DUP2 SWAP1 KECCAK256 DUP1 SLOAD PUSH1 0xFF NOT AND PUSH1 0xFA OR SWAP1 SSTORE PUSH1 0x3 DUP1 SLOAD PUSH1 0x1 PUSH1 0x1 PUSH1 0xA0 SHL SUB DUP12 DUP2 AND PUSH1 0x1 PUSH1 0x1 PUSH1 0xA0 SHL SUB NOT SWAP3 DUP4 AND OR SWAP1 SWAP3 SSTORE PUSH1 0x1 DUP1 SLOAD DUP12 DUP5 AND SWAP1 DUP4 AND OR SWAP1 SSTORE PUSH1 0x4 DUP1 SLOAD SWAP3 DUP11 AND SWAP3 SWAP1 SWAP2 AND SWAP2 SWAP1 SWAP2 OR SWAP1 SSTORE MLOAD PUSH2 0xDCD SWAP1 PUSH2 0x100C JUMP JUMPDEST PUSH1 0x40 MLOAD DUP1 SWAP2 SUB SWAP1 PUSH1 0x0 CREATE DUP1 ISZERO DUP1 ISZERO PUSH2 0xDE9 JUMPI RETURNDATASIZE PUSH1 0x0 DUP1 RETURNDATACOPY RETURNDATASIZE PUSH1 0x0 REVERT JUMPDEST POP PUSH1 0x0 DUP1 SLOAD PUSH1 0x1 PUSH1 0x1 PUSH1 0xA0 SHL SUB NOT AND PUSH1 0x1 PUSH1 0x1 PUSH1 0xA0 SHL SUB SWAP3 SWAP1 SWAP3 AND SWAP2 SWAP1 SWAP2 OR SWAP1 SSTORE DUP4 ISZERO PUSH2 0x9DF JUMPI DUP5 SLOAD PUSH1 0xFF PUSH1 0x40 SHL NOT AND DUP6 SSTORE PUSH1 0x40 MLOAD PUSH1 0x1 DUP2 MSTORE PUSH32 0xC7F505B2F371AE2175EE4913F4499E1F2633A7B5936321EED1CDAEB6115181D2 SWAP1 PUSH1 0x20 ADD PUSH1 0x40 MLOAD DUP1 SWAP2 SUB SWAP1 LOG1 POP POP POP POP POP POP POP POP JUMP JUMPDEST PUSH1 0x0 DUP1 PUSH2 0xE66 DUP5 DUP5 PUSH2 0xF0F JUMP JUMPDEST SWAP1 POP PUSH1 0x1 PUSH1 0x1 PUSH1 0xA0 SHL SUB DUP2 AND EXTCODESIZE DUP1 ISZERO PUSH2 0xE81 JUMPI POP SWAP1 POP PUSH2 0xF09 JUMP JUMPDEST PUSH1 0x0 SLOAD PUSH1 0x1 SLOAD PUSH1 0x40 MLOAD PUSH1 0x1 PUSH1 0x1 PUSH1 0xA0 SHL SUB SWAP2 DUP3 AND PUSH1 0x24 DUP3 ADD MSTORE DUP7 SWAP3 SWAP2 SWAP1 SWAP2 AND SWAP1 PUSH1 0x44 ADD PUSH1 0x40 DUP1 MLOAD PUSH1 0x1F NOT DUP2 DUP5 SUB ADD DUP2 MSTORE SWAP2 DUP2 MSTORE PUSH1 0x20 DUP3 ADD DUP1 MLOAD PUSH1 0x1 PUSH1 0x1 PUSH1 0xE0 SHL SUB AND PUSH4 0x189ACDBD PUSH1 0xE3 SHL OR SWAP1 MSTORE MLOAD PUSH2 0xED8 SWAP1 PUSH2 0x1019 JUMP JUMPDEST PUSH2 0xEE3 SWAP3 SWAP2 SWAP1 PUSH2 0x1592 JUMP JUMPDEST DUP2 SWAP1 PUSH1 0x40 MLOAD DUP1 SWAP2 SUB SWAP1 PUSH1 0x0 CREATE2 SWAP1 POP DUP1 ISZERO DUP1 ISZERO PUSH2 0xF03 JUMPI RETURNDATASIZE PUSH1 0x0 DUP1 RETURNDATACOPY RETURNDATASIZE PUSH1 0x0 REVERT JUMPDEST POP SWAP3 POP POP POP JUMPDEST SWAP3 SWAP2 POP POP JUMP JUMPDEST PUSH1 0x0 PUSH2 0xFCA DUP3 PUSH1 0x0 SHL PUSH1 0x40 MLOAD DUP1 PUSH1 0x20 ADD PUSH2 0xF28 SWAP1 PUSH2 0x1019 JUMP JUMPDEST PUSH1 0x1F NOT DUP3 DUP3 SUB DUP2 ADD DUP4 MSTORE PUSH1 0x1F SWAP1 SWAP2 ADD AND PUSH1 0x40 DUP2 SWAP1 MSTORE PUSH1 0x0 SLOAD PUSH1 0x1 SLOAD PUSH1 0x1 PUSH1 0x1 PUSH1 0xA0 SHL SUB SWAP1 DUP2 AND PUSH1 0x24 DUP5 ADD MSTORE AND SWAP1 PUSH1 0x44 ADD PUSH1 0x40 DUP1 MLOAD PUSH1 0x1F NOT DUP2 DUP5 SUB ADD DUP2 MSTORE SWAP2 DUP2 MSTORE PUSH1 0x20 DUP1 DUP4 ADD DUP1 MLOAD PUSH1 0x1 PUSH1 0x1 PUSH1 0xE0 SHL SUB AND PUSH4 0x189ACDBD PUSH1 0xE3 SHL OR SWAP1 MSTORE SWAP1 MLOAD PUSH2 0xF91 SWAP4 SWAP3 SWAP2 ADD PUSH2 0x1592 JUMP JUMPDEST PUSH1 0x40 DUP1 MLOAD PUSH1 0x1F NOT DUP2 DUP5 SUB ADD DUP2 MSTORE SWAP1 DUP3 SWAP1 MSTORE PUSH2 0xFAF SWAP3 SWAP2 PUSH1 0x20 ADD PUSH2 0x15BE JUMP JUMPDEST PUSH1 0x40 MLOAD PUSH1 0x20 DUP2 DUP4 SUB SUB DUP2 MSTORE SWAP1 PUSH1 0x40 MSTORE DUP1 MLOAD SWAP1 PUSH1 0x20 ADD KECCAK256 PUSH2 0xFD1 JUMP JUMPDEST SWAP4 SWAP3 POP POP POP JUMP JUMPDEST PUSH1 0x0 PUSH2 0xFCA DUP4 DUP4 ADDRESS PUSH1 0x0 PUSH1 0x40 MLOAD DUP4 PUSH1 0x40 DUP3 ADD MSTORE DUP5 PUSH1 0x20 DUP3 ADD MSTORE DUP3 DUP2 MSTORE PUSH1 0xB DUP2 ADD SWAP1 POP PUSH1 0xFF DUP2 MSTORE8 PUSH1 0x55 SWAP1 KECCAK256 PUSH1 0x1 PUSH1 0x1 PUSH1 0xA0 SHL SUB AND SWAP5 SWAP4 POP POP POP POP JUMP JUMPDEST PUSH2 0x122C DUP1 PUSH2 0x15EE DUP4 CODECOPY ADD SWAP1 JUMP JUMPDEST PUSH2 0x410 DUP1 PUSH2 0x281A DUP4 CODECOPY ADD SWAP1 JUMP JUMPDEST DUP1 CALLDATALOAD PUSH1 0x1 PUSH1 0x1 PUSH1 0xA0 SHL SUB DUP2 AND DUP2 EQ PUSH2 0xC74 JUMPI PUSH1 0x0 DUP1 REVERT JUMPDEST PUSH1 0x0 DUP1 PUSH1 0x40 DUP4 DUP6 SUB SLT ISZERO PUSH2 0x1050 JUMPI PUSH1 0x0 DUP1 REVERT JUMPDEST PUSH2 0x1059 DUP4 PUSH2 0x1026 JUMP JUMPDEST SWAP2 POP PUSH1 0x20 DUP4 ADD CALLDATALOAD PUSH1 0xFF DUP2 AND DUP2 EQ PUSH2 0x106F JUMPI PUSH1 0x0 DUP1 REVERT JUMPDEST DUP1 SWAP2 POP POP SWAP3 POP SWAP3 SWAP1 POP JUMP JUMPDEST PUSH1 0x0 DUP1 PUSH1 0x0 PUSH1 0x60 DUP5 DUP7 SUB SLT ISZERO PUSH2 0x108F JUMPI PUSH1 0x0 DUP1 REVERT JUMPDEST POP POP DUP2 CALLDATALOAD SWAP4 PUSH1 0x20 DUP4 ADD CALLDATALOAD SWAP4 POP PUSH1 0x40 SWAP1 SWAP3 ADD CALLDATALOAD SWAP2 SWAP1 POP JUMP JUMPDEST PUSH1 0x0 DUP1 PUSH1 0x40 DUP4 DUP6 SUB SLT ISZERO PUSH2 0x10B9 JUMPI PUSH1 0x0 DUP1 REVERT JUMPDEST POP POP DUP1 CALLDATALOAD SWAP3 PUSH1 0x20 SWAP1 SWAP2 ADD CALLDATALOAD SWAP2 POP JUMP JUMPDEST PUSH1 0x0 PUSH1 0x20 DUP3 DUP5 SUB SLT ISZERO PUSH2 0x10DA JUMPI PUSH1 0x0 DUP1 REVERT JUMPDEST POP CALLDATALOAD SWAP2 SWAP1 POP JUMP JUMPDEST PUSH1 0x20 DUP1 DUP3 MSTORE DUP3 MLOAD DUP3 DUP3 ADD DUP2 SWAP1 MSTORE PUSH1 0x0 SWAP2 DUP5 ADD SWAP1 PUSH1 0x40 DUP5 ADD SWAP1 DUP4 JUMPDEST DUP2 DUP2 LT ISZERO PUSH2 0x1180 JUMPI DUP4 MLOAD DUP1 MLOAD DUP5 MSTORE PUSH1 0x20 DUP2 ADD MLOAD PUSH1 0x20 DUP6 ADD MSTORE PUSH1 0x40 DUP2 ADD MLOAD PUSH1 0x40 DUP6 ADD MSTORE PUSH1 0x60 DUP2 ADD MLOAD PUSH1 0x60 DUP6 ADD MSTORE PUSH1 0x80 DUP2 ADD MLOAD PUSH1 0x80 DUP6 ADD MSTORE PUSH1 0xA0 DUP2 ADD MLOAD PUSH1 0xA0 DUP6 ADD MSTORE PUSH1 0xC0 DUP2 ADD MLOAD PUSH1 0xC0 DUP6 ADD MSTORE PUSH4 0xFFFFFFFF PUSH1 0xE0 DUP3 ADD MLOAD AND PUSH1 0xE0 DUP6 ADD MSTORE PUSH4 0xFFFFFFFF PUSH2 0x100 DUP3 ADD MLOAD AND PUSH2 0x100 DUP6 ADD MSTORE POP PUSH2 0x120 DUP4 ADD SWAP3 POP PUSH1 0x20 DUP5 ADD SWAP4 POP PUSH1 0x1 DUP2 ADD SWAP1 POP PUSH2 0x10FB JUMP JUMPDEST POP SWAP1 SWAP6 SWAP5 POP POP POP POP POP JUMP JUMPDEST PUSH4 0x4E487B71 PUSH1 0xE0 SHL PUSH1 0x0 MSTORE PUSH1 0x41 PUSH1 0x4 MSTORE PUSH1 0x24 PUSH1 0x0 REVERT JUMPDEST PUSH1 0x40 MLOAD PUSH1 0xC0 DUP2 ADD PUSH8 0xFFFFFFFFFFFFFFFF DUP2 GT DUP3 DUP3 LT OR ISZERO PUSH2 0x11C4 JUMPI PUSH2 0x11C4 PUSH2 0x118B JUMP JUMPDEST PUSH1 0x40 MSTORE SWAP1 JUMP JUMPDEST PUSH1 0x0 DUP3 PUSH1 0x1F DUP4 ADD SLT PUSH2 0x11DB JUMPI PUSH1 0x0 DUP1 REVERT JUMPDEST PUSH1 0x40 DUP1 MLOAD SWAP1 DUP2 ADD PUSH8 0xFFFFFFFFFFFFFFFF DUP2 GT DUP3 DUP3 LT OR ISZERO PUSH2 0x11FE JUMPI PUSH2 0x11FE PUSH2 0x118B JUMP JUMPDEST DUP1 PUSH1 0x40 MSTORE POP DUP1 PUSH1 0x40 DUP5 ADD DUP6 DUP2 GT ISZERO PUSH2 0x1215 JUMPI PUSH1 0x0 DUP1 REVERT JUMPDEST DUP5 JUMPDEST DUP2 DUP2 LT ISZERO PUSH2 0x122F JUMPI DUP1 CALLDATALOAD DUP4 MSTORE PUSH1 0x20 SWAP3 DUP4 ADD SWAP3 ADD PUSH2 0x1217 JUMP JUMPDEST POP SWAP2 SWAP6 SWAP5 POP POP POP POP POP JUMP JUMPDEST PUSH1 0x0 DUP1 PUSH1 0x0 DUP1 PUSH1 0x0 PUSH1 0xE0 DUP7 DUP9 SUB SLT ISZERO PUSH2 0x1252 JUMPI PUSH1 0x0 DUP1 REVERT JUMPDEST DUP6 CALLDATALOAD SWAP5 POP PUSH1 0x20 DUP7 ADD CALLDATALOAD SWAP4 POP PUSH2 0x1269 PUSH1 0x40 DUP8 ADD PUSH2 0x1026 JUMP JUMPDEST SWAP3 POP PUSH2 0x1278 DUP8 PUSH1 0x60 DUP9 ADD PUSH2 0x11CA JUMP JUMPDEST SWAP2 POP PUSH2 0x1287 DUP8 PUSH1 0xA0 DUP9 ADD PUSH2 0x11CA JUMP JUMPDEST SWAP1 POP SWAP3 SWAP6 POP SWAP3 SWAP6 SWAP1 SWAP4 POP JUMP JUMPDEST PUSH1 0x0 DUP3 PUSH1 0x1F DUP4 ADD SLT PUSH2 0x12A4 JUMPI PUSH1 0x0 DUP1 REVERT JUMPDEST DUP2 CALLDATALOAD PUSH1 0x20 DUP4 ADD PUSH1 0x0 DUP1 PUSH8 0xFFFFFFFFFFFFFFFF DUP5 GT ISZERO PUSH2 0x12C5 JUMPI PUSH2 0x12C5 PUSH2 0x118B JUMP JUMPDEST POP PUSH1 0x40 MLOAD PUSH1 0x1F NOT PUSH1 0x1F DUP6 ADD DUP2 AND PUSH1 0x3F ADD AND DUP2 ADD DUP2 DUP2 LT PUSH8 0xFFFFFFFFFFFFFFFF DUP3 GT OR ISZERO PUSH2 0x12F4 JUMPI PUSH2 0x12F4 PUSH2 0x118B JUMP JUMPDEST PUSH1 0x40 MSTORE DUP4 DUP2 MSTORE SWAP1 POP DUP1 DUP3 DUP5 ADD DUP8 LT ISZERO PUSH2 0x130C JUMPI PUSH1 0x0 DUP1 REVERT JUMPDEST DUP4 DUP4 PUSH1 0x20 DUP4 ADD CALLDATACOPY PUSH1 0x0 PUSH1 0x20 DUP6 DUP4 ADD ADD MSTORE DUP1 SWAP5 POP POP POP POP POP SWAP3 SWAP2 POP POP JUMP JUMPDEST PUSH1 0x0 PUSH1 0x20 DUP3 DUP5 SUB SLT ISZERO PUSH2 0x133B JUMPI PUSH1 0x0 DUP1 REVERT JUMPDEST DUP2 CALLDATALOAD PUSH8 0xFFFFFFFFFFFFFFFF DUP2 GT ISZERO PUSH2 0x1352 JUMPI PUSH1 0x0 DUP1 REVERT JUMPDEST DUP3 ADD PUSH1 0xC0 DUP2 DUP6 SUB SLT ISZERO PUSH2 0x1364 JUMPI PUSH1 0x0 DUP1 REVERT JUMPDEST PUSH2 0x136C PUSH2 0x11A1 JUMP JUMPDEST DUP2 CALLDATALOAD DUP2 MSTORE PUSH1 0x20 DUP1 DUP4 ADD CALLDATALOAD SWAP1 DUP3 ADD MSTORE PUSH1 0x40 DUP1 DUP4 ADD CALLDATALOAD SWAP1 DUP3 ADD MSTORE PUSH1 0x60 DUP1 DUP4 ADD CALLDATALOAD SWAP1 DUP3 ADD MSTORE PUSH1 0x80 DUP3 ADD CALLDATALOAD PUSH8 0xFFFFFFFFFFFFFFFF DUP2 GT ISZERO PUSH2 0x13A8 JUMPI PUSH1 0x0 DUP1 REVERT JUMPDEST PUSH2 0x13B4 DUP7 DUP3 DUP6 ADD PUSH2 0x1293 JUMP JUMPDEST PUSH1 0x80 DUP4 ADD MSTORE POP PUSH1 0xA0 DUP3 ADD CALLDATALOAD PUSH8 0xFFFFFFFFFFFFFFFF DUP2 GT ISZERO PUSH2 0x13D4 JUMPI PUSH1 0x0 DUP1 REVERT JUMPDEST PUSH2 0x13E0 DUP7 DUP3 DUP6 ADD PUSH2 0x1293 JUMP JUMPDEST PUSH1 0xA0 DUP4 ADD MSTORE POP SWAP5 SWAP4 POP POP POP POP JUMP JUMPDEST PUSH1 0x0 PUSH1 0x20 DUP3 DUP5 SUB SLT ISZERO PUSH2 0x1400 JUMPI PUSH1 0x0 DUP1 REVERT JUMPDEST PUSH2 0xFCA DUP3 PUSH2 0x1026 JUMP JUMPDEST PUSH1 0x0 DUP1 PUSH1 0x0 PUSH1 0x60 DUP5 DUP7 SUB SLT ISZERO PUSH2 0x141E JUMPI PUSH1 0x0 DUP1 REVERT JUMPDEST PUSH2 0x1427 DUP5 PUSH2 0x1026 JUMP JUMPDEST SWAP3 POP PUSH2 0x1435 PUSH1 0x20 DUP6 ADD PUSH2 0x1026 JUMP JUMPDEST SWAP2 POP PUSH2 0x1443 PUSH1 0x40 DUP6 ADD PUSH2 0x1026 JUMP JUMPDEST SWAP1 POP SWAP3 POP SWAP3 POP SWAP3 JUMP JUMPDEST PUSH1 0x20 DUP1 DUP3 MSTORE PUSH1 0x14 SWAP1 DUP3 ADD MSTORE PUSH20 0x10591B5A5B881B195D995B081C995C5D5A5C9959 PUSH1 0x62 SHL PUSH1 0x40 DUP3 ADD MSTORE PUSH1 0x60 ADD SWAP1 JUMP JUMPDEST PUSH4 0x4E487B71 PUSH1 0xE0 SHL PUSH1 0x0 MSTORE PUSH1 0x11 PUSH1 0x4 MSTORE PUSH1 0x24 PUSH1 0x0 REVERT JUMPDEST PUSH4 0xFFFFFFFF DUP2 DUP2 AND DUP4 DUP3 AND ADD SWAP1 DUP2 GT ISZERO PUSH2 0xF09 JUMPI PUSH2 0xF09 PUSH2 0x147A JUMP JUMPDEST PUSH4 0x4E487B71 PUSH1 0xE0 SHL PUSH1 0x0 MSTORE PUSH1 0x32 PUSH1 0x4 MSTORE PUSH1 0x24 PUSH1 0x0 REVERT JUMPDEST DUP1 DUP3 ADD DUP1 DUP3 GT ISZERO PUSH2 0xF09 JUMPI PUSH2 0xF09 PUSH2 0x147A JUMP JUMPDEST PUSH1 0x0 JUMPDEST DUP4 DUP2 LT ISZERO PUSH2 0x14F0 JUMPI DUP2 DUP2 ADD MLOAD DUP4 DUP3 ADD MSTORE PUSH1 0x20 ADD PUSH2 0x14D8 JUMP JUMPDEST POP POP PUSH1 0x0 SWAP2 ADD MSTORE JUMP JUMPDEST PUSH1 0x0 DUP2 MLOAD DUP1 DUP5 MSTORE PUSH2 0x1511 DUP2 PUSH1 0x20 DUP7 ADD PUSH1 0x20 DUP7 ADD PUSH2 0x14D5 JUMP JUMPDEST PUSH1 0x1F ADD PUSH1 0x1F NOT AND SWAP3 SWAP1 SWAP3 ADD PUSH1 0x20 ADD SWAP3 SWAP2 POP POP JUMP JUMPDEST PUSH1 0xC0 DUP2 MSTORE PUSH1 0x0 PUSH2 0x1538 PUSH1 0xC0 DUP4 ADD DUP10 PUSH2 0x14F9 JUMP JUMPDEST DUP3 DUP2 SUB PUSH1 0x20 DUP5 ADD MSTORE PUSH2 0x154A DUP2 DUP10 PUSH2 0x14F9 JUMP JUMPDEST SWAP2 POP POP DUP6 PUSH1 0x40 DUP4 ADD MSTORE DUP5 PUSH1 0x60 DUP4 ADD MSTORE DUP4 PUSH1 0x80 DUP4 ADD MSTORE DUP3 PUSH1 0xA0 DUP4 ADD MSTORE SWAP8 SWAP7 POP POP POP POP POP POP POP JUMP JUMPDEST PUSH1 0x0 PUSH1 0x20 DUP3 DUP5 SUB SLT ISZERO PUSH2 0x1582 JUMPI PUSH1 0x0 DUP1 REVERT JUMPDEST DUP2 MLOAD DUP1 ISZERO ISZERO DUP2 EQ PUSH2 0xFCA JUMPI PUSH1 0x0 DUP1 REVERT JUMPDEST PUSH1 0x1 PUSH1 0x1 PUSH1 0xA0 SHL SUB DUP4 AND DUP2 MSTORE PUSH1 0x40 PUSH1 0x20 DUP3 ADD DUP2 SWAP1 MSTORE PUSH1 0x0 SWAP1 PUSH2 0x15B6 SWAP1 DUP4 ADD DUP5 PUSH2 0x14F9 JUMP JUMPDEST SWAP5 SWAP4 POP POP POP POP JUMP JUMPDEST PUSH1 0x0 DUP4 MLOAD PUSH2 0x15D0 DUP2 DUP5 PUSH1 0x20 DUP9 ADD PUSH2 0x14D5 JUMP JUMPDEST DUP4 MLOAD SWAP1 DUP4 ADD SWAP1 PUSH2 0x15E4 DUP2 DUP4 PUSH1 0x20 DUP9 ADD PUSH2 0x14D5 JUMP JUMPDEST ADD SWAP5 SWAP4 POP POP POP POP JUMP INVALID PUSH1 0x80 PUSH1 0x40 MSTORE CALLVALUE DUP1 ISZERO PUSH1 0xF JUMPI PUSH1 0x0 DUP1 REVERT JUMPDEST POP PUSH1 0x16 PUSH1 0x1A JUMP JUMPDEST PUSH1 0xCA JUMP JUMPDEST PUSH32 0xF0C57E16840DF040F15088DC2F81FE391C3923BEC73E23A9662EFC9C229C6A00 DUP1 SLOAD PUSH9 0x10000000000000000 SWAP1 DIV PUSH1 0xFF AND ISZERO PUSH1 0x69 JUMPI PUSH1 0x40 MLOAD PUSH4 0xF92EE8A9 PUSH1 0xE0 SHL DUP2 MSTORE PUSH1 0x4 ADD PUSH1 0x40 MLOAD DUP1 SWAP2 SUB SWAP1 REVERT JUMPDEST DUP1 SLOAD PUSH1 0x1 PUSH1 0x1 PUSH1 0x40 SHL SUB SWAP1 DUP2 AND EQ PUSH1 0xC7 JUMPI DUP1 SLOAD PUSH1 0x1 PUSH1 0x1 PUSH1 0x40 SHL SUB NOT AND PUSH1 0x1 PUSH1 0x1 PUSH1 0x40 SHL SUB SWAP1 DUP2 OR DUP3 SSTORE PUSH1 0x40 MLOAD SWAP1 DUP2 MSTORE PUSH32 0xC7F505B2F371AE2175EE4913F4499E1F2633A7B5936321EED1CDAEB6115181D2 SWAP1 PUSH1 0x20 ADD PUSH1 0x40 MLOAD DUP1 SWAP2 SUB SWAP1 LOG1 JUMPDEST POP JUMP JUMPDEST PUSH2 0x1153 DUP1 PUSH2 0xD9 PUSH1 0x0 CODECOPY PUSH1 0x0 RETURN INVALID PUSH1 0x80 PUSH1 0x40 MSTORE PUSH1 0x4 CALLDATASIZE LT PUSH2 0x7F JUMPI PUSH1 0x0 CALLDATALOAD PUSH1 0xE0 SHR DUP1 PUSH4 0x3E1B0812 GT PUSH2 0x4E JUMPI DUP1 PUSH4 0x3E1B0812 EQ PUSH2 0x14E JUMPI DUP1 PUSH4 0xB0D691FE EQ PUSH2 0x16E JUMPI DUP1 PUSH4 0xC4D66DE8 EQ PUSH2 0x18C JUMPI DUP1 PUSH4 0xD087D288 EQ PUSH2 0x1AC JUMPI PUSH1 0x0 DUP1 REVERT JUMPDEST DUP1 PUSH4 0x6DC245C EQ PUSH2 0x8B JUMPI DUP1 PUSH4 0x7A00330 EQ PUSH2 0xC8 JUMPI DUP1 PUSH4 0x19822F7C EQ PUSH2 0xF0 JUMPI DUP1 PUSH4 0x258AE582 EQ PUSH2 0x11E JUMPI PUSH1 0x0 DUP1 REVERT JUMPDEST CALLDATASIZE PUSH2 0x86 JUMPI STOP JUMPDEST PUSH1 0x0 DUP1 REVERT JUMPDEST CALLVALUE DUP1 ISZERO PUSH2 0x97 JUMPI PUSH1 0x0 DUP1 REVERT JUMPDEST POP PUSH1 0x0 SLOAD PUSH2 0xAB SWAP1 PUSH1 0x1 PUSH1 0x1 PUSH1 0xA0 SHL SUB AND DUP2 JUMP JUMPDEST PUSH1 0x40 MLOAD PUSH1 0x1 PUSH1 0x1 PUSH1 0xA0 SHL SUB SWAP1 SWAP2 AND DUP2 MSTORE PUSH1 0x20 ADD JUMPDEST PUSH1 0x40 MLOAD DUP1 SWAP2 SUB SWAP1 RETURN JUMPDEST CALLVALUE DUP1 ISZERO PUSH2 0xD4 JUMPI PUSH1 0x0 DUP1 REVERT JUMPDEST POP PUSH2 0xEE PUSH2 0xE3 CALLDATASIZE PUSH1 0x4 PUSH2 0xE7F JUMP JUMPDEST PUSH1 0x1 SWAP2 SWAP1 SWAP2 SSTORE PUSH1 0x2 SSTORE JUMP JUMPDEST STOP JUMPDEST CALLVALUE DUP1 ISZERO PUSH2 0xFC JUMPI PUSH1 0x0 DUP1 REVERT JUMPDEST POP PUSH2 0x110 PUSH2 0x10B CALLDATASIZE PUSH1 0x4 PUSH2 0xEA1 JUMP JUMPDEST PUSH2 0x1C1 JUMP JUMPDEST PUSH1 0x40 MLOAD SWAP1 DUP2 MSTORE PUSH1 0x20 ADD PUSH2 0xBF JUMP JUMPDEST CALLVALUE DUP1 ISZERO PUSH2 0x12A JUMPI PUSH1 0x0 DUP1 REVERT JUMPDEST POP PUSH2 0x13E PUSH2 0x139 CALLDATASIZE PUSH1 0x4 PUSH2 0xEF5 JUMP JUMPDEST PUSH2 0x207 JUMP JUMPDEST PUSH1 0x40 MLOAD SWAP1 ISZERO ISZERO DUP2 MSTORE PUSH1 0x20 ADD PUSH2 0xBF JUMP JUMPDEST CALLVALUE DUP1 ISZERO PUSH2 0x15A JUMPI PUSH1 0x0 DUP1 REVERT JUMPDEST POP PUSH2 0x110 PUSH2 0x169 CALLDATASIZE PUSH1 0x4 PUSH2 0xF73 JUMP JUMPDEST PUSH2 0x280 JUMP JUMPDEST CALLVALUE DUP1 ISZERO PUSH2 0x17A JUMPI PUSH1 0x0 DUP1 REVERT JUMPDEST POP PUSH1 0x0 SLOAD PUSH1 0x1 PUSH1 0x1 PUSH1 0xA0 SHL SUB AND PUSH2 0xAB JUMP JUMPDEST CALLVALUE DUP1 ISZERO PUSH2 0x198 JUMPI PUSH1 0x0 DUP1 REVERT JUMPDEST POP PUSH2 0xEE PUSH2 0x1A7 CALLDATASIZE PUSH1 0x4 PUSH2 0xF9C JUMP JUMPDEST PUSH2 0x30C JUMP JUMPDEST CALLVALUE DUP1 ISZERO PUSH2 0x1B8 JUMPI PUSH1 0x0 DUP1 REVERT JUMPDEST POP PUSH2 0x110 PUSH2 0x42E JUMP JUMPDEST PUSH1 0x0 PUSH2 0x1CB PUSH2 0x43F JUMP JUMPDEST PUSH1 0x0 PUSH2 0x1E4 DUP2 PUSH2 0x1DF PUSH2 0x100 DUP9 ADD DUP9 PUSH2 0xFC5 JUMP JUMPDEST PUSH2 0x495 JUMP JUMPDEST PUSH2 0x1EF JUMPI PUSH1 0x1 PUSH2 0x1F2 JUMP JUMPDEST PUSH1 0x0 JUMPDEST SWAP1 POP PUSH2 0x1FD DUP4 PUSH2 0x4A2 JUMP JUMPDEST SWAP1 POP JUMPDEST SWAP4 SWAP3 POP POP POP JUMP JUMPDEST PUSH1 0x0 PUSH1 0x40 DUP3 LT DUP1 PUSH2 0x218 JUMPI POP PUSH1 0x1 SLOAD ISZERO JUMPDEST DUP1 PUSH2 0x223 JUMPI POP PUSH1 0x2 SLOAD ISZERO JUMPDEST ISZERO PUSH2 0x230 JUMPI POP PUSH1 0x0 PUSH2 0x200 JUMP JUMPDEST PUSH1 0x0 PUSH2 0x23F PUSH1 0x20 DUP3 DUP6 DUP8 PUSH2 0x1013 JUMP JUMPDEST PUSH2 0x248 SWAP2 PUSH2 0x103D JUMP JUMPDEST SWAP1 POP PUSH1 0x0 PUSH2 0x25A PUSH1 0x40 PUSH1 0x20 DUP7 DUP9 PUSH2 0x1013 JUMP JUMPDEST PUSH2 0x263 SWAP2 PUSH2 0x103D JUMP JUMPDEST SWAP1 POP PUSH2 0x276 DUP7 DUP4 DUP4 PUSH1 0x1 SLOAD PUSH1 0x2 SLOAD PUSH2 0x4F6 JUMP JUMPDEST SWAP7 SWAP6 POP POP POP POP POP POP JUMP JUMPDEST PUSH1 0x0 DUP1 SLOAD PUSH1 0x1 PUSH1 0x1 PUSH1 0xA0 SHL SUB AND PUSH1 0x40 MLOAD PUSH4 0x1AAB3F0D PUSH1 0xE1 SHL DUP2 MSTORE ADDRESS PUSH1 0x4 DUP3 ADD MSTORE PUSH1 0x1 PUSH1 0x1 PUSH1 0xC0 SHL SUB DUP5 AND PUSH1 0x24 DUP3 ADD MSTORE PUSH1 0x1 PUSH1 0x1 PUSH1 0xA0 SHL SUB SWAP2 SWAP1 SWAP2 AND SWAP1 PUSH4 0x35567E1A SWAP1 PUSH1 0x44 ADD PUSH1 0x20 PUSH1 0x40 MLOAD DUP1 DUP4 SUB DUP2 DUP7 GAS STATICCALL ISZERO DUP1 ISZERO PUSH2 0x2E2 JUMPI RETURNDATASIZE PUSH1 0x0 DUP1 RETURNDATACOPY RETURNDATASIZE PUSH1 0x0 REVERT JUMPDEST POP POP POP POP PUSH1 0x40 MLOAD RETURNDATASIZE PUSH1 0x1F NOT PUSH1 0x1F DUP3 ADD AND DUP3 ADD DUP1 PUSH1 0x40 MSTORE POP DUP2 ADD SWAP1 PUSH2 0x306 SWAP2 SWAP1 PUSH2 0x105B JUMP JUMPDEST SWAP3 SWAP2 POP POP JUMP JUMPDEST PUSH32 0xF0C57E16840DF040F15088DC2F81FE391C3923BEC73E23A9662EFC9C229C6A00 DUP1 SLOAD PUSH1 0x1 PUSH1 0x40 SHL DUP2 DIV PUSH1 0xFF AND ISZERO SWAP1 PUSH8 0xFFFFFFFFFFFFFFFF AND PUSH1 0x0 DUP2 ISZERO DUP1 ISZERO PUSH2 0x352 JUMPI POP DUP3 JUMPDEST SWAP1 POP PUSH1 0x0 DUP3 PUSH8 0xFFFFFFFFFFFFFFFF AND PUSH1 0x1 EQ DUP1 ISZERO PUSH2 0x36F JUMPI POP ADDRESS EXTCODESIZE ISZERO JUMPDEST SWAP1 POP DUP2 ISZERO DUP1 ISZERO PUSH2 0x37D JUMPI POP DUP1 ISZERO JUMPDEST ISZERO PUSH2 0x39B JUMPI PUSH1 0x40 MLOAD PUSH4 0xF92EE8A9 PUSH1 0xE0 SHL DUP2 MSTORE PUSH1 0x4 ADD PUSH1 0x40 MLOAD DUP1 SWAP2 SUB SWAP1 REVERT JUMPDEST DUP5 SLOAD PUSH8 0xFFFFFFFFFFFFFFFF NOT AND PUSH1 0x1 OR DUP6 SSTORE DUP4 ISZERO PUSH2 0x3C5 JUMPI DUP5 SLOAD PUSH1 0xFF PUSH1 0x40 SHL NOT AND PUSH1 0x1 PUSH1 0x40 SHL OR DUP6 SSTORE JUMPDEST PUSH1 0x0 DUP1 SLOAD PUSH1 0x1 PUSH1 0x1 PUSH1 0xA0 SHL SUB NOT AND PUSH1 0x1 PUSH1 0x1 PUSH1 0xA0 SHL SUB DUP9 AND OR SWAP1 SSTORE DUP4 ISZERO PUSH2 0x426 JUMPI DUP5 SLOAD PUSH1 0xFF PUSH1 0x40 SHL NOT AND DUP6 SSTORE PUSH1 0x40 MLOAD PUSH1 0x1 DUP2 MSTORE PUSH32 0xC7F505B2F371AE2175EE4913F4499E1F2633A7B5936321EED1CDAEB6115181D2 SWAP1 PUSH1 0x20 ADD PUSH1 0x40 MLOAD DUP1 SWAP2 SUB SWAP1 LOG1 JUMPDEST POP POP POP POP POP POP JUMP JUMPDEST PUSH1 0x0 PUSH2 0x43A PUSH1 0x0 PUSH2 0x280 JUMP JUMPDEST SWAP1 POP SWAP1 JUMP JUMPDEST CALLER PUSH2 0x452 PUSH1 0x0 SLOAD PUSH1 0x1 PUSH1 0x1 PUSH1 0xA0 SHL SUB AND SWAP1 JUMP JUMPDEST PUSH1 0x1 PUSH1 0x1 PUSH1 0xA0 SHL SUB AND DUP2 PUSH1 0x1 PUSH1 0x1 PUSH1 0xA0 SHL SUB AND EQ PUSH2 0x492 JUMPI PUSH1 0x40 MLOAD PUSH4 0x7CF8632B PUSH1 0xE0 SHL DUP2 MSTORE PUSH1 0x1 PUSH1 0x1 PUSH1 0xA0 SHL SUB DUP3 AND PUSH1 0x4 DUP3 ADD MSTORE PUSH1 0x24 ADD PUSH1 0x40 MLOAD DUP1 SWAP2 SUB SWAP1 REVERT JUMPDEST POP JUMP JUMPDEST PUSH1 0x0 PUSH2 0x1FD DUP5 DUP5 DUP5 PUSH2 0x207 JUMP JUMPDEST DUP1 ISZERO PUSH2 0x492 JUMPI PUSH1 0x40 MLOAD PUSH1 0x0 SWAP1 CALLER SWAP1 DUP4 SWAP1 DUP4 DUP2 DUP2 DUP2 DUP6 DUP8 GAS CALL SWAP3 POP POP POP RETURNDATASIZE DUP1 PUSH1 0x0 DUP2 EQ PUSH2 0x4EA JUMPI PUSH1 0x40 MLOAD SWAP2 POP PUSH1 0x1F NOT PUSH1 0x3F RETURNDATASIZE ADD AND DUP3 ADD PUSH1 0x40 MSTORE RETURNDATASIZE DUP3 MSTORE RETURNDATASIZE PUSH1 0x0 PUSH1 0x20 DUP5 ADD RETURNDATACOPY PUSH2 0x4EF JUMP JUMPDEST PUSH1 0x60 SWAP2 POP JUMPDEST POP POP POP POP POP JUMP JUMPDEST PUSH1 0x0 DUP1 PUSH1 0x0 PUSH2 0x508 DUP9 DUP9 DUP9 DUP9 DUP9 PUSH2 0x533 JUMP JUMPDEST SWAP2 POP SWAP2 POP DUP1 PUSH2 0x523 JUMPI PUSH2 0x51E DUP9 DUP9 DUP9 DUP9 DUP9 PUSH2 0x637 JUMP JUMPDEST PUSH2 0x525 JUMP JUMPDEST DUP2 JUMPDEST SWAP3 POP POP POP JUMPDEST SWAP6 SWAP5 POP POP POP POP POP JUMP JUMPDEST PUSH1 0x0 DUP1 PUSH2 0x540 DUP7 DUP7 PUSH2 0x6F2 JUMP JUMPDEST ISZERO DUP1 PUSH2 0x553 JUMPI POP PUSH2 0x551 DUP5 DUP5 PUSH2 0x74B JUMP JUMPDEST ISZERO JUMPDEST ISZERO PUSH2 0x564 JUMPI POP PUSH1 0x0 SWAP1 POP PUSH1 0x1 PUSH2 0x62D JUMP JUMPDEST PUSH1 0x40 DUP1 MLOAD PUSH1 0x20 DUP2 ADD DUP10 SWAP1 MSTORE SWAP1 DUP2 ADD DUP8 SWAP1 MSTORE PUSH1 0x60 DUP2 ADD DUP7 SWAP1 MSTORE PUSH1 0x80 DUP2 ADD DUP6 SWAP1 MSTORE PUSH1 0xA0 DUP2 ADD DUP5 SWAP1 MSTORE PUSH1 0x0 SWAP1 DUP2 SWAP1 PUSH2 0x100 SWAP1 PUSH1 0xC0 ADD PUSH1 0x40 DUP1 MLOAD PUSH1 0x1F NOT DUP2 DUP5 SUB ADD DUP2 MSTORE SWAP1 DUP3 SWAP1 MSTORE PUSH2 0x5B0 SWAP2 PUSH2 0x1074 JUMP JUMPDEST PUSH1 0x0 PUSH1 0x40 MLOAD DUP1 DUP4 SUB DUP2 DUP6 GAS STATICCALL SWAP2 POP POP RETURNDATASIZE DUP1 PUSH1 0x0 DUP2 EQ PUSH2 0x5EB JUMPI PUSH1 0x40 MLOAD SWAP2 POP PUSH1 0x1F NOT PUSH1 0x3F RETURNDATASIZE ADD AND DUP3 ADD PUSH1 0x40 MSTORE RETURNDATASIZE DUP3 MSTORE RETURNDATASIZE PUSH1 0x0 PUSH1 0x20 DUP5 ADD RETURNDATACOPY PUSH2 0x5F0 JUMP JUMPDEST PUSH1 0x60 SWAP2 POP JUMPDEST POP SWAP2 POP SWAP2 POP DUP2 DUP1 ISZERO PUSH2 0x603 JUMPI POP DUP1 MLOAD PUSH1 0x20 EQ JUMPDEST PUSH2 0x60F JUMPI PUSH1 0x0 DUP1 PUSH2 0x626 JUMP JUMPDEST DUP1 DUP1 PUSH1 0x20 ADD SWAP1 MLOAD DUP2 ADD SWAP1 PUSH2 0x623 SWAP2 SWAP1 PUSH2 0x10A3 JUMP JUMPDEST PUSH1 0x1 JUMPDEST SWAP4 POP SWAP4 POP POP POP JUMPDEST SWAP6 POP SWAP6 SWAP4 POP POP POP POP JUMP JUMPDEST PUSH1 0x0 PUSH2 0x643 DUP6 DUP6 PUSH2 0x6F2 JUMP JUMPDEST ISZERO DUP1 PUSH2 0x656 JUMPI POP PUSH2 0x654 DUP4 DUP4 PUSH2 0x74B JUMP JUMPDEST ISZERO JUMPDEST ISZERO PUSH2 0x663 JUMPI POP PUSH1 0x0 PUSH2 0x52A JUMP JUMPDEST PUSH1 0x0 PUSH2 0x66F DUP5 DUP5 PUSH2 0x7B0 JUMP JUMPDEST SWAP1 POP PUSH1 0x0 PUSH2 0x68B DUP7 PUSH1 0x0 DUP1 MLOAD PUSH1 0x20 PUSH2 0x10FE DUP4 CODECOPY DUP2 MLOAD SWAP2 MSTORE PUSH2 0x9A7 JUMP JUMPDEST SWAP1 POP PUSH1 0x0 PUSH1 0x0 DUP1 MLOAD PUSH1 0x20 PUSH2 0x10FE DUP4 CODECOPY DUP2 MLOAD SWAP2 MSTORE DUP3 DUP11 MULMOD SWAP1 POP PUSH1 0x0 PUSH1 0x0 DUP1 MLOAD PUSH1 0x20 PUSH2 0x10FE DUP4 CODECOPY DUP2 MLOAD SWAP2 MSTORE DUP4 DUP11 MULMOD SWAP1 POP PUSH1 0x0 PUSH2 0x6C6 DUP6 DUP5 DUP5 PUSH2 0x9B7 JUMP JUMPDEST POP SWAP1 POP DUP10 PUSH2 0x6E2 PUSH1 0x0 DUP1 MLOAD PUSH1 0x20 PUSH2 0x10FE DUP4 CODECOPY DUP2 MLOAD SWAP2 MSTORE DUP4 PUSH2 0x10C5 JUMP JUMPDEST EQ SWAP12 SWAP11 POP POP POP POP POP POP POP POP POP POP POP JUMP JUMPDEST PUSH1 0x0 DUP3 ISZERO DUP1 ISZERO SWAP1 PUSH2 0x710 JUMPI POP PUSH1 0x0 DUP1 MLOAD PUSH1 0x20 PUSH2 0x10FE DUP4 CODECOPY DUP2 MLOAD SWAP2 MSTORE DUP4 LT JUMPDEST DUP1 ISZERO PUSH2 0x71B JUMPI POP DUP2 ISZERO ISZERO JUMPDEST DUP1 ISZERO PUSH2 0x200 JUMPI POP POP PUSH32 0x7FFFFFFF800000007FFFFFFFFFFFFFFFDE737D56D38BCF4279DCE5617E3192A8 LT ISZERO SWAP2 SWAP1 POP JUMP JUMPDEST PUSH1 0x0 PUSH1 0x1 PUSH1 0x60 SHL PUSH4 0xFFFFFFFF PUSH1 0xC0 SHL SUB NOT DUP1 DUP4 DUP5 MULMOD DUP2 PUSH32 0x5AC635D8AA3A93E7B3EBBD55769886BC651D06B0CC53B0F63BCE3C3E27D2604B DUP4 DUP8 DUP6 PUSH1 0x3 PUSH1 0x1 PUSH1 0x60 SHL SUB PUSH4 0xFFFFFFFF PUSH1 0xC0 SHL SUB NOT DUP8 DUP12 DUP13 MULMOD ADDMOD MULMOD ADDMOD SWAP5 DUP3 GT SWAP2 SWAP1 SWAP4 LT AND SWAP2 SWAP1 SWAP3 EQ AND SWAP2 SWAP1 POP JUMP JUMPDEST PUSH2 0x7B8 PUSH2 0xE35 JUMP JUMPDEST PUSH1 0x40 MLOAD DUP1 PUSH1 0x60 ADD PUSH1 0x40 MSTORE DUP1 PUSH1 0x0 DUP2 MSTORE PUSH1 0x20 ADD PUSH1 0x0 DUP2 MSTORE PUSH1 0x20 ADD PUSH1 0x0 DUP2 MSTORE POP DUP2 PUSH1 0x0 PUSH1 0x10 DUP2 LT PUSH2 0x7E9 JUMPI PUSH2 0x7E9 PUSH2 0x10E7 JUMP JUMPDEST PUSH1 0x20 MUL ADD DUP2 SWAP1 MSTORE POP PUSH1 0x40 MLOAD DUP1 PUSH1 0x60 ADD PUSH1 0x40 MSTORE DUP1 DUP5 DUP2 MSTORE PUSH1 0x20 ADD DUP4 DUP2 MSTORE PUSH1 0x20 ADD PUSH1 0x1 DUP2 MSTORE POP DUP2 PUSH1 0x1 PUSH1 0x10 DUP2 LT PUSH2 0x820 JUMPI PUSH2 0x820 PUSH2 0x10E7 JUMP JUMPDEST PUSH1 0x20 MUL ADD DUP2 SWAP1 MSTORE POP PUSH1 0x40 MLOAD DUP1 PUSH1 0x60 ADD PUSH1 0x40 MSTORE DUP1 PUSH32 0x6B17D1F2E12C4247F8BCE6E563A440F277037D812DEB33A0F4A13945D898C296 DUP2 MSTORE PUSH1 0x20 ADD PUSH32 0x4FE342E2FE1A7F9B8EE7EB4A7C0F9E162BCE33576B315ECECBB6406837BF51F5 DUP2 MSTORE PUSH1 0x20 ADD PUSH1 0x1 DUP2 MSTORE POP DUP2 PUSH1 0x4 PUSH1 0x10 DUP2 LT PUSH2 0x897 JUMPI PUSH2 0x897 PUSH2 0x10E7 JUMP JUMPDEST PUSH1 0x20 MUL ADD MSTORE PUSH2 0x8AD DUP2 PUSH1 0x1 JUMPDEST PUSH1 0x20 MUL ADD MLOAD PUSH2 0xADF JUMP JUMPDEST PUSH1 0x40 DUP3 ADD MSTORE PUSH2 0x8BD DUP2 PUSH1 0x4 PUSH2 0x8A3 JUMP JUMPDEST PUSH2 0x100 DUP3 ADD MSTORE PUSH1 0x20 DUP2 ADD MLOAD PUSH2 0x8DA SWAP1 DUP3 PUSH1 0x2 JUMPDEST PUSH1 0x20 MUL ADD MLOAD PUSH2 0xB41 JUMP JUMPDEST PUSH1 0x60 DUP3 ADD MSTORE PUSH2 0x8F3 DUP2 PUSH1 0x1 JUMPDEST PUSH1 0x20 MUL ADD MLOAD DUP3 PUSH1 0x4 PUSH2 0x8D0 JUMP JUMPDEST PUSH1 0xA0 DUP3 ADD MSTORE PUSH2 0x903 DUP2 PUSH1 0x2 PUSH2 0x8E6 JUMP JUMPDEST PUSH1 0xC0 DUP3 ADD MSTORE PUSH2 0x913 DUP2 PUSH1 0x3 PUSH2 0x8E6 JUMP JUMPDEST PUSH1 0xE0 DUP3 ADD MSTORE PUSH2 0x92C DUP2 PUSH1 0x1 JUMPDEST PUSH1 0x20 MUL ADD MLOAD DUP3 PUSH1 0x8 PUSH2 0x8D0 JUMP JUMPDEST PUSH2 0x120 DUP3 ADD MSTORE PUSH2 0x93D DUP2 PUSH1 0x2 PUSH2 0x91F JUMP JUMPDEST PUSH2 0x140 DUP3 ADD MSTORE PUSH2 0x94E DUP2 PUSH1 0x3 PUSH2 0x91F JUMP JUMPDEST PUSH2 0x160 DUP3 ADD MSTORE PUSH2 0x95F DUP2 PUSH1 0x4 PUSH2 0x91F JUMP JUMPDEST PUSH2 0x180 DUP3 ADD MSTORE PUSH2 0x979 DUP2 PUSH1 0x1 JUMPDEST PUSH1 0x20 MUL ADD MLOAD DUP3 PUSH1 0xC PUSH2 0x8D0 JUMP JUMPDEST PUSH2 0x1A0 DUP3 ADD MSTORE PUSH2 0x98A DUP2 PUSH1 0x2 PUSH2 0x96C JUMP JUMPDEST PUSH2 0x1C0 DUP3 ADD MSTORE PUSH2 0x99B DUP2 PUSH1 0x3 PUSH2 0x96C JUMP JUMPDEST PUSH2 0x1E0 DUP3 ADD MSTORE SWAP3 SWAP2 POP POP JUMP JUMPDEST PUSH1 0x0 PUSH2 0x200 DUP4 PUSH1 0x2 DUP5 SUB DUP5 PUSH2 0xBA5 JUMP JUMPDEST PUSH1 0x0 DUP1 PUSH1 0x0 DUP1 PUSH1 0x0 DUP1 JUMPDEST PUSH1 0x80 DUP2 LT ISZERO PUSH2 0xAC3 JUMPI DUP2 ISZERO PUSH2 0x9F5 JUMPI PUSH2 0x9DB DUP5 DUP5 DUP5 PUSH2 0xBC8 JUMP JUMPDEST SWAP2 SWAP6 POP SWAP4 POP SWAP2 POP PUSH2 0x9ED DUP5 DUP5 DUP5 PUSH2 0xBC8 JUMP JUMPDEST SWAP2 SWAP6 POP SWAP4 POP SWAP2 POP JUMPDEST PUSH1 0xC PUSH1 0xFC DUP10 SWAP1 SHR AND PUSH1 0xFE DUP9 SWAP1 SHR OR DUP10 DUP2 PUSH1 0x10 DUP2 LT PUSH2 0xA15 JUMPI PUSH2 0xA15 PUSH2 0x10E7 JUMP JUMPDEST PUSH1 0x20 MUL ADD MLOAD PUSH1 0x40 ADD MLOAD ISZERO PUSH2 0xAAF JUMPI DUP3 PUSH1 0x0 SUB PUSH2 0xA85 JUMPI DUP10 DUP2 PUSH1 0x10 DUP2 LT PUSH2 0xA3D JUMPI PUSH2 0xA3D PUSH2 0x10E7 JUMP JUMPDEST PUSH1 0x20 MUL ADD MLOAD MLOAD DUP11 DUP3 PUSH1 0x10 DUP2 LT PUSH2 0xA55 JUMPI PUSH2 0xA55 PUSH2 0x10E7 JUMP JUMPDEST PUSH1 0x20 MUL ADD MLOAD PUSH1 0x20 ADD MLOAD DUP12 DUP4 PUSH1 0x10 DUP2 LT PUSH2 0xA70 JUMPI PUSH2 0xA70 PUSH2 0x10E7 JUMP JUMPDEST PUSH1 0x20 MUL ADD MLOAD PUSH1 0x40 ADD MLOAD SWAP2 SWAP7 POP SWAP5 POP SWAP3 POP PUSH2 0xAAF JUMP JUMPDEST PUSH2 0xAA7 DUP11 DUP3 PUSH1 0x10 DUP2 LT PUSH2 0xA9A JUMPI PUSH2 0xA9A PUSH2 0x10E7 JUMP JUMPDEST PUSH1 0x20 MUL ADD MLOAD DUP7 DUP7 DUP7 PUSH2 0xC4D JUMP JUMPDEST SWAP2 SWAP7 POP SWAP5 POP SWAP3 POP JUMPDEST POP PUSH1 0x2 SWAP8 DUP9 SHL SWAP8 SWAP7 SWAP1 SWAP7 SHL SWAP6 PUSH1 0x1 ADD PUSH2 0x9C1 JUMP JUMPDEST POP PUSH2 0xACF DUP4 DUP4 DUP4 PUSH2 0xD7B JUMP JUMPDEST SWAP5 POP SWAP5 POP POP POP POP JUMPDEST SWAP4 POP SWAP4 SWAP2 POP POP JUMP JUMPDEST PUSH2 0xB03 PUSH1 0x40 MLOAD DUP1 PUSH1 0x60 ADD PUSH1 0x40 MSTORE DUP1 PUSH1 0x0 DUP2 MSTORE PUSH1 0x20 ADD PUSH1 0x0 DUP2 MSTORE PUSH1 0x20 ADD PUSH1 0x0 DUP2 MSTORE POP SWAP1 JUMP JUMPDEST PUSH1 0x0 DUP1 PUSH1 0x0 PUSH2 0xB1F DUP6 PUSH1 0x0 ADD MLOAD DUP7 PUSH1 0x20 ADD MLOAD DUP8 PUSH1 0x40 ADD MLOAD PUSH2 0xBC8 JUMP JUMPDEST PUSH1 0x40 DUP1 MLOAD PUSH1 0x60 DUP2 ADD DUP3 MSTORE SWAP4 DUP5 MSTORE PUSH1 0x20 DUP5 ADD SWAP3 SWAP1 SWAP3 MSTORE SWAP1 DUP3 ADD MSTORE SWAP6 SWAP5 POP POP POP POP POP JUMP JUMPDEST PUSH2 0xB65 PUSH1 0x40 MLOAD DUP1 PUSH1 0x60 ADD PUSH1 0x40 MSTORE DUP1 PUSH1 0x0 DUP2 MSTORE PUSH1 0x20 ADD PUSH1 0x0 DUP2 MSTORE PUSH1 0x20 ADD PUSH1 0x0 DUP2 MSTORE POP SWAP1 JUMP JUMPDEST PUSH1 0x0 DUP1 PUSH1 0x0 PUSH2 0xB82 DUP7 DUP7 PUSH1 0x0 ADD MLOAD DUP8 PUSH1 0x20 ADD MLOAD DUP9 PUSH1 0x40 ADD MLOAD PUSH2 0xC4D JUMP JUMPDEST PUSH1 0x40 DUP1 MLOAD PUSH1 0x60 DUP2 ADD DUP3 MSTORE SWAP4 DUP5 MSTORE PUSH1 0x20 DUP5 ADD SWAP3 SWAP1 SWAP3 MSTORE SWAP1 DUP3 ADD MSTORE SWAP7 SWAP6 POP POP POP POP POP POP JUMP JUMPDEST PUSH1 0x0 DUP1 PUSH1 0x0 PUSH2 0xBB5 DUP7 DUP7 DUP7 PUSH2 0xDCC JUMP JUMPDEST SWAP2 POP SWAP2 POP DUP2 PUSH2 0x52A JUMPI PUSH2 0x52A PUSH1 0x12 PUSH2 0xE23 JUMP JUMPDEST PUSH1 0x0 DUP1 PUSH1 0x0 PUSH1 0x1 PUSH1 0x60 SHL PUSH4 0xFFFFFFFF PUSH1 0xC0 SHL SUB NOT DUP1 DUP7 DUP8 MULMOD DUP2 DUP7 DUP8 MULMOD DUP3 DUP4 DUP5 DUP4 DUP5 MULMOD PUSH1 0x3 PUSH1 0x1 PUSH1 0x60 SHL SUB PUSH4 0xFFFFFFFF PUSH1 0xC0 SHL SUB NOT MULMOD DUP5 DUP6 DUP13 DUP14 MULMOD PUSH1 0x3 MULMOD ADDMOD SWAP1 POP DUP3 DUP4 DUP4 DUP12 MULMOD PUSH1 0x4 MULMOD DUP4 DUP5 DUP3 PUSH1 0x2 MULMOD DUP6 SUB DUP6 DUP5 DUP6 MULMOD ADDMOD SWAP7 POP DUP4 DUP5 DUP6 DUP6 DUP7 MULMOD PUSH1 0x8 MULMOD DUP6 SUB DUP6 DUP7 DUP11 DUP9 SUB DUP6 ADDMOD DUP6 MULMOD ADDMOD SWAP6 POP POP POP POP DUP1 DUP2 DUP7 DUP9 MULMOD PUSH1 0x2 MULMOD SWAP2 POP POP SWAP4 POP SWAP4 POP SWAP4 SWAP1 POP JUMP JUMPDEST PUSH1 0x0 DUP1 PUSH1 0x0 PUSH1 0x1 PUSH1 0x60 SHL PUSH4 0xFFFFFFFF PUSH1 0xC0 SHL SUB NOT PUSH1 0x40 DUP9 ADD MLOAD DUP2 DUP2 DUP3 MULMOD DUP3 DUP4 DUP9 DUP6 DUP11 DUP12 MULMOD MULMOD PUSH1 0x20 DUP13 ADD MLOAD MULMOD DUP4 DUP2 DUP6 SUB DUP6 DUP7 DUP7 DUP7 MULMOD DUP13 MULMOD ADDMOD DUP5 DUP6 DUP11 DUP12 MULMOD DUP14 MLOAD MULMOD DUP6 DUP2 DUP8 SUB DUP8 DUP7 DUP16 MULMOD ADDMOD SWAP4 POP DUP2 ISZERO DUP5 ISZERO AND DUP1 ISZERO PUSH2 0xCAF JUMPI PUSH1 0x1 DUP2 EQ PUSH2 0xCF5 JUMPI PUSH2 0xD6A JUMP JUMPDEST DUP7 DUP6 DUP7 MULMOD DUP8 DUP9 DUP10 DUP4 DUP7 MULMOD PUSH1 0x2 MULMOD DUP10 SUB DUP10 DUP11 DUP5 DUP11 MULMOD DUP12 SUB DUP12 DUP9 DUP10 MULMOD ADDMOD ADDMOD SWAP11 POP DUP8 DUP9 DUP10 DUP4 DUP10 MULMOD DUP8 MULMOD DUP10 SUB DUP10 DUP11 DUP15 DUP13 SUB DUP13 DUP7 DUP10 MULMOD ADDMOD DUP8 MULMOD ADDMOD SWAP10 POP POP DUP7 DUP8 DUP13 DUP9 MULMOD DUP7 MULMOD SWAP8 POP PUSH2 0xD6A JUMP JUMPDEST DUP13 DUP13 DUP13 DUP10 DUP3 DUP4 MULMOD DUP11 DUP3 DUP4 MULMOD DUP12 DUP13 DUP14 DUP4 DUP5 MULMOD PUSH1 0x3 PUSH1 0x1 PUSH1 0x60 SHL SUB PUSH4 0xFFFFFFFF PUSH1 0xC0 SHL SUB NOT MULMOD DUP14 DUP15 DUP9 DUP10 MULMOD PUSH1 0x3 MULMOD ADDMOD SWAP1 POP DUP12 DUP13 DUP4 DUP8 MULMOD PUSH1 0x4 MULMOD SWAP5 POP DUP12 DUP13 DUP7 PUSH1 0x2 MULMOD DUP14 SUB DUP14 DUP4 DUP5 MULMOD ADDMOD SWAP15 POP DUP12 DUP13 DUP4 DUP5 MULMOD PUSH1 0x8 MULMOD DUP13 SUB SWAP2 POP DUP12 DUP16 DUP14 SUB DUP7 ADDMOD SWAP5 POP DUP12 DUP3 DUP14 DUP8 DUP5 MULMOD ADDMOD SWAP14 POP POP POP DUP10 DUP11 DUP3 DUP5 MULMOD PUSH1 0x2 MULMOD SWAP11 POP POP POP POP JUMPDEST POP POP POP POP POP POP POP SWAP5 POP SWAP5 POP SWAP5 SWAP2 POP POP JUMP JUMPDEST PUSH1 0x0 DUP1 DUP3 PUSH1 0x0 SUB PUSH2 0xD91 JUMPI POP PUSH1 0x0 SWAP1 POP DUP1 PUSH2 0xAD7 JUMP JUMPDEST PUSH1 0x1 PUSH1 0x60 SHL PUSH4 0xFFFFFFFF PUSH1 0xC0 SHL SUB NOT PUSH1 0x0 PUSH2 0xDAC DUP6 DUP4 PUSH2 0x9A7 JUMP JUMPDEST SWAP1 POP DUP2 DUP2 DUP3 MULMOD DUP3 DUP2 DUP10 MULMOD SWAP5 POP DUP3 DUP4 DUP4 DUP4 MULMOD DUP9 MULMOD SWAP4 POP POP POP POP SWAP4 POP SWAP4 SWAP2 POP POP JUMP JUMPDEST PUSH1 0x0 DUP1 DUP3 PUSH1 0x0 SUB PUSH2 0xDE2 JUMPI POP PUSH1 0x0 SWAP1 POP DUP1 PUSH2 0xAD7 JUMP JUMPDEST PUSH1 0x40 MLOAD PUSH1 0x20 DUP2 MSTORE PUSH1 0x20 DUP1 DUP3 ADD MSTORE PUSH1 0x20 PUSH1 0x40 DUP3 ADD MSTORE DUP6 PUSH1 0x60 DUP3 ADD MSTORE DUP5 PUSH1 0x80 DUP3 ADD MSTORE DUP4 PUSH1 0xA0 DUP3 ADD MSTORE PUSH1 0x20 PUSH1 0x0 PUSH1 0xC0 DUP4 PUSH1 0x5 GAS STATICCALL SWAP3 POP POP PUSH1 0x0 MLOAD SWAP1 POP SWAP4 POP SWAP4 SWAP2 POP POP JUMP JUMPDEST PUSH4 0x4E487B71 PUSH1 0x0 MSTORE DUP1 PUSH1 0x20 MSTORE PUSH1 0x24 PUSH1 0x1C REVERT JUMPDEST PUSH1 0x40 MLOAD DUP1 PUSH2 0x200 ADD PUSH1 0x40 MSTORE DUP1 PUSH1 0x10 SWAP1 JUMPDEST PUSH2 0xE69 PUSH1 0x40 MLOAD DUP1 PUSH1 0x60 ADD PUSH1 0x40 MSTORE DUP1 PUSH1 0x0 DUP2 MSTORE PUSH1 0x20 ADD PUSH1 0x0 DUP2 MSTORE PUSH1 0x20 ADD PUSH1 0x0 DUP2 MSTORE POP SWAP1 JUMP JUMPDEST DUP2 MSTORE PUSH1 0x20 ADD SWAP1 PUSH1 0x1 SWAP1 SUB SWAP1 DUP2 PUSH2 0xE45 JUMPI SWAP1 POP POP SWAP1 JUMP JUMPDEST PUSH1 0x0 DUP1 PUSH1 0x40 DUP4 DUP6 SUB SLT ISZERO PUSH2 0xE92 JUMPI PUSH1 0x0 DUP1 REVERT JUMPDEST POP POP DUP1 CALLDATALOAD SWAP3 PUSH1 0x20 SWAP1 SWAP2 ADD CALLDATALOAD SWAP2 POP JUMP JUMPDEST PUSH1 0x0 DUP1 PUSH1 0x0 PUSH1 0x60 DUP5 DUP7 SUB SLT ISZERO PUSH2 0xEB6 JUMPI PUSH1 0x0 DUP1 REVERT JUMPDEST DUP4 CALLDATALOAD PUSH8 0xFFFFFFFFFFFFFFFF DUP2 GT ISZERO PUSH2 0xECD JUMPI PUSH1 0x0 DUP1 REVERT JUMPDEST DUP5 ADD PUSH2 0x120 DUP2 DUP8 SUB SLT ISZERO PUSH2 0xEE0 JUMPI PUSH1 0x0 DUP1 REVERT JUMPDEST SWAP6 PUSH1 0x20 DUP6 ADD CALLDATALOAD SWAP6 POP PUSH1 0x40 SWAP1 SWAP5 ADD CALLDATALOAD SWAP4 SWAP3 POP POP POP JUMP JUMPDEST PUSH1 0x0 DUP1 PUSH1 0x0 PUSH1 0x40 DUP5 DUP7 SUB SLT ISZERO PUSH2 0xF0A JUMPI PUSH1 0x0 DUP1 REVERT JUMPDEST DUP4 CALLDATALOAD SWAP3 POP PUSH1 0x20 DUP5 ADD CALLDATALOAD PUSH8 0xFFFFFFFFFFFFFFFF DUP2 GT ISZERO PUSH2 0xF28 JUMPI PUSH1 0x0 DUP1 REVERT JUMPDEST DUP5 ADD PUSH1 0x1F DUP2 ADD DUP7 SGT PUSH2 0xF39 JUMPI PUSH1 0x0 DUP1 REVERT JUMPDEST DUP1 CALLDATALOAD PUSH8 0xFFFFFFFFFFFFFFFF DUP2 GT ISZERO PUSH2 0xF50 JUMPI PUSH1 0x0 DUP1 REVERT JUMPDEST DUP7 PUSH1 0x20 DUP3 DUP5 ADD ADD GT ISZERO PUSH2 0xF62 JUMPI PUSH1 0x0 DUP1 REVERT JUMPDEST SWAP4 SWAP7 PUSH1 0x20 SWAP2 SWAP1 SWAP2 ADD SWAP6 POP SWAP3 SWAP4 POP POP POP JUMP JUMPDEST PUSH1 0x0 PUSH1 0x20 DUP3 DUP5 SUB SLT ISZERO PUSH2 0xF85 JUMPI PUSH1 0x0 DUP1 REVERT JUMPDEST DUP2 CALLDATALOAD PUSH1 0x1 PUSH1 0x1 PUSH1 0xC0 SHL SUB DUP2 AND DUP2 EQ PUSH2 0x200 JUMPI PUSH1 0x0 DUP1 REVERT JUMPDEST PUSH1 0x0 PUSH1 0x20 DUP3 DUP5 SUB SLT ISZERO PUSH2 0xFAE JUMPI PUSH1 0x0 DUP1 REVERT JUMPDEST DUP2 CALLDATALOAD PUSH1 0x1 PUSH1 0x1 PUSH1 0xA0 SHL SUB DUP2 AND DUP2 EQ PUSH2 0x200 JUMPI PUSH1 0x0 DUP1 REVERT JUMPDEST PUSH1 0x0 DUP1 DUP4 CALLDATALOAD PUSH1 0x1E NOT DUP5 CALLDATASIZE SUB ADD DUP2 SLT PUSH2 0xFDC JUMPI PUSH1 0x0 DUP1 REVERT JUMPDEST DUP4 ADD DUP1 CALLDATALOAD SWAP2 POP PUSH8 0xFFFFFFFFFFFFFFFF DUP3 GT ISZERO PUSH2 0xFF7 JUMPI PUSH1 0x0 DUP1 REVERT JUMPDEST PUSH1 0x20 ADD SWAP2 POP CALLDATASIZE DUP2 SWAP1 SUB DUP3 SGT ISZERO PUSH2 0x100C JUMPI PUSH1 0x0 DUP1 REVERT JUMPDEST SWAP3 POP SWAP3 SWAP1 POP JUMP JUMPDEST PUSH1 0x0 DUP1 DUP6 DUP6 GT ISZERO PUSH2 0x1023 JUMPI PUSH1 0x0 DUP1 REVERT JUMPDEST DUP4 DUP7 GT ISZERO PUSH2 0x1030 JUMPI PUSH1 0x0 DUP1 REVERT JUMPDEST POP POP DUP3 ADD SWAP4 SWAP2 SWAP1 SWAP3 SUB SWAP2 POP JUMP JUMPDEST DUP1 CALLDATALOAD PUSH1 0x20 DUP4 LT ISZERO PUSH2 0x306 JUMPI PUSH1 0x0 NOT PUSH1 0x20 DUP5 SWAP1 SUB PUSH1 0x3 SHL SHL AND SWAP3 SWAP2 POP POP JUMP JUMPDEST PUSH1 0x0 PUSH1 0x20 DUP3 DUP5 SUB SLT ISZERO PUSH2 0x106D JUMPI PUSH1 0x0 DUP1 REVERT JUMPDEST POP MLOAD SWAP2 SWAP1 POP JUMP JUMPDEST PUSH1 0x0 DUP3 MLOAD PUSH1 0x0 JUMPDEST DUP2 DUP2 LT ISZERO PUSH2 0x1095 JUMPI PUSH1 0x20 DUP2 DUP7 ADD DUP2 ADD MLOAD DUP6 DUP4 ADD MSTORE ADD PUSH2 0x107B JUMP JUMPDEST POP PUSH1 0x0 SWAP3 ADD SWAP2 DUP3 MSTORE POP SWAP2 SWAP1 POP JUMP JUMPDEST PUSH1 0x0 PUSH1 0x20 DUP3 DUP5 SUB SLT ISZERO PUSH2 0x10B5 JUMPI PUSH1 0x0 DUP1 REVERT JUMPDEST DUP2 MLOAD DUP1 ISZERO ISZERO DUP2 EQ PUSH2 0x200 JUMPI PUSH1 0x0 DUP1 REVERT JUMPDEST PUSH1 0x0 DUP3 PUSH2 0x10E2 JUMPI PUSH4 0x4E487B71 PUSH1 0xE0 SHL PUSH1 0x0 MSTORE PUSH1 0x12 PUSH1 0x4 MSTORE PUSH1 0x24 PUSH1 0x0 REVERT JUMPDEST POP MOD SWAP1 JUMP JUMPDEST PUSH4 0x4E487B71 PUSH1 0xE0 SHL PUSH1 0x0 MSTORE PUSH1 0x32 PUSH1 0x4 MSTORE PUSH1 0x24 PUSH1 0x0 REVERT INVALID SELFDESTRUCT SELFDESTRUCT SELFDESTRUCT SELFDESTRUCT STOP STOP STOP STOP SELFDESTRUCT SELFDESTRUCT SELFDESTRUCT SELFDESTRUCT SELFDESTRUCT SELFDESTRUCT SELFDESTRUCT SELFDESTRUCT 0xBC 0xE6 STATICCALL 0xAD 0xA7 OR SWAP15 DUP5 RETURN 0xB9 0xCA 0xC2 0xFC PUSH4 0x2551A264 PUSH10 0x70667358221220047D95 RETURNDATASIZE CALLCODE NUMBER 0xAF 0xE5 SLT 0xAF 0xF 0xB4 BLOBBASEFEE CALLVALUE SHR 0xC5 INVALID 0xEF 0x2B SWAP2 0xCC DUP12 DELEGATECALL JUMP 0x2E PC PUSH28 0xF1B352D1C464736F6C634300081C0033608060405260405161041038 SUB DUP1 PUSH2 0x410 DUP4 CODECOPY DUP2 ADD PUSH1 0x40 DUP2 SWAP1 MSTORE PUSH2 0x22 SWAP2 PUSH2 0x268 JUMP JUMPDEST PUSH2 0x2C DUP3 DUP3 PUSH2 0x33 JUMP JUMPDEST POP POP PUSH2 0x358 JUMP JUMPDEST PUSH2 0x3C DUP3 PUSH2 0x92 JUMP JUMPDEST PUSH1 0x40 MLOAD PUSH1 0x1 PUSH1 0x1 PUSH1 0xA0 SHL SUB DUP4 AND SWAP1 PUSH32 0xBC7CD75A20EE27FD9ADEBAB32041F755214DBC6BFFA90CC0225B39DA2E5C2D3B SWAP1 PUSH1 0x0 SWAP1 LOG2 DUP1 MLOAD ISZERO PUSH2 0x86 JUMPI PUSH2 0x81 DUP3 DUP3 PUSH2 0x10E JUMP JUMPDEST POP POP POP JUMP JUMPDEST PUSH2 0x8E PUSH2 0x185 JUMP JUMPDEST POP POP JUMP JUMPDEST DUP1 PUSH1 0x1 PUSH1 0x1 PUSH1 0xA0 SHL SUB AND EXTCODESIZE PUSH1 0x0 SUB PUSH2 0xCD JUMPI PUSH1 0x40 MLOAD PUSH4 0x4C9C8CE3 PUSH1 0xE0 SHL DUP2 MSTORE PUSH1 0x1 PUSH1 0x1 PUSH1 0xA0 SHL SUB DUP3 AND PUSH1 0x4 DUP3 ADD MSTORE PUSH1 0x24 ADD JUMPDEST PUSH1 0x40 MLOAD DUP1 SWAP2 SUB SWAP1 REVERT JUMPDEST PUSH32 0x360894A13BA1A3210667C828492DB98DCA3E2076CC3735A920A3CA505D382BBC DUP1 SLOAD PUSH1 0x1 PUSH1 0x1 PUSH1 0xA0 SHL SUB NOT AND PUSH1 0x1 PUSH1 0x1 PUSH1 0xA0 SHL SUB SWAP3 SWAP1 SWAP3 AND SWAP2 SWAP1 SWAP2 OR SWAP1 SSTORE JUMP JUMPDEST PUSH1 0x60 PUSH1 0x0 DUP1 DUP5 PUSH1 0x1 PUSH1 0x1 PUSH1 0xA0 SHL SUB AND DUP5 PUSH1 0x40 MLOAD PUSH2 0x12B SWAP2 SWAP1 PUSH2 0x33C JUMP JUMPDEST PUSH1 0x0 PUSH1 0x40 MLOAD DUP1 DUP4 SUB DUP2 DUP6 GAS DELEGATECALL SWAP2 POP POP RETURNDATASIZE DUP1 PUSH1 0x0 DUP2 EQ PUSH2 0x166 JUMPI PUSH1 0x40 MLOAD SWAP2 POP PUSH1 0x1F NOT PUSH1 0x3F RETURNDATASIZE ADD AND DUP3 ADD PUSH1 0x40 MSTORE RETURNDATASIZE DUP3 MSTORE RETURNDATASIZE PUSH1 0x0 PUSH1 0x20 DUP5 ADD RETURNDATACOPY PUSH2 0x16B JUMP JUMPDEST PUSH1 0x60 SWAP2 POP JUMPDEST POP SWAP1 SWAP3 POP SWAP1 POP PUSH2 0x17C DUP6 DUP4 DUP4 PUSH2 0x1A6 JUMP JUMPDEST SWAP6 SWAP5 POP POP POP POP POP JUMP JUMPDEST CALLVALUE ISZERO PUSH2 0x1A4 JUMPI PUSH1 0x40 MLOAD PUSH4 0xB398979F PUSH1 0xE0 SHL DUP2 MSTORE PUSH1 0x4 ADD PUSH1 0x40 MLOAD DUP1 SWAP2 SUB SWAP1 REVERT JUMPDEST JUMP JUMPDEST PUSH1 0x60 DUP3 PUSH2 0x1BB JUMPI PUSH2 0x1B6 DUP3 PUSH2 0x205 JUMP JUMPDEST PUSH2 0x1FE JUMP JUMPDEST DUP2 MLOAD ISZERO DUP1 ISZERO PUSH2 0x1D2 JUMPI POP PUSH1 0x1 PUSH1 0x1 PUSH1 0xA0 SHL SUB DUP5 AND EXTCODESIZE ISZERO JUMPDEST ISZERO PUSH2 0x1FB JUMPI PUSH1 0x40 MLOAD PUSH4 0x9996B315 PUSH1 0xE0 SHL DUP2 MSTORE PUSH1 0x1 PUSH1 0x1 PUSH1 0xA0 SHL SUB DUP6 AND PUSH1 0x4 DUP3 ADD MSTORE PUSH1 0x24 ADD PUSH2 0xC4 JUMP JUMPDEST POP DUP1 JUMPDEST SWAP4 SWAP3 POP POP POP JUMP JUMPDEST DUP1 MLOAD ISZERO PUSH2 0x215 JUMPI DUP1 MLOAD DUP1 DUP3 PUSH1 0x20 ADD REVERT JUMPDEST PUSH1 0x40 MLOAD PUSH4 0xD6BDA275 PUSH1 0xE0 SHL DUP2 MSTORE PUSH1 0x4 ADD PUSH1 0x40 MLOAD DUP1 SWAP2 SUB SWAP1 REVERT JUMPDEST PUSH4 0x4E487B71 PUSH1 0xE0 SHL PUSH1 0x0 MSTORE PUSH1 0x41 PUSH1 0x4 MSTORE PUSH1 0x24 PUSH1 0x0 REVERT JUMPDEST PUSH1 0x0 JUMPDEST DUP4 DUP2 LT ISZERO PUSH2 0x25F JUMPI DUP2 DUP2 ADD MLOAD DUP4 DUP3 ADD MSTORE PUSH1 0x20 ADD PUSH2 0x247 JUMP JUMPDEST POP POP PUSH1 0x0 SWAP2 ADD MSTORE JUMP JUMPDEST PUSH1 0x0 DUP1 PUSH1 0x40 DUP4 DUP6 SUB SLT ISZERO PUSH2 0x27B JUMPI PUSH1 0x0 DUP1 REVERT JUMPDEST DUP3 MLOAD PUSH1 0x1 PUSH1 0x1 PUSH1 0xA0 SHL SUB DUP2 AND DUP2 EQ PUSH2 0x292 JUMPI PUSH1 0x0 DUP1 REVERT JUMPDEST PUSH1 0x20 DUP5 ADD MLOAD SWAP1 SWAP3 POP PUSH1 0x1 PUSH1 0x1 PUSH1 0x40 SHL SUB DUP2 GT ISZERO PUSH2 0x2AE JUMPI PUSH1 0x0 DUP1 REVERT JUMPDEST DUP4 ADD PUSH1 0x1F DUP2 ADD DUP6 SGT PUSH2 0x2BF JUMPI PUSH1 0x0 DUP1 REVERT JUMPDEST DUP1 MLOAD PUSH1 0x1 PUSH1 0x1 PUSH1 0x40 SHL SUB DUP2 GT ISZERO PUSH2 0x2D8 JUMPI PUSH2 0x2D8 PUSH2 0x22E JUMP JUMPDEST PUSH1 0x40 MLOAD PUSH1 0x1F DUP3 ADD PUSH1 0x1F NOT SWAP1 DUP2 AND PUSH1 0x3F ADD AND DUP2 ADD PUSH1 0x1 PUSH1 0x1 PUSH1 0x40 SHL SUB DUP2 GT DUP3 DUP3 LT OR ISZERO PUSH2 0x306 JUMPI PUSH2 0x306 PUSH2 0x22E JUMP JUMPDEST PUSH1 0x40 MSTORE DUP2 DUP2 MSTORE DUP3 DUP3 ADD PUSH1 0x20 ADD DUP8 LT ISZERO PUSH2 0x31E JUMPI PUSH1 0x0 DUP1 REVERT JUMPDEST PUSH2 0x32F DUP3 PUSH1 0x20 DUP4 ADD PUSH1 0x20 DUP7 ADD PUSH2 0x244 JUMP JUMPDEST DUP1 SWAP4 POP POP POP POP SWAP3 POP SWAP3 SWAP1 POP JUMP JUMPDEST PUSH1 0x0 DUP3 MLOAD PUSH2 0x34E DUP2 DUP5 PUSH1 0x20 DUP8 ADD PUSH2 0x244 JUMP JUMPDEST SWAP2 SWAP1 SWAP2 ADD SWAP3 SWAP2 POP POP JUMP JUMPDEST PUSH1 0xAA DUP1 PUSH2 0x366 PUSH1 0x0 CODECOPY PUSH1 0x0 RETURN INVALID PUSH1 0x80 PUSH1 0x40 MSTORE PUSH1 0xA PUSH1 0xC JUMP JUMPDEST STOP JUMPDEST PUSH1 0x18 PUSH1 0x14 PUSH1 0x1A JUMP JUMPDEST PUSH1 0x51 JUMP JUMPDEST JUMP JUMPDEST PUSH1 0x0 PUSH1 0x4C PUSH32 0x360894A13BA1A3210667C828492DB98DCA3E2076CC3735A920A3CA505D382BBC SLOAD PUSH1 0x1 PUSH1 0x1 PUSH1 0xA0 SHL SUB AND SWAP1 JUMP JUMPDEST SWAP1 POP SWAP1 JUMP JUMPDEST CALLDATASIZE PUSH1 0x0 DUP1 CALLDATACOPY PUSH1 0x0 DUP1 CALLDATASIZE PUSH1 0x0 DUP5 GAS DELEGATECALL RETURNDATASIZE PUSH1 0x0 DUP1 RETURNDATACOPY DUP1 DUP1 ISZERO PUSH1 0x6F JUMPI RETURNDATASIZE PUSH1 0x0 RETURN JUMPDEST RETURNDATASIZE PUSH1 0x0 REVERT INVALID LOG2 PUSH5 0x6970667358 0x22 SLT KECCAK256 SLT 0xAE 0xE0 0xAF DELEGATECALL 0xD PUSH16 0x2EB1044CC9318F954C49344BE34DD1A3 0xCB MSTORE 0x2A DUP6 0xBB GASPRICE 0xDC DUP4 0xBC PUSH5 0x736F6C6343 STOP ADDMOD SHR STOP CALLER LOG2 PUSH5 0x6970667358 0x22 SLT KECCAK256 PUSH0 SWAP8 0xD 0xE 0xE DIV CALLDATASIZE SWAP5 0xEE EXTCODESIZE EXTCODECOPY PUSH18 0x3FE8559753E9519F28042BB6726E28CFF9E8 0xD9 0x23 PUSH5 0x736F6C6343 STOP ADDMOD SHR STOP CALLER "},"methodIdentifiers":{"accountImpl()":"8804eb9f","accounts(bytes32)":"bc529c43","addKey(bytes32,uint256,uint256)":"1d381240","addresses(bytes32,uint256)":"b76b70d5","entryPointAddress()":"06dc245c","group(bytes32)":"7993c18f","initialize(address,address,address)":"c0c53b8b","keys_x(bytes32,uint256)":"4aba0058","keys_y(bytes32,uint256)":"98ebbd3c","owner()":"8da5cb5b","perms(address)":"b409ea4e","register(bytes32,bytes32,address,bytes32[2],bytes32[2])":"970a7e48","sign((bytes32,uint256,uint256,uint256,bytes,string))":"ac7b5911","total_accounts()":"77cdfa98","updatePerms(address,uint8)":"16aac50e","usernames(bytes32,uint256)":"56d9815a","verifier()":"2b7ac3f3","version()":"54fd4d50"}},"storageLayout":{"storage":[{"astId":10179,"contract":"contracts/CarmelRegistry.sol:CarmelRegistry","label":"accountImpl","offset":0,"slot":"0","type":"t_contract(CarmelAccount)10149"},{"astId":10189,"contract":"contracts/CarmelRegistry.sol:CarmelRegistry","label":"entryPointAddress","offset":0,"slot":"1","type":"t_address"},{"astId":10226,"contract":"contracts/CarmelRegistry.sol:CarmelRegistry","label":"total_accounts","offset":0,"slot":"2","type":"t_uint256"},{"astId":10229,"contract":"contracts/CarmelRegistry.sol:CarmelRegistry","label":"owner","offset":0,"slot":"3","type":"t_address"},{"astId":10232,"contract":"contracts/CarmelRegistry.sol:CarmelRegistry","label":"verifier","offset":0,"slot":"4","type":"t_address"},{"astId":10236,"contract":"contracts/CarmelRegistry.sol:CarmelRegistry","label":"perms","offset":0,"slot":"5","type":"t_mapping(t_address,t_uint8)"},{"astId":10241,"contract":"contracts/CarmelRegistry.sol:CarmelRegistry","label":"accounts","offset":0,"slot":"6","type":"t_mapping(t_bytes32,t_struct(Account)10223_storage)"},{"astId":10246,"contract":"contracts/CarmelRegistry.sol:CarmelRegistry","label":"usernames","offset":0,"slot":"7","type":"t_mapping(t_bytes32,t_array(t_bytes32)dyn_storage)"},{"astId":10251,"contract":"contracts/CarmelRegistry.sol:CarmelRegistry","label":"keys_x","offset":0,"slot":"8","type":"t_mapping(t_bytes32,t_array(t_uint256)dyn_storage)"},{"astId":10256,"contract":"contracts/CarmelRegistry.sol:CarmelRegistry","label":"keys_y","offset":0,"slot":"9","type":"t_mapping(t_bytes32,t_array(t_uint256)dyn_storage)"},{"astId":10261,"contract":"contracts/CarmelRegistry.sol:CarmelRegistry","label":"addresses","offset":0,"slot":"10","type":"t_mapping(t_bytes32,t_array(t_address)dyn_storage)"}],"types":{"t_address":{"encoding":"inplace","label":"address","numberOfBytes":"20"},"t_array(t_address)dyn_storage":{"base":"t_address","encoding":"dynamic_array","label":"address[]","numberOfBytes":"32"},"t_array(t_bytes32)dyn_storage":{"base":"t_bytes32","encoding":"dynamic_array","label":"bytes32[]","numberOfBytes":"32"},"t_array(t_uint256)dyn_storage":{"base":"t_uint256","encoding":"dynamic_array","label":"uint256[]","numberOfBytes":"32"},"t_bytes32":{"encoding":"inplace","label":"bytes32","numberOfBytes":"32"},"t_contract(CarmelAccount)10149":{"encoding":"inplace","label":"contract CarmelAccount","numberOfBytes":"20"},"t_mapping(t_address,t_uint8)":{"encoding":"mapping","key":"t_address","label":"mapping(address => uint8)","numberOfBytes":"32","value":"t_uint8"},"t_mapping(t_bytes32,t_array(t_address)dyn_storage)":{"encoding":"mapping","key":"t_bytes32","label":"mapping(bytes32 => address[])","numberOfBytes":"32","value":"t_array(t_address)dyn_storage"},"t_mapping(t_bytes32,t_array(t_bytes32)dyn_storage)":{"encoding":"mapping","key":"t_bytes32","label":"mapping(bytes32 => bytes32[])","numberOfBytes":"32","value":"t_array(t_bytes32)dyn_storage"},"t_mapping(t_bytes32,t_array(t_uint256)dyn_storage)":{"encoding":"mapping","key":"t_bytes32","label":"mapping(bytes32 => uint256[])","numberOfBytes":"32","value":"t_array(t_uint256)dyn_storage"},"t_mapping(t_bytes32,t_struct(Account)10223_storage)":{"encoding":"mapping","key":"t_bytes32","label":"mapping(bytes32 => struct CarmelRegistry.Account)","numberOfBytes":"32","value":"t_struct(Account)10223_storage"},"t_struct(Account)10223_storage":{"encoding":"inplace","label":"struct CarmelRegistry.Account","members":[{"astId":10206,"contract":"contracts/CarmelRegistry.sol:CarmelRegistry","label":"id","offset":0,"slot":"0","type":"t_uint256"},{"astId":10208,"contract":"contracts/CarmelRegistry.sol:CarmelRegistry","label":"username","offset":0,"slot":"1","type":"t_bytes32"},{"astId":10210,"contract":"contracts/CarmelRegistry.sol:CarmelRegistry","label":"sysmeta0","offset":0,"slot":"2","type":"t_bytes32"},{"astId":10212,"contract":"contracts/CarmelRegistry.sol:CarmelRegistry","label":"sysmeta1","offset":0,"slot":"3","type":"t_bytes32"},{"astId":10214,"contract":"contracts/CarmelRegistry.sol:CarmelRegistry","label":"umeta0","offset":0,"slot":"4","type":"t_bytes32"},{"astId":10216,"contract":"contracts/CarmelRegistry.sol:CarmelRegistry","label":"umeta1","offset":0,"slot":"5","type":"t_bytes32"},{"astId":10218,"contract":"contracts/CarmelRegistry.sol:CarmelRegistry","label":"group","offset":0,"slot":"6","type":"t_bytes32"},{"astId":10220,"contract":"contracts/CarmelRegistry.sol:CarmelRegistry","label":"total_keys","offset":0,"slot":"7","type":"t_uint32"},{"astId":10222,"contract":"contracts/CarmelRegistry.sol:CarmelRegistry","label":"total_addresses","offset":4,"slot":"7","type":"t_uint32"}],"numberOfBytes":"256"},"t_uint256":{"encoding":"inplace","label":"uint256","numberOfBytes":"32"},"t_uint32":{"encoding":"inplace","label":"uint32","numberOfBytes":"4"},"t_uint8":{"encoding":"inplace","label":"uint8","numberOfBytes":"1"}}}}}}