{"contracts/CarmelAccount.sol":{"CarmelAccount":{"abi":[{"inputs":[],"stateMutability":"nonpayable","type":"constructor"},{"inputs":[{"internalType":"address","name":"sender","type":"address"}],"name":"AccountUnauthorized","type":"error"},{"inputs":[],"name":"InvalidInitialization","type":"error"},{"inputs":[],"name":"NotInitializing","type":"error"},{"anonymous":false,"inputs":[{"indexed":false,"internalType":"uint64","name":"version","type":"uint64"}],"name":"Initialized","type":"event"},{"inputs":[],"name":"entryPoint","outputs":[{"internalType":"contract IEntryPoint","name":"","type":"address"}],"stateMutability":"view","type":"function"},{"inputs":[],"name":"entryPointAddress","outputs":[{"internalType":"address","name":"","type":"address"}],"stateMutability":"view","type":"function"},{"inputs":[{"internalType":"uint192","name":"key","type":"uint192"}],"name":"getNonce","outputs":[{"internalType":"uint256","name":"","type":"uint256"}],"stateMutability":"view","type":"function"},{"inputs":[],"name":"getNonce","outputs":[{"internalType":"uint256","name":"","type":"uint256"}],"stateMutability":"view","type":"function"},{"inputs":[{"internalType":"address","name":"ep","type":"address"}],"name":"initialize","outputs":[],"stateMutability":"nonpayable","type":"function"},{"inputs":[{"internalType":"bytes32","name":"qx","type":"bytes32"},{"internalType":"bytes32","name":"qy","type":"bytes32"}],"name":"setKey","outputs":[],"stateMutability":"nonpayable","type":"function"},{"inputs":[{"components":[{"internalType":"address","name":"sender","type":"address"},{"internalType":"uint256","name":"nonce","type":"uint256"},{"internalType":"bytes","name":"initCode","type":"bytes"},{"internalType":"bytes","name":"callData","type":"bytes"},{"internalType":"bytes32","name":"accountGasLimits","type":"bytes32"},{"internalType":"uint256","name":"preVerificationGas","type":"uint256"},{"internalType":"bytes32","name":"gasFees","type":"bytes32"},{"internalType":"bytes","name":"paymasterAndData","type":"bytes"},{"internalType":"bytes","name":"signature","type":"bytes"}],"internalType":"struct PackedUserOperation","name":"userOp","type":"tuple"},{"internalType":"bytes32","name":"userOpHash","type":"bytes32"},{"internalType":"uint256","name":"missingAccountFunds","type":"uint256"}],"name":"validateUserOp","outputs":[{"internalType":"uint256","name":"","type":"uint256"}],"stateMutability":"nonpayable","type":"function"},{"inputs":[{"internalType":"bytes32","name":"hash","type":"bytes32"},{"internalType":"bytes","name":"signature","type":"bytes"}],"name":"verify","outputs":[{"internalType":"bool","name":"","type":"bool"}],"stateMutability":"view","type":"function"},{"stateMutability":"payable","type":"receive"}],"evm":{"bytecode":{"linkReferences":{},"object":"6080604052348015600f57600080fd5b506016601a565b60ca565b7ff0c57e16840df040f15088dc2f81fe391c3923bec73e23a9662efc9c229c6a00805468010000000000000000900460ff161560695760405163f92ee8a960e01b815260040160405180910390fd5b80546001600160401b039081161460c75780546001600160401b0319166001600160401b0390811782556040519081527fc7f505b2f371ae2175ee4913f4499e1f2633a7b5936321eed1cdaeb6115181d29060200160405180910390a15b50565b611153806100d96000396000f3fe60806040526004361061007f5760003560e01c80633e1b08121161004e5780633e1b08121461014e578063b0d691fe1461016e578063c4d66de81461018c578063d087d288146101ac57600080fd5b806306dc245c1461008b57806307a00330146100c857806319822f7c146100f0578063258ae5821461011e57600080fd5b3661008657005b600080fd5b34801561009757600080fd5b506000546100ab906001600160a01b031681565b6040516001600160a01b0390911681526020015b60405180910390f35b3480156100d457600080fd5b506100ee6100e3366004610e7f565b600191909155600255565b005b3480156100fc57600080fd5b5061011061010b366004610ea1565b6101c1565b6040519081526020016100bf565b34801561012a57600080fd5b5061013e610139366004610ef5565b610207565b60405190151581526020016100bf565b34801561015a57600080fd5b50610110610169366004610f73565b610280565b34801561017a57600080fd5b506000546001600160a01b03166100ab565b34801561019857600080fd5b506100ee6101a7366004610f9c565b61030c565b3480156101b857600080fd5b5061011061042e565b60006101cb61043f565b60006101e4816101df610100880188610fc5565b610495565b6101ef5760016101f2565b60005b90506101fd836104a2565b90505b9392505050565b600060408210806102185750600154155b806102235750600254155b1561023057506000610200565b600061023f6020828587611013565b6102489161103d565b9050600061025a604060208688611013565b6102639161103d565b90506102768683836001546002546104f6565b9695505050505050565b600080546001600160a01b0316604051631aab3f0d60e11b81523060048201526001600160c01b03841660248201526001600160a01b0391909116906335567e1a90604401602060405180830381865afa1580156102e2573d6000803e3d6000fd5b505050506040513d601f19601f82011682018060405250810190610306919061105b565b92915050565b7ff0c57e16840df040f15088dc2f81fe391c3923bec73e23a9662efc9c229c6a008054600160401b810460ff16159067ffffffffffffffff166000811580156103525750825b905060008267ffffffffffffffff16600114801561036f5750303b155b90508115801561037d575080155b1561039b5760405163f92ee8a960e01b815260040160405180910390fd5b845467ffffffffffffffff1916600117855583156103c557845460ff60401b1916600160401b1785555b600080546001600160a01b0319166001600160a01b038816179055831561042657845460ff60401b19168555604051600181527fc7f505b2f371ae2175ee4913f4499e1f2633a7b5936321eed1cdaeb6115181d29060200160405180910390a15b505050505050565b600061043a6000610280565b905090565b336104526000546001600160a01b031690565b6001600160a01b0316816001600160a01b03161461049257604051637cf8632b60e01b81526001600160a01b038216600482015260240160405180910390fd5b50565b60006101fd848484610207565b801561049257604051600090339083908381818185875af1925050503d80600081146104ea576040519150601f19603f3d011682016040523d82523d6000602084013e6104ef565b606091505b5050505050565b60008060006105088888888888610533565b91509150806105235761051e8888888888610637565b610525565b815b925050505b95945050505050565b60008061054086866106f2565b15806105535750610551848461074b565b155b15610564575060009050600161062d565b6040805160208101899052908101879052606081018690526080810185905260a0810184905260009081906101009060c00160408051601f19818403018152908290526105b091611074565b600060405180830381855afa9150503d80600081146105eb576040519150601f19603f3d011682016040523d82523d6000602084013e6105f0565b606091505b5091509150818015610603575080516020145b61060f57600080610626565b8080602001905181019061062391906110a3565b60015b9350935050505b9550959350505050565b600061064385856106f2565b15806106565750610654838361074b565b155b156106635750600061052a565b600061066f84846107b0565b9050600061068b866000805160206110fe8339815191526109a7565b905060006000805160206110fe833981519152828a09905060006000805160206110fe833981519152838a09905060006106c68584846109b7565b509050896106e26000805160206110fe833981519152836110c5565b149b9a5050505050505050505050565b6000821580159061071057506000805160206110fe83398151915283105b801561071b57508115155b80156102005750507f7fffffff800000007fffffffffffffffde737d56d38bcf4279dce5617e3192a81015919050565b6000600160601b63ffffffff60c01b031980838409817f5ac635d8aa3a93e7b3ebbd55769886bc651d06b0cc53b0f63bce3c3e27d2604b8387856003600160601b0363ffffffff60c01b0319878b8c0908090894821191909310169190921416919050565b6107b8610e35565b604051806060016040528060008152602001600081526020016000815250816000601081106107e9576107e96110e7565b60200201819052506040518060600160405280848152602001838152602001600181525081600160108110610820576108206110e7565b602002018190525060405180606001604052807f6b17d1f2e12c4247f8bce6e563a440f277037d812deb33a0f4a13945d898c29681526020017f4fe342e2fe1a7f9b8ee7eb4a7c0f9e162bce33576b315ececbb6406837bf51f58152602001600181525081600460108110610897576108976110e7565b60200201526108ad8160015b6020020151610adf565b60408201526108bd8160046108a3565b61010082015260208101516108da908260025b6020020151610b41565b60608201526108f38160015b60200201518260046108d0565b60a08201526109038160026108e6565b60c08201526109138160036108e6565b60e082015261092c8160015b60200201518260086108d0565b61012082015261093d81600261091f565b61014082015261094e81600361091f565b61016082015261095f81600461091f565b6101808201526109798160015b602002015182600c6108d0565b6101a082015261098a81600261096c565b6101c082015261099b81600361096c565b6101e082015292915050565b6000610200836002840384610ba5565b6000806000806000805b6080811015610ac35781156109f5576109db848484610bc8565b919550935091506109ed848484610bc8565b919550935091505b600c60fc89901c1660fe88901c17898160108110610a1557610a156110e7565b60200201516040015115610aaf5782600003610a8557898160108110610a3d57610a3d6110e7565b6020020151518a8260108110610a5557610a556110e7565b6020020151602001518b8360108110610a7057610a706110e7565b60200201516040015191965094509250610aaf565b610aa78a8260108110610a9a57610a9a6110e7565b6020020151868686610c4d565b919650945092505b50600297881b979690961b956001016109c1565b50610acf838383610d7b565b945094505050505b935093915050565b610b0360405180606001604052806000815260200160008152602001600081525090565b6000806000610b1f856000015186602001518760400151610bc8565b6040805160608101825293845260208401929092529082015295945050505050565b610b6560405180606001604052806000815260200160008152602001600081525090565b6000806000610b8286866000015187602001518860400151610c4d565b604080516060810182529384526020840192909252908201529695505050505050565b6000806000610bb5868686610dcc565b915091508161052a5761052a6012610e23565b6000806000600160601b63ffffffff60c01b031980868709818687098283848384096003600160601b0363ffffffff60c01b03190984858c8d096003090890508283838b09600409838482600209850385848509089650838485858609600809850385868a880385088509089550505050808186880960020991505093509350939050565b6000806000600160601b63ffffffff60c01b0319604088015181818209828388858a8b090960208c0151098381850385868686098c090884858a8b098d51098581870387868f0908935081158415168015610caf5760018114610cf557610d6a565b868586098788898386096002098903898a848a098b038b88890908089a5087888983890987098903898a8e8c038c8689090887090899505086878c880986099750610d6a565b8c8c8c898283098a8283098b8c8d8384096003600160601b0363ffffffff60c01b0319098d8e8889096003090890508b8c83870960040994508b8c866002098d038d838409089e508b8c8384096008098c0391508b8f8d03860894508b828d878409089d505050898a8284096002099a505050505b505050505050509450945094915050565b60008082600003610d9157506000905080610ad7565b600160601b63ffffffff60c01b03196000610dac85836109a7565b905081818209828189099450828383830988099350505050935093915050565b60008082600003610de257506000905080610ad7565b60405160208152602080820152602060408201528560608201528460808201528360a08201526020600060c08360055afa9250506000519050935093915050565b634e487b71600052806020526024601cfd5b6040518061020001604052806010905b610e6960405180606001604052806000815260200160008152602001600081525090565b815260200190600190039081610e455790505090565b60008060408385031215610e9257600080fd5b50508035926020909101359150565b600080600060608486031215610eb657600080fd5b833567ffffffffffffffff811115610ecd57600080fd5b84016101208187031215610ee057600080fd5b95602085013595506040909401359392505050565b600080600060408486031215610f0a57600080fd5b83359250602084013567ffffffffffffffff811115610f2857600080fd5b8401601f81018613610f3957600080fd5b803567ffffffffffffffff811115610f5057600080fd5b866020828401011115610f6257600080fd5b939660209190910195509293505050565b600060208284031215610f8557600080fd5b81356001600160c01b038116811461020057600080fd5b600060208284031215610fae57600080fd5b81356001600160a01b038116811461020057600080fd5b6000808335601e19843603018112610fdc57600080fd5b83018035915067ffffffffffffffff821115610ff757600080fd5b60200191503681900382131561100c57600080fd5b9250929050565b6000808585111561102357600080fd5b8386111561103057600080fd5b5050820193919092039150565b8035602083101561030657600019602084900360031b1b1692915050565b60006020828403121561106d57600080fd5b5051919050565b6000825160005b81811015611095576020818601810151858301520161107b565b506000920191825250919050565b6000602082840312156110b557600080fd5b8151801515811461020057600080fd5b6000826110e257634e487b7160e01b600052601260045260246000fd5b500690565b634e487b7160e01b600052603260045260246000fdfeffffffff00000000ffffffffffffffffbce6faada7179e84f3b9cac2fc632551a2646970667358221220047d953df243afe512af0fb44a341cc5feef2b91cc8bf4562e587bf1b352d1c464736f6c634300081c0033","opcodes":"PUSH1 0x80 PUSH1 0x40 MSTORE CALLVALUE DUP1 ISZERO PUSH1 0xF JUMPI PUSH1 0x0 DUP1 REVERT JUMPDEST POP PUSH1 0x16 PUSH1 0x1A JUMP JUMPDEST PUSH1 0xCA JUMP JUMPDEST PUSH32 0xF0C57E16840DF040F15088DC2F81FE391C3923BEC73E23A9662EFC9C229C6A00 DUP1 SLOAD PUSH9 0x10000000000000000 SWAP1 DIV PUSH1 0xFF AND ISZERO PUSH1 0x69 JUMPI PUSH1 0x40 MLOAD PUSH4 0xF92EE8A9 PUSH1 0xE0 SHL DUP2 MSTORE PUSH1 0x4 ADD PUSH1 0x40 MLOAD DUP1 SWAP2 SUB SWAP1 REVERT JUMPDEST DUP1 SLOAD PUSH1 0x1 PUSH1 0x1 PUSH1 0x40 SHL SUB SWAP1 DUP2 AND EQ PUSH1 0xC7 JUMPI DUP1 SLOAD PUSH1 0x1 PUSH1 0x1 PUSH1 0x40 SHL SUB NOT AND PUSH1 0x1 PUSH1 0x1 PUSH1 0x40 SHL SUB SWAP1 DUP2 OR DUP3 SSTORE PUSH1 0x40 MLOAD SWAP1 DUP2 MSTORE PUSH32 0xC7F505B2F371AE2175EE4913F4499E1F2633A7B5936321EED1CDAEB6115181D2 SWAP1 PUSH1 0x20 ADD PUSH1 0x40 MLOAD DUP1 SWAP2 SUB SWAP1 LOG1 JUMPDEST POP JUMP JUMPDEST PUSH2 0x1153 DUP1 PUSH2 0xD9 PUSH1 0x0 CODECOPY PUSH1 0x0 RETURN INVALID PUSH1 0x80 PUSH1 0x40 MSTORE PUSH1 0x4 CALLDATASIZE LT PUSH2 0x7F JUMPI PUSH1 0x0 CALLDATALOAD PUSH1 0xE0 SHR DUP1 PUSH4 0x3E1B0812 GT PUSH2 0x4E JUMPI DUP1 PUSH4 0x3E1B0812 EQ PUSH2 0x14E JUMPI DUP1 PUSH4 0xB0D691FE EQ PUSH2 0x16E JUMPI DUP1 PUSH4 0xC4D66DE8 EQ PUSH2 0x18C JUMPI DUP1 PUSH4 0xD087D288 EQ PUSH2 0x1AC JUMPI PUSH1 0x0 DUP1 REVERT JUMPDEST DUP1 PUSH4 0x6DC245C EQ PUSH2 0x8B JUMPI DUP1 PUSH4 0x7A00330 EQ PUSH2 0xC8 JUMPI DUP1 PUSH4 0x19822F7C EQ PUSH2 0xF0 JUMPI DUP1 PUSH4 0x258AE582 EQ PUSH2 0x11E JUMPI PUSH1 0x0 DUP1 REVERT JUMPDEST CALLDATASIZE PUSH2 0x86 JUMPI STOP JUMPDEST PUSH1 0x0 DUP1 REVERT JUMPDEST CALLVALUE DUP1 ISZERO PUSH2 0x97 JUMPI PUSH1 0x0 DUP1 REVERT JUMPDEST POP PUSH1 0x0 SLOAD PUSH2 0xAB SWAP1 PUSH1 0x1 PUSH1 0x1 PUSH1 0xA0 SHL SUB AND DUP2 JUMP JUMPDEST PUSH1 0x40 MLOAD PUSH1 0x1 PUSH1 0x1 PUSH1 0xA0 SHL SUB SWAP1 SWAP2 AND DUP2 MSTORE PUSH1 0x20 ADD JUMPDEST PUSH1 0x40 MLOAD DUP1 SWAP2 SUB SWAP1 RETURN JUMPDEST CALLVALUE DUP1 ISZERO PUSH2 0xD4 JUMPI PUSH1 0x0 DUP1 REVERT JUMPDEST POP PUSH2 0xEE PUSH2 0xE3 CALLDATASIZE PUSH1 0x4 PUSH2 0xE7F JUMP JUMPDEST PUSH1 0x1 SWAP2 SWAP1 SWAP2 SSTORE PUSH1 0x2 SSTORE JUMP JUMPDEST STOP JUMPDEST CALLVALUE DUP1 ISZERO PUSH2 0xFC JUMPI PUSH1 0x0 DUP1 REVERT JUMPDEST POP PUSH2 0x110 PUSH2 0x10B CALLDATASIZE PUSH1 0x4 PUSH2 0xEA1 JUMP JUMPDEST PUSH2 0x1C1 JUMP JUMPDEST PUSH1 0x40 MLOAD SWAP1 DUP2 MSTORE PUSH1 0x20 ADD PUSH2 0xBF JUMP JUMPDEST CALLVALUE DUP1 ISZERO PUSH2 0x12A JUMPI PUSH1 0x0 DUP1 REVERT JUMPDEST POP PUSH2 0x13E PUSH2 0x139 CALLDATASIZE PUSH1 0x4 PUSH2 0xEF5 JUMP JUMPDEST PUSH2 0x207 JUMP JUMPDEST PUSH1 0x40 MLOAD SWAP1 ISZERO ISZERO DUP2 MSTORE PUSH1 0x20 ADD PUSH2 0xBF JUMP JUMPDEST CALLVALUE DUP1 ISZERO PUSH2 0x15A JUMPI PUSH1 0x0 DUP1 REVERT JUMPDEST POP PUSH2 0x110 PUSH2 0x169 CALLDATASIZE PUSH1 0x4 PUSH2 0xF73 JUMP JUMPDEST PUSH2 0x280 JUMP JUMPDEST CALLVALUE DUP1 ISZERO PUSH2 0x17A JUMPI PUSH1 0x0 DUP1 REVERT JUMPDEST POP PUSH1 0x0 SLOAD PUSH1 0x1 PUSH1 0x1 PUSH1 0xA0 SHL SUB AND PUSH2 0xAB JUMP JUMPDEST CALLVALUE DUP1 ISZERO PUSH2 0x198 JUMPI PUSH1 0x0 DUP1 REVERT JUMPDEST POP PUSH2 0xEE PUSH2 0x1A7 CALLDATASIZE PUSH1 0x4 PUSH2 0xF9C JUMP JUMPDEST PUSH2 0x30C JUMP JUMPDEST CALLVALUE DUP1 ISZERO PUSH2 0x1B8 JUMPI PUSH1 0x0 DUP1 REVERT JUMPDEST POP PUSH2 0x110 PUSH2 0x42E JUMP JUMPDEST PUSH1 0x0 PUSH2 0x1CB PUSH2 0x43F JUMP JUMPDEST PUSH1 0x0 PUSH2 0x1E4 DUP2 PUSH2 0x1DF PUSH2 0x100 DUP9 ADD DUP9 PUSH2 0xFC5 JUMP JUMPDEST PUSH2 0x495 JUMP JUMPDEST PUSH2 0x1EF JUMPI PUSH1 0x1 PUSH2 0x1F2 JUMP JUMPDEST PUSH1 0x0 JUMPDEST SWAP1 POP PUSH2 0x1FD DUP4 PUSH2 0x4A2 JUMP JUMPDEST SWAP1 POP JUMPDEST SWAP4 SWAP3 POP POP POP JUMP JUMPDEST PUSH1 0x0 PUSH1 0x40 DUP3 LT DUP1 PUSH2 0x218 JUMPI POP PUSH1 0x1 SLOAD ISZERO JUMPDEST DUP1 PUSH2 0x223 JUMPI POP PUSH1 0x2 SLOAD ISZERO JUMPDEST ISZERO PUSH2 0x230 JUMPI POP PUSH1 0x0 PUSH2 0x200 JUMP JUMPDEST PUSH1 0x0 PUSH2 0x23F PUSH1 0x20 DUP3 DUP6 DUP8 PUSH2 0x1013 JUMP JUMPDEST PUSH2 0x248 SWAP2 PUSH2 0x103D JUMP JUMPDEST SWAP1 POP PUSH1 0x0 PUSH2 0x25A PUSH1 0x40 PUSH1 0x20 DUP7 DUP9 PUSH2 0x1013 JUMP JUMPDEST PUSH2 0x263 SWAP2 PUSH2 0x103D JUMP JUMPDEST SWAP1 POP PUSH2 0x276 DUP7 DUP4 DUP4 PUSH1 0x1 SLOAD PUSH1 0x2 SLOAD PUSH2 0x4F6 JUMP JUMPDEST SWAP7 SWAP6 POP POP POP POP POP POP JUMP JUMPDEST PUSH1 0x0 DUP1 SLOAD PUSH1 0x1 PUSH1 0x1 PUSH1 0xA0 SHL SUB AND PUSH1 0x40 MLOAD PUSH4 0x1AAB3F0D PUSH1 0xE1 SHL DUP2 MSTORE ADDRESS PUSH1 0x4 DUP3 ADD MSTORE PUSH1 0x1 PUSH1 0x1 PUSH1 0xC0 SHL SUB DUP5 AND PUSH1 0x24 DUP3 ADD MSTORE PUSH1 0x1 PUSH1 0x1 PUSH1 0xA0 SHL SUB SWAP2 SWAP1 SWAP2 AND SWAP1 PUSH4 0x35567E1A SWAP1 PUSH1 0x44 ADD PUSH1 0x20 PUSH1 0x40 MLOAD DUP1 DUP4 SUB DUP2 DUP7 GAS STATICCALL ISZERO DUP1 ISZERO PUSH2 0x2E2 JUMPI RETURNDATASIZE PUSH1 0x0 DUP1 RETURNDATACOPY RETURNDATASIZE PUSH1 0x0 REVERT JUMPDEST POP POP POP POP PUSH1 0x40 MLOAD RETURNDATASIZE PUSH1 0x1F NOT PUSH1 0x1F DUP3 ADD AND DUP3 ADD DUP1 PUSH1 0x40 MSTORE POP DUP2 ADD SWAP1 PUSH2 0x306 SWAP2 SWAP1 PUSH2 0x105B JUMP JUMPDEST SWAP3 SWAP2 POP POP JUMP JUMPDEST PUSH32 0xF0C57E16840DF040F15088DC2F81FE391C3923BEC73E23A9662EFC9C229C6A00 DUP1 SLOAD PUSH1 0x1 PUSH1 0x40 SHL DUP2 DIV PUSH1 0xFF AND ISZERO SWAP1 PUSH8 0xFFFFFFFFFFFFFFFF AND PUSH1 0x0 DUP2 ISZERO DUP1 ISZERO PUSH2 0x352 JUMPI POP DUP3 JUMPDEST SWAP1 POP PUSH1 0x0 DUP3 PUSH8 0xFFFFFFFFFFFFFFFF AND PUSH1 0x1 EQ DUP1 ISZERO PUSH2 0x36F JUMPI POP ADDRESS EXTCODESIZE ISZERO JUMPDEST SWAP1 POP DUP2 ISZERO DUP1 ISZERO PUSH2 0x37D JUMPI POP DUP1 ISZERO JUMPDEST ISZERO PUSH2 0x39B JUMPI PUSH1 0x40 MLOAD PUSH4 0xF92EE8A9 PUSH1 0xE0 SHL DUP2 MSTORE PUSH1 0x4 ADD PUSH1 0x40 MLOAD DUP1 SWAP2 SUB SWAP1 REVERT JUMPDEST DUP5 SLOAD PUSH8 0xFFFFFFFFFFFFFFFF NOT AND PUSH1 0x1 OR DUP6 SSTORE DUP4 ISZERO PUSH2 0x3C5 JUMPI DUP5 SLOAD PUSH1 0xFF PUSH1 0x40 SHL NOT AND PUSH1 0x1 PUSH1 0x40 SHL OR DUP6 SSTORE JUMPDEST PUSH1 0x0 DUP1 SLOAD PUSH1 0x1 PUSH1 0x1 PUSH1 0xA0 SHL SUB NOT AND PUSH1 0x1 PUSH1 0x1 PUSH1 0xA0 SHL SUB DUP9 AND OR SWAP1 SSTORE DUP4 ISZERO PUSH2 0x426 JUMPI DUP5 SLOAD PUSH1 0xFF PUSH1 0x40 SHL NOT AND DUP6 SSTORE PUSH1 0x40 MLOAD PUSH1 0x1 DUP2 MSTORE PUSH32 0xC7F505B2F371AE2175EE4913F4499E1F2633A7B5936321EED1CDAEB6115181D2 SWAP1 PUSH1 0x20 ADD PUSH1 0x40 MLOAD DUP1 SWAP2 SUB SWAP1 LOG1 JUMPDEST POP POP POP POP POP POP JUMP JUMPDEST PUSH1 0x0 PUSH2 0x43A PUSH1 0x0 PUSH2 0x280 JUMP JUMPDEST SWAP1 POP SWAP1 JUMP JUMPDEST CALLER PUSH2 0x452 PUSH1 0x0 SLOAD PUSH1 0x1 PUSH1 0x1 PUSH1 0xA0 SHL SUB AND SWAP1 JUMP JUMPDEST PUSH1 0x1 PUSH1 0x1 PUSH1 0xA0 SHL SUB AND DUP2 PUSH1 0x1 PUSH1 0x1 PUSH1 0xA0 SHL SUB AND EQ PUSH2 0x492 JUMPI PUSH1 0x40 MLOAD PUSH4 0x7CF8632B PUSH1 0xE0 SHL DUP2 MSTORE PUSH1 0x1 PUSH1 0x1 PUSH1 0xA0 SHL SUB DUP3 AND PUSH1 0x4 DUP3 ADD MSTORE PUSH1 0x24 ADD PUSH1 0x40 MLOAD DUP1 SWAP2 SUB SWAP1 REVERT JUMPDEST POP JUMP JUMPDEST PUSH1 0x0 PUSH2 0x1FD DUP5 DUP5 DUP5 PUSH2 0x207 JUMP JUMPDEST DUP1 ISZERO PUSH2 0x492 JUMPI PUSH1 0x40 MLOAD PUSH1 0x0 SWAP1 CALLER SWAP1 DUP4 SWAP1 DUP4 DUP2 DUP2 DUP2 DUP6 DUP8 GAS CALL SWAP3 POP POP POP RETURNDATASIZE DUP1 PUSH1 0x0 DUP2 EQ PUSH2 0x4EA JUMPI PUSH1 0x40 MLOAD SWAP2 POP PUSH1 0x1F NOT PUSH1 0x3F RETURNDATASIZE ADD AND DUP3 ADD PUSH1 0x40 MSTORE RETURNDATASIZE DUP3 MSTORE RETURNDATASIZE PUSH1 0x0 PUSH1 0x20 DUP5 ADD RETURNDATACOPY PUSH2 0x4EF JUMP JUMPDEST PUSH1 0x60 SWAP2 POP JUMPDEST POP POP POP POP POP JUMP JUMPDEST PUSH1 0x0 DUP1 PUSH1 0x0 PUSH2 0x508 DUP9 DUP9 DUP9 DUP9 DUP9 PUSH2 0x533 JUMP JUMPDEST SWAP2 POP SWAP2 POP DUP1 PUSH2 0x523 JUMPI PUSH2 0x51E DUP9 DUP9 DUP9 DUP9 DUP9 PUSH2 0x637 JUMP JUMPDEST PUSH2 0x525 JUMP JUMPDEST DUP2 JUMPDEST SWAP3 POP POP POP JUMPDEST SWAP6 SWAP5 POP POP POP POP POP JUMP JUMPDEST PUSH1 0x0 DUP1 PUSH2 0x540 DUP7 DUP7 PUSH2 0x6F2 JUMP JUMPDEST ISZERO DUP1 PUSH2 0x553 JUMPI POP PUSH2 0x551 DUP5 DUP5 PUSH2 0x74B JUMP JUMPDEST ISZERO JUMPDEST ISZERO PUSH2 0x564 JUMPI POP PUSH1 0x0 SWAP1 POP PUSH1 0x1 PUSH2 0x62D JUMP JUMPDEST PUSH1 0x40 DUP1 MLOAD PUSH1 0x20 DUP2 ADD DUP10 SWAP1 MSTORE SWAP1 DUP2 ADD DUP8 SWAP1 MSTORE PUSH1 0x60 DUP2 ADD DUP7 SWAP1 MSTORE PUSH1 0x80 DUP2 ADD DUP6 SWAP1 MSTORE PUSH1 0xA0 DUP2 ADD DUP5 SWAP1 MSTORE PUSH1 0x0 SWAP1 DUP2 SWAP1 PUSH2 0x100 SWAP1 PUSH1 0xC0 ADD PUSH1 0x40 DUP1 MLOAD PUSH1 0x1F NOT DUP2 DUP5 SUB ADD DUP2 MSTORE SWAP1 DUP3 SWAP1 MSTORE PUSH2 0x5B0 SWAP2 PUSH2 0x1074 JUMP JUMPDEST PUSH1 0x0 PUSH1 0x40 MLOAD DUP1 DUP4 SUB DUP2 DUP6 GAS STATICCALL SWAP2 POP POP RETURNDATASIZE DUP1 PUSH1 0x0 DUP2 EQ PUSH2 0x5EB JUMPI PUSH1 0x40 MLOAD SWAP2 POP PUSH1 0x1F NOT PUSH1 0x3F RETURNDATASIZE ADD AND DUP3 ADD PUSH1 0x40 MSTORE RETURNDATASIZE DUP3 MSTORE RETURNDATASIZE PUSH1 0x0 PUSH1 0x20 DUP5 ADD RETURNDATACOPY PUSH2 0x5F0 JUMP JUMPDEST PUSH1 0x60 SWAP2 POP JUMPDEST POP SWAP2 POP SWAP2 POP DUP2 DUP1 ISZERO PUSH2 0x603 JUMPI POP DUP1 MLOAD PUSH1 0x20 EQ JUMPDEST PUSH2 0x60F JUMPI PUSH1 0x0 DUP1 PUSH2 0x626 JUMP JUMPDEST DUP1 DUP1 PUSH1 0x20 ADD SWAP1 MLOAD DUP2 ADD SWAP1 PUSH2 0x623 SWAP2 SWAP1 PUSH2 0x10A3 JUMP JUMPDEST PUSH1 0x1 JUMPDEST SWAP4 POP SWAP4 POP POP POP JUMPDEST SWAP6 POP SWAP6 SWAP4 POP POP POP POP JUMP JUMPDEST PUSH1 0x0 PUSH2 0x643 DUP6 DUP6 PUSH2 0x6F2 JUMP JUMPDEST ISZERO DUP1 PUSH2 0x656 JUMPI POP PUSH2 0x654 DUP4 DUP4 PUSH2 0x74B JUMP JUMPDEST ISZERO JUMPDEST ISZERO PUSH2 0x663 JUMPI POP PUSH1 0x0 PUSH2 0x52A JUMP JUMPDEST PUSH1 0x0 PUSH2 0x66F DUP5 DUP5 PUSH2 0x7B0 JUMP JUMPDEST SWAP1 POP PUSH1 0x0 PUSH2 0x68B DUP7 PUSH1 0x0 DUP1 MLOAD PUSH1 0x20 PUSH2 0x10FE DUP4 CODECOPY DUP2 MLOAD SWAP2 MSTORE PUSH2 0x9A7 JUMP JUMPDEST SWAP1 POP PUSH1 0x0 PUSH1 0x0 DUP1 MLOAD PUSH1 0x20 PUSH2 0x10FE DUP4 CODECOPY DUP2 MLOAD SWAP2 MSTORE DUP3 DUP11 MULMOD SWAP1 POP PUSH1 0x0 PUSH1 0x0 DUP1 MLOAD PUSH1 0x20 PUSH2 0x10FE DUP4 CODECOPY DUP2 MLOAD SWAP2 MSTORE DUP4 DUP11 MULMOD SWAP1 POP PUSH1 0x0 PUSH2 0x6C6 DUP6 DUP5 DUP5 PUSH2 0x9B7 JUMP JUMPDEST POP SWAP1 POP DUP10 PUSH2 0x6E2 PUSH1 0x0 DUP1 MLOAD PUSH1 0x20 PUSH2 0x10FE DUP4 CODECOPY DUP2 MLOAD SWAP2 MSTORE DUP4 PUSH2 0x10C5 JUMP JUMPDEST EQ SWAP12 SWAP11 POP POP POP POP POP POP POP POP POP POP POP JUMP JUMPDEST PUSH1 0x0 DUP3 ISZERO DUP1 ISZERO SWAP1 PUSH2 0x710 JUMPI POP PUSH1 0x0 DUP1 MLOAD PUSH1 0x20 PUSH2 0x10FE DUP4 CODECOPY DUP2 MLOAD SWAP2 MSTORE DUP4 LT JUMPDEST DUP1 ISZERO PUSH2 0x71B JUMPI POP DUP2 ISZERO ISZERO JUMPDEST DUP1 ISZERO PUSH2 0x200 JUMPI POP POP PUSH32 0x7FFFFFFF800000007FFFFFFFFFFFFFFFDE737D56D38BCF4279DCE5617E3192A8 LT ISZERO SWAP2 SWAP1 POP JUMP JUMPDEST PUSH1 0x0 PUSH1 0x1 PUSH1 0x60 SHL PUSH4 0xFFFFFFFF PUSH1 0xC0 SHL SUB NOT DUP1 DUP4 DUP5 MULMOD DUP2 PUSH32 0x5AC635D8AA3A93E7B3EBBD55769886BC651D06B0CC53B0F63BCE3C3E27D2604B DUP4 DUP8 DUP6 PUSH1 0x3 PUSH1 0x1 PUSH1 0x60 SHL SUB PUSH4 0xFFFFFFFF PUSH1 0xC0 SHL SUB NOT DUP8 DUP12 DUP13 MULMOD ADDMOD MULMOD ADDMOD SWAP5 DUP3 GT SWAP2 SWAP1 SWAP4 LT AND SWAP2 SWAP1 SWAP3 EQ AND SWAP2 SWAP1 POP JUMP JUMPDEST PUSH2 0x7B8 PUSH2 0xE35 JUMP JUMPDEST PUSH1 0x40 MLOAD DUP1 PUSH1 0x60 ADD PUSH1 0x40 MSTORE DUP1 PUSH1 0x0 DUP2 MSTORE PUSH1 0x20 ADD PUSH1 0x0 DUP2 MSTORE PUSH1 0x20 ADD PUSH1 0x0 DUP2 MSTORE POP DUP2 PUSH1 0x0 PUSH1 0x10 DUP2 LT PUSH2 0x7E9 JUMPI PUSH2 0x7E9 PUSH2 0x10E7 JUMP JUMPDEST PUSH1 0x20 MUL ADD DUP2 SWAP1 MSTORE POP PUSH1 0x40 MLOAD DUP1 PUSH1 0x60 ADD PUSH1 0x40 MSTORE DUP1 DUP5 DUP2 MSTORE PUSH1 0x20 ADD DUP4 DUP2 MSTORE PUSH1 0x20 ADD PUSH1 0x1 DUP2 MSTORE POP DUP2 PUSH1 0x1 PUSH1 0x10 DUP2 LT PUSH2 0x820 JUMPI PUSH2 0x820 PUSH2 0x10E7 JUMP JUMPDEST PUSH1 0x20 MUL ADD DUP2 SWAP1 MSTORE POP PUSH1 0x40 MLOAD DUP1 PUSH1 0x60 ADD PUSH1 0x40 MSTORE DUP1 PUSH32 0x6B17D1F2E12C4247F8BCE6E563A440F277037D812DEB33A0F4A13945D898C296 DUP2 MSTORE PUSH1 0x20 ADD PUSH32 0x4FE342E2FE1A7F9B8EE7EB4A7C0F9E162BCE33576B315ECECBB6406837BF51F5 DUP2 MSTORE PUSH1 0x20 ADD PUSH1 0x1 DUP2 MSTORE POP DUP2 PUSH1 0x4 PUSH1 0x10 DUP2 LT PUSH2 0x897 JUMPI PUSH2 0x897 PUSH2 0x10E7 JUMP JUMPDEST PUSH1 0x20 MUL ADD MSTORE PUSH2 0x8AD DUP2 PUSH1 0x1 JUMPDEST PUSH1 0x20 MUL ADD MLOAD PUSH2 0xADF JUMP JUMPDEST PUSH1 0x40 DUP3 ADD MSTORE PUSH2 0x8BD DUP2 PUSH1 0x4 PUSH2 0x8A3 JUMP JUMPDEST PUSH2 0x100 DUP3 ADD MSTORE PUSH1 0x20 DUP2 ADD MLOAD PUSH2 0x8DA SWAP1 DUP3 PUSH1 0x2 JUMPDEST PUSH1 0x20 MUL ADD MLOAD PUSH2 0xB41 JUMP JUMPDEST PUSH1 0x60 DUP3 ADD MSTORE PUSH2 0x8F3 DUP2 PUSH1 0x1 JUMPDEST PUSH1 0x20 MUL ADD MLOAD DUP3 PUSH1 0x4 PUSH2 0x8D0 JUMP JUMPDEST PUSH1 0xA0 DUP3 ADD MSTORE PUSH2 0x903 DUP2 PUSH1 0x2 PUSH2 0x8E6 JUMP JUMPDEST PUSH1 0xC0 DUP3 ADD MSTORE PUSH2 0x913 DUP2 PUSH1 0x3 PUSH2 0x8E6 JUMP JUMPDEST PUSH1 0xE0 DUP3 ADD MSTORE PUSH2 0x92C DUP2 PUSH1 0x1 JUMPDEST PUSH1 0x20 MUL ADD MLOAD DUP3 PUSH1 0x8 PUSH2 0x8D0 JUMP JUMPDEST PUSH2 0x120 DUP3 ADD MSTORE PUSH2 0x93D DUP2 PUSH1 0x2 PUSH2 0x91F JUMP JUMPDEST PUSH2 0x140 DUP3 ADD MSTORE PUSH2 0x94E DUP2 PUSH1 0x3 PUSH2 0x91F JUMP JUMPDEST PUSH2 0x160 DUP3 ADD MSTORE PUSH2 0x95F DUP2 PUSH1 0x4 PUSH2 0x91F JUMP JUMPDEST PUSH2 0x180 DUP3 ADD MSTORE PUSH2 0x979 DUP2 PUSH1 0x1 JUMPDEST PUSH1 0x20 MUL ADD MLOAD DUP3 PUSH1 0xC PUSH2 0x8D0 JUMP JUMPDEST PUSH2 0x1A0 DUP3 ADD MSTORE PUSH2 0x98A DUP2 PUSH1 0x2 PUSH2 0x96C JUMP JUMPDEST PUSH2 0x1C0 DUP3 ADD MSTORE PUSH2 0x99B DUP2 PUSH1 0x3 PUSH2 0x96C JUMP JUMPDEST PUSH2 0x1E0 DUP3 ADD MSTORE SWAP3 SWAP2 POP POP JUMP JUMPDEST PUSH1 0x0 PUSH2 0x200 DUP4 PUSH1 0x2 DUP5 SUB DUP5 PUSH2 0xBA5 JUMP JUMPDEST PUSH1 0x0 DUP1 PUSH1 0x0 DUP1 PUSH1 0x0 DUP1 JUMPDEST PUSH1 0x80 DUP2 LT ISZERO PUSH2 0xAC3 JUMPI DUP2 ISZERO PUSH2 0x9F5 JUMPI PUSH2 0x9DB DUP5 DUP5 DUP5 PUSH2 0xBC8 JUMP JUMPDEST SWAP2 SWAP6 POP SWAP4 POP SWAP2 POP PUSH2 0x9ED DUP5 DUP5 DUP5 PUSH2 0xBC8 JUMP JUMPDEST SWAP2 SWAP6 POP SWAP4 POP SWAP2 POP JUMPDEST PUSH1 0xC PUSH1 0xFC DUP10 SWAP1 SHR AND PUSH1 0xFE DUP9 SWAP1 SHR OR DUP10 DUP2 PUSH1 0x10 DUP2 LT PUSH2 0xA15 JUMPI PUSH2 0xA15 PUSH2 0x10E7 JUMP JUMPDEST PUSH1 0x20 MUL ADD MLOAD PUSH1 0x40 ADD MLOAD ISZERO PUSH2 0xAAF JUMPI DUP3 PUSH1 0x0 SUB PUSH2 0xA85 JUMPI DUP10 DUP2 PUSH1 0x10 DUP2 LT PUSH2 0xA3D JUMPI PUSH2 0xA3D PUSH2 0x10E7 JUMP JUMPDEST PUSH1 0x20 MUL ADD MLOAD MLOAD DUP11 DUP3 PUSH1 0x10 DUP2 LT PUSH2 0xA55 JUMPI PUSH2 0xA55 PUSH2 0x10E7 JUMP JUMPDEST PUSH1 0x20 MUL ADD MLOAD PUSH1 0x20 ADD MLOAD DUP12 DUP4 PUSH1 0x10 DUP2 LT PUSH2 0xA70 JUMPI PUSH2 0xA70 PUSH2 0x10E7 JUMP JUMPDEST PUSH1 0x20 MUL ADD MLOAD PUSH1 0x40 ADD MLOAD SWAP2 SWAP7 POP SWAP5 POP SWAP3 POP PUSH2 0xAAF JUMP JUMPDEST PUSH2 0xAA7 DUP11 DUP3 PUSH1 0x10 DUP2 LT PUSH2 0xA9A JUMPI PUSH2 0xA9A PUSH2 0x10E7 JUMP JUMPDEST PUSH1 0x20 MUL ADD MLOAD DUP7 DUP7 DUP7 PUSH2 0xC4D JUMP JUMPDEST SWAP2 SWAP7 POP SWAP5 POP SWAP3 POP JUMPDEST POP PUSH1 0x2 SWAP8 DUP9 SHL SWAP8 SWAP7 SWAP1 SWAP7 SHL SWAP6 PUSH1 0x1 ADD PUSH2 0x9C1 JUMP JUMPDEST POP PUSH2 0xACF DUP4 DUP4 DUP4 PUSH2 0xD7B JUMP JUMPDEST SWAP5 POP SWAP5 POP POP POP POP JUMPDEST SWAP4 POP SWAP4 SWAP2 POP POP JUMP JUMPDEST PUSH2 0xB03 PUSH1 0x40 MLOAD DUP1 PUSH1 0x60 ADD PUSH1 0x40 MSTORE DUP1 PUSH1 0x0 DUP2 MSTORE PUSH1 0x20 ADD PUSH1 0x0 DUP2 MSTORE PUSH1 0x20 ADD PUSH1 0x0 DUP2 MSTORE POP SWAP1 JUMP JUMPDEST PUSH1 0x0 DUP1 PUSH1 0x0 PUSH2 0xB1F DUP6 PUSH1 0x0 ADD MLOAD DUP7 PUSH1 0x20 ADD MLOAD DUP8 PUSH1 0x40 ADD MLOAD PUSH2 0xBC8 JUMP JUMPDEST PUSH1 0x40 DUP1 MLOAD PUSH1 0x60 DUP2 ADD DUP3 MSTORE SWAP4 DUP5 MSTORE PUSH1 0x20 DUP5 ADD SWAP3 SWAP1 SWAP3 MSTORE SWAP1 DUP3 ADD MSTORE SWAP6 SWAP5 POP POP POP POP POP JUMP JUMPDEST PUSH2 0xB65 PUSH1 0x40 MLOAD DUP1 PUSH1 0x60 ADD PUSH1 0x40 MSTORE DUP1 PUSH1 0x0 DUP2 MSTORE PUSH1 0x20 ADD PUSH1 0x0 DUP2 MSTORE PUSH1 0x20 ADD PUSH1 0x0 DUP2 MSTORE POP SWAP1 JUMP JUMPDEST PUSH1 0x0 DUP1 PUSH1 0x0 PUSH2 0xB82 DUP7 DUP7 PUSH1 0x0 ADD MLOAD DUP8 PUSH1 0x20 ADD MLOAD DUP9 PUSH1 0x40 ADD MLOAD PUSH2 0xC4D JUMP JUMPDEST PUSH1 0x40 DUP1 MLOAD PUSH1 0x60 DUP2 ADD DUP3 MSTORE SWAP4 DUP5 MSTORE PUSH1 0x20 DUP5 ADD SWAP3 SWAP1 SWAP3 MSTORE SWAP1 DUP3 ADD MSTORE SWAP7 SWAP6 POP POP POP POP POP POP JUMP JUMPDEST PUSH1 0x0 DUP1 PUSH1 0x0 PUSH2 0xBB5 DUP7 DUP7 DUP7 PUSH2 0xDCC JUMP JUMPDEST SWAP2 POP SWAP2 POP DUP2 PUSH2 0x52A JUMPI PUSH2 0x52A PUSH1 0x12 PUSH2 0xE23 JUMP JUMPDEST PUSH1 0x0 DUP1 PUSH1 0x0 PUSH1 0x1 PUSH1 0x60 SHL PUSH4 0xFFFFFFFF PUSH1 0xC0 SHL SUB NOT DUP1 DUP7 DUP8 MULMOD DUP2 DUP7 DUP8 MULMOD DUP3 DUP4 DUP5 DUP4 DUP5 MULMOD PUSH1 0x3 PUSH1 0x1 PUSH1 0x60 SHL SUB PUSH4 0xFFFFFFFF PUSH1 0xC0 SHL SUB NOT MULMOD DUP5 DUP6 DUP13 DUP14 MULMOD PUSH1 0x3 MULMOD ADDMOD SWAP1 POP DUP3 DUP4 DUP4 DUP12 MULMOD PUSH1 0x4 MULMOD DUP4 DUP5 DUP3 PUSH1 0x2 MULMOD DUP6 SUB DUP6 DUP5 DUP6 MULMOD ADDMOD SWAP7 POP DUP4 DUP5 DUP6 DUP6 DUP7 MULMOD PUSH1 0x8 MULMOD DUP6 SUB DUP6 DUP7 DUP11 DUP9 SUB DUP6 ADDMOD DUP6 MULMOD ADDMOD SWAP6 POP POP POP POP DUP1 DUP2 DUP7 DUP9 MULMOD PUSH1 0x2 MULMOD SWAP2 POP POP SWAP4 POP SWAP4 POP SWAP4 SWAP1 POP JUMP JUMPDEST PUSH1 0x0 DUP1 PUSH1 0x0 PUSH1 0x1 PUSH1 0x60 SHL PUSH4 0xFFFFFFFF PUSH1 0xC0 SHL SUB NOT PUSH1 0x40 DUP9 ADD MLOAD DUP2 DUP2 DUP3 MULMOD DUP3 DUP4 DUP9 DUP6 DUP11 DUP12 MULMOD MULMOD PUSH1 0x20 DUP13 ADD MLOAD MULMOD DUP4 DUP2 DUP6 SUB DUP6 DUP7 DUP7 DUP7 MULMOD DUP13 MULMOD ADDMOD DUP5 DUP6 DUP11 DUP12 MULMOD DUP14 MLOAD MULMOD DUP6 DUP2 DUP8 SUB DUP8 DUP7 DUP16 MULMOD ADDMOD SWAP4 POP DUP2 ISZERO DUP5 ISZERO AND DUP1 ISZERO PUSH2 0xCAF JUMPI PUSH1 0x1 DUP2 EQ PUSH2 0xCF5 JUMPI PUSH2 0xD6A JUMP JUMPDEST DUP7 DUP6 DUP7 MULMOD DUP8 DUP9 DUP10 DUP4 DUP7 MULMOD PUSH1 0x2 MULMOD DUP10 SUB DUP10 DUP11 DUP5 DUP11 MULMOD DUP12 SUB DUP12 DUP9 DUP10 MULMOD ADDMOD ADDMOD SWAP11 POP DUP8 DUP9 DUP10 DUP4 DUP10 MULMOD DUP8 MULMOD DUP10 SUB DUP10 DUP11 DUP15 DUP13 SUB DUP13 DUP7 DUP10 MULMOD ADDMOD DUP8 MULMOD ADDMOD SWAP10 POP POP DUP7 DUP8 DUP13 DUP9 MULMOD DUP7 MULMOD SWAP8 POP PUSH2 0xD6A JUMP JUMPDEST DUP13 DUP13 DUP13 DUP10 DUP3 DUP4 MULMOD DUP11 DUP3 DUP4 MULMOD DUP12 DUP13 DUP14 DUP4 DUP5 MULMOD PUSH1 0x3 PUSH1 0x1 PUSH1 0x60 SHL SUB PUSH4 0xFFFFFFFF PUSH1 0xC0 SHL SUB NOT MULMOD DUP14 DUP15 DUP9 DUP10 MULMOD PUSH1 0x3 MULMOD ADDMOD SWAP1 POP DUP12 DUP13 DUP4 DUP8 MULMOD PUSH1 0x4 MULMOD SWAP5 POP DUP12 DUP13 DUP7 PUSH1 0x2 MULMOD DUP14 SUB DUP14 DUP4 DUP5 MULMOD ADDMOD SWAP15 POP DUP12 DUP13 DUP4 DUP5 MULMOD PUSH1 0x8 MULMOD DUP13 SUB SWAP2 POP DUP12 DUP16 DUP14 SUB DUP7 ADDMOD SWAP5 POP DUP12 DUP3 DUP14 DUP8 DUP5 MULMOD ADDMOD SWAP14 POP POP POP DUP10 DUP11 DUP3 DUP5 MULMOD PUSH1 0x2 MULMOD SWAP11 POP POP POP POP JUMPDEST POP POP POP POP POP POP POP SWAP5 POP SWAP5 POP SWAP5 SWAP2 POP POP JUMP JUMPDEST PUSH1 0x0 DUP1 DUP3 PUSH1 0x0 SUB PUSH2 0xD91 JUMPI POP PUSH1 0x0 SWAP1 POP DUP1 PUSH2 0xAD7 JUMP JUMPDEST PUSH1 0x1 PUSH1 0x60 SHL PUSH4 0xFFFFFFFF PUSH1 0xC0 SHL SUB NOT PUSH1 0x0 PUSH2 0xDAC DUP6 DUP4 PUSH2 0x9A7 JUMP JUMPDEST SWAP1 POP DUP2 DUP2 DUP3 MULMOD DUP3 DUP2 DUP10 MULMOD SWAP5 POP DUP3 DUP4 DUP4 DUP4 MULMOD DUP9 MULMOD SWAP4 POP POP POP POP SWAP4 POP SWAP4 SWAP2 POP POP JUMP JUMPDEST PUSH1 0x0 DUP1 DUP3 PUSH1 0x0 SUB PUSH2 0xDE2 JUMPI POP PUSH1 0x0 SWAP1 POP DUP1 PUSH2 0xAD7 JUMP JUMPDEST PUSH1 0x40 MLOAD PUSH1 0x20 DUP2 MSTORE PUSH1 0x20 DUP1 DUP3 ADD MSTORE PUSH1 0x20 PUSH1 0x40 DUP3 ADD MSTORE DUP6 PUSH1 0x60 DUP3 ADD MSTORE DUP5 PUSH1 0x80 DUP3 ADD MSTORE DUP4 PUSH1 0xA0 DUP3 ADD MSTORE PUSH1 0x20 PUSH1 0x0 PUSH1 0xC0 DUP4 PUSH1 0x5 GAS STATICCALL SWAP3 POP POP PUSH1 0x0 MLOAD SWAP1 POP SWAP4 POP SWAP4 SWAP2 POP POP JUMP JUMPDEST PUSH4 0x4E487B71 PUSH1 0x0 MSTORE DUP1 PUSH1 0x20 MSTORE PUSH1 0x24 PUSH1 0x1C REVERT JUMPDEST PUSH1 0x40 MLOAD DUP1 PUSH2 0x200 ADD PUSH1 0x40 MSTORE DUP1 PUSH1 0x10 SWAP1 JUMPDEST PUSH2 0xE69 PUSH1 0x40 MLOAD DUP1 PUSH1 0x60 ADD PUSH1 0x40 MSTORE DUP1 PUSH1 0x0 DUP2 MSTORE PUSH1 0x20 ADD PUSH1 0x0 DUP2 MSTORE PUSH1 0x20 ADD PUSH1 0x0 DUP2 MSTORE POP SWAP1 JUMP JUMPDEST DUP2 MSTORE PUSH1 0x20 ADD SWAP1 PUSH1 0x1 SWAP1 SUB SWAP1 DUP2 PUSH2 0xE45 JUMPI SWAP1 POP POP SWAP1 JUMP JUMPDEST PUSH1 0x0 DUP1 PUSH1 0x40 DUP4 DUP6 SUB SLT ISZERO PUSH2 0xE92 JUMPI PUSH1 0x0 DUP1 REVERT JUMPDEST POP POP DUP1 CALLDATALOAD SWAP3 PUSH1 0x20 SWAP1 SWAP2 ADD CALLDATALOAD SWAP2 POP JUMP JUMPDEST PUSH1 0x0 DUP1 PUSH1 0x0 PUSH1 0x60 DUP5 DUP7 SUB SLT ISZERO PUSH2 0xEB6 JUMPI PUSH1 0x0 DUP1 REVERT JUMPDEST DUP4 CALLDATALOAD PUSH8 0xFFFFFFFFFFFFFFFF DUP2 GT ISZERO PUSH2 0xECD JUMPI PUSH1 0x0 DUP1 REVERT JUMPDEST DUP5 ADD PUSH2 0x120 DUP2 DUP8 SUB SLT ISZERO PUSH2 0xEE0 JUMPI PUSH1 0x0 DUP1 REVERT JUMPDEST SWAP6 PUSH1 0x20 DUP6 ADD CALLDATALOAD SWAP6 POP PUSH1 0x40 SWAP1 SWAP5 ADD CALLDATALOAD SWAP4 SWAP3 POP POP POP JUMP JUMPDEST PUSH1 0x0 DUP1 PUSH1 0x0 PUSH1 0x40 DUP5 DUP7 SUB SLT ISZERO PUSH2 0xF0A JUMPI PUSH1 0x0 DUP1 REVERT JUMPDEST DUP4 CALLDATALOAD SWAP3 POP PUSH1 0x20 DUP5 ADD CALLDATALOAD PUSH8 0xFFFFFFFFFFFFFFFF DUP2 GT ISZERO PUSH2 0xF28 JUMPI PUSH1 0x0 DUP1 REVERT JUMPDEST DUP5 ADD PUSH1 0x1F DUP2 ADD DUP7 SGT PUSH2 0xF39 JUMPI PUSH1 0x0 DUP1 REVERT JUMPDEST DUP1 CALLDATALOAD PUSH8 0xFFFFFFFFFFFFFFFF DUP2 GT ISZERO PUSH2 0xF50 JUMPI PUSH1 0x0 DUP1 REVERT JUMPDEST DUP7 PUSH1 0x20 DUP3 DUP5 ADD ADD GT ISZERO PUSH2 0xF62 JUMPI PUSH1 0x0 DUP1 REVERT JUMPDEST SWAP4 SWAP7 PUSH1 0x20 SWAP2 SWAP1 SWAP2 ADD SWAP6 POP SWAP3 SWAP4 POP POP POP JUMP JUMPDEST PUSH1 0x0 PUSH1 0x20 DUP3 DUP5 SUB SLT ISZERO PUSH2 0xF85 JUMPI PUSH1 0x0 DUP1 REVERT JUMPDEST DUP2 CALLDATALOAD PUSH1 0x1 PUSH1 0x1 PUSH1 0xC0 SHL SUB DUP2 AND DUP2 EQ PUSH2 0x200 JUMPI PUSH1 0x0 DUP1 REVERT JUMPDEST PUSH1 0x0 PUSH1 0x20 DUP3 DUP5 SUB SLT ISZERO PUSH2 0xFAE JUMPI PUSH1 0x0 DUP1 REVERT JUMPDEST DUP2 CALLDATALOAD PUSH1 0x1 PUSH1 0x1 PUSH1 0xA0 SHL SUB DUP2 AND DUP2 EQ PUSH2 0x200 JUMPI PUSH1 0x0 DUP1 REVERT JUMPDEST PUSH1 0x0 DUP1 DUP4 CALLDATALOAD PUSH1 0x1E NOT DUP5 CALLDATASIZE SUB ADD DUP2 SLT PUSH2 0xFDC JUMPI PUSH1 0x0 DUP1 REVERT JUMPDEST DUP4 ADD DUP1 CALLDATALOAD SWAP2 POP PUSH8 0xFFFFFFFFFFFFFFFF DUP3 GT ISZERO PUSH2 0xFF7 JUMPI PUSH1 0x0 DUP1 REVERT JUMPDEST PUSH1 0x20 ADD SWAP2 POP CALLDATASIZE DUP2 SWAP1 SUB DUP3 SGT ISZERO PUSH2 0x100C JUMPI PUSH1 0x0 DUP1 REVERT JUMPDEST SWAP3 POP SWAP3 SWAP1 POP JUMP JUMPDEST PUSH1 0x0 DUP1 DUP6 DUP6 GT ISZERO PUSH2 0x1023 JUMPI PUSH1 0x0 DUP1 REVERT JUMPDEST DUP4 DUP7 GT ISZERO PUSH2 0x1030 JUMPI PUSH1 0x0 DUP1 REVERT JUMPDEST POP POP DUP3 ADD SWAP4 SWAP2 SWAP1 SWAP3 SUB SWAP2 POP JUMP JUMPDEST DUP1 CALLDATALOAD PUSH1 0x20 DUP4 LT ISZERO PUSH2 0x306 JUMPI PUSH1 0x0 NOT PUSH1 0x20 DUP5 SWAP1 SUB PUSH1 0x3 SHL SHL AND SWAP3 SWAP2 POP POP JUMP JUMPDEST PUSH1 0x0 PUSH1 0x20 DUP3 DUP5 SUB SLT ISZERO PUSH2 0x106D JUMPI PUSH1 0x0 DUP1 REVERT JUMPDEST POP MLOAD SWAP2 SWAP1 POP JUMP JUMPDEST PUSH1 0x0 DUP3 MLOAD PUSH1 0x0 JUMPDEST DUP2 DUP2 LT ISZERO PUSH2 0x1095 JUMPI PUSH1 0x20 DUP2 DUP7 ADD DUP2 ADD MLOAD DUP6 DUP4 ADD MSTORE ADD PUSH2 0x107B JUMP JUMPDEST POP PUSH1 0x0 SWAP3 ADD SWAP2 DUP3 MSTORE POP SWAP2 SWAP1 POP JUMP JUMPDEST PUSH1 0x0 PUSH1 0x20 DUP3 DUP5 SUB SLT ISZERO PUSH2 0x10B5 JUMPI PUSH1 0x0 DUP1 REVERT JUMPDEST DUP2 MLOAD DUP1 ISZERO ISZERO DUP2 EQ PUSH2 0x200 JUMPI PUSH1 0x0 DUP1 REVERT JUMPDEST PUSH1 0x0 DUP3 PUSH2 0x10E2 JUMPI PUSH4 0x4E487B71 PUSH1 0xE0 SHL PUSH1 0x0 MSTORE PUSH1 0x12 PUSH1 0x4 MSTORE PUSH1 0x24 PUSH1 0x0 REVERT JUMPDEST POP MOD SWAP1 JUMP JUMPDEST PUSH4 0x4E487B71 PUSH1 0xE0 SHL PUSH1 0x0 MSTORE PUSH1 0x32 PUSH1 0x4 MSTORE PUSH1 0x24 PUSH1 0x0 REVERT INVALID SELFDESTRUCT SELFDESTRUCT SELFDESTRUCT SELFDESTRUCT STOP STOP STOP STOP SELFDESTRUCT SELFDESTRUCT SELFDESTRUCT SELFDESTRUCT SELFDESTRUCT SELFDESTRUCT SELFDESTRUCT SELFDESTRUCT 0xBC 0xE6 STATICCALL 0xAD 0xA7 OR SWAP15 DUP5 RETURN 0xB9 0xCA 0xC2 0xFC PUSH4 0x2551A264 PUSH10 0x70667358221220047D95 RETURNDATASIZE CALLCODE NUMBER 0xAF 0xE5 SLT 0xAF 0xF 0xB4 BLOBBASEFEE CALLVALUE SHR 0xC5 INVALID 0xEF 0x2B SWAP2 0xCC DUP12 DELEGATECALL JUMP 0x2E PC PUSH28 0xF1B352D1C464736F6C634300081C0033000000000000000000000000 "},"methodIdentifiers":{"entryPoint()":"b0d691fe","entryPointAddress()":"06dc245c","getNonce()":"d087d288","getNonce(uint192)":"3e1b0812","initialize(address)":"c4d66de8","setKey(bytes32,bytes32)":"07a00330","validateUserOp((address,uint256,bytes,bytes,bytes32,uint256,bytes32,bytes,bytes),bytes32,uint256)":"19822f7c","verify(bytes32,bytes)":"258ae582"}},"storageLayout":{"storage":[{"astId":9132,"contract":"contracts/CarmelAccount.sol:CarmelAccount","label":"entryPointAddress","offset":0,"slot":"0","type":"t_address"},{"astId":9134,"contract":"contracts/CarmelAccount.sol:CarmelAccount","label":"_qx","offset":0,"slot":"1","type":"t_bytes32"},{"astId":9136,"contract":"contracts/CarmelAccount.sol:CarmelAccount","label":"_qy","offset":0,"slot":"2","type":"t_bytes32"}],"types":{"t_address":{"encoding":"inplace","label":"address","numberOfBytes":"20"},"t_bytes32":{"encoding":"inplace","label":"bytes32","numberOfBytes":"32"}}}}}}