{
  "_format": "hh-sol-artifact-1",
  "contractName": "CarmelRegistry",
  "sourceName": "contracts/CarmelRegistry.sol",
  "abi": [
    {
      "inputs": [],
      "stateMutability": "nonpayable",
      "type": "constructor"
    },
    {
      "inputs": [],
      "name": "CarmelErrorAccountAlreadyExists",
      "type": "error"
    },
    {
      "inputs": [],
      "name": "CarmelErrorAccountDoesNotExist",
      "type": "error"
    },
    {
      "inputs": [],
      "name": "CarmelErrorAccountInvalidKeyId",
      "type": "error"
    },
    {
      "inputs": [],
      "name": "CarmelErrorCannotWithdrawInsufficientFunds",
      "type": "error"
    },
    {
      "inputs": [],
      "name": "CarmelErrorCannotWithdrawZeroAmount",
      "type": "error"
    },
    {
      "inputs": [],
      "name": "CarmelErrorPermissionsAdminLevelRequired",
      "type": "error"
    },
    {
      "inputs": [],
      "name": "CarmelErrorPermissionsSentinelLevelRequired",
      "type": "error"
    },
    {
      "inputs": [],
      "name": "CarmelErrorUnauthorizedAccount",
      "type": "error"
    },
    {
      "inputs": [],
      "name": "InvalidInitialization",
      "type": "error"
    },
    {
      "inputs": [],
      "name": "NotInitializing",
      "type": "error"
    },
    {
      "anonymous": false,
      "inputs": [
        {
          "indexed": false,
          "internalType": "uint64",
          "name": "version",
          "type": "uint64"
        }
      ],
      "name": "Initialized",
      "type": "event"
    },
    {
      "inputs": [
        {
          "internalType": "address",
          "name": "addr",
          "type": "address"
        },
        {
          "components": [
            {
              "internalType": "uint256",
              "name": "keyId",
              "type": "uint256"
            },
            {
              "internalType": "bytes32",
              "name": "username",
              "type": "bytes32"
            },
            {
              "internalType": "bytes32",
              "name": "message",
              "type": "bytes32"
            },
            {
              "internalType": "bytes",
              "name": "signature",
              "type": "bytes"
            }
          ],
          "internalType": "struct CarmelBase.CarmelFingerprint",
          "name": "fingerprint",
          "type": "tuple"
        }
      ],
      "name": "accountAddAddress",
      "outputs": [],
      "stateMutability": "nonpayable",
      "type": "function"
    },
    {
      "inputs": [
        {
          "internalType": "bytes32",
          "name": "x",
          "type": "bytes32"
        },
        {
          "internalType": "bytes32",
          "name": "y",
          "type": "bytes32"
        },
        {
          "components": [
            {
              "internalType": "uint256",
              "name": "keyId",
              "type": "uint256"
            },
            {
              "internalType": "bytes32",
              "name": "username",
              "type": "bytes32"
            },
            {
              "internalType": "bytes32",
              "name": "message",
              "type": "bytes32"
            },
            {
              "internalType": "bytes",
              "name": "signature",
              "type": "bytes"
            }
          ],
          "internalType": "struct CarmelBase.CarmelFingerprint",
          "name": "fingerprint",
          "type": "tuple"
        }
      ],
      "name": "accountAddKey",
      "outputs": [],
      "stateMutability": "nonpayable",
      "type": "function"
    },
    {
      "inputs": [
        {
          "components": [
            {
              "internalType": "uint256",
              "name": "keyId",
              "type": "uint256"
            },
            {
              "internalType": "bytes32",
              "name": "username",
              "type": "bytes32"
            },
            {
              "internalType": "bytes32",
              "name": "message",
              "type": "bytes32"
            },
            {
              "internalType": "bytes",
              "name": "signature",
              "type": "bytes"
            }
          ],
          "internalType": "struct CarmelBase.CarmelFingerprint",
          "name": "fingerprint",
          "type": "tuple"
        }
      ],
      "name": "accountGetKeys",
      "outputs": [
        {
          "internalType": "bytes32[]",
          "name": "",
          "type": "bytes32[]"
        },
        {
          "internalType": "bytes32[]",
          "name": "",
          "type": "bytes32[]"
        }
      ],
      "stateMutability": "view",
      "type": "function"
    },
    {
      "inputs": [
        {
          "internalType": "bytes32",
          "name": "m0",
          "type": "bytes32"
        },
        {
          "internalType": "bytes32",
          "name": "m1",
          "type": "bytes32"
        },
        {
          "components": [
            {
              "internalType": "uint256",
              "name": "keyId",
              "type": "uint256"
            },
            {
              "internalType": "bytes32",
              "name": "username",
              "type": "bytes32"
            },
            {
              "internalType": "bytes32",
              "name": "message",
              "type": "bytes32"
            },
            {
              "internalType": "bytes",
              "name": "signature",
              "type": "bytes"
            }
          ],
          "internalType": "struct CarmelBase.CarmelFingerprint",
          "name": "fingerprint",
          "type": "tuple"
        }
      ],
      "name": "accountUpdateHash",
      "outputs": [],
      "stateMutability": "nonpayable",
      "type": "function"
    },
    {
      "inputs": [
        {
          "internalType": "bytes32",
          "name": "username",
          "type": "bytes32"
        }
      ],
      "name": "getAccount",
      "outputs": [
        {
          "components": [
            {
              "internalType": "uint256",
              "name": "id",
              "type": "uint256"
            },
            {
              "internalType": "bytes32",
              "name": "username",
              "type": "bytes32"
            },
            {
              "internalType": "bytes32",
              "name": "group",
              "type": "bytes32"
            },
            {
              "internalType": "uint32",
              "name": "total_keys",
              "type": "uint32"
            },
            {
              "internalType": "uint32",
              "name": "total_addresses",
              "type": "uint32"
            }
          ],
          "internalType": "struct CarmelBase.CarmelAccount",
          "name": "",
          "type": "tuple"
        }
      ],
      "stateMutability": "view",
      "type": "function"
    },
    {
      "inputs": [
        {
          "internalType": "bytes32",
          "name": "username",
          "type": "bytes32"
        }
      ],
      "name": "getAccountHashes",
      "outputs": [
        {
          "internalType": "bytes32[]",
          "name": "",
          "type": "bytes32[]"
        }
      ],
      "stateMutability": "view",
      "type": "function"
    },
    {
      "inputs": [
        {
          "internalType": "bytes32",
          "name": "grp",
          "type": "bytes32"
        }
      ],
      "name": "getAccounts",
      "outputs": [
        {
          "components": [
            {
              "internalType": "uint256",
              "name": "id",
              "type": "uint256"
            },
            {
              "internalType": "bytes32",
              "name": "username",
              "type": "bytes32"
            },
            {
              "internalType": "bytes32",
              "name": "group",
              "type": "bytes32"
            },
            {
              "internalType": "uint32",
              "name": "total_keys",
              "type": "uint32"
            },
            {
              "internalType": "uint32",
              "name": "total_addresses",
              "type": "uint32"
            }
          ],
          "internalType": "struct CarmelBase.CarmelAccount[]",
          "name": "",
          "type": "tuple[]"
        }
      ],
      "stateMutability": "view",
      "type": "function"
    },
    {
      "inputs": [
        {
          "internalType": "bytes32",
          "name": "username",
          "type": "bytes32"
        }
      ],
      "name": "getAddresses",
      "outputs": [
        {
          "internalType": "address[]",
          "name": "",
          "type": "address[]"
        }
      ],
      "stateMutability": "view",
      "type": "function"
    },
    {
      "inputs": [
        {
          "internalType": "address",
          "name": "addr",
          "type": "address"
        }
      ],
      "name": "getPerms",
      "outputs": [
        {
          "internalType": "uint256",
          "name": "",
          "type": "uint256"
        }
      ],
      "stateMutability": "view",
      "type": "function"
    },
    {
      "inputs": [],
      "name": "getTotalAccounts",
      "outputs": [
        {
          "internalType": "uint256",
          "name": "",
          "type": "uint256"
        }
      ],
      "stateMutability": "view",
      "type": "function"
    },
    {
      "inputs": [
        {
          "internalType": "address",
          "name": "sender",
          "type": "address"
        },
        {
          "internalType": "address",
          "name": "ver",
          "type": "address"
        }
      ],
      "name": "initialize",
      "outputs": [],
      "stateMutability": "nonpayable",
      "type": "function"
    },
    {
      "inputs": [
        {
          "internalType": "bytes32",
          "name": "username",
          "type": "bytes32"
        },
        {
          "internalType": "bytes32",
          "name": "grp",
          "type": "bytes32"
        },
        {
          "internalType": "address",
          "name": "addr",
          "type": "address"
        },
        {
          "internalType": "bytes32",
          "name": "x",
          "type": "bytes32"
        },
        {
          "internalType": "bytes32",
          "name": "y",
          "type": "bytes32"
        }
      ],
      "name": "register",
      "outputs": [
        {
          "internalType": "uint256",
          "name": "",
          "type": "uint256"
        }
      ],
      "stateMutability": "nonpayable",
      "type": "function"
    },
    {
      "inputs": [
        {
          "internalType": "address",
          "name": "addr",
          "type": "address"
        },
        {
          "internalType": "uint8",
          "name": "level",
          "type": "uint8"
        }
      ],
      "name": "updatePerms",
      "outputs": [],
      "stateMutability": "nonpayable",
      "type": "function"
    },
    {
      "inputs": [
        {
          "internalType": "bytes32",
          "name": "username",
          "type": "bytes32"
        },
        {
          "internalType": "bytes32",
          "name": "m0",
          "type": "bytes32"
        },
        {
          "internalType": "bytes32",
          "name": "m1",
          "type": "bytes32"
        }
      ],
      "name": "updateSystemHash",
      "outputs": [],
      "stateMutability": "nonpayable",
      "type": "function"
    },
    {
      "inputs": [
        {
          "components": [
            {
              "internalType": "uint256",
              "name": "keyId",
              "type": "uint256"
            },
            {
              "internalType": "bytes32",
              "name": "username",
              "type": "bytes32"
            },
            {
              "internalType": "bytes32",
              "name": "message",
              "type": "bytes32"
            },
            {
              "internalType": "bytes",
              "name": "signature",
              "type": "bytes"
            }
          ],
          "internalType": "struct CarmelBase.CarmelFingerprint",
          "name": "fingerprint",
          "type": "tuple"
        }
      ],
      "name": "verify",
      "outputs": [
        {
          "internalType": "bool",
          "name": "",
          "type": "bool"
        }
      ],
      "stateMutability": "view",
      "type": "function"
    },
    {
      "inputs": [
        {
          "components": [
            {
              "internalType": "uint256",
              "name": "id",
              "type": "uint256"
            },
            {
              "internalType": "bytes32",
              "name": "username",
              "type": "bytes32"
            },
            {
              "internalType": "bytes32",
              "name": "group",
              "type": "bytes32"
            },
            {
              "internalType": "uint32",
              "name": "total_keys",
              "type": "uint32"
            },
            {
              "internalType": "uint32",
              "name": "total_addresses",
              "type": "uint32"
            }
          ],
          "internalType": "struct CarmelBase.CarmelAccount",
          "name": "account",
          "type": "tuple"
        },
        {
          "components": [
            {
              "internalType": "uint256",
              "name": "keyId",
              "type": "uint256"
            },
            {
              "internalType": "bytes32",
              "name": "username",
              "type": "bytes32"
            },
            {
              "internalType": "bytes32",
              "name": "message",
              "type": "bytes32"
            },
            {
              "internalType": "bytes",
              "name": "signature",
              "type": "bytes"
            }
          ],
          "internalType": "struct CarmelBase.CarmelFingerprint",
          "name": "fingerprint",
          "type": "tuple"
        }
      ],
      "name": "verifyFingerprint",
      "outputs": [
        {
          "internalType": "bool",
          "name": "",
          "type": "bool"
        }
      ],
      "stateMutability": "view",
      "type": "function"
    },
    {
      "inputs": [],
      "name": "version",
      "outputs": [
        {
          "internalType": "uint256",
          "name": "",
          "type": "uint256"
        }
      ],
      "stateMutability": "pure",
      "type": "function"
    }
  ],
  "bytecode": "0x608060405234801561001057600080fd5b5061002b6746e72ea4ceb2137760c01b61007260201b60201c565b6100456753fc8d1ec45aae1760c01b61007260201b60201c565b61005f6734a0ef9d309f534560c01b61007260201b60201c565b61006d61007560201b60201c565b6101df565b50565b600061008561017960201b60201c565b90508060000160089054906101000a900460ff16156100d0576040517ff92ee8a900000000000000000000000000000000000000000000000000000000815260040160405180910390fd5b67ffffffffffffffff80168160000160009054906101000a900467ffffffffffffffff1667ffffffffffffffff16146101765767ffffffffffffffff8160000160006101000a81548167ffffffffffffffff021916908367ffffffffffffffff1602179055507fc7f505b2f371ae2175ee4913f4499e1f2633a7b5936321eed1cdaeb6115181d267ffffffffffffffff60405161016d91906101c4565b60405180910390a15b50565b60007ff0c57e16840df040f15088dc2f81fe391c3923bec73e23a9662efc9c229c6a00905090565b600067ffffffffffffffff82169050919050565b6101be816101a1565b82525050565b60006020820190506101d960008301846101b5565b92915050565b61387c806101ee6000396000f3fe608060405234801561001057600080fd5b506004361061010b5760003560e01c8063734f231f116100a2578063ac7eba6c11610071578063ac7eba6c146102db578063d1de50111461030b578063d7c89f5b1461033b578063da6841aa1461036b578063f378c9df146103895761010b565b8063734f231f146102425780638ed0b01b1461025e5780639a1d554e1461028f5780639d5c7e9f146102bf5761010b565b80634470da90116100de5780634470da90146101a8578063485cc955146101d85780634a5af4e0146101f457806354fd4d50146102245761010b565b806316aac50e1461011057806316c1c26d1461012c5780633e244a851461015c5780633fdada7a14610178575b600080fd5b61012a60048036038101906101259190612c61565b6103a5565b005b61014660048036038101906101419190612e8a565b610554565b6040516101539190612f01565b60405180910390f35b61017660048036038101906101719190612f1c565b610851565b005b610192600480360381019061018d9190612f78565b610bdb565b60405161019f9190613063565b60405180910390f35b6101c260048036038101906101bd9190613085565b610dfd565b6040516101cf919061310f565b60405180910390f35b6101f260048036038101906101ed919061312a565b6115ab565b005b61020e6004803603810190610209919061316a565b611884565b60405161021b9190612f01565b60405180910390f35b61022c61198c565b604051610239919061310f565b60405180910390f35b61025c600480360381019061025791906131b3565b6119d1565b005b6102786004803603810190610273919061316a565b611d88565b6040516102869291906132e0565b60405180910390f35b6102a960048036038101906102a49190612f78565b611fea565b6040516102b69190613317565b60405180910390f35b6102d960048036038101906102d49190613339565b612091565b005b6102f560048036038101906102f0919061338c565b6123ad565b604051610302919061310f565b60405180910390f35b61032560048036038101906103209190612f78565b612441565b604051610332919061343f565b60405180910390f35b61035560048036038101906103509190612f78565b612542565b6040516103629190613571565b60405180910390f35b6103736127dc565b604051610380919061310f565b60405180910390f35b6103a3600480360381019061039e91906131b3565b612822565b005b6103b967d9b9af603550bce160c01b612b4a565b6103cd6756d321c83347553c60c01b612b4a565b6103e1672349a2b67ab9c48660c01b612b4a565b6103f567163d3e5c76b11f1060c01b612b4a565b606360ff166000803373ffffffffffffffffffffffffffffffffffffffff1673ffffffffffffffffffffffffffffffffffffffff16815260200190815260200160002060009054906101000a900460ff1660ff1610156104955761046367f0545c46fef308b560c01b612b4a565b6040517f0ed39a2f00000000000000000000000000000000000000000000000000000000815260040160405180910390fd5b6104a967ae1ddc5640b1291d60c01b612b4a565b6104bd67b6cc8b73de1fe83060c01b612b4a565b6104d16757fb8c77ba67af1960c01b612b4a565b6104e5674176dc890e8c57d560c01b612b4a565b6104f9678fd215a4b5113da960c01b612b4a565b806000808473ffffffffffffffffffffffffffffffffffffffff1673ffffffffffffffffffffffffffffffffffffffff16815260200190815260200160002060006101000a81548160ff021916908360ff1602179055505050565b600061056a67181d4eed2074fb2860c01b612b4a565b61057e67558bf1e0b3a32e2460c01b612b4a565b61059267ed7027ad56f1d18360c01b612b4a565b6000801b8360200151036105e6576105b46796b51989f97cf80160c01b612b4a565b6040517f4a6bc07d00000000000000000000000000000000000000000000000000000000815260040160405180910390fd5b6105fa671518585cbacf0e0d60c01b612b4a565b61060e67abfbe760d09f681f60c01b612b4a565b61062267243b53eef4b8523860c01b612b4a565b81600001356004600084602001358152602001908152602001600020805490501161068d5761065b67b3262d8631e9d1de60c01b612b4a565b6040517fa37a76ff00000000000000000000000000000000000000000000000000000000815260040160405180910390fd5b6106a16786e5424bc2e1308260c01b612b4a565b6106b567ce826d34747ec7f460c01b612b4a565b6106c9673fb4a85a0f5ca43f60c01b612b4a565b600060046000846020013581526020019081526020016000208360000135815481106106f8576106f7613593565b5b90600052602060002001549050610719672940b5abb2ab050760c01b612b4a565b61072d67549ea35ae8ef08dc60c01b612b4a565b6000600560008560200135815260200190815260200160002084600001358154811061075c5761075b613593565b5b9060005260206000200154905061077d671f0fce20a0b49c0f60c01b612b4a565b610791674032e5549211e7da60c01b612b4a565b600160009054906101000a900473ffffffffffffffffffffffffffffffffffffffff1673ffffffffffffffffffffffffffffffffffffffff1663a64f680b85604001358680606001906107e491906135d1565b86866040518663ffffffff1660e01b8152600401610806959493929190613690565b602060405180830381865afa158015610823573d6000803e3d6000fd5b505050506040513d601f19601f82011682018060405250810190610847919061370a565b9250505092915050565b61086567278f7e86b262a8c160c01b612b4a565b610879673c8bd695f9d2ac3d60c01b612b4a565b61088d67329a7792e7d41b5d60c01b612b4a565b6108a167da024291c93ccd1560c01b612b4a565b603260ff166000803373ffffffffffffffffffffffffffffffffffffffff1673ffffffffffffffffffffffffffffffffffffffff16815260200190815260200160002060009054906101000a900460ff1660ff1610156109415761090f67db403c649acd3a8b60c01b612b4a565b6040517f13e433c900000000000000000000000000000000000000000000000000000000815260040160405180910390fd5b610955676202fdd82776abb360c01b612b4a565b6109696782ec471c4120db7460c01b612b4a565b61097d67ad9f4d944a68237660c01b612b4a565b61099167e16fb18f7115c85a60c01b612b4a565b6109a567a93467b96a79632a60c01b612b4a565b6109b967b85758503cb82dcb60c01b612b4a565b600060076000836020013581526020019081526020016000206040518060a00160405290816000820154815260200160018201548152602001600282015481526020016003820160009054906101000a900463ffffffff1663ffffffff1663ffffffff1681526020016003820160049054906101000a900463ffffffff1663ffffffff1663ffffffff16815250509050610a5d67dc8db9a335433a5760c01b612b4a565b610a71670c1b2231be5d08e360c01b612b4a565b610a7b8183610554565b610ac557610a936794e1baf5a88957fe60c01b612b4a565b6040517f9fd8ceca00000000000000000000000000000000000000000000000000000000815260040160405180910390fd5b610ad9676f731301cb418c1560c01b612b4a565b610aed67b2ae1a583d0df97c60c01b612b4a565b610b0167e989fee52c7fb68160c01b612b4a565b6009600083602001358152602001908152602001600020839080600181540180825580915050600190039060005260206000200160009091909190916101000a81548173ffffffffffffffffffffffffffffffffffffffff021916908373ffffffffffffffffffffffffffffffffffffffff160217905550610b8d67f09ce26808e76bc960c01b612b4a565b60018160800151610b9e9190613766565b600760008460200135815260200190815260200160002060030160046101000a81548163ffffffff021916908363ffffffff160217905550505050565b6060610bf16705ae284538c1e96260c01b612b4a565b610c05677f9ed1a7067803d160c01b612b4a565b610c1967598b89e52e1c16d460c01b612b4a565b6000600760008481526020019081526020016000206040518060a00160405290816000820154815260200160018201548152602001600282015481526020016003820160009054906101000a900463ffffffff1663ffffffff1663ffffffff1681526020016003820160049054906101000a900463ffffffff1663ffffffff1663ffffffff16815250509050610cb967fc63b8ebd8ba350360c01b612b4a565b610ccd673522c5455f291bf360c01b612b4a565b6000801b816020015103610d2157610cef673f95483084d7ce0760c01b612b4a565b6040517f4a6bc07d00000000000000000000000000000000000000000000000000000000815260040160405180910390fd5b610d35673d3c6bf83b78de8a60c01b612b4a565b610d4967539fbbbcbc3abc6360c01b612b4a565b610d5d67d43b801c2ad3eb1860c01b612b4a565b60096000848152602001908152602001600020805480602002602001604051908101604052809291908181526020018280548015610df057602002820191906000526020600020905b8160009054906101000a900473ffffffffffffffffffffffffffffffffffffffff1673ffffffffffffffffffffffffffffffffffffffff1681526020019060010190808311610da6575b5050505050915050919050565b6000610e1367b0e5d26e5820376560c01b612b4a565b610e27673c8bd695f9d2ac3d60c01b612b4a565b610e3b67329a7792e7d41b5d60c01b612b4a565b610e4f67da024291c93ccd1560c01b612b4a565b603260ff166000803373ffffffffffffffffffffffffffffffffffffffff1673ffffffffffffffffffffffffffffffffffffffff16815260200190815260200160002060009054906101000a900460ff1660ff161015610eef57610ebd67db403c649acd3a8b60c01b612b4a565b6040517f13e433c900000000000000000000000000000000000000000000000000000000815260040160405180910390fd5b610f03676202fdd82776abb360c01b612b4a565b610f176782ec471c4120db7460c01b612b4a565b610f2b6761b2cc289e50cb8360c01b612b4a565b610f3f6787301f91544719ff60c01b612b4a565b610f53670e0b308027af16ba60c01b612b4a565b610f676775725fd08b39735a60c01b612b4a565b6000600760008881526020019081526020016000206040518060a00160405290816000820154815260200160018201548152602001600282015481526020016003820160009054906101000a900463ffffffff1663ffffffff1663ffffffff1681526020016003820160049054906101000a900463ffffffff1663ffffffff1663ffffffff168152505090506110076758b8e9a1aaef9bd960c01b612b4a565b61101b679057a2f5c5454b9e60c01b612b4a565b6000801b816020015111156110705761103e67f9ab94bd0a4fa61c60c01b612b4a565b6040517f0f148d0700000000000000000000000000000000000000000000000000000000815260040160405180910390fd5b61108467c5c5bfdf51d5865d60c01b612b4a565b611098674c0394c3c0a4a2fe60c01b612b4a565b6110ac6715d52756ac019bfc60c01b612b4a565b600060025490506110c767ebf3f49f68daed0760c01b612b4a565b60016002546110d6919061379e565b6002819055506110f067e6fdc30cc660a37e60c01b612b4a565b61110467449f2368f27ea96560c01b612b4a565b600460008981526020019081526020016000208590806001815401808255809150506001900390600052602060002001600090919091909150556111526795e9ae7d6c840f8c60c01b612b4a565b61116667e324cfaa53818d9860c01b612b4a565b600560008981526020019081526020016000208490806001815401808255809150506001900390600052602060002001600090919091909150556111b467bcf36eed73406dbe60c01b612b4a565b6001600760008a815260200190815260200160002060030160006101000a81548163ffffffff021916908363ffffffff1602179055506111fe676307a2f7807172af60c01b612b4a565b6112126772b85f8ec6fd108260c01b612b4a565b600660008981526020019081526020016000206000801b90806001815401808255809150506001900390600052602060002001600090919091909150556112636787e50026c26afb2460c01b612b4a565b6112776719f5dd1232be90ec60c01b612b4a565b600660008981526020019081526020016000206000801b90806001815401808255809150506001900390600052602060002001600090919091909150556112c8679e5fc1402c0d1b0f60c01b612b4a565b6112dc6788cf476076e7cd3c60c01b612b4a565b600660008981526020019081526020016000206000801b908060018154018082558091505060019003906000526020600020016000909190919091505561132d67e6e7c32ee87acc0260c01b612b4a565b61134167bc37111ac0a211d060c01b612b4a565b600660008981526020019081526020016000206000801b908060018154018082558091505060019003906000526020600020016000909190919091505561139267f54d863ddee1111560c01b612b4a565b6113a6678e5c00eba9188b0960c01b612b4a565b60006040518060a001604052808381526020018a8152602001898152602001600063ffffffff168152602001600163ffffffff1681525090506113f367eb3fd02b4c743be160c01b612b4a565b80600760008b815260200190815260200160002060008201518160000155602082015181600101556040820151816002015560608201518160030160006101000a81548163ffffffff021916908363ffffffff16021790555060808201518160030160046101000a81548163ffffffff021916908363ffffffff16021790555090505061148a677d28dd4d73ec36f960c01b612b4a565b61149e677e304bf7e12f1e1060c01b612b4a565b600960008a8152602001908152602001600020879080600181540180825580915050600190039060005260206000200160009091909190916101000a81548173ffffffffffffffffffffffffffffffffffffffff021916908373ffffffffffffffffffffffffffffffffffffffff16021790555061152667f4ea0e69f5bd9ac860c01b612b4a565b61153a67a0e2bc3ed568624360c01b612b4a565b60086000898152602001908152602001600020899080600181540180825580915050600190039060005260206000200160009091909190915055611588679a25136c3b965ab060c01b612b4a565b61159c673855ea26cbbbd70660c01b612b4a565b81935050505095945050505050565b6115bf6707c4a7dc2111fb4760c01b612b4a565b60006115c9612b4d565b905060008160000160089054906101000a900460ff1615905060008260000160009054906101000a900467ffffffffffffffff1690506000808267ffffffffffffffff161480156116175750825b9050600060018367ffffffffffffffff1614801561164c575060003073ffffffffffffffffffffffffffffffffffffffff163b145b90508115801561165a575080155b15611691576040517ff92ee8a900000000000000000000000000000000000000000000000000000000815260040160405180910390fd5b60018560000160006101000a81548167ffffffffffffffff021916908367ffffffffffffffff16021790555083156116e15760018560000160086101000a81548160ff0219169083151502179055505b6116f5674d0787169ff89b3d60c01b612b4a565b611709674068acc1f35dbf8960c01b612b4a565b61171d67e4958efd0050aa5360c01b612b4a565b60636000808973ffffffffffffffffffffffffffffffffffffffff1673ffffffffffffffffffffffffffffffffffffffff16815260200190815260200160002060006101000a81548160ff021916908360ff1602179055506117896709000662eebb28f960c01b612b4a565b86600360006101000a81548173ffffffffffffffffffffffffffffffffffffffff021916908373ffffffffffffffffffffffffffffffffffffffff1602179055506117de672d888c4fad36547c60c01b612b4a565b85600160006101000a81548173ffffffffffffffffffffffffffffffffffffffff021916908373ffffffffffffffffffffffffffffffffffffffff160217905550831561187b5760008560000160086101000a81548160ff0219169083151502179055507fc7f505b2f371ae2175ee4913f4499e1f2633a7b5936321eed1cdaeb6115181d26001604051611872919061382b565b60405180910390a15b50505050505050565b600061189a67c19008698818fdd360c01b612b4a565b6118ae670539d5d2345cb7da60c01b612b4a565b6118c267ef3de65aaf7b084060c01b612b4a565b600060076000846020013581526020019081526020016000206040518060a00160405290816000820154815260200160018201548152602001600282015481526020016003820160009054906101000a900463ffffffff1663ffffffff1663ffffffff1681526020016003820160049054906101000a900463ffffffff1663ffffffff1663ffffffff168152505090506119666728a9141836e0126d60c01b612b4a565b61197a67150882d425e37e0860c01b612b4a565b6119848184610554565b915050919050565b60006119a26749581d5c09d5bcbd60c01b612b4a565b6119b6672730af7e9475c90a60c01b612b4a565b6119ca67bcf3b29649bd7d5f60c01b612b4a565b6001905090565b6119e56782a40211d53e107b60c01b612b4a565b6119f9673c8bd695f9d2ac3d60c01b612b4a565b611a0d67329a7792e7d41b5d60c01b612b4a565b611a2167da024291c93ccd1560c01b612b4a565b603260ff166000803373ffffffffffffffffffffffffffffffffffffffff1673ffffffffffffffffffffffffffffffffffffffff16815260200190815260200160002060009054906101000a900460ff1660ff161015611ac157611a8f67db403c649acd3a8b60c01b612b4a565b6040517f13e433c900000000000000000000000000000000000000000000000000000000815260040160405180910390fd5b611ad5676202fdd82776abb360c01b612b4a565b611ae96782ec471c4120db7460c01b612b4a565b611afd678196dedea42cf29360c01b612b4a565b611b1167fca2dda11f38377f60c01b612b4a565b611b2567d7e785e132a174a860c01b612b4a565b611b3967272e44f1ad711da260c01b612b4a565b600060076000836020013581526020019081526020016000206040518060a00160405290816000820154815260200160018201548152602001600282015481526020016003820160009054906101000a900463ffffffff1663ffffffff1663ffffffff1681526020016003820160049054906101000a900463ffffffff1663ffffffff1663ffffffff16815250509050611bdd671d201332c63114ce60c01b612b4a565b611bf1671506c252527e822760c01b612b4a565b611bfb8183610554565b611c4557611c13676d277f6c400db77060c01b612b4a565b6040517f9fd8ceca00000000000000000000000000000000000000000000000000000000815260040160405180910390fd5b611c5967e51f07c2ad26514f60c01b612b4a565b611c6d6704a2ba7437d578d260c01b612b4a565b611c816770da46fbd770600960c01b612b4a565b6004600083602001358152602001908152602001600020849080600181540180825580915050600190039060005260206000200160009091909190915055611cd3672864da4a171909fc60c01b612b4a565b611ce7677b68e810ce16678660c01b612b4a565b6005600083602001358152602001908152602001600020839080600181540180825580915050600190039060005260206000200160009091909190915055611d39676de6b9bbc03d535060c01b612b4a565b60018160600151611d4a9190613766565b600760008460200135815260200190815260200160002060030160006101000a81548163ffffffff021916908363ffffffff16021790555050505050565b606080611d9f67daac584932dc1e8c60c01b612b4a565b611db367ce9f425293749d0f60c01b612b4a565b611dc767ef5b6a3b0a4a0a5660c01b612b4a565b600060076000856020013581526020019081526020016000206040518060a00160405290816000820154815260200160018201548152602001600282015481526020016003820160009054906101000a900463ffffffff1663ffffffff1663ffffffff1681526020016003820160049054906101000a900463ffffffff1663ffffffff1663ffffffff16815250509050611e6b67893684fbbbc0b1af60c01b612b4a565b611e7f673f00d0de088a7d5960c01b612b4a565b611e898185610554565b611ed357611ea167a6ad6ab77b6792f460c01b612b4a565b6040517f9fd8ceca00000000000000000000000000000000000000000000000000000000815260040160405180910390fd5b611ee76753a8b42b4b7f05a860c01b612b4a565b611efa66d8451c8a8f57a960c01b612b4a565b611f0e67524be634c89cf57060c01b612b4a565b6004600085602001358152602001908152602001600020600560008660200135815260200190815260200160002081805480602002602001604051908101604052809291908181526020018280548015611f8757602002820191906000526020600020905b815481526020019060010190808311611f73575b5050505050915080805480602002602001604051908101604052809291908181526020018280548015611fd957602002820191906000526020600020905b815481526020019060010190808311611fc5575b505050505090509250925050915091565b60606120006750822ada859481f060c01b612b4a565b61201467b6d386d44a7b260c60c01b612b4a565b6120286710b089dadb6607e360c01b612b4a565b6006600083815260200190815260200160002080548060200260200160405190810160405280929190818152602001828054801561208557602002820191906000526020600020905b815481526020019060010190808311612071575b50505050509050919050565b6120a567a2a955417f1483d060c01b612b4a565b6120b9673c8bd695f9d2ac3d60c01b612b4a565b6120cd67329a7792e7d41b5d60c01b612b4a565b6120e167da024291c93ccd1560c01b612b4a565b603260ff166000803373ffffffffffffffffffffffffffffffffffffffff1673ffffffffffffffffffffffffffffffffffffffff16815260200190815260200160002060009054906101000a900460ff1660ff1610156121815761214f67db403c649acd3a8b60c01b612b4a565b6040517f13e433c900000000000000000000000000000000000000000000000000000000815260040160405180910390fd5b612195676202fdd82776abb360c01b612b4a565b6121a96782ec471c4120db7460c01b612b4a565b6121bd67ac565e16edddc18960c01b612b4a565b6121d167d8df39237368bb6960c01b612b4a565b6121e5678fc20173b6ba896460c01b612b4a565b6121f967067c42c73e96eb0260c01b612b4a565b6000600760008581526020019081526020016000206040518060a00160405290816000820154815260200160018201548152602001600282015481526020016003820160009054906101000a900463ffffffff1663ffffffff1663ffffffff1681526020016003820160049054906101000a900463ffffffff1663ffffffff1663ffffffff16815250509050612299673a5c85e8a79b908160c01b612b4a565b6122ad6770f382eb4309e06560c01b612b4a565b6000801b816020015103612301576122cf6761160c406e6cc29160c01b612b4a565b6040517f4a6bc07d00000000000000000000000000000000000000000000000000000000815260040160405180910390fd5b612315675062353866a84f6e60c01b612b4a565b612329676d5c66c705888ae460c01b612b4a565b82600660008681526020019081526020016000206000815481106123505761234f613593565b5b90600052602060002001819055506123726708ad078e33aeb97260c01b612b4a565b816006600086815260200190815260200160002060018154811061239957612398613593565b5b906000526020600020018190555050505050565b60006123c3670de4bffb25718b1260c01b612b4a565b6123d7674e5f1624946efa7360c01b612b4a565b6123eb67b6681e8d23ea828460c01b612b4a565b6000808373ffffffffffffffffffffffffffffffffffffffff1673ffffffffffffffffffffffffffffffffffffffff16815260200190815260200160002060009054906101000a900460ff1660ff169050919050565b612449612b75565b61245d67ccee35da334368f460c01b612b4a565b6124716751778ece69be2fe960c01b612b4a565b612485679f0d5a99dcfc451a60c01b612b4a565b6000600760008481526020019081526020016000206040518060a00160405290816000820154815260200160018201548152602001600282015481526020016003820160009054906101000a900463ffffffff1663ffffffff1663ffffffff1681526020016003820160049054906101000a900463ffffffff1663ffffffff1663ffffffff16815250509050612525673dea2b3edb2888fc60c01b612b4a565b61253967819e8e48d2735baa60c01b612b4a565b80915050919050565b606061255867d9a62b45a0c7406060c01b612b4a565b61256c679525ca4f04acd47f60c01b612b4a565b6125806752f08eda307a581760c01b612b4a565b6000600860008481526020019081526020016000208054806020026020016040519081016040528092919081815260200182805480156125df57602002820191906000526020600020905b8154815260200190600101908083116125cb575b505050505090506125fa67183cd487c49515b660c01b612b4a565b61260e670d7c9a106fcd8dd860c01b612b4a565b60008151905061262867ae2f8ffaa13d99b560c01b612b4a565b61263c6762da2cf9322e397a60c01b612b4a565b60008167ffffffffffffffff81111561265857612657612cb7565b5b60405190808252806020026020018201604052801561269157816020015b61267e612b75565b8152602001906001900390816126765790505b5090506126a867dbf9c18c8f8c05ec60c01b612b4a565b6126bc677fade8238216fa5260c01b612b4a565b60005b828110156127a8576126db675eac2e648728b69360c01b612b4a565b600760008583815181106126f2576126f1613593565b5b602002602001015181526020019081526020016000206040518060a00160405290816000820154815260200160018201548152602001600282015481526020016003820160009054906101000a900463ffffffff1663ffffffff1663ffffffff1681526020016003820160049054906101000a900463ffffffff1663ffffffff1663ffffffff16815250508282815181106127905761278f613593565b5b602002602001018190525080806001019150506126bf565b506127bd67498edde6b8d1c11d60c01b612b4a565b6127d1677980d39775bfad9660c01b612b4a565b809350505050919050565b60006127f26755713dd11051eaf860c01b612b4a565b6128066791568af4f745991160c01b612b4a565b61281a678b342d011acf0c6a60c01b612b4a565b600254905090565b6128366786f329b15bf65e0260c01b612b4a565b61284a673c8bd695f9d2ac3d60c01b612b4a565b61285e67329a7792e7d41b5d60c01b612b4a565b61287267da024291c93ccd1560c01b612b4a565b603260ff166000803373ffffffffffffffffffffffffffffffffffffffff1673ffffffffffffffffffffffffffffffffffffffff16815260200190815260200160002060009054906101000a900460ff1660ff161015612912576128e067db403c649acd3a8b60c01b612b4a565b6040517f13e433c900000000000000000000000000000000000000000000000000000000815260040160405180910390fd5b612926676202fdd82776abb360c01b612b4a565b61293a6782ec471c4120db7460c01b612b4a565b61294e67ba9073213795f35a60c01b612b4a565b61296267f2894527a00c905660c01b612b4a565b612976675b6c66bb02c2ac9e60c01b612b4a565b61298a67809b5309af815fe660c01b612b4a565b600060076000836020013581526020019081526020016000206040518060a00160405290816000820154815260200160018201548152602001600282015481526020016003820160009054906101000a900463ffffffff1663ffffffff1663ffffffff1681526020016003820160049054906101000a900463ffffffff1663ffffffff1663ffffffff16815250509050612a2e67786cee6f541acbd860c01b612b4a565b612a426736013ce0ab9203a960c01b612b4a565b612a4c8183610554565b612a9657612a64675aa0b2ade7a1b6df60c01b612b4a565b6040517f9fd8ceca00000000000000000000000000000000000000000000000000000000815260040160405180910390fd5b612aaa67ec1e3fbdbcc6d65560c01b612b4a565b612abe6725621ee2a666055e60c01b612b4a565b836006600084602001358152602001908152602001600020600281548110612ae957612ae8613593565b5b9060005260206000200181905550612b0b67b2615bd3de1b7dc460c01b612b4a565b826006600084602001358152602001908152602001600020600381548110612b3657612b35613593565b5b906000526020600020018190555050505050565b50565b60007ff0c57e16840df040f15088dc2f81fe391c3923bec73e23a9662efc9c229c6a00905090565b6040518060a00160405280600081526020016000801916815260200160008019168152602001600063ffffffff168152602001600063ffffffff1681525090565b6000604051905090565b600080fd5b600080fd5b600073ffffffffffffffffffffffffffffffffffffffff82169050919050565b6000612bf582612bca565b9050919050565b612c0581612bea565b8114612c1057600080fd5b50565b600081359050612c2281612bfc565b92915050565b600060ff82169050919050565b612c3e81612c28565b8114612c4957600080fd5b50565b600081359050612c5b81612c35565b92915050565b60008060408385031215612c7857612c77612bc0565b5b6000612c8685828601612c13565b9250506020612c9785828601612c4c565b9150509250929050565b600080fd5b6000601f19601f8301169050919050565b7f4e487b7100000000000000000000000000000000000000000000000000000000600052604160045260246000fd5b612cef82612ca6565b810181811067ffffffffffffffff82111715612d0e57612d0d612cb7565b5b80604052505050565b6000612d21612bb6565b9050612d2d8282612ce6565b919050565b6000819050919050565b612d4581612d32565b8114612d5057600080fd5b50565b600081359050612d6281612d3c565b92915050565b6000819050919050565b612d7b81612d68565b8114612d8657600080fd5b50565b600081359050612d9881612d72565b92915050565b600063ffffffff82169050919050565b612db781612d9e565b8114612dc257600080fd5b50565b600081359050612dd481612dae565b92915050565b600060a08284031215612df057612def612ca1565b5b612dfa60a0612d17565b90506000612e0a84828501612d53565b6000830152506020612e1e84828501612d89565b6020830152506040612e3284828501612d89565b6040830152506060612e4684828501612dc5565b6060830152506080612e5a84828501612dc5565b60808301525092915050565b600080fd5b600060808284031215612e8157612e80612e66565b5b81905092915050565b60008060c08385031215612ea157612ea0612bc0565b5b6000612eaf85828601612dda565b92505060a083013567ffffffffffffffff811115612ed057612ecf612bc5565b5b612edc85828601612e6b565b9150509250929050565b60008115159050919050565b612efb81612ee6565b82525050565b6000602082019050612f166000830184612ef2565b92915050565b60008060408385031215612f3357612f32612bc0565b5b6000612f4185828601612c13565b925050602083013567ffffffffffffffff811115612f6257612f61612bc5565b5b612f6e85828601612e6b565b9150509250929050565b600060208284031215612f8e57612f8d612bc0565b5b6000612f9c84828501612d89565b91505092915050565b600081519050919050565b600082825260208201905092915050565b6000819050602082019050919050565b612fda81612bea565b82525050565b6000612fec8383612fd1565b60208301905092915050565b6000602082019050919050565b600061301082612fa5565b61301a8185612fb0565b935061302583612fc1565b8060005b8381101561305657815161303d8882612fe0565b975061304883612ff8565b925050600181019050613029565b5085935050505092915050565b6000602082019050818103600083015261307d8184613005565b905092915050565b600080600080600060a086880312156130a1576130a0612bc0565b5b60006130af88828901612d89565b95505060206130c088828901612d89565b94505060406130d188828901612c13565b93505060606130e288828901612d89565b92505060806130f388828901612d89565b9150509295509295909350565b61310981612d32565b82525050565b60006020820190506131246000830184613100565b92915050565b6000806040838503121561314157613140612bc0565b5b600061314f85828601612c13565b925050602061316085828601612c13565b9150509250929050565b6000602082840312156131805761317f612bc0565b5b600082013567ffffffffffffffff81111561319e5761319d612bc5565b5b6131aa84828501612e6b565b91505092915050565b6000806000606084860312156131cc576131cb612bc0565b5b60006131da86828701612d89565b93505060206131eb86828701612d89565b925050604084013567ffffffffffffffff81111561320c5761320b612bc5565b5b61321886828701612e6b565b9150509250925092565b600081519050919050565b600082825260208201905092915050565b6000819050602082019050919050565b61325781612d68565b82525050565b6000613269838361324e565b60208301905092915050565b6000602082019050919050565b600061328d82613222565b613297818561322d565b93506132a28361323e565b8060005b838110156132d35781516132ba888261325d565b97506132c583613275565b9250506001810190506132a6565b5085935050505092915050565b600060408201905081810360008301526132fa8185613282565b9050818103602083015261330e8184613282565b90509392505050565b600060208201905081810360008301526133318184613282565b905092915050565b60008060006060848603121561335257613351612bc0565b5b600061336086828701612d89565b935050602061337186828701612d89565b925050604061338286828701612d89565b9150509250925092565b6000602082840312156133a2576133a1612bc0565b5b60006133b084828501612c13565b91505092915050565b6133c281612d32565b82525050565b6133d181612d9e565b82525050565b60a0820160008201516133ed60008501826133b9565b506020820151613400602085018261324e565b506040820151613413604085018261324e565b50606082015161342660608501826133c8565b50608082015161343960808501826133c8565b50505050565b600060a08201905061345460008301846133d7565b92915050565b600081519050919050565b600082825260208201905092915050565b6000819050602082019050919050565b60a08201600082015161349c60008501826133b9565b5060208201516134af602085018261324e565b5060408201516134c2604085018261324e565b5060608201516134d560608501826133c8565b5060808201516134e860808501826133c8565b50505050565b60006134fa8383613486565b60a08301905092915050565b6000602082019050919050565b600061351e8261345a565b6135288185613465565b935061353383613476565b8060005b8381101561356457815161354b88826134ee565b975061355683613506565b925050600181019050613537565b5085935050505092915050565b6000602082019050818103600083015261358b8184613513565b905092915050565b7f4e487b7100000000000000000000000000000000000000000000000000000000600052603260045260246000fd5b600080fd5b600080fd5b600080fd5b600080833560016020038436030381126135ee576135ed6135c2565b5b80840192508235915067ffffffffffffffff8211156136105761360f6135c7565b5b60208301925060018202360383131561362c5761362b6135cc565b5b509250929050565b61363d81612d68565b82525050565b600082825260208201905092915050565b82818337600083830152505050565b600061366f8385613643565b935061367c838584613654565b61368583612ca6565b840190509392505050565b60006080820190506136a56000830188613634565b81810360208301526136b8818688613663565b90506136c76040830185613634565b6136d46060830184613634565b9695505050505050565b6136e781612ee6565b81146136f257600080fd5b50565b600081519050613704816136de565b92915050565b6000602082840312156137205761371f612bc0565b5b600061372e848285016136f5565b91505092915050565b7f4e487b7100000000000000000000000000000000000000000000000000000000600052601160045260246000fd5b600061377182612d9e565b915061377c83612d9e565b9250828201905063ffffffff81111561379857613797613737565b5b92915050565b60006137a982612d32565b91506137b483612d32565b92508282019050808211156137cc576137cb613737565b5b92915050565b6000819050919050565b600067ffffffffffffffff82169050919050565b6000819050919050565b600061381561381061380b846137d2565b6137f0565b6137dc565b9050919050565b613825816137fa565b82525050565b6000602082019050613840600083018461381c565b9291505056fea2646970667358221220e5e0ab883f797a3b00ca2fefcc80c31aea1ef77bed4aec11e1573eb6f18c173264736f6c634300081c0033",
  "linkReferences": {},
  "deployedLinkReferences": {}
}