{
  "_format": "hh-sol-artifact-1",
  "contractName": "CarmelRegistry",
  "sourceName": "contracts/CarmelRegistry.sol",
  "abi": [
    {
      "inputs": [],
      "stateMutability": "nonpayable",
      "type": "constructor"
    },
    {
      "inputs": [],
      "name": "CarmelErrorAccountAlreadyExists",
      "type": "error"
    },
    {
      "inputs": [],
      "name": "CarmelErrorAccountDoesNotExist",
      "type": "error"
    },
    {
      "inputs": [],
      "name": "CarmelErrorAccountInvalidKeyId",
      "type": "error"
    },
    {
      "inputs": [],
      "name": "CarmelErrorAssetMintingInsufficientBalance",
      "type": "error"
    },
    {
      "inputs": [],
      "name": "CarmelErrorAssetMintingInvalidPrice",
      "type": "error"
    },
    {
      "inputs": [],
      "name": "CarmelErrorAssetMintingInvalidQuantity",
      "type": "error"
    },
    {
      "inputs": [],
      "name": "CarmelErrorAssetMintingMaxSupplyReached",
      "type": "error"
    },
    {
      "inputs": [],
      "name": "CarmelErrorAssetMintingUnauthorized",
      "type": "error"
    },
    {
      "inputs": [],
      "name": "CarmelErrorAssetNotMinted",
      "type": "error"
    },
    {
      "inputs": [],
      "name": "CarmelErrorCannotWithdrawInsufficientFunds",
      "type": "error"
    },
    {
      "inputs": [],
      "name": "CarmelErrorCannotWithdrawZeroAmount",
      "type": "error"
    },
    {
      "inputs": [],
      "name": "CarmelErrorPermissionsAdminLevelRequired",
      "type": "error"
    },
    {
      "inputs": [],
      "name": "CarmelErrorPermissionsSentinelLevelRequired",
      "type": "error"
    },
    {
      "inputs": [],
      "name": "CarmelErrorUnauthorizedAccount",
      "type": "error"
    },
    {
      "inputs": [],
      "name": "InvalidInitialization",
      "type": "error"
    },
    {
      "inputs": [],
      "name": "NotInitializing",
      "type": "error"
    },
    {
      "anonymous": false,
      "inputs": [
        {
          "indexed": false,
          "internalType": "uint64",
          "name": "version",
          "type": "uint64"
        }
      ],
      "name": "Initialized",
      "type": "event"
    },
    {
      "inputs": [
        {
          "internalType": "address",
          "name": "addr",
          "type": "address"
        },
        {
          "components": [
            {
              "internalType": "uint256",
              "name": "keyId",
              "type": "uint256"
            },
            {
              "internalType": "bytes32",
              "name": "username",
              "type": "bytes32"
            },
            {
              "internalType": "bytes32",
              "name": "message",
              "type": "bytes32"
            },
            {
              "internalType": "bytes",
              "name": "signature",
              "type": "bytes"
            }
          ],
          "internalType": "struct CarmelBase.CarmelFingerprint",
          "name": "fingerprint",
          "type": "tuple"
        }
      ],
      "name": "accountAddAddress",
      "outputs": [],
      "stateMutability": "nonpayable",
      "type": "function"
    },
    {
      "inputs": [
        {
          "internalType": "bytes32",
          "name": "x",
          "type": "bytes32"
        },
        {
          "internalType": "bytes32",
          "name": "y",
          "type": "bytes32"
        },
        {
          "components": [
            {
              "internalType": "uint256",
              "name": "keyId",
              "type": "uint256"
            },
            {
              "internalType": "bytes32",
              "name": "username",
              "type": "bytes32"
            },
            {
              "internalType": "bytes32",
              "name": "message",
              "type": "bytes32"
            },
            {
              "internalType": "bytes",
              "name": "signature",
              "type": "bytes"
            }
          ],
          "internalType": "struct CarmelBase.CarmelFingerprint",
          "name": "fingerprint",
          "type": "tuple"
        }
      ],
      "name": "accountAddKey",
      "outputs": [],
      "stateMutability": "nonpayable",
      "type": "function"
    },
    {
      "inputs": [
        {
          "components": [
            {
              "internalType": "uint256",
              "name": "keyId",
              "type": "uint256"
            },
            {
              "internalType": "bytes32",
              "name": "username",
              "type": "bytes32"
            },
            {
              "internalType": "bytes32",
              "name": "message",
              "type": "bytes32"
            },
            {
              "internalType": "bytes",
              "name": "signature",
              "type": "bytes"
            }
          ],
          "internalType": "struct CarmelBase.CarmelFingerprint",
          "name": "fingerprint",
          "type": "tuple"
        }
      ],
      "name": "accountGetKeys",
      "outputs": [
        {
          "internalType": "bytes32[]",
          "name": "",
          "type": "bytes32[]"
        },
        {
          "internalType": "bytes32[]",
          "name": "",
          "type": "bytes32[]"
        }
      ],
      "stateMutability": "view",
      "type": "function"
    },
    {
      "inputs": [
        {
          "internalType": "bytes32",
          "name": "m0",
          "type": "bytes32"
        },
        {
          "internalType": "bytes32",
          "name": "m1",
          "type": "bytes32"
        },
        {
          "components": [
            {
              "internalType": "uint256",
              "name": "keyId",
              "type": "uint256"
            },
            {
              "internalType": "bytes32",
              "name": "username",
              "type": "bytes32"
            },
            {
              "internalType": "bytes32",
              "name": "message",
              "type": "bytes32"
            },
            {
              "internalType": "bytes",
              "name": "signature",
              "type": "bytes"
            }
          ],
          "internalType": "struct CarmelBase.CarmelFingerprint",
          "name": "fingerprint",
          "type": "tuple"
        }
      ],
      "name": "accountUpdateHash",
      "outputs": [],
      "stateMutability": "nonpayable",
      "type": "function"
    },
    {
      "inputs": [
        {
          "internalType": "bytes32",
          "name": "username",
          "type": "bytes32"
        }
      ],
      "name": "getAccount",
      "outputs": [
        {
          "components": [
            {
              "internalType": "uint256",
              "name": "id",
              "type": "uint256"
            },
            {
              "internalType": "bytes32",
              "name": "username",
              "type": "bytes32"
            },
            {
              "internalType": "bytes32",
              "name": "group",
              "type": "bytes32"
            },
            {
              "internalType": "uint32",
              "name": "total_keys",
              "type": "uint32"
            },
            {
              "internalType": "uint32",
              "name": "total_addresses",
              "type": "uint32"
            }
          ],
          "internalType": "struct CarmelBase.CarmelAccount",
          "name": "",
          "type": "tuple"
        }
      ],
      "stateMutability": "view",
      "type": "function"
    },
    {
      "inputs": [
        {
          "internalType": "bytes32",
          "name": "username",
          "type": "bytes32"
        }
      ],
      "name": "getAccountHashes",
      "outputs": [
        {
          "internalType": "bytes32[]",
          "name": "",
          "type": "bytes32[]"
        }
      ],
      "stateMutability": "view",
      "type": "function"
    },
    {
      "inputs": [
        {
          "internalType": "bytes32",
          "name": "grp",
          "type": "bytes32"
        }
      ],
      "name": "getAccounts",
      "outputs": [
        {
          "components": [
            {
              "internalType": "uint256",
              "name": "id",
              "type": "uint256"
            },
            {
              "internalType": "bytes32",
              "name": "username",
              "type": "bytes32"
            },
            {
              "internalType": "bytes32",
              "name": "group",
              "type": "bytes32"
            },
            {
              "internalType": "uint32",
              "name": "total_keys",
              "type": "uint32"
            },
            {
              "internalType": "uint32",
              "name": "total_addresses",
              "type": "uint32"
            }
          ],
          "internalType": "struct CarmelBase.CarmelAccount[]",
          "name": "",
          "type": "tuple[]"
        }
      ],
      "stateMutability": "view",
      "type": "function"
    },
    {
      "inputs": [
        {
          "internalType": "bytes32",
          "name": "username",
          "type": "bytes32"
        }
      ],
      "name": "getAddresses",
      "outputs": [
        {
          "internalType": "address[]",
          "name": "",
          "type": "address[]"
        }
      ],
      "stateMutability": "view",
      "type": "function"
    },
    {
      "inputs": [
        {
          "internalType": "address",
          "name": "addr",
          "type": "address"
        }
      ],
      "name": "getPerms",
      "outputs": [
        {
          "internalType": "uint256",
          "name": "",
          "type": "uint256"
        }
      ],
      "stateMutability": "view",
      "type": "function"
    },
    {
      "inputs": [],
      "name": "getTotalAccounts",
      "outputs": [
        {
          "internalType": "uint256",
          "name": "",
          "type": "uint256"
        }
      ],
      "stateMutability": "view",
      "type": "function"
    },
    {
      "inputs": [
        {
          "internalType": "address",
          "name": "sender",
          "type": "address"
        },
        {
          "internalType": "address",
          "name": "ver",
          "type": "address"
        }
      ],
      "name": "initialize",
      "outputs": [],
      "stateMutability": "nonpayable",
      "type": "function"
    },
    {
      "inputs": [
        {
          "internalType": "bytes32",
          "name": "username",
          "type": "bytes32"
        },
        {
          "internalType": "bytes32",
          "name": "grp",
          "type": "bytes32"
        },
        {
          "internalType": "address",
          "name": "addr",
          "type": "address"
        },
        {
          "internalType": "bytes32",
          "name": "x",
          "type": "bytes32"
        },
        {
          "internalType": "bytes32",
          "name": "y",
          "type": "bytes32"
        }
      ],
      "name": "register",
      "outputs": [
        {
          "internalType": "uint256",
          "name": "",
          "type": "uint256"
        }
      ],
      "stateMutability": "nonpayable",
      "type": "function"
    },
    {
      "inputs": [
        {
          "internalType": "address",
          "name": "addr",
          "type": "address"
        },
        {
          "internalType": "uint8",
          "name": "level",
          "type": "uint8"
        }
      ],
      "name": "updatePerms",
      "outputs": [],
      "stateMutability": "nonpayable",
      "type": "function"
    },
    {
      "inputs": [
        {
          "internalType": "bytes32",
          "name": "username",
          "type": "bytes32"
        },
        {
          "internalType": "bytes32",
          "name": "m0",
          "type": "bytes32"
        },
        {
          "internalType": "bytes32",
          "name": "m1",
          "type": "bytes32"
        }
      ],
      "name": "updateSystemHash",
      "outputs": [],
      "stateMutability": "nonpayable",
      "type": "function"
    },
    {
      "inputs": [
        {
          "components": [
            {
              "internalType": "uint256",
              "name": "keyId",
              "type": "uint256"
            },
            {
              "internalType": "bytes32",
              "name": "username",
              "type": "bytes32"
            },
            {
              "internalType": "bytes32",
              "name": "message",
              "type": "bytes32"
            },
            {
              "internalType": "bytes",
              "name": "signature",
              "type": "bytes"
            }
          ],
          "internalType": "struct CarmelBase.CarmelFingerprint",
          "name": "fingerprint",
          "type": "tuple"
        }
      ],
      "name": "verify",
      "outputs": [
        {
          "internalType": "bool",
          "name": "",
          "type": "bool"
        }
      ],
      "stateMutability": "view",
      "type": "function"
    },
    {
      "inputs": [
        {
          "components": [
            {
              "internalType": "uint256",
              "name": "id",
              "type": "uint256"
            },
            {
              "internalType": "bytes32",
              "name": "username",
              "type": "bytes32"
            },
            {
              "internalType": "bytes32",
              "name": "group",
              "type": "bytes32"
            },
            {
              "internalType": "uint32",
              "name": "total_keys",
              "type": "uint32"
            },
            {
              "internalType": "uint32",
              "name": "total_addresses",
              "type": "uint32"
            }
          ],
          "internalType": "struct CarmelBase.CarmelAccount",
          "name": "account",
          "type": "tuple"
        },
        {
          "components": [
            {
              "internalType": "uint256",
              "name": "keyId",
              "type": "uint256"
            },
            {
              "internalType": "bytes32",
              "name": "username",
              "type": "bytes32"
            },
            {
              "internalType": "bytes32",
              "name": "message",
              "type": "bytes32"
            },
            {
              "internalType": "bytes",
              "name": "signature",
              "type": "bytes"
            }
          ],
          "internalType": "struct CarmelBase.CarmelFingerprint",
          "name": "fingerprint",
          "type": "tuple"
        }
      ],
      "name": "verifyFingerprint",
      "outputs": [
        {
          "internalType": "bool",
          "name": "",
          "type": "bool"
        }
      ],
      "stateMutability": "view",
      "type": "function"
    },
    {
      "inputs": [],
      "name": "version",
      "outputs": [
        {
          "internalType": "uint256",
          "name": "",
          "type": "uint256"
        }
      ],
      "stateMutability": "pure",
      "type": "function"
    }
  ],
  "bytecode": "0x608060405234801561001057600080fd5b5061002a664582107166bce960c01b61007160201b60201c565b6100446748a05fb5b052997460c01b61007160201b60201c565b61005e676c5a16d5bb6d5d5d60c01b61007160201b60201c565b61006c61007460201b60201c565b6101de565b50565b600061008461017860201b60201c565b90508060000160089054906101000a900460ff16156100cf576040517ff92ee8a900000000000000000000000000000000000000000000000000000000815260040160405180910390fd5b67ffffffffffffffff80168160000160009054906101000a900467ffffffffffffffff1667ffffffffffffffff16146101755767ffffffffffffffff8160000160006101000a81548167ffffffffffffffff021916908367ffffffffffffffff1602179055507fc7f505b2f371ae2175ee4913f4499e1f2633a7b5936321eed1cdaeb6115181d267ffffffffffffffff60405161016c91906101c3565b60405180910390a15b50565b60007ff0c57e16840df040f15088dc2f81fe391c3923bec73e23a9662efc9c229c6a00905090565b600067ffffffffffffffff82169050919050565b6101bd816101a0565b82525050565b60006020820190506101d860008301846101b4565b92915050565b613880806101ed6000396000f3fe608060405234801561001057600080fd5b506004361061010b5760003560e01c8063734f231f116100a2578063ac7eba6c11610071578063ac7eba6c146102db578063d1de50111461030b578063d7c89f5b1461033b578063da6841aa1461036b578063f378c9df146103895761010b565b8063734f231f146102425780638ed0b01b1461025e5780639a1d554e1461028f5780639d5c7e9f146102bf5761010b565b80634470da90116100de5780634470da90146101a8578063485cc955146101d85780634a5af4e0146101f457806354fd4d50146102245761010b565b806316aac50e1461011057806316c1c26d1461012c5780633e244a851461015c5780633fdada7a14610178575b600080fd5b61012a60048036038101906101259190612c65565b6103a5565b005b61014660048036038101906101419190612e8e565b610554565b6040516101539190612f05565b60405180910390f35b61017660048036038101906101719190612f20565b610851565b005b610192600480360381019061018d9190612f7c565b610bdb565b60405161019f9190613067565b60405180910390f35b6101c260048036038101906101bd9190613089565b610dfd565b6040516101cf9190613113565b60405180910390f35b6101f260048036038101906101ed919061312e565b6115ab565b005b61020e6004803603810190610209919061316e565b611884565b60405161021b9190612f05565b60405180910390f35b61022c61198c565b6040516102399190613113565b60405180910390f35b61025c600480360381019061025791906131b7565b6119d1565b005b6102786004803603810190610273919061316e565b611d88565b6040516102869291906132e4565b60405180910390f35b6102a960048036038101906102a49190612f7c565b611feb565b6040516102b6919061331b565b60405180910390f35b6102d960048036038101906102d4919061333d565b612092565b005b6102f560048036038101906102f09190613390565b6123ae565b6040516103029190613113565b60405180910390f35b61032560048036038101906103209190612f7c565b612442565b6040516103329190613443565b60405180910390f35b61035560048036038101906103509190612f7c565b612543565b6040516103629190613575565b60405180910390f35b6103736127dd565b6040516103809190613113565b60405180910390f35b6103a3600480360381019061039e91906131b7565b612823565b005b6103b9670596e7cdb98ebd2960c01b612b4b565b6103cd67156fd217a97c573c60c01b612b4b565b6103e1675a01afebde85fa4b60c01b612b4b565b6103f567756e440ddfb7ef2e60c01b612b4b565b606360ff166000803373ffffffffffffffffffffffffffffffffffffffff1673ffffffffffffffffffffffffffffffffffffffff16815260200190815260200160002060009054906101000a900460ff1660ff161015610495576104636760ddb27a8cdc5ace60c01b612b4b565b6040517f0ed39a2f00000000000000000000000000000000000000000000000000000000815260040160405180910390fd5b6104a96707affad531e9228060c01b612b4b565b6104bd6761bf5808ed0771b260c01b612b4b565b6104d1677e6e2e0940956b8b60c01b612b4b565b6104e5672bcf1fca3d4fa98460c01b612b4b565b6104f96761f6ad32c08c663060c01b612b4b565b806000808473ffffffffffffffffffffffffffffffffffffffff1673ffffffffffffffffffffffffffffffffffffffff16815260200190815260200160002060006101000a81548160ff021916908360ff1602179055505050565b600061056a67db403c649acd3a8b60c01b612b4e565b61057e676202fdd82776abb360c01b612b4e565b6105926782ec471c4120db7460c01b612b4e565b6000801b8360200151036105e6576105b46756d321c83347553c60c01b612b4e565b6040517f4a6bc07d00000000000000000000000000000000000000000000000000000000815260040160405180910390fd5b6105fa672349a2b67ab9c48660c01b612b4e565b61060e67163d3e5c76b11f1060c01b612b4e565b61062267f0545c46fef308b560c01b612b4e565b81600001356004600084602001358152602001908152602001600020805490501161068d5761065b67ae1ddc5640b1291d60c01b612b4e565b6040517fa37a76ff00000000000000000000000000000000000000000000000000000000815260040160405180910390fd5b6106a167b6cc8b73de1fe83060c01b612b4e565b6106b56746e72ea4ceb2137760c01b612b4e565b6106c96753fc8d1ec45aae1760c01b612b4e565b600060046000846020013581526020019081526020016000208360000135815481106106f8576106f7613597565b5b906000526020600020015490506107196734a0ef9d309f534560c01b612b4e565b61072d67b0fefaf53f54671960c01b612b4e565b6000600560008560200135815260200190815260200160002084600001358154811061075c5761075b613597565b5b9060005260206000200154905061077d67bbc169c85219e06060c01b612b4e565b610791674068acc1f35dbf8960c01b612b4e565b600160009054906101000a900473ffffffffffffffffffffffffffffffffffffffff1673ffffffffffffffffffffffffffffffffffffffff1663a64f680b85604001358680606001906107e491906135d5565b86866040518663ffffffff1660e01b8152600401610806959493929190613694565b602060405180830381865afa158015610823573d6000803e3d6000fd5b505050506040513d601f19601f82011682018060405250810190610847919061370e565b9250505092915050565b610865678bdd05a223f6b61060c01b612b4e565b61087967cf1c97be2c5951ad60c01b612b4b565b61088d671e032b5126d6ca9a60c01b612b4b565b6108a167692c6f0f244a459f60c01b612b4b565b603260ff166000803373ffffffffffffffffffffffffffffffffffffffff1673ffffffffffffffffffffffffffffffffffffffff16815260200190815260200160002060009054906101000a900460ff1660ff1610156109415761090f675b1df8bf68bd66f360c01b612b4b565b6040517f13e433c900000000000000000000000000000000000000000000000000000000815260040160405180910390fd5b61095567d2cdbf7239e4993660c01b612b4b565b61096967153364b071e8675260c01b612b4b565b61097d670a1301431316a5e960c01b612b4e565b610991678c4f2088699d994860c01b612b4e565b6109a5671a88af1b87f4f45560c01b612b4e565b6109b967575991b6b4d5754e60c01b612b4e565b600060076000836020013581526020019081526020016000206040518060a00160405290816000820154815260200160018201548152602001600282015481526020016003820160009054906101000a900463ffffffff1663ffffffff1663ffffffff1681526020016003820160049054906101000a900463ffffffff1663ffffffff1663ffffffff16815250509050610a5d67dd47b6d3641deaa560c01b612b4e565b610a7167c932a1bbd607690f60c01b612b4e565b610a7b8183610554565b610ac557610a9367c0ab8e90e71e3dde60c01b612b4e565b6040517f9fd8ceca00000000000000000000000000000000000000000000000000000000815260040160405180910390fd5b610ad96728a32722eee87aad60c01b612b4e565b610aed6779cf75625357a2c460c01b612b4e565b610b0167e257dc74c249488c60c01b612b4e565b6009600083602001358152602001908152602001600020839080600181540180825580915050600190039060005260206000200160009091909190916101000a81548173ffffffffffffffffffffffffffffffffffffffff021916908373ffffffffffffffffffffffffffffffffffffffff160217905550610b8d672ccd9003d9d8cc1a60c01b612b4e565b60018160800151610b9e919061376a565b600760008460200135815260200190815260200160002060030160046101000a81548163ffffffff021916908363ffffffff160217905550505050565b6060610bf167be2ca90854acb64460c01b612b4e565b610c05672c08feb542d3e86f60c01b612b4e565b610c1967b865cdf312e7370660c01b612b4e565b6000600760008481526020019081526020016000206040518060a00160405290816000820154815260200160018201548152602001600282015481526020016003820160009054906101000a900463ffffffff1663ffffffff1663ffffffff1681526020016003820160049054906101000a900463ffffffff1663ffffffff1663ffffffff16815250509050610cb967ffa8a1c67e4dc67560c01b612b4e565b610ccd67c0dd239ad905450760c01b612b4e565b6000801b816020015103610d2157610cef673ba525b64bdd6ca760c01b612b4e565b6040517f4a6bc07d00000000000000000000000000000000000000000000000000000000815260040160405180910390fd5b610d3567a1cffb9c0c9f033560c01b612b4e565b610d49673ffa077ce316547160c01b612b4e565b610d5d676298da6216a9dd4360c01b612b4e565b60096000848152602001908152602001600020805480602002602001604051908101604052809291908181526020018280548015610df057602002820191906000526020600020905b8160009054906101000a900473ffffffffffffffffffffffffffffffffffffffff1673ffffffffffffffffffffffffffffffffffffffff1681526020019060010190808311610da6575b5050505050915050919050565b6000610e1367a84211e555fa72c460c01b612b4e565b610e2767cf1c97be2c5951ad60c01b612b4b565b610e3b671e032b5126d6ca9a60c01b612b4b565b610e4f67692c6f0f244a459f60c01b612b4b565b603260ff166000803373ffffffffffffffffffffffffffffffffffffffff1673ffffffffffffffffffffffffffffffffffffffff16815260200190815260200160002060009054906101000a900460ff1660ff161015610eef57610ebd675b1df8bf68bd66f360c01b612b4b565b6040517f13e433c900000000000000000000000000000000000000000000000000000000815260040160405180910390fd5b610f0367d2cdbf7239e4993660c01b612b4b565b610f1767153364b071e8675260c01b612b4b565b610f2b6749a2a2fdcc15e52060c01b612b4e565b610f3f674e313c8c3c1df27860c01b612b4e565b610f5367f372fe19b259339360c01b612b4e565b610f676711a6d4b46fb3431860c01b612b4e565b6000600760008881526020019081526020016000206040518060a00160405290816000820154815260200160018201548152602001600282015481526020016003820160009054906101000a900463ffffffff1663ffffffff1663ffffffff1681526020016003820160049054906101000a900463ffffffff1663ffffffff1663ffffffff1681525050905061100767063801c9fc3c8ba260c01b612b4e565b61101b67b5b49dfe99f1a1b060c01b612b4e565b6000801b816020015111156110705761103e67626437e2500bcfa060c01b612b4e565b6040517f0f148d0700000000000000000000000000000000000000000000000000000000815260040160405180910390fd5b61108467959ca2f5737922fd60c01b612b4e565b61109867d7e0e86c4bde177b60c01b612b4e565b6110ac6765e5154875a591ca60c01b612b4e565b600060025490506110c767c7f995a72a37401360c01b612b4e565b60016002546110d691906137a2565b6002819055506110f067568564ed66ce96d760c01b612b4e565b61110467d12479f3d4d8009c60c01b612b4e565b6004600089815260200190815260200160002085908060018154018082558091505060019003906000526020600020016000909190919091505561115267b2b1f2a6928d76e860c01b612b4e565b61116667ba094e4a18bc6adf60c01b612b4e565b600560008981526020019081526020016000208490806001815401808255809150506001900390600052602060002001600090919091909150556111b467da65a05ab323e55460c01b612b4e565b6001600760008a815260200190815260200160002060030160006101000a81548163ffffffff021916908363ffffffff1602179055506111fe67e809e172e9460ffd60c01b612b4e565b61121267eae058df178939e660c01b612b4e565b600660008981526020019081526020016000206000801b908060018154018082558091505060019003906000526020600020016000909190919091505561126367b873a056501dbe1760c01b612b4e565b611277675f6fd5801e2e2c2160c01b612b4e565b600660008981526020019081526020016000206000801b90806001815401808255809150506001900390600052602060002001600090919091909150556112c86798a86a665e04992560c01b612b4e565b6112dc671c330c9888bc042160c01b612b4e565b600660008981526020019081526020016000206000801b908060018154018082558091505060019003906000526020600020016000909190919091505561132d678962e45dae02a9ed60c01b612b4e565b611341674d6b0b052853fe5f60c01b612b4e565b600660008981526020019081526020016000206000801b908060018154018082558091505060019003906000526020600020016000909190919091505561139267c2b9ef7011d6bbbc60c01b612b4e565b6113a667fbccd8f0bcbde00c60c01b612b4e565b60006040518060a001604052808381526020018a8152602001898152602001600063ffffffff168152602001600163ffffffff1681525090506113f3670978c9465da0a35460c01b612b4e565b80600760008b815260200190815260200160002060008201518160000155602082015181600101556040820151816002015560608201518160030160006101000a81548163ffffffff021916908363ffffffff16021790555060808201518160030160046101000a81548163ffffffff021916908363ffffffff16021790555090505061148a6766f421ece7dd91cd60c01b612b4e565b61149e67a292bb1676c8b10f60c01b612b4e565b600960008a8152602001908152602001600020879080600181540180825580915050600190039060005260206000200160009091909190916101000a81548173ffffffffffffffffffffffffffffffffffffffff021916908373ffffffffffffffffffffffffffffffffffffffff16021790555061152667ac9b19cd6ffe8a7660c01b612b4e565b61153a670386365afdd2407460c01b612b4e565b6008600089815260200190815260200160002089908060018154018082558091505060019003906000526020600020016000909190919091505561158867ef9cb09c0d898f8760c01b612b4e565b61159c6797797f170ff4537c60c01b612b4e565b81935050505095945050505050565b6115bf67af9c35dfac211de460c01b612b4e565b60006115c9612b51565b905060008160000160089054906101000a900460ff1615905060008260000160009054906101000a900467ffffffffffffffff1690506000808267ffffffffffffffff161480156116175750825b9050600060018367ffffffffffffffff1614801561164c575060003073ffffffffffffffffffffffffffffffffffffffff163b145b90508115801561165a575080155b15611691576040517ff92ee8a900000000000000000000000000000000000000000000000000000000815260040160405180910390fd5b60018560000160006101000a81548167ffffffffffffffff021916908367ffffffffffffffff16021790555083156116e15760018560000160086101000a81548160ff0219169083151502179055505b6116f567505b62f654c72f7c60c01b612b4e565b6117096757eb1b9edcebd80d60c01b612b4e565b61171d671fa5144fb726190260c01b612b4e565b60636000808973ffffffffffffffffffffffffffffffffffffffff1673ffffffffffffffffffffffffffffffffffffffff16815260200190815260200160002060006101000a81548160ff021916908360ff16021790555061178967840335d5ff0a95dc60c01b612b4e565b86600360006101000a81548173ffffffffffffffffffffffffffffffffffffffff021916908373ffffffffffffffffffffffffffffffffffffffff1602179055506117de67e42cd75cbfb5491b60c01b612b4e565b85600160006101000a81548173ffffffffffffffffffffffffffffffffffffffff021916908373ffffffffffffffffffffffffffffffffffffffff160217905550831561187b5760008560000160086101000a81548160ff0219169083151502179055507fc7f505b2f371ae2175ee4913f4499e1f2633a7b5936321eed1cdaeb6115181d26001604051611872919061382f565b60405180910390a15b50505050505050565b600061189a67d25f3f3c8571cceb60c01b612b4e565b6118ae67d5e909be64cc60b260c01b612b4e565b6118c26766778a839c54e2de60c01b612b4e565b600060076000846020013581526020019081526020016000206040518060a00160405290816000820154815260200160018201548152602001600282015481526020016003820160009054906101000a900463ffffffff1663ffffffff1663ffffffff1681526020016003820160049054906101000a900463ffffffff1663ffffffff1663ffffffff1681525050905061196667728662c7da57c34b60c01b612b4e565b61197a6759670c20c324a6a660c01b612b4e565b6119848184610554565b915050919050565b60006119a26753bdca58e0826ab760c01b612b4e565b6119b667ae82d0c91290319060c01b612b4e565b6119ca67d897c47ad9743bd660c01b612b4e565b6001905090565b6119e5677498647022c8817260c01b612b4e565b6119f967cf1c97be2c5951ad60c01b612b4b565b611a0d671e032b5126d6ca9a60c01b612b4b565b611a2167692c6f0f244a459f60c01b612b4b565b603260ff166000803373ffffffffffffffffffffffffffffffffffffffff1673ffffffffffffffffffffffffffffffffffffffff16815260200190815260200160002060009054906101000a900460ff1660ff161015611ac157611a8f675b1df8bf68bd66f360c01b612b4b565b6040517f13e433c900000000000000000000000000000000000000000000000000000000815260040160405180910390fd5b611ad567d2cdbf7239e4993660c01b612b4b565b611ae967153364b071e8675260c01b612b4b565b611afd67aa3f46c0a21617ed60c01b612b4e565b611b116735888f943ec3aaa260c01b612b4e565b611b25677fba2582428654fc60c01b612b4e565b611b39670440964a00f2648160c01b612b4e565b600060076000836020013581526020019081526020016000206040518060a00160405290816000820154815260200160018201548152602001600282015481526020016003820160009054906101000a900463ffffffff1663ffffffff1663ffffffff1681526020016003820160049054906101000a900463ffffffff1663ffffffff1663ffffffff16815250509050611bdd67b21e425770a727ab60c01b612b4e565b611bf16755d814639ce33edd60c01b612b4e565b611bfb8183610554565b611c4557611c1367fac13fa948836a5360c01b612b4e565b6040517f9fd8ceca00000000000000000000000000000000000000000000000000000000815260040160405180910390fd5b611c5967e9d9f27c8c4c0d0660c01b612b4e565b611c6d6731ce31f9c97ed41c60c01b612b4e565b611c816758ec24ac7c69a92c60c01b612b4e565b6004600083602001358152602001908152602001600020849080600181540180825580915050600190039060005260206000200160009091909190915055611cd367b58bb5f564dbaa2360c01b612b4e565b611ce7671c9361eac11a9a9660c01b612b4e565b6005600083602001358152602001908152602001600020839080600181540180825580915050600190039060005260206000200160009091909190915055611d3967dddffd966496efce60c01b612b4e565b60018160600151611d4a919061376a565b600760008460200135815260200190815260200160002060030160006101000a81548163ffffffff021916908363ffffffff16021790555050505050565b606080611d9f6719c14c20ae89500360c01b612b4e565b611db36714ccbe5c8daf980a60c01b612b4e565b611dc76756c526b8d76b127c60c01b612b4e565b600060076000856020013581526020019081526020016000206040518060a00160405290816000820154815260200160018201548152602001600282015481526020016003820160009054906101000a900463ffffffff1663ffffffff1663ffffffff1681526020016003820160049054906101000a900463ffffffff1663ffffffff1663ffffffff16815250509050611e6b6740b1a582ddda9a9560c01b612b4e565b611e7f6796c294ca233fc8e360c01b612b4e565b611e898185610554565b611ed357611ea16748ddf53cdfc1ec1360c01b612b4e565b6040517f9fd8ceca00000000000000000000000000000000000000000000000000000000815260040160405180910390fd5b611ee7671a97afecb31d1f7060c01b612b4e565b611efb6757ff96b6695fc8bf60c01b612b4e565b611f0f6771e60a028200a92660c01b612b4e565b6004600085602001358152602001908152602001600020600560008660200135815260200190815260200160002081805480602002602001604051908101604052809291908181526020018280548015611f8857602002820191906000526020600020905b815481526020019060010190808311611f74575b5050505050915080805480602002602001604051908101604052809291908181526020018280548015611fda57602002820191906000526020600020905b815481526020019060010190808311611fc6575b505050505090509250925050915091565b606061200167966abba6b7901cfb60c01b612b4e565b61201567527c052610bb89fa60c01b612b4e565b61202967da1ac279a7f175cd60c01b612b4e565b6006600083815260200190815260200160002080548060200260200160405190810160405280929190818152602001828054801561208657602002820191906000526020600020905b815481526020019060010190808311612072575b50505050509050919050565b6120a6677e07b933602d7bff60c01b612b4e565b6120ba67cf1c97be2c5951ad60c01b612b4b565b6120ce671e032b5126d6ca9a60c01b612b4b565b6120e267692c6f0f244a459f60c01b612b4b565b603260ff166000803373ffffffffffffffffffffffffffffffffffffffff1673ffffffffffffffffffffffffffffffffffffffff16815260200190815260200160002060009054906101000a900460ff1660ff16101561218257612150675b1df8bf68bd66f360c01b612b4b565b6040517f13e433c900000000000000000000000000000000000000000000000000000000815260040160405180910390fd5b61219667d2cdbf7239e4993660c01b612b4b565b6121aa67153364b071e8675260c01b612b4b565b6121be670ddbc2d302c6302060c01b612b4e565b6121d267a9aefb3793aeab2260c01b612b4e565b6121e66765809a8eda56e36860c01b612b4e565b6121fa67de5df3ad7d99558760c01b612b4e565b6000600760008581526020019081526020016000206040518060a00160405290816000820154815260200160018201548152602001600282015481526020016003820160009054906101000a900463ffffffff1663ffffffff1663ffffffff1681526020016003820160049054906101000a900463ffffffff1663ffffffff1663ffffffff1681525050905061229a675f20bf953b51788960c01b612b4e565b6122ae675aaa8151d7718f0f60c01b612b4e565b6000801b816020015103612302576122d06774be9157b5c2505e60c01b612b4e565b6040517f4a6bc07d00000000000000000000000000000000000000000000000000000000815260040160405180910390fd5b61231667c5b955b15209598d60c01b612b4e565b61232a67b78c0d5d86b816df60c01b612b4e565b826006600086815260200190815260200160002060008154811061235157612350613597565b5b9060005260206000200181905550612373670316ad58d02212a260c01b612b4e565b816006600086815260200190815260200160002060018154811061239a57612399613597565b5b906000526020600020018190555050505050565b60006123c46712c510e46851adb960c01b612b4e565b6123d867c151eee79e21115360c01b612b4e565b6123ec6792a5a18158b56a2260c01b612b4e565b6000808373ffffffffffffffffffffffffffffffffffffffff1673ffffffffffffffffffffffffffffffffffffffff16815260200190815260200160002060009054906101000a900460ff1660ff169050919050565b61244a612b79565b61245e67978e6e878f06e8ca60c01b612b4e565b6124726760c7002af39fccf460c01b612b4e565b61248667f932cbe0a116c97d60c01b612b4e565b6000600760008481526020019081526020016000206040518060a00160405290816000820154815260200160018201548152602001600282015481526020016003820160009054906101000a900463ffffffff1663ffffffff1663ffffffff1681526020016003820160049054906101000a900463ffffffff1663ffffffff1663ffffffff16815250509050612526674c28e657fb2a13c760c01b612b4e565b61253a67356d55c5e4dbf8b660c01b612b4e565b80915050919050565b606061255967587c2a5c9ddbb00f60c01b612b4e565b61256d67022edbeeee5a951260c01b612b4e565b61258167a69a985b5bb2199360c01b612b4e565b6000600860008481526020019081526020016000208054806020026020016040519081016040528092919081815260200182805480156125e057602002820191906000526020600020905b8154815260200190600101908083116125cc575b505050505090506125fb670a5bc2090ec6497a60c01b612b4e565b61260f6724074cf121125c6160c01b612b4e565b60008151905061262967bb43789738df7a9960c01b612b4e565b61263d67ff5f7052a5cffbfc60c01b612b4e565b60008167ffffffffffffffff81111561265957612658612cbb565b5b60405190808252806020026020018201604052801561269257816020015b61267f612b79565b8152602001906001900390816126775790505b5090506126a967d5676b1f6ed3632260c01b612b4e565b6126bd675e69947a9e15783f60c01b612b4e565b60005b828110156127a9576126dc673c8bd695f9d2ac3d60c01b612b4e565b600760008583815181106126f3576126f2613597565b5b602002602001015181526020019081526020016000206040518060a00160405290816000820154815260200160018201548152602001600282015481526020016003820160009054906101000a900463ffffffff1663ffffffff1663ffffffff1681526020016003820160049054906101000a900463ffffffff1663ffffffff1663ffffffff168152505082828151811061279157612790613597565b5b602002602001018190525080806001019150506126c0565b506127be67329a7792e7d41b5d60c01b612b4e565b6127d267da024291c93ccd1560c01b612b4e565b809350505050919050565b60006127f367eb695a66cc634a6060c01b612b4e565b6128076768983896ee3ff08460c01b612b4e565b61281b675c74ea6c800c84a160c01b612b4e565b600254905090565b6128376768288482ba92571b60c01b612b4e565b61284b67cf1c97be2c5951ad60c01b612b4b565b61285f671e032b5126d6ca9a60c01b612b4b565b61287367692c6f0f244a459f60c01b612b4b565b603260ff166000803373ffffffffffffffffffffffffffffffffffffffff1673ffffffffffffffffffffffffffffffffffffffff16815260200190815260200160002060009054906101000a900460ff1660ff161015612913576128e1675b1df8bf68bd66f360c01b612b4b565b6040517f13e433c900000000000000000000000000000000000000000000000000000000815260040160405180910390fd5b61292767d2cdbf7239e4993660c01b612b4b565b61293b67153364b071e8675260c01b612b4b565b61294f6714d821091b6b5c2860c01b612b4e565b61296367280e5d1923bac89060c01b612b4e565b612977673b58fd9967bcb59260c01b612b4e565b61298b67a6767530355b16a760c01b612b4e565b600060076000836020013581526020019081526020016000206040518060a00160405290816000820154815260200160018201548152602001600282015481526020016003820160009054906101000a900463ffffffff1663ffffffff1663ffffffff1681526020016003820160049054906101000a900463ffffffff1663ffffffff1663ffffffff16815250509050612a2f674ea75e80159eaaff60c01b612b4e565b612a43670e8c2997bf7eb8ce60c01b612b4e565b612a4d8183610554565b612a9757612a65679e80148c4a561c1260c01b612b4e565b6040517f9fd8ceca00000000000000000000000000000000000000000000000000000000815260040160405180910390fd5b612aab672f95e9746c2b973160c01b612b4e565b612abf67afb6c8e7e1b2fc4960c01b612b4e565b836006600084602001358152602001908152602001600020600281548110612aea57612ae9613597565b5b9060005260206000200181905550612b0c67cabe2a8001fd537460c01b612b4e565b826006600084602001358152602001908152602001600020600381548110612b3757612b36613597565b5b906000526020600020018190555050505050565b50565b50565b60007ff0c57e16840df040f15088dc2f81fe391c3923bec73e23a9662efc9c229c6a00905090565b6040518060a00160405280600081526020016000801916815260200160008019168152602001600063ffffffff168152602001600063ffffffff1681525090565b6000604051905090565b600080fd5b600080fd5b600073ffffffffffffffffffffffffffffffffffffffff82169050919050565b6000612bf982612bce565b9050919050565b612c0981612bee565b8114612c1457600080fd5b50565b600081359050612c2681612c00565b92915050565b600060ff82169050919050565b612c4281612c2c565b8114612c4d57600080fd5b50565b600081359050612c5f81612c39565b92915050565b60008060408385031215612c7c57612c7b612bc4565b5b6000612c8a85828601612c17565b9250506020612c9b85828601612c50565b9150509250929050565b600080fd5b6000601f19601f8301169050919050565b7f4e487b7100000000000000000000000000000000000000000000000000000000600052604160045260246000fd5b612cf382612caa565b810181811067ffffffffffffffff82111715612d1257612d11612cbb565b5b80604052505050565b6000612d25612bba565b9050612d318282612cea565b919050565b6000819050919050565b612d4981612d36565b8114612d5457600080fd5b50565b600081359050612d6681612d40565b92915050565b6000819050919050565b612d7f81612d6c565b8114612d8a57600080fd5b50565b600081359050612d9c81612d76565b92915050565b600063ffffffff82169050919050565b612dbb81612da2565b8114612dc657600080fd5b50565b600081359050612dd881612db2565b92915050565b600060a08284031215612df457612df3612ca5565b5b612dfe60a0612d1b565b90506000612e0e84828501612d57565b6000830152506020612e2284828501612d8d565b6020830152506040612e3684828501612d8d565b6040830152506060612e4a84828501612dc9565b6060830152506080612e5e84828501612dc9565b60808301525092915050565b600080fd5b600060808284031215612e8557612e84612e6a565b5b81905092915050565b60008060c08385031215612ea557612ea4612bc4565b5b6000612eb385828601612dde565b92505060a083013567ffffffffffffffff811115612ed457612ed3612bc9565b5b612ee085828601612e6f565b9150509250929050565b60008115159050919050565b612eff81612eea565b82525050565b6000602082019050612f1a6000830184612ef6565b92915050565b60008060408385031215612f3757612f36612bc4565b5b6000612f4585828601612c17565b925050602083013567ffffffffffffffff811115612f6657612f65612bc9565b5b612f7285828601612e6f565b9150509250929050565b600060208284031215612f9257612f91612bc4565b5b6000612fa084828501612d8d565b91505092915050565b600081519050919050565b600082825260208201905092915050565b6000819050602082019050919050565b612fde81612bee565b82525050565b6000612ff08383612fd5565b60208301905092915050565b6000602082019050919050565b600061301482612fa9565b61301e8185612fb4565b935061302983612fc5565b8060005b8381101561305a5781516130418882612fe4565b975061304c83612ffc565b92505060018101905061302d565b5085935050505092915050565b600060208201905081810360008301526130818184613009565b905092915050565b600080600080600060a086880312156130a5576130a4612bc4565b5b60006130b388828901612d8d565b95505060206130c488828901612d8d565b94505060406130d588828901612c17565b93505060606130e688828901612d8d565b92505060806130f788828901612d8d565b9150509295509295909350565b61310d81612d36565b82525050565b60006020820190506131286000830184613104565b92915050565b6000806040838503121561314557613144612bc4565b5b600061315385828601612c17565b925050602061316485828601612c17565b9150509250929050565b60006020828403121561318457613183612bc4565b5b600082013567ffffffffffffffff8111156131a2576131a1612bc9565b5b6131ae84828501612e6f565b91505092915050565b6000806000606084860312156131d0576131cf612bc4565b5b60006131de86828701612d8d565b93505060206131ef86828701612d8d565b925050604084013567ffffffffffffffff8111156132105761320f612bc9565b5b61321c86828701612e6f565b9150509250925092565b600081519050919050565b600082825260208201905092915050565b6000819050602082019050919050565b61325b81612d6c565b82525050565b600061326d8383613252565b60208301905092915050565b6000602082019050919050565b600061329182613226565b61329b8185613231565b93506132a683613242565b8060005b838110156132d75781516132be8882613261565b97506132c983613279565b9250506001810190506132aa565b5085935050505092915050565b600060408201905081810360008301526132fe8185613286565b905081810360208301526133128184613286565b90509392505050565b600060208201905081810360008301526133358184613286565b905092915050565b60008060006060848603121561335657613355612bc4565b5b600061336486828701612d8d565b935050602061337586828701612d8d565b925050604061338686828701612d8d565b9150509250925092565b6000602082840312156133a6576133a5612bc4565b5b60006133b484828501612c17565b91505092915050565b6133c681612d36565b82525050565b6133d581612da2565b82525050565b60a0820160008201516133f160008501826133bd565b5060208201516134046020850182613252565b5060408201516134176040850182613252565b50606082015161342a60608501826133cc565b50608082015161343d60808501826133cc565b50505050565b600060a08201905061345860008301846133db565b92915050565b600081519050919050565b600082825260208201905092915050565b6000819050602082019050919050565b60a0820160008201516134a060008501826133bd565b5060208201516134b36020850182613252565b5060408201516134c66040850182613252565b5060608201516134d960608501826133cc565b5060808201516134ec60808501826133cc565b50505050565b60006134fe838361348a565b60a08301905092915050565b6000602082019050919050565b60006135228261345e565b61352c8185613469565b93506135378361347a565b8060005b8381101561356857815161354f88826134f2565b975061355a8361350a565b92505060018101905061353b565b5085935050505092915050565b6000602082019050818103600083015261358f8184613517565b905092915050565b7f4e487b7100000000000000000000000000000000000000000000000000000000600052603260045260246000fd5b600080fd5b600080fd5b600080fd5b600080833560016020038436030381126135f2576135f16135c6565b5b80840192508235915067ffffffffffffffff821115613614576136136135cb565b5b6020830192506001820236038313156136305761362f6135d0565b5b509250929050565b61364181612d6c565b82525050565b600082825260208201905092915050565b82818337600083830152505050565b60006136738385613647565b9350613680838584613658565b61368983612caa565b840190509392505050565b60006080820190506136a96000830188613638565b81810360208301526136bc818688613667565b90506136cb6040830185613638565b6136d86060830184613638565b9695505050505050565b6136eb81612eea565b81146136f657600080fd5b50565b600081519050613708816136e2565b92915050565b60006020828403121561372457613723612bc4565b5b6000613732848285016136f9565b91505092915050565b7f4e487b7100000000000000000000000000000000000000000000000000000000600052601160045260246000fd5b600061377582612da2565b915061378083612da2565b9250828201905063ffffffff81111561379c5761379b61373b565b5b92915050565b60006137ad82612d36565b91506137b883612d36565b92508282019050808211156137d0576137cf61373b565b5b92915050565b6000819050919050565b600067ffffffffffffffff82169050919050565b6000819050919050565b600061381961381461380f846137d6565b6137f4565b6137e0565b9050919050565b613829816137fe565b82525050565b60006020820190506138446000830184613820565b9291505056fea26469706673582212205b0853d1aed6cb98db103da74b93932ee6f7545b679168b425ccec1646e3486c64736f6c634300081c0033",
  "linkReferences": {},
  "deployedLinkReferences": {}
}