{
  "_format": "hh-sol-artifact-1",
  "contractName": "CarmelVerifier",
  "sourceName": "contracts/CarmelVerifier.sol",
  "abi": [
    {
      "inputs": [],
      "stateMutability": "nonpayable",
      "type": "constructor"
    },
    {
      "inputs": [],
      "name": "InvalidInitialization",
      "type": "error"
    },
    {
      "inputs": [],
      "name": "NotInitializing",
      "type": "error"
    },
    {
      "anonymous": false,
      "inputs": [
        {
          "indexed": false,
          "internalType": "uint64",
          "name": "version",
          "type": "uint64"
        }
      ],
      "name": "Initialized",
      "type": "event"
    },
    {
      "inputs": [
        {
          "internalType": "address",
          "name": "sen",
          "type": "address"
        }
      ],
      "name": "initialize",
      "outputs": [],
      "stateMutability": "nonpayable",
      "type": "function"
    },
    {
      "inputs": [
        {
          "internalType": "bytes32",
          "name": "message",
          "type": "bytes32"
        },
        {
          "internalType": "bytes",
          "name": "signature",
          "type": "bytes"
        },
        {
          "internalType": "bytes32",
          "name": "qx",
          "type": "bytes32"
        },
        {
          "internalType": "bytes32",
          "name": "qy",
          "type": "bytes32"
        }
      ],
      "name": "verify",
      "outputs": [
        {
          "internalType": "bool",
          "name": "",
          "type": "bool"
        }
      ],
      "stateMutability": "view",
      "type": "function"
    }
  ],
  "bytecode": "0x608060405234801561001057600080fd5b5061002b67bc36b56a21c9640060c01b61007260201b60201c565b610045674908d23e858bc67260c01b61007260201b60201c565b61005f673c0f3e2f2b054e7260c01b61007260201b60201c565b61006d61007560201b60201c565b6101df565b50565b600061008561017960201b60201c565b90508060000160089054906101000a900460ff16156100d0576040517ff92ee8a900000000000000000000000000000000000000000000000000000000815260040160405180910390fd5b67ffffffffffffffff80168160000160009054906101000a900467ffffffffffffffff1667ffffffffffffffff16146101765767ffffffffffffffff8160000160006101000a81548167ffffffffffffffff021916908367ffffffffffffffff1602179055507fc7f505b2f371ae2175ee4913f4499e1f2633a7b5936321eed1cdaeb6115181d267ffffffffffffffff60405161016d91906101c4565b60405180910390a15b50565b60007ff0c57e16840df040f15088dc2f81fe391c3923bec73e23a9662efc9c229c6a00905090565b600067ffffffffffffffff82169050919050565b6101be816101a1565b82525050565b60006020820190506101d960008301846101b5565b92915050565b6116ca806101ee6000396000f3fe608060405234801561001057600080fd5b50600436106100365760003560e01c8063a64f680b1461003b578063c4d66de81461006b575b600080fd5b610055600480360381019061005091906113ec565b610087565b604051610062919061148f565b60405180910390f35b61008560048036038101906100809190611508565b61078e565b005b600061009d673b167a95ad9d727b60c01b6109a4565b6100b167cdd16d31c5d7b7e560c01b6109a4565b6100c567f7c5e82073a8488d60c01b6109a4565b6040858590501015610102576100e567186165640810a32d60c01b6109a4565b6100f96760827791af358aca60c01b6109a4565b60009050610785565b6101166725880faa1776c24760c01b6109a4565b61012a67c565894f96662feb60c01b6109a4565b61013e67c68af403e65b65a160c01b6109a4565b600085856000906020926101549392919061153f565b9061015f9190611592565b60001c90506101786763f586ea2c4c40ca60c01b6109a4565b61018c67b85ede767f66e56460c01b6109a4565b600086866020906040926101a29392919061153f565b906101ad9190611592565b60001c90506101c6675083748e6487258060c01b6109a4565b6101da672ebc225f7b536ef660c01b6109a4565b60008860001c90506101f667d9c89e3223f4ae5260c01b6109a4565b61020a67c82d9f1b360f396960c01b6109a4565b60008660001c905061022667ddc4a50229c1415860c01b6109a4565b61023a672a195f05efbd0ad460c01b6109a4565b60008660001c905061025667341c93278d9d0cc960c01b6109a4565b61026a67e899be5af8de8b0360c01b6109a4565b60008514801561028a575061028967be72724d096edc2060c01b6109a7565b5b806102ed57507fffffffff00000000ffffffffffffffffbce6faada7179e84f3b9cac2fc63255185101580156102d057506102cf67215aa24e482018f460c01b6109a7565b5b80156102ec57506102eb679a0996294610b08660c01b6109a7565b5b5b8061033057506000841480156103135750610312678e5dbe0b70dd190860c01b6109a7565b5b801561032f575061032e67fd070191054e8e7a60c01b6109a7565b5b5b8061037757507fffffffff00000000ffffffffffffffffbce6faada7179e84f3b9cac2fc6325518410158015610376575061037567f6c30425c3c9e82460c01b6109a7565b5b5b156103c657610390675ea1bff4fc80a84560c01b6109a4565b6103a467d087d9fff845a5ce60c01b6109a4565b6103b867fdf023d0180fa59b60c01b6109a4565b600095505050505050610785565b6103da6713d14f53fb20eaf960c01b6109a4565b6103ee67bad7becdfe92885b60c01b6109a4565b610402678eb12c7b4a9c476660c01b6109a4565b600015156104737fffffffff00000001000000000000000000000000ffffffffffffffffffffffff7fffffffff00000001000000000000000000000000fffffffffffffffffffffffc7f5ac635d8aa3a93e7b3ebbd55769886bc651d06b0cc53b0f63bce3c3e27d2604b86866109b2565b1515036104c45761048e674f78231a1b7b5b8a60c01b6109a4565b6104a267b001957a1060f08760c01b6109a4565b6104b667ca538f52221de52f60c01b6109a4565b600095505050505050610785565b6104d867ed8b638269ea1c7460c01b6109a4565b6104ec67a47e7e3461a1b66960c01b6109a4565b610500674dca5bcebacb9a9360c01b6109a4565b600061050b85610a6b565b905061052167c615b7b495cd2d3460c01b6109a4565b61053567aa78ca90fc12f64060c01b6109a4565b60007fffffffff00000000ffffffffffffffffbce6faada7179e84f3b9cac2fc63255180610566576105656115f1565b5b828609905061057f675f07be1ff71f54df60c01b6109a4565b61059367888b9d5f35e1f70b60c01b6109a4565b60007fffffffff00000000ffffffffffffffffbce6faada7179e84f3b9cac2fc632551806105c4576105c36115f1565b5b83890990506105dd675824fa7ff4b26d8660c01b6109a4565b6105f167ccff25b501e0cc9e60c01b6109a4565b60006040518060c001604052808781526020018681526020017fffffffff00000001000000000000000000000000ffffffffffffffffffffffff81526020017fffffffff00000001000000000000000000000000fffffffffffffffffffffffc81526020017f6b17d1f2e12c4247f8bce6e563a440f277037d812deb33a0f4a13945d898c29681526020017f4fe342e2fe1a7f9b8ee7eb4a7c0f9e162bce33576b315ececbb6406837bf51f581525090506106b66730ce8999d8841c9160c01b6109a4565b6106ca67e2a981a71819611f60c01b6109a4565b60006106e067b4ef243e4e8a12ed60c01b6109a4565b6106eb828585610b21565b5080915050610704674a911a9acd25401260c01b6109a4565b7fffffffff00000000ffffffffffffffffbce6faada7179e84f3b9cac2fc6325518a7fffffffff00000000ffffffffffffffffbce6faada7179e84f3b9cac2fc632551038208905061076067400584291b1240fb60c01b6109a4565b6107746723e35f458baf569360c01b6109a4565b600081149a50505050505050505050505b95945050505050565b6107a267fe316bed2ef2a15c60c01b6109a4565b60006107ac61131f565b905060008160000160089054906101000a900460ff1615905060008260000160009054906101000a900467ffffffffffffffff1690506000808267ffffffffffffffff161480156107fa5750825b9050600060018367ffffffffffffffff1614801561082f575060003073ffffffffffffffffffffffffffffffffffffffff163b145b90508115801561083d575080155b15610874576040517ff92ee8a900000000000000000000000000000000000000000000000000000000815260040160405180910390fd5b60018560000160006101000a81548167ffffffffffffffff021916908367ffffffffffffffff16021790555083156108c45760018560000160086101000a81548160ff0219169083151502179055505b6108d8671333b1bc2751ca9360c01b6109a4565b6108ec6715e26da448c8507d60c01b6109a4565b61090067adc625ddcd19436b60c01b6109a4565b856000806101000a81548173ffffffffffffffffffffffffffffffffffffffff021916908373ffffffffffffffffffffffffffffffffffffffff160217905550831561099c5760008560000160086101000a81548160ff0219169083151502179055507fc7f505b2f371ae2175ee4913f4499e1f2633a7b5936321eed1cdaeb6115181d260016040516109939190611679565b60405180910390a15b505050505050565b50565b600060019050919050565b600080831480156109c35750600082145b806109ce5750858310155b806109d95750858210155b156109e75760009050610a62565b600086806109f8576109f76115f1565b5b838409905060008780610a0e57610a0d6115f1565b5b8880610a1d57610a1c6115f1565b5b8887098980610a2f57610a2e6115f1565b5b878b80610a3f57610a3e6115f1565b5b898a09090890508780610a5557610a546115f1565b5b8682089050808214925050505b95945050505050565b6000610a8167faa4028e136fe0de60c01b6109a4565b610a95670fc01c05faac87a660c01b6109a4565b60405160208152602080820152602060408201528260608201527fffffffff00000000ffffffffffffffffbce6faada7179e84f3b9cac2fc63254f60808201527fffffffff00000000ffffffffffffffffbce6faada7179e84f3b9cac2fc63255160a082015260208160c0836005600019fa610b17576107fe60405260206040fd5b8051915050919050565b60008060007f80000000000000000000000000000000000000000000000000000000000000009050600085148015610b595750600084145b15610b6b576000809250925050611317565b60008061080060405101604052604088015161082060405101526108206040510151610ca9565b8281830152816020019150838183015281602001915084818301528160200191508581830152816020019150505050505050565b6000806000808886600209898182098a8188098b82840992508b8c8d8c8d098f098d8e8b8c096003090895508b8b840993508b8a830994508b8c8260028f03098d8889090896508b8c828e038908870991508b828d8b8609089550858c0395505050509650965096509692505050565b600080600080858b0395508a868c8a8d090899508a858c038c898c090898508a898a0993508a89850992508a84880991508a83890990508a84860996508a8b8860028e03098c858e038e8e8f09080893508a8a8c868e038a080994508a8b84880986089250975097509750979350505050565b610cc360018060a08c015160808d01516080604051610b92565b610cde60608a01518260018060a08e015160808f0151610bc6565b9550935095509550610cf883838789610100604051610b92565b610d0f8160a08b015160808c015186868a8c610c36565b9550935095509550610d2983838789610180604051610b92565b610d4460018060208c015160008d0151610200604051610b92565b6080890151955060a08901519450610d6a8160208b015160008c01516001808a8c610c36565b9550935095509550610d8483838789610280604051610b92565b610d9b8160a08b015160808c015186868a8c610c36565b9550935095509550610db583838789610300604051610b92565b610dcc8160a08b015160808c015186868a8c610c36565b9550935095509550610de683838789610380604051610b92565b6000890151955060208901519450610e0760608a015182600180898b610bc6565b9550935095509550610e2183838789610400604051610b92565b610e388160a08b015160808c015186868a8c610c36565b9550935095509550610e5283838789610480604051610b92565b610e698160a08b015160808c015186868a8c610c36565b9550935095509550610e8383838789610500604051610b92565b610e9a8160a08b015160808c015186868a8c610c36565b9550935095509550610eb483838789610580604051610b92565b61040060405101519550610420604051015194506104406040510151915061046060405101519250610ef38160208b015160008c015186868a8c610c36565b9550935095509550610f0d83838789610600604051610b92565b610f248160a08b015160808c015186868a8c610c36565b9550935095509550610f3e83838789610680604051610b92565b610f558160a08b015160808c015186868a8c610c36565b9550935095509550610f6f83838789610700604051610b92565b610f868160a08b015160808c015186868a8c610c36565b9550935095509550610fa083838789610780604051610b92565b50600091505b81610fe6578286161560010360031b8360011c87161560010360021b018388161560010360011b8460011c891615600103010191508260021c9250610fa6565b8160071b604051015194508160071b602001604051015193508160071b604001604051015190508160071b606001604051015191506040516108208101515b60008511156112ab5780866002098181820982818a09838284099250838487880960608f015109848186878e8f09600309089050848885099750848784099650600285039a508485838d0986838409089a5084858387038d08820992508483868c870908995089850399505050505080866002098181820982818a09838284099250838487880960608f015109848186878e8f09600309089050848885099750848784099650600285039a508485838d0986838409089a5084858387038d08820992508483868c8709089950505050508488161560010360031b8560011c89161560010360021b01858a161560010360011b8660011c8b1615600103010180611133578682039650506112a0565b8060071b90508083015181606001840151610860850152846111745780985081602001840151975081604001840151945081606001840151955050506112a0565b82836108608601518a0984888560200188015109086108408501528160400184015191508283838b098403848784090861084085015161122e578061122d5783896002860309925083838409905083818b09610840860152838184099250838487880960608f0151099150838285868d8e09600309089150838784099650838682099550838461084087015160028703098584850908995083848b8603610840880151088309905083848a8509820898505050506112a0565b5b83818209915083818309905083838584890909955083838b0992508361086086015185838a09099650838485846002880309850985838703876108408a01516108408b01510908089950838284099150838482866108608901518d090985610840880151878e89038708090898505050505b8460021c9450611025565b61088060405260405184606082015260208152602080820152602060408201526002820360808201528160a082015260208160c0836005600019fa6112f6576107ff60405260206040fd5b81815188099650818151850993508184850993508184890997505050505050505b935093915050565b60007ff0c57e16840df040f15088dc2f81fe391c3923bec73e23a9662efc9c229c6a00905090565b600080fd5b600080fd5b6000819050919050565b61136481611351565b811461136f57600080fd5b50565b6000813590506113818161135b565b92915050565b600080fd5b600080fd5b600080fd5b60008083601f8401126113ac576113ab611387565b5b8235905067ffffffffffffffff8111156113c9576113c861138c565b5b6020830191508360018202830111156113e5576113e4611391565b5b9250929050565b60008060008060006080868803121561140857611407611347565b5b600061141688828901611372565b955050602086013567ffffffffffffffff8111156114375761143661134c565b5b61144388828901611396565b9450945050604061145688828901611372565b925050606061146788828901611372565b9150509295509295909350565b60008115159050919050565b61148981611474565b82525050565b60006020820190506114a46000830184611480565b92915050565b600073ffffffffffffffffffffffffffffffffffffffff82169050919050565b60006114d5826114aa565b9050919050565b6114e5816114ca565b81146114f057600080fd5b50565b600081359050611502816114dc565b92915050565b60006020828403121561151e5761151d611347565b5b600061152c848285016114f3565b91505092915050565b600080fd5b600080fd5b6000808585111561155357611552611535565b5b838611156115645761156361153a565b5b6001850283019150848603905094509492505050565b600082905092915050565b600082821b905092915050565b600061159e838361157a565b826115a98135611351565b925060208210156115e9576115e47fffffffffffffffffffffffffffffffffffffffffffffffffffffffffffffffff83602003600802611585565b831692505b505092915050565b7f4e487b7100000000000000000000000000000000000000000000000000000000600052601260045260246000fd5b6000819050919050565b600067ffffffffffffffff82169050919050565b6000819050919050565b600061166361165e61165984611620565b61163e565b61162a565b9050919050565b61167381611648565b82525050565b600060208201905061168e600083018461166a565b9291505056fea2646970667358221220370e98d7b6479de4c49f187bfd3d037ab432394f770b7b90a02e93623d256f7c64736f6c634300081c0033",
  "linkReferences": {},
  "deployedLinkReferences": {}
}