{
  "_format": "hh-sol-artifact-1",
  "contractName": "CarmelTreasury",
  "sourceName": "contracts/CarmelTreasury.sol",
  "abi": [
    {
      "inputs": [],
      "stateMutability": "nonpayable",
      "type": "constructor"
    },
    {
      "inputs": [],
      "name": "CarmelErrorAccountAlreadyExists",
      "type": "error"
    },
    {
      "inputs": [],
      "name": "CarmelErrorAccountDoesNotExist",
      "type": "error"
    },
    {
      "inputs": [],
      "name": "CarmelErrorAccountInvalidKeyId",
      "type": "error"
    },
    {
      "inputs": [],
      "name": "CarmelErrorAssetMintingInsufficientBalance",
      "type": "error"
    },
    {
      "inputs": [],
      "name": "CarmelErrorAssetMintingInvalidPrice",
      "type": "error"
    },
    {
      "inputs": [],
      "name": "CarmelErrorAssetMintingInvalidQuantity",
      "type": "error"
    },
    {
      "inputs": [],
      "name": "CarmelErrorAssetMintingMaxSupplyReached",
      "type": "error"
    },
    {
      "inputs": [],
      "name": "CarmelErrorAssetMintingUnauthorized",
      "type": "error"
    },
    {
      "inputs": [],
      "name": "CarmelErrorAssetNotMinted",
      "type": "error"
    },
    {
      "inputs": [],
      "name": "CarmelErrorCannotWithdrawInsufficientFunds",
      "type": "error"
    },
    {
      "inputs": [],
      "name": "CarmelErrorCannotWithdrawZeroAmount",
      "type": "error"
    },
    {
      "inputs": [],
      "name": "CarmelErrorPermissionsAdminLevelRequired",
      "type": "error"
    },
    {
      "inputs": [],
      "name": "CarmelErrorPermissionsSentinelLevelRequired",
      "type": "error"
    },
    {
      "inputs": [],
      "name": "CarmelErrorUnauthorizedAccount",
      "type": "error"
    },
    {
      "inputs": [],
      "name": "InvalidInitialization",
      "type": "error"
    },
    {
      "inputs": [],
      "name": "NotInitializing",
      "type": "error"
    },
    {
      "anonymous": false,
      "inputs": [
        {
          "indexed": false,
          "internalType": "bytes32",
          "name": "username",
          "type": "bytes32"
        },
        {
          "indexed": false,
          "internalType": "uint256",
          "name": "amount",
          "type": "uint256"
        }
      ],
      "name": "CarmelDeposit",
      "type": "event"
    },
    {
      "anonymous": false,
      "inputs": [
        {
          "indexed": false,
          "internalType": "uint64",
          "name": "version",
          "type": "uint64"
        }
      ],
      "name": "Initialized",
      "type": "event"
    },
    {
      "inputs": [
        {
          "internalType": "bytes32",
          "name": "username",
          "type": "bytes32"
        }
      ],
      "name": "deposit",
      "outputs": [],
      "stateMutability": "payable",
      "type": "function"
    },
    {
      "inputs": [
        {
          "internalType": "bytes32",
          "name": "username",
          "type": "bytes32"
        }
      ],
      "name": "getBalance",
      "outputs": [
        {
          "internalType": "uint256",
          "name": "",
          "type": "uint256"
        }
      ],
      "stateMutability": "view",
      "type": "function"
    },
    {
      "inputs": [
        {
          "internalType": "address",
          "name": "sender",
          "type": "address"
        },
        {
          "internalType": "address",
          "name": "reg",
          "type": "address"
        }
      ],
      "name": "initialize",
      "outputs": [],
      "stateMutability": "nonpayable",
      "type": "function"
    },
    {
      "inputs": [
        {
          "internalType": "address",
          "name": "addr",
          "type": "address"
        },
        {
          "internalType": "uint8",
          "name": "level",
          "type": "uint8"
        }
      ],
      "name": "updatePerms",
      "outputs": [],
      "stateMutability": "nonpayable",
      "type": "function"
    },
    {
      "inputs": [
        {
          "internalType": "address payable",
          "name": "to",
          "type": "address"
        },
        {
          "internalType": "uint256",
          "name": "amount",
          "type": "uint256"
        },
        {
          "components": [
            {
              "internalType": "uint256",
              "name": "keyId",
              "type": "uint256"
            },
            {
              "internalType": "bytes32",
              "name": "username",
              "type": "bytes32"
            },
            {
              "internalType": "bytes32",
              "name": "message",
              "type": "bytes32"
            },
            {
              "internalType": "bytes",
              "name": "signature",
              "type": "bytes"
            }
          ],
          "internalType": "struct CarmelBase.CarmelFingerprint",
          "name": "fingerprint",
          "type": "tuple"
        }
      ],
      "name": "withdraw",
      "outputs": [],
      "stateMutability": "payable",
      "type": "function"
    }
  ],
  "bytecode": "0x608060405234801561001057600080fd5b5061002b67a7a9c1e19b90d34c60c01b61007260201b60201c565b61004567514b0083c6fd462460c01b61007260201b60201c565b61005f676b5f4109ce79b9cf60c01b61007260201b60201c565b61006d61007560201b60201c565b6101df565b50565b600061008561017960201b60201c565b90508060000160089054906101000a900460ff16156100d0576040517ff92ee8a900000000000000000000000000000000000000000000000000000000815260040160405180910390fd5b67ffffffffffffffff80168160000160009054906101000a900467ffffffffffffffff1667ffffffffffffffff16146101765767ffffffffffffffff8160000160006101000a81548167ffffffffffffffff021916908367ffffffffffffffff1602179055507fc7f505b2f371ae2175ee4913f4499e1f2633a7b5936321eed1cdaeb6115181d267ffffffffffffffff60405161016d91906101c4565b60405180910390a15b50565b60007ff0c57e16840df040f15088dc2f81fe391c3923bec73e23a9662efc9c229c6a00905090565b600067ffffffffffffffff82169050919050565b6101be816101a1565b82525050565b60006020820190506101d960008301846101b5565b92915050565b610f5b806101ee6000396000f3fe60806040526004361061004a5760003560e01c806316aac50e1461004f578063485cc955146100785780634ce2e2b7146100a15780638e739461146100bd578063b214faa5146100fa575b600080fd5b34801561005b57600080fd5b50610076600480360381019061007191906109da565b610116565b005b34801561008457600080fd5b5061009f600480360381019061009a9190610a1a565b6102c5565b005b6100bb60048036038101906100b69190610af2565b610532565b005b3480156100c957600080fd5b506100e460048036038101906100df9190610b97565b6107fc565b6040516100f19190610bd3565b60405180910390f35b610114600480360381019061010f9190610b97565b610855565b005b61012a670596e7cdb98ebd2960c01b61090b565b61013e67156fd217a97c573c60c01b61090b565b610152675a01afebde85fa4b60c01b61090b565b61016667756e440ddfb7ef2e60c01b61090b565b606360ff166000803373ffffffffffffffffffffffffffffffffffffffff1673ffffffffffffffffffffffffffffffffffffffff16815260200190815260200160002060009054906101000a900460ff1660ff161015610206576101d46760ddb27a8cdc5ace60c01b61090b565b6040517f0ed39a2f00000000000000000000000000000000000000000000000000000000815260040160405180910390fd5b61021a6707affad531e9228060c01b61090b565b61022e6761bf5808ed0771b260c01b61090b565b610242677e6e2e0940956b8b60c01b61090b565b610256672bcf1fca3d4fa98460c01b61090b565b61026a6761f6ad32c08c663060c01b61090b565b806000808473ffffffffffffffffffffffffffffffffffffffff1673ffffffffffffffffffffffffffffffffffffffff16815260200190815260200160002060006101000a81548160ff021916908360ff1602179055505050565b6102d967c5553fcf366b886960c01b61090e565b60006102e3610911565b905060008160000160089054906101000a900460ff1615905060008260000160009054906101000a900467ffffffffffffffff1690506000808267ffffffffffffffff161480156103315750825b9050600060018367ffffffffffffffff16148015610366575060003073ffffffffffffffffffffffffffffffffffffffff163b145b905081158015610374575080155b156103ab576040517ff92ee8a900000000000000000000000000000000000000000000000000000000815260040160405180910390fd5b60018560000160006101000a81548167ffffffffffffffff021916908367ffffffffffffffff16021790555083156103fb5760018560000160086101000a81548160ff0219169083151502179055505b61040f679cea55d06dd1995e60c01b61090e565b61042367e8a9c146460406c860c01b61090e565b61043767e550d0154f7a2c3660c01b61090e565b86600360006101000a81548173ffffffffffffffffffffffffffffffffffffffff021916908373ffffffffffffffffffffffffffffffffffffffff16021790555061048c67c4ee18e72c91f74d60c01b61090e565b85600260006101000a81548173ffffffffffffffffffffffffffffffffffffffff021916908373ffffffffffffffffffffffffffffffffffffffff16021790555083156105295760008560000160086101000a81548160ff0219169083151502179055507fc7f505b2f371ae2175ee4913f4499e1f2633a7b5936321eed1cdaeb6115181d260016040516105209190610c47565b60405180910390a15b50505050505050565b610546674729df1aedcdb41060c01b61090e565b61055a674cdebce62c7871c760c01b61090e565b61056e67999e56fe41db9b2560c01b61090e565b600082116105bc5761058a67e01230f7c0205f0a60c01b61090e565b6040517fa6e8bca500000000000000000000000000000000000000000000000000000000815260040160405180910390fd5b6105d067b853befeddab917260c01b61090e565b6105e4674a3a852d57c3d27660c01b61090e565b6105f867e108532fcfe5068560c01b61090e565b600260009054906101000a900473ffffffffffffffffffffffffffffffffffffffff1673ffffffffffffffffffffffffffffffffffffffff16634a5af4e0826040518263ffffffff1660e01b81526004016106539190610e03565b602060405180830381865afa158015610670573d6000803e3d6000fd5b505050506040513d601f19601f820116820180604052508101906106949190610e5d565b6106de576106ac67171f352199f1a57960c01b61090e565b6040517f9fd8ceca00000000000000000000000000000000000000000000000000000000815260040160405180910390fd5b6106f2679d3e7f6e32eecaea60c01b61090e565b6107066753e994415e61eafe60c01b61090e565b61071a6749ccf161e7378c6360c01b61090e565b8161072882602001356107fc565b10156107745761074267a1cf9c5be8186c8260c01b61090e565b6040517f790edb6900000000000000000000000000000000000000000000000000000000815260040160405180910390fd5b61078867ab2f75cf67e3ec6e60c01b61090e565b61079c67a4ec2a99c1d8ad8d60c01b61090e565b6107b067e56890aa2778562160c01b61090e565b8273ffffffffffffffffffffffffffffffffffffffff166108fc839081150290604051600060405180830381858888f193505050501580156107f6573d6000803e3d6000fd5b50505050565b60006108126798551903e30ecbb760c01b61090e565b610826676ec73c59b198679a60c01b61090e565b61083a67da3d2baa342cca5b60c01b61090e565b60016000838152602001908152602001600020549050919050565b610869672b093a5242b372ec60c01b61090e565b61087d67b8543ed4b9023c9960c01b61090e565b346001600083815260200190815260200160002060008282546108a09190610eb9565b925050819055506108bb67b1efaeee4a7ae8b760c01b61090e565b6108cf67bddce59bc15ac5b460c01b61090e565b7f678e834f675c240497a0defda44cd2ec81d923da49672eb1a2cbb21ca189ed768134604051610900929190610efc565b60405180910390a150565b50565b50565b60007ff0c57e16840df040f15088dc2f81fe391c3923bec73e23a9662efc9c229c6a00905090565b600080fd5b600080fd5b600073ffffffffffffffffffffffffffffffffffffffff82169050919050565b600061096e82610943565b9050919050565b61097e81610963565b811461098957600080fd5b50565b60008135905061099b81610975565b92915050565b600060ff82169050919050565b6109b7816109a1565b81146109c257600080fd5b50565b6000813590506109d4816109ae565b92915050565b600080604083850312156109f1576109f0610939565b5b60006109ff8582860161098c565b9250506020610a10858286016109c5565b9150509250929050565b60008060408385031215610a3157610a30610939565b5b6000610a3f8582860161098c565b9250506020610a508582860161098c565b9150509250929050565b6000610a6582610943565b9050919050565b610a7581610a5a565b8114610a8057600080fd5b50565b600081359050610a9281610a6c565b92915050565b6000819050919050565b610aab81610a98565b8114610ab657600080fd5b50565b600081359050610ac881610aa2565b92915050565b600080fd5b600060808284031215610ae957610ae8610ace565b5b81905092915050565b600080600060608486031215610b0b57610b0a610939565b5b6000610b1986828701610a83565b9350506020610b2a86828701610ab9565b925050604084013567ffffffffffffffff811115610b4b57610b4a61093e565b5b610b5786828701610ad3565b9150509250925092565b6000819050919050565b610b7481610b61565b8114610b7f57600080fd5b50565b600081359050610b9181610b6b565b92915050565b600060208284031215610bad57610bac610939565b5b6000610bbb84828501610b82565b91505092915050565b610bcd81610a98565b82525050565b6000602082019050610be86000830184610bc4565b92915050565b6000819050919050565b600067ffffffffffffffff82169050919050565b6000819050919050565b6000610c31610c2c610c2784610bee565b610c0c565b610bf8565b9050919050565b610c4181610c16565b82525050565b6000602082019050610c5c6000830184610c38565b92915050565b6000610c716020840184610ab9565b905092915050565b610c8281610a98565b82525050565b6000610c976020840184610b82565b905092915050565b610ca881610b61565b82525050565b600080fd5b600080fd5b600080fd5b60008083356001602003843603038112610cda57610cd9610cb8565b5b83810192508235915060208301925067ffffffffffffffff821115610d0257610d01610cae565b5b600182023603831315610d1857610d17610cb3565b5b509250929050565b600082825260208201905092915050565b82818337600083830152505050565b6000601f19601f8301169050919050565b6000610d5d8385610d20565b9350610d6a838584610d31565b610d7383610d40565b840190509392505050565b600060808301610d916000840184610c62565b610d9e6000860182610c79565b50610dac6020840184610c88565b610db96020860182610c9f565b50610dc76040840184610c88565b610dd46040860182610c9f565b50610de26060840184610cbd565b8583036060870152610df5838284610d51565b925050508091505092915050565b60006020820190508181036000830152610e1d8184610d7e565b905092915050565b60008115159050919050565b610e3a81610e25565b8114610e4557600080fd5b50565b600081519050610e5781610e31565b92915050565b600060208284031215610e7357610e72610939565b5b6000610e8184828501610e48565b91505092915050565b7f4e487b7100000000000000000000000000000000000000000000000000000000600052601160045260246000fd5b6000610ec482610a98565b9150610ecf83610a98565b9250828201905080821115610ee757610ee6610e8a565b5b92915050565b610ef681610b61565b82525050565b6000604082019050610f116000830185610eed565b610f1e6020830184610bc4565b939250505056fea2646970667358221220cc4d69e4aa55382688c6b796d3ab297ad9a8e01a6139dbcf4645dc8bff00ab7464736f6c634300081c0033",
  "linkReferences": {},
  "deployedLinkReferences": {}
}