{
  "_format": "hh-sol-artifact-1",
  "contractName": "CarmelRegistry",
  "sourceName": "contracts/CarmelRegistry.sol",
  "abi": [
    {
      "inputs": [],
      "stateMutability": "nonpayable",
      "type": "constructor"
    },
    {
      "inputs": [],
      "name": "InvalidInitialization",
      "type": "error"
    },
    {
      "inputs": [],
      "name": "NotInitializing",
      "type": "error"
    },
    {
      "anonymous": false,
      "inputs": [
        {
          "indexed": false,
          "internalType": "uint64",
          "name": "version",
          "type": "uint64"
        }
      ],
      "name": "Initialized",
      "type": "event"
    },
    {
      "inputs": [
        {
          "internalType": "bytes32",
          "name": "",
          "type": "bytes32"
        }
      ],
      "name": "accounts",
      "outputs": [
        {
          "internalType": "uint256",
          "name": "id",
          "type": "uint256"
        },
        {
          "internalType": "bytes32",
          "name": "username",
          "type": "bytes32"
        },
        {
          "internalType": "bytes32",
          "name": "group",
          "type": "bytes32"
        },
        {
          "internalType": "uint32",
          "name": "total_keys",
          "type": "uint32"
        },
        {
          "internalType": "uint32",
          "name": "total_addresses",
          "type": "uint32"
        }
      ],
      "stateMutability": "view",
      "type": "function"
    },
    {
      "inputs": [
        {
          "internalType": "bytes32",
          "name": "username",
          "type": "bytes32"
        },
        {
          "internalType": "uint256",
          "name": "x",
          "type": "uint256"
        },
        {
          "internalType": "uint256",
          "name": "y",
          "type": "uint256"
        }
      ],
      "name": "addKey",
      "outputs": [],
      "stateMutability": "nonpayable",
      "type": "function"
    },
    {
      "inputs": [
        {
          "internalType": "bytes32",
          "name": "",
          "type": "bytes32"
        },
        {
          "internalType": "uint256",
          "name": "",
          "type": "uint256"
        }
      ],
      "name": "addresses",
      "outputs": [
        {
          "internalType": "address",
          "name": "",
          "type": "address"
        }
      ],
      "stateMutability": "view",
      "type": "function"
    },
    {
      "inputs": [
        {
          "internalType": "bytes32",
          "name": "grp",
          "type": "bytes32"
        }
      ],
      "name": "group",
      "outputs": [
        {
          "components": [
            {
              "internalType": "uint256",
              "name": "id",
              "type": "uint256"
            },
            {
              "internalType": "bytes32",
              "name": "username",
              "type": "bytes32"
            },
            {
              "internalType": "bytes32",
              "name": "group",
              "type": "bytes32"
            },
            {
              "internalType": "uint32",
              "name": "total_keys",
              "type": "uint32"
            },
            {
              "internalType": "uint32",
              "name": "total_addresses",
              "type": "uint32"
            }
          ],
          "internalType": "struct CarmelRegistry.Account[]",
          "name": "",
          "type": "tuple[]"
        }
      ],
      "stateMutability": "view",
      "type": "function"
    },
    {
      "inputs": [
        {
          "internalType": "address",
          "name": "sender",
          "type": "address"
        },
        {
          "internalType": "address",
          "name": "ver",
          "type": "address"
        }
      ],
      "name": "initialize",
      "outputs": [],
      "stateMutability": "nonpayable",
      "type": "function"
    },
    {
      "inputs": [
        {
          "internalType": "bytes32",
          "name": "",
          "type": "bytes32"
        },
        {
          "internalType": "uint256",
          "name": "",
          "type": "uint256"
        }
      ],
      "name": "keys_x",
      "outputs": [
        {
          "internalType": "uint256",
          "name": "",
          "type": "uint256"
        }
      ],
      "stateMutability": "view",
      "type": "function"
    },
    {
      "inputs": [
        {
          "internalType": "bytes32",
          "name": "",
          "type": "bytes32"
        },
        {
          "internalType": "uint256",
          "name": "",
          "type": "uint256"
        }
      ],
      "name": "keys_y",
      "outputs": [
        {
          "internalType": "uint256",
          "name": "",
          "type": "uint256"
        }
      ],
      "stateMutability": "view",
      "type": "function"
    },
    {
      "inputs": [],
      "name": "owner",
      "outputs": [
        {
          "internalType": "address",
          "name": "",
          "type": "address"
        }
      ],
      "stateMutability": "view",
      "type": "function"
    },
    {
      "inputs": [
        {
          "internalType": "address",
          "name": "",
          "type": "address"
        }
      ],
      "name": "perms",
      "outputs": [
        {
          "internalType": "uint8",
          "name": "",
          "type": "uint8"
        }
      ],
      "stateMutability": "view",
      "type": "function"
    },
    {
      "inputs": [
        {
          "internalType": "bytes32",
          "name": "username",
          "type": "bytes32"
        },
        {
          "internalType": "bytes32",
          "name": "grp",
          "type": "bytes32"
        },
        {
          "internalType": "address",
          "name": "addr",
          "type": "address"
        }
      ],
      "name": "register",
      "outputs": [
        {
          "internalType": "uint256",
          "name": "",
          "type": "uint256"
        }
      ],
      "stateMutability": "nonpayable",
      "type": "function"
    },
    {
      "inputs": [
        {
          "components": [
            {
              "internalType": "uint256",
              "name": "keyId",
              "type": "uint256"
            },
            {
              "internalType": "bytes32",
              "name": "username",
              "type": "bytes32"
            },
            {
              "internalType": "bytes32",
              "name": "message",
              "type": "bytes32"
            },
            {
              "internalType": "bytes",
              "name": "signature",
              "type": "bytes"
            }
          ],
          "internalType": "struct CarmelRegistry.Fingerprint",
          "name": "fingerprint",
          "type": "tuple"
        }
      ],
      "name": "sign",
      "outputs": [
        {
          "internalType": "bool",
          "name": "",
          "type": "bool"
        }
      ],
      "stateMutability": "view",
      "type": "function"
    },
    {
      "inputs": [],
      "name": "total_accounts",
      "outputs": [
        {
          "internalType": "uint256",
          "name": "",
          "type": "uint256"
        }
      ],
      "stateMutability": "view",
      "type": "function"
    },
    {
      "inputs": [
        {
          "internalType": "address",
          "name": "addr",
          "type": "address"
        },
        {
          "internalType": "uint8",
          "name": "level",
          "type": "uint8"
        }
      ],
      "name": "updatePerms",
      "outputs": [],
      "stateMutability": "nonpayable",
      "type": "function"
    },
    {
      "inputs": [
        {
          "internalType": "bytes32",
          "name": "",
          "type": "bytes32"
        },
        {
          "internalType": "uint256",
          "name": "",
          "type": "uint256"
        }
      ],
      "name": "usernames",
      "outputs": [
        {
          "internalType": "bytes32",
          "name": "",
          "type": "bytes32"
        }
      ],
      "stateMutability": "view",
      "type": "function"
    },
    {
      "inputs": [],
      "name": "version",
      "outputs": [
        {
          "internalType": "uint16",
          "name": "",
          "type": "uint16"
        }
      ],
      "stateMutability": "pure",
      "type": "function"
    }
  ],
  "bytecode": "0x6080604052348015600f57600080fd5b506016601a565b60ca565b7ff0c57e16840df040f15088dc2f81fe391c3923bec73e23a9662efc9c229c6a00805468010000000000000000900460ff161560695760405163f92ee8a960e01b815260040160405180910390fd5b80546001600160401b039081161460c75780546001600160401b0319166001600160401b0390811782556040519081527fc7f505b2f371ae2175ee4913f4499e1f2633a7b5936321eed1cdaeb6115181d29060200160405180910390a15b50565b6110b4806100d96000396000f3fe608060405234801561001057600080fd5b50600436106100f55760003560e01c806377cdfa98116100975780639d6a5817116100665780639d6a5817146101f7578063b409ea4e1461021a578063b76b70d51461024f578063bc529c431461026257600080fd5b806377cdfa98146101905780637993c18f146101995780638da5cb5b146101b957806398ebbd3c146101e457600080fd5b8063485cc955116100d3578063485cc955146101485780634aba00581461015b57806354fd4d501461016e57806356d9815a1461017d57600080fd5b806315d7bf44146100fa57806316aac50e146101205780631d38124014610135575b600080fd5b61010d610108366004610c55565b6102da565b6040519081526020015b60405180910390f35b61013361012e366004610c8a565b61049f565b005b610133610143366004610cc7565b610528565b610133610156366004610cf3565b61067b565b61010d610169366004610d26565b6107cb565b60405160018152602001610117565b61010d61018b366004610d26565b6107fc565b61010d60015481565b6101ac6101a7366004610d48565b610818565b6040516101179190610d61565b6002546101cc906001600160a01b031681565b6040516001600160a01b039091168152602001610117565b61010d6101f2366004610d26565b6109a3565b61020a610205366004610e50565b6109bf565b6040519015158152602001610117565b61023d610228366004610f3f565b60056020526000908152604090205460ff1681565b60405160ff9091168152602001610117565b6101cc61025d366004610d26565b610c06565b6102a9610270366004610d48565b60066020526000908152604090208054600182015460028301546003909301549192909163ffffffff8082169164010000000090041685565b6040805195865260208601949094529284019190915263ffffffff908116606084015216608082015260a001610117565b33600090815260056020526040812054603260ff90911610156103185760405162461bcd60e51b815260040161030f90610f61565b60405180910390fd5b600084815260066020908152604091829020825160a0810184528154815260018201549281018390526002820154938101939093526003015463ffffffff8082166060850152640100000000909104166080830152156103ba5760405162461bcd60e51b815260206004820152601b60248201527f54686520757365726e616d6520616c7265616479206578697374730000000000604482015260640161030f565b600180546040805160a08101825282815260208082018a81528284018a8152600060608501818152608086018981528e835260068652878320875181559451858b0155925160028501555160039093018054925163ffffffff9081166401000000000267ffffffffffffffff199094169416939093179190911790915560088252838120805480880182559082528282200180546001600160a01b038b166001600160a01b03199091161790558981526007825292832080548087018255908452922090910188905582549192909161049291610fae565b6001555095945050505050565b33600090815260056020526040902054606360ff90911610156104fb5760405162461bcd60e51b815260206004820152601460248201527310591b5a5b881b195d995b081c995c5d5a5c995960621b604482015260640161030f565b6001600160a01b03919091166000908152600560205260409020805460ff191660ff909216919091179055565b33600090815260056020526040902054603260ff909116101561055d5760405162461bcd60e51b815260040161030f90610f61565b600083815260066020908152604091829020825160a0810184528154815260018201549281018390526002820154938101939093526003015463ffffffff80821660608501526401000000009091041660808301526105fe5760405162461bcd60e51b815260206004820152601a60248201527f546865206163636f756e7420646f6573206e6f74206578697374000000000000604482015260640161030f565b60008481526003602090815260408083208054600181810183559185528385200187905587845260048352908320805480830182559084529190922001839055606082015161064c91610fc7565b600094855260066020526040909420600301805463ffffffff191663ffffffff90951694909417909355505050565b7ff0c57e16840df040f15088dc2f81fe391c3923bec73e23a9662efc9c229c6a008054600160401b810460ff16159067ffffffffffffffff166000811580156106c15750825b905060008267ffffffffffffffff1660011480156106de5750303b155b9050811580156106ec575080155b1561070a5760405163f92ee8a960e01b815260040160405180910390fd5b845467ffffffffffffffff19166001178555831561073457845460ff60401b1916600160401b1785555b6001600160a01b038088166000818152600560205260408120805460ff19166063179055600280546001600160a01b0319908116909317905580549289169290911691909117905583156107c257845460ff60401b19168555604051600181527fc7f505b2f371ae2175ee4913f4499e1f2633a7b5936321eed1cdaeb6115181d29060200160405180910390a15b50505050505050565b600360205281600052604060002081815481106107e757600080fd5b90600052602060002001600091509150505481565b600760205281600052604060002081815481106107e757600080fd5b600081815260076020908152604080832080548251818502810185019093528083526060949383018282801561086d57602002820191906000526020600020905b815481526020019060010190808311610859575b5050505050905060008151905060008167ffffffffffffffff81111561089557610895610de0565b6040519080825280602002602001820160405280156108ee57816020015b6040805160a0810182526000808252602080830182905292820181905260608201819052608082015282526000199092019101816108b35790505b50905060005b8281101561099a576006600085838151811061091257610912610fe3565b6020908102919091018101518252818101929092526040908101600020815160a081018352815481526001820154938101939093526002810154918301919091526003015463ffffffff8082166060840152640100000000909104166080820152825183908390811061098757610987610fe3565b60209081029190910101526001016108f4565b50949350505050565b600460205281600052604060002081815481106107e757600080fd5b33600090815260056020526040812054603260ff90911610156109f45760405162461bcd60e51b815260040161030f90610f61565b602080830151600090815260068252604090819020815160a0810183528154815260018201549381018490526002820154928101929092526003015463ffffffff808216606084015264010000000090910416608082015290610a995760405162461bcd60e51b815260206004820152601a60248201527f546865206163636f756e7420646f6573206e6f74206578697374000000000000604482015260640161030f565b8251602080850151600090815260039091526040902054118015610ad157508251602080850151600090815260049091526040902054115b610b0e5760405162461bcd60e51b815260206004820152600e60248201526d496e76616c69642064657669636560901b604482015260640161030f565b6020808401516000908152600390915260408120845181548110610b3457610b34610fe3565b9060005260206000200154905060006004600086602001518152602001908152602001600020856000015181548110610b6f57610b6f610fe3565b6000918252602082200154905460408088015160608901519151631293563d60e11b81529394506001600160a01b0390921692632526ac7a92610bba92909187908790600401610ff9565b602060405180830381865afa158015610bd7573d6000803e3d6000fd5b505050506040513d601f19601f82011682018060405250810190610bfb919061105c565b93505050505b919050565b60086020528160005260406000208181548110610c2257600080fd5b6000918252602090912001546001600160a01b03169150829050565b80356001600160a01b0381168114610c0157600080fd5b600080600060608486031215610c6a57600080fd5b8335925060208401359150610c8160408501610c3e565b90509250925092565b60008060408385031215610c9d57600080fd5b610ca683610c3e565b9150602083013560ff81168114610cbc57600080fd5b809150509250929050565b600080600060608486031215610cdc57600080fd5b505081359360208301359350604090920135919050565b60008060408385031215610d0657600080fd5b610d0f83610c3e565b9150610d1d60208401610c3e565b90509250929050565b60008060408385031215610d3957600080fd5b50508035926020909101359150565b600060208284031215610d5a57600080fd5b5035919050565b602080825282518282018190526000918401906040840190835b81811015610dd557835180518452602081015160208501526040810151604085015263ffffffff606082015116606085015263ffffffff60808201511660808501525060a083019250602084019350600181019050610d7b565b509095945050505050565b634e487b7160e01b600052604160045260246000fd5b6040516080810167ffffffffffffffff81118282101715610e1957610e19610de0565b60405290565b604051601f8201601f1916810167ffffffffffffffff81118282101715610e4857610e48610de0565b604052919050565b600060208284031215610e6257600080fd5b813567ffffffffffffffff811115610e7957600080fd5b820160808185031215610e8b57600080fd5b610e93610df6565b813581526020808301359082015260408083013590820152606082013567ffffffffffffffff811115610ec557600080fd5b80830192505084601f830112610eda57600080fd5b813567ffffffffffffffff811115610ef457610ef4610de0565b610f07601f8201601f1916602001610e1f565b818152866020838601011115610f1c57600080fd5b816020850160208301376000918101602001919091526060820152949350505050565b600060208284031215610f5157600080fd5b610f5a82610c3e565b9392505050565b60208082526017908201527f53656e74696e656c206c6576656c207265717569726564000000000000000000604082015260600190565b634e487b7160e01b600052601160045260246000fd5b80820180821115610fc157610fc1610f98565b92915050565b63ffffffff8181168382160190811115610fc157610fc1610f98565b634e487b7160e01b600052603260045260246000fd5b848152608060208201526000845180608084015260005b8181101561102d57602081880181015160a0868401015201611010565b50600060a0828501015260a0601f19601f83011684010191505083604083015282606083015295945050505050565b60006020828403121561106e57600080fd5b81518015158114610f5a57600080fdfea2646970667358221220e8a0951aa3170294d4cba08275e13c877a9a16cf853be6e70a6b9ff6a518847764736f6c634300081c0033",
  "linkReferences": {},
  "deployedLinkReferences": {}
}