{
  "_format": "hh-sol-artifact-1",
  "contractName": "CarmelVerifier",
  "sourceName": "contracts/CarmelVerifier.sol",
  "abi": [
    {
      "inputs": [],
      "stateMutability": "nonpayable",
      "type": "constructor"
    },
    {
      "inputs": [],
      "name": "InvalidInitialization",
      "type": "error"
    },
    {
      "inputs": [],
      "name": "NotInitializing",
      "type": "error"
    },
    {
      "anonymous": false,
      "inputs": [
        {
          "indexed": false,
          "internalType": "uint64",
          "name": "version",
          "type": "uint64"
        }
      ],
      "name": "Initialized",
      "type": "event"
    },
    {
      "inputs": [],
      "name": "initialize",
      "outputs": [],
      "stateMutability": "nonpayable",
      "type": "function"
    },
    {
      "inputs": [
        {
          "internalType": "bytes32",
          "name": "message",
          "type": "bytes32"
        },
        {
          "internalType": "bytes",
          "name": "signature",
          "type": "bytes"
        },
        {
          "internalType": "uint256",
          "name": "x",
          "type": "uint256"
        },
        {
          "internalType": "uint256",
          "name": "y",
          "type": "uint256"
        }
      ],
      "name": "verify",
      "outputs": [
        {
          "internalType": "bool",
          "name": "",
          "type": "bool"
        }
      ],
      "stateMutability": "view",
      "type": "function"
    }
  ],
  "bytecode": "0x6080604052348015600f57600080fd5b506016601a565b60ca565b7ff0c57e16840df040f15088dc2f81fe391c3923bec73e23a9662efc9c229c6a00805468010000000000000000900460ff161560695760405163f92ee8a960e01b815260040160405180910390fd5b80546001600160401b039081161460c75780546001600160401b0319166001600160401b0390811782556040519081527fc7f505b2f371ae2175ee4913f4499e1f2633a7b5936321eed1cdaeb6115181d29060200160405180910390a15b50565b610e86806100d96000396000f3fe608060405234801561001057600080fd5b50600436106100365760003560e01c80632526ac7a1461003b5780638129fc1c14610062575b600080fd5b61004e610049366004610d41565b61006c565b604051901515815260200160405180910390f35b61006a61025e565b005b60008061007c6020828789610dd1565b61008591610dfb565b9050600061009760406020888a610dd1565b6100a091610dfb565b9050878215806100be5750600080516020610e318339815191528310155b806100c7575081155b806100e05750600080516020610e318339815191528210155b156100f15760009350505050610255565b610142600160601b63ffffffff60c01b03196bfffffffffffffffffffffffd63ffffffff60c01b03197f5ac635d8aa3a93e7b3ebbd55769886bc651d06b0cc53b0f63bce3c3e27d2604b8989610364565b15156000036101575760009350505050610255565b60006101628361040f565b90506000600080516020610e3183398151915282840990506000600080516020610e31833981519152838709905060006040518060c001604052808b81526020018a8152602001600160601b63ffffffff60c01b031981526020016bfffffffffffffffffffffffd63ffffffff60c01b031981526020017f6b17d1f2e12c4247f8bce6e563a440f277037d812deb33a0f4a13945d898c29681526020017f4fe342e2fe1a7f9b8ee7eb4a7c0f9e162bce33576b315ececbb6406837bf51f581525090506000610232828585610488565b509050600080516020610e31833981519152888103820815985050505050505050505b95945050505050565b7ff0c57e16840df040f15088dc2f81fe391c3923bec73e23a9662efc9c229c6a008054600160401b810460ff16159067ffffffffffffffff166000811580156102a45750825b905060008267ffffffffffffffff1660011480156102c15750303b155b9050811580156102cf575080155b156102ed5760405163f92ee8a960e01b815260040160405180910390fd5b845467ffffffffffffffff19166001178555831561031757845460ff60401b1916600160401b1785555b831561035d57845460ff60401b19168555604051600181527fc7f505b2f371ae2175ee4913f4499e1f2633a7b5936321eed1cdaeb6115181d29060200160405180910390a15b5050505050565b600082158015610372575081155b8061037d5750858310155b806103885750858210155b1561039557506000610255565b600086806103a5576103a5610e1a565b8384099050600087806103ba576103ba610e1a565b88806103c8576103c8610e1a565b88870989806103d9576103d9610e1a565b878b806103e8576103e8610e1a565b898a090908905087806103fd576103fd610e1a565b86820891909114979650505050505050565b600060405160208152602080820152602060408201528260608201527fffffffff00000000ffffffffffffffffbce6faada7179e84f3b9cac2fc63254f6080820152600080516020610e3183398151915260a082015260208160c0836005600019fa610481576107fe60405260206040fd5b5192915050565b600080600160ff1b8415801561049c575083155b156104ae576000809250925050610d39565b600080610800604051016040526040880151610820604051015261082060405101516105b7565b6000806000808886600209898182098a8188098b82840992508b8c8d8c8d098f098d8e8b8c096003090895508b8b840993508b8a830994508b8c8260028f03098d8889090896508b8c828e03890887099150508a818c8a8509089450505082890392509650965096509692505050565b9086039086828186890908955086818803888588090894506000806000808a898a0993508a89850992508a84880991508a83890990508a84860996508a8b8860028e03098c858e038e8e8f09080893508a8a8c868e038a080994508a8b84880986089250975097509750979350505050565b60a0898101516080808c01516040519182015291820152600160c0820181905260e0909101526105f860608a01518260018060a08e015160808f01516104d5565b955093509550955061062783838789610100604051019081526020810191909152604081019190915260600152565b61063e8160a08b015160808c015186868a8c610545565b955093509550955061066d83838789610180604051019081526020810191909152604081019190915260600152565b61069d60018060208c015160008d0151610200604051019081526020810191909152604081019190915260600152565b6080890151955060a089015194506106c38160208b015160008c01516001808a8c610545565b95509350955095506106f283838789610280604051019081526020810191909152604081019190915260600152565b6107098160a08b015160808c015186868a8c610545565b955093509550955061073883838789610300604051019081526020810191909152604081019190915260600152565b61074f8160a08b015160808c015186868a8c610545565b955093509550955061077e83838789610380604051019081526020810191909152604081019190915260600152565b600089015195506020890151945061079f60608a015182600180898b6104d5565b95509350955095506107ce83838789610400604051019081526020810191909152604081019190915260600152565b6107e58160a08b015160808c015186868a8c610545565b955093509550955061081483838789610480604051019081526020810191909152604081019190915260600152565b61082b8160a08b015160808c015186868a8c610545565b955093509550955061085a83838789610500604051019081526020810191909152604081019190915260600152565b6108718160a08b015160808c015186868a8c610545565b95509350955095506108a083838789610580604051019081526020810191909152604081019190915260600152565b610400604051015195506104206040510151945061044060405101519150610460604051015192506108df8160208b015160008c015186868a8c610545565b955093509550955061090e83838789610600604051019081526020810191909152604081019190915260600152565b6109258160a08b015160808c015186868a8c610545565b955093509550955061095483838789610680604051019081526020810191909152604081019190915260600152565b61096b8160a08b015160808c015186868a8c610545565b955093509550955061099a83838789610700604051019081526020810191909152604081019190915260600152565b6109b18160a08b015160808c015186868a8c610545565b9550935095509550506109e182828688610780604051019081526020810191909152604081019190915260600152565b600091505b81610a26578286161560010360031b8360011c87161560010360021b018388161560010360011b8460011c891615600103010191508260021c92506109e6565b506040805160079290921b82018051602082015192820151606090920151610820850151919750929550919290915b8415610cce5780866002098181820982818a09838284099250838487880960608f015109848186878e8f09600309089050848885099750848784099650600285039a508485838d0986838409089a5084858387038d088209925050508281848a850908830397508291508790506002098181820982818a09838284099250838487880960608f015109848186878e8f09600309089050848885099750848784099650600285039a508485838d0986838409089a5084858387038d088209925050508281848a850908975050508488161560010360031b8560011c89161560010360021b01858a161560010360011b8660011c8b1615600103010180610b5e575094850394610cc3565b60071b828101805160609091015161086085015284610b99579083016020810151604082015160609092015192995097509094509250610cc3565b82836108608601518a09848885602001880151090861084085015290830160400151908280838b0984038487840908610840850151610c515780610c515783896002860309925083838409905083818b09610840860152838184099250838487880960608f0151099150838285868d8e09600309089150838784099650838682099550838461084087015160028703098584850908995083848b8603610840880151088309905083848a850982089850505050610cc3565b83818209915083818309905083838584890909955083838b0992508361086086015185838a09099650838485846002880309850985838703876108408a01516108408b01510908089950838284099150838482866108608901518d090985610840880151878e89038708090898505050505b8460021c9450610a55565b61088060408190526108e085905260208082526108a08190526108c08190526001198301610900526109208390529092508260c0816005600019fa610d19576107ff60405260206040fd5b808251870995508082518409925080838409925080838809965050505050505b935093915050565b600080600080600060808688031215610d5957600080fd5b85359450602086013567ffffffffffffffff811115610d7757600080fd5b8601601f81018813610d8857600080fd5b803567ffffffffffffffff811115610d9f57600080fd5b886020828401011115610db157600080fd5b959860209190910197509495604081013595606090910135945092505050565b60008085851115610de157600080fd5b83861115610dee57600080fd5b5050820193919092039150565b80356020831015610e1457600019602084900360031b1b165b92915050565b634e487b7160e01b600052601260045260246000fdfeffffffff00000000ffffffffffffffffbce6faada7179e84f3b9cac2fc632551a26469706673582212208cb1ea4945f6c0c71ac5e44434c506ffd255a143dc233ae0612b98b8c7c8bcd564736f6c634300081c0033",
  "linkReferences": {},
  "deployedLinkReferences": {}
}